:020000040800F2
:1000000000800020919E0008E19E0008B5310008A4
:10001000E19E0008E19E0008E19E0008000000004B
:10002000000000000000000000000000A1720008B5
:10003000E19E00080000000041730008A57300085D
:10004000E19E0008E19E0008E19E0008E19E000894
:10005000E19E0008E19E0008E19E0008E19E000884
:10006000E19E0008E19E0008E19E00085132000870
:1000700089320008E19E0008E19E0008E19E000828
:10008000E19E000800000000DD310008E19E00084C
:10009000E19E0008E19E0008E19E0008E19E000844
:1000A00009320008ED310008E19E0008E19E0008D9
:1000B000E19E0008E19E0008E19E0008E19E000824
:1000C000E19E0008E19E0008E19E0008E19E000814
:1000D000E19E000849320008E19E0008E19E000808
:1000E000BD310008E19E0008E19E0008E19E000885
:1000F000E19E0008E19E0008E19E0008000000006B
:1001000000000000E19E000800000000E19E0008E1
:10011000E19E0008000000000D4C0008E19E000870
:10012000E19E0008E19E0008E19E0008E19E0008B3
:10013000E19E00080000000000000000E19E0008B1
:10014000E19E0008E19E00080000000000000000A1
:10015000000000000000000000000000000000009F
:10016000000000000000000000000000E19E000808
:10017000E19E0008000000000000000000000000F8
:1001800000000000E19E00080000000000000000E8
:10019000000000000000000000000000000000005F
:1001A0000000000000000000E19E0008E19E000841
:1001B000E19E0008E19E0008E19E000800000000AA
:1001C00000000000E19E00080000000000000000A8
:0801D000E19E0008E19E000819
:1001E00010B5054C237833B9044B13B10448AFF371
:1001F00000800123237010BDAC0B00200000000024
:1002000050D3000808B5034B1BB103490348AFF3B3
:10021000008008BD00000000B00B002050D3000893
:1002200070B4840746D04C1E002941D0D5B2034695
:1002300002E0611EE4B30C4603F8015B9907F8D1B4
:10024000032C2ED9D5B245EA05250F2C45EA0545E4
:1002500019D9264603F11001103E0F2E41F8105C0B
:1002600041F80C5C41F8085C41F8045C01F11001B4
:10027000F2D8A4F1100121F00F0104F00F041031A5
:10028000032C0B440DD91E4621460439032946F898
:10029000045BFAD8211F21F0030104310B4404F060
:1002A00003042CB1D2B21C4403F8012BA342FBD1AE
:1002B00070BC70470C460346C2E7034613F8012B97
:1002C000002AFBD1181A01387047000070B54FF0B2
:1002D000FF0C4CF4E06C1CEA11541DBF1CEA1355D2
:1002E00094EA0C0F95EA0C0F00F0DEF82C4481EA3A
:1002F000030621EA4C5123EA4C5350EA013518BF5A
:1003000052EA033541F4801143F4801338D0A0FB46
:1003100002CE4FF00005E1FB02E506F00042E0FBF3
:1003200003E54FF00006E1FB03569CF0000F18BFF9
:100330004EF0010EA4F1FF04B6F5007F64F54074A1
:1003400004D25FEA4E0E6D4146EB060642EAC62134
:1003500041EA55514FEAC52040EA5E504FEACE2EA1
:10036000B4F1FD0C88BFBCF5E06F1ED8BEF1004FA4
:1003700008BF5FEA500E50F1000041EB045170BD20
:1003800006F0004646EA010140EA020081EA030164
:10039000B4EB5C04C2BFD4EB0C0541EA045170BD60
:1003A00041F480114FF0000E013C00F3AB8014F1DA
:1003B000360FDEBF002001F0004170BDC4F1000423
:1003C000203C35DA0C341BDC04F11404C4F12005A4
:1003D00000FA05F320FA04F001FA05F240EA0200FF
:1003E00001F0004221F0004110EBD37021FA04F635
:1003F00042EB06015EEA430E08BF20EAD37070BDEF
:10040000C4F10C04C4F1200500FA04F320FA05F04D
:1004100001FA04F240EA020001F0004110EBD3704F
:1004200041F100015EEA430E08BF20EAD37070BDBF
:10043000C4F1200500FA05F24EEA020E20FA04F398
:1004400001FA05F243EA020321FA04F001F0004147
:1004500021FA04F220EA020000EBD3705EEA430EB8
:1004600008BF20EAD37070BD94F0000F0FD101F0E7
:100470000046400041EB010111F4801F08BF013C20
:10048000F7D041EA060195F0000F18BF704703F05E
:100490000046520043EB030313F4801F08BF013DE5
:1004A000F7D043EA0603704794EA0C0F0CEA1355A1
:1004B00018BF95EA0C0F0CD050EA410618BF52EA5B
:1004C0004306D1D181EA030101F000414FF0000061
:1004D00070BD50EA410606BF1046194652EA43066F
:1004E00019D094EA0C0F02D150EA013613D195EAE3
:1004F0000C0F05D152EA03361CBF104619460AD12B
:1005000081EA030101F0004141F0FE4141F4700134
:100510004FF0000070BD41F0FE4141F4780170BD24
:1005200081F0004102E000BF83F0004330B54FEAA4
:1005300041044FEA430594EA050F08BF90EA020F11
:100540001FBF54EA000C55EA020C7FEA645C7FEAA4
:10055000655C00F0E2804FEA5454D4EB5555B8BFC7
:100560006D420CDD2C4480EA020281EA030382EA38
:10057000000083EA010180EA020281EA0303362DCA
:1005800088BF30BD11F0004F4FEA01314FF4801C9D
:100590004CEA113102D0404261EB410113F0004FAF
:1005A0004FEA03334CEA133302D0524263EB430366
:1005B00094EA050F00F0A780A4F10104D5F1200E04
:1005C0000DDB02FA0EFC22FA05F2801841F100015F
:1005D00003FA0EF2801843FA05F359410EE0A5F133
:1005E00020050EF1200E012A03FA0EFC28BF4CF064
:1005F000020C43FA05F3C01851EBE37101F000451A
:1006000007D54FF0000EDCF1000C7EEB00006EEB26
:100610000101B1F5801F1BD3B1F5001F0CD34908B0
:100620005FEA30004FEA3C0C04F101044FEA445207
:1006300012F5800F80F09A80BCF1004F08BF5FEA8E
:10064000500C50F1000041EB045141EA050130BD6E
:100650005FEA4C0C404141EB0101013C28BFB1F580
:10066000801FE9D291F0000F04BF01460020B1FACB
:1006700081F308BF2033A3F10B03B3F120020CDA9E
:100680000C3208DD02F1140CC2F10C0201FA0CF07C
:1006900021FA02F10CE002F11402D8BFC2F1200CE1
:1006A00001FA02F120FA0CFCDCBF41EA0C01904097
:1006B000E41AA2BF01EB0451294330BD6FEA0404E0
:1006C0001F3C1CDA0C340EDC04F11404C4F12002CB
:1006D00020FA04F001FA02F340EA030021FA04F3DD
:1006E00045EA030130BDC4F10C04C4F1200220FA34
:1006F00002F001FA04F340EA0300294630BD21FA72
:1007000004F0294630BD94F0000F83F4801306BF37
:1007100081F480110134013D4EE77FEA645C18BF2B
:100720007FEA655C29D094EA050F08BF90EA020FC2
:1007300005D054EA000C04BF1946104630BD91EABA
:10074000030F1EBF0021002030BD5FEA545C05D1BD
:100750004000494128BF41F0004130BD14F58004FC
:100760003CBF01F5801130BD01F0004545F0FE4170
:1007700041F470014FF0000030BD7FEA645C1ABFA5
:10078000194610467FEA655C1CBF0B46024650EADC
:10079000013406BF52EA033591EA030F41F4002108
:1007A00030BD00BF90F0000F04BF0021704730B58E
:1007B0004FF4806404F132044FF000054FF0000163
:1007C00050E700BF90F0000F04BF0021704730B524
:1007D0004FF4806404F1320410F0004548BF4042F9
:1007E0004FF000013EE700BF42004FEAE2014FEA4E
:1007F00031014FEA02701FBF12F07F4393F07F4F29
:1008000081F06051704732F07F4208BF704793F02B
:100810007F4F04BF41F40021704730B54FF460743E
:1008200001F0004521F000411CE700BF50EA010241
:1008300008BF704730B54FF000050AE050EA0102EA
:1008400008BF704730B511F0004502D5404261EB5A
:1008500041014FF4806404F132045FEA915C3FF49B
:10086000D8AE4FF003025FEADC0C18BF03325FEA38
:10087000DC0C18BF033202EBDC02C2F1200300FAE9
:1008800003FC20FA02F001FA03FE40EA0E0021FA0E
:1008900002F11444BDE600BF4FEA410212F5001216
:1008A00015D211D56FF47873B3EB625212D94FEAB7
:1008B000C12343F0004343EA505311F0004F23FAA1
:1008C00002F018BF404270474FF00000704750EAF6
:1008D000013005D111F0004008BF6FF000407047B3
:1008E0004FF00000704700BF00F00700C0F1070C98
:1008F000BCF1040F28BF4FF0040C031D062B8CBF66
:10090000C31E00234FF0FF3000FA0CFC21EA0C015B
:100910009940984022EA00000843704710B56030C3
:10092000445892FAA2FCBCFA8CFC0CF01F0C4FF459
:10093000007E0EFA0CFC24EA0C0C92FAA2F2B2FA37
:1009400082F202F01F0203FA02F242EA0C02425063
:1009500010BD000000B583B03A4A136823F00F03BE
:1009600043F004031360136803F00F03042BFAD160
:10097000354AD2F8803023F48073C2F8803002F513
:10098000D032136843F480731360136813F4806FDC
:10099000FBD02E4B5A6822F0FE4242F080425A6051
:1009A000D9682B4A0A4042F4AA4242F03202DA6085
:1009B000DA6828491140284A0A43DA60DA6842F0C6
:1009C0008072DA60DA6842F48032DA601A6842F0E3
:1009D00080721A601A46136813F0007FFBD01B4A1E
:1009E000936843F003039360936823F0F00343F0AC
:1009F00080039360936803F00C030C2BFAD155230A
:100A00000193019B2BB1019B013B0193019B002BA7
:100A1000F9D10E4B9A6822F0F0029A609A6822F49B
:100A2000E0629A609A6822F460529A600B4804F07F
:100A300007FD002004F014F910B903B05DF804FBC1
:100A400072B6FEE700200240007000400010024035
:100A50000C80FFF90C80FF073255004080FE210A10
:100A60002DE98048C7B004F017FFFFF773FF00239C
:100A700029932A933093319332933393349335935C
:100A800003F1804303F50433DA6C42F00402DA64C4
:100A9000DA6C02F004021692169ADA6C42F0010245
:100AA000DA64DA6C02F001021792179ADA6C42F0FB
:100AB0000202DA64DA6C02F002021892189ADA6C16
:100AC00042F01002DA64DB6C03F010031993199BF7
:100AD000874B80229A61874B596921F0F001F023FE
:100AE00093FAA3F3B3FA83F303F01F03022202FA8B
:100AF00003F30B437F4A53614FF4005428940123BE
:100B00008DF8A8308DF8AA3028A804F09FFC7A4B05
:100B1000DA6894FAA4F3B3FA83F35B00032101FAD1
:100B200003F322EA030294FAA4F17349CA600A6843
:100B300094FAA4F3B3FA83F35B00032505FA03F3F5
:100B400022EA030394FAA4F20B6080263096012770
:100B500031970024329433943494DFF8949130A97F
:100B6000484604F043FD4FF480433093319434976A
:100B700030A9484604F03AFD4FF40048CDF8C08053
:100B80003194349730A9484604F030FD5B4B9A6CA1
:100B900042F004029A649A6C02F004021492149ACD
:100BA0009A6C3A439A649A6C3A401592159A1A9440
:100BB0001B941C94289429942A942B942C942D945F
:100BC0001D941E941F94209422942394249425947D
:100BD0003294339434943594D3F8882022F04052E0
:100BE00042F08052C3F88820DA6C42F40052DA6492
:100BF000DA6C02F400521292129ADA6C3A43DA6416
:100C0000DB6C3B401393139B3097319530A94FF029
:100C1000904004F0EBFC042330933195349430A9D8
:100C20004FF0904004F0E2FC1A94CDF86C801C94D4
:100C30001AA94FF0A04004F0C5FD289429942A94E5
:100C40002B942C942D9428A94FF0A04004F0D2FDB1
:100C50004FF0A045D5F8C03023F47F5323F03F0375
:100C6000C5F8C0302B6923F480332B612B6923F442
:100C7000806323F003032B611D941E941DA920485B
:100C800004F078FD229623942494259422A92846E2
:100C900004F0DEFDEB6823F0004323F4001343F07F
:100CA0000043EB60EB6C23F4C0733343EB64AB683D
:100CB00023F0204323F03F03AB60AB6823F01043E5
:100CC00023F03F0343F08053AB600E4B1A68920948
:100CD0000D4BA3FB0232920902EB820292000B4BF6
:100CE000A3FB0213DB08092A12D9013BFDD10FE057
:100CF00000100048000001400008004800100240B9
:100D000000030050A40B0020632D3E05CDCCCCCCBD
:100D10004FF0A043DA6C22F4785242F4C062DA64F5
:100D20005A6922F4606242F400725A61D3F8B0202A
:100D300022F00802C3F8B0201A6B22F4F86242F0E5
:100D400040021A635A6922F0380242F020025A61C6
:100D5000D3F8B02022F00202C3F8B02000241D9482
:100D60001E941F94289429942A942B942C942D94A7
:100D70002294239424942594329433943494359477
:100D800003F1704303F50433D3F8882022F0405276
:100D900042F08052C3F88820DA6C42F40052DA64E0
:100DA000DA6C02F400521092109ADA6C42F00102EE
:100DB000DA64DA6C02F001021192119ADA6C42F0F4
:100DC0000402DA64DB6C03F004031A931A9B4023D9
:100DD00030930325319530A94FF0904004F006FC84
:100DE000102330933195349430A9A94804F0FEFBC8
:100DF0001D944FF400431E931F94A64D1DA9284631
:100E000004F0E0FC289429942A942B942C942D949B
:100E100028A9284604F0EEFCD5F8C03023F47F530F
:100E200023F03F03C5F8C0302B6923F480332B61D6
:100E30002B6923F4806323F003032B618023229327
:100E400023942494259422A9284604F001FDEB68FC
:100E500023F0004323F4001343F00043EB60EB6CFA
:100E600023F4C07343F08003EB64AB6823F02043AA
:100E700023F03F03AB60AB6823F0104323F03F0344
:100E800043F08053AB60844B1A689209834BA3FBF9
:100E90000232920902EB82029200814BA3FB021301
:100EA000DB08092A01D9013BFDD17A4BDA6C22F427
:100EB000785242F4C062DA644FF0A042D2F81411C2
:100EC00021F4606141F40071C2F81411D3F8B0103C
:100ED00021F00801C3F8B010D2F8301121F4F86104
:100EE00041F4A071C2F83011D2F8141121F460312C
:100EF00041F40031C2F81411D3F8B02022F02002DE
:100F0000C3F8B0200024289429942A942B942C947C
:100F10003294339434943594624BDA6C42F001028B
:100F2000DA64DB6C03F001030F930F9B0223309311
:100F30000323319330A94FF0904004F057FB2894DD
:100F4000402329932A942B942C9428A9564804F0E2
:100F50007FFD0E94504B1B68544AA2FB0323DB0C0D
:100F6000C82202FB03F30E930E9B2BB10E9B013B99
:100F70000E930E9B002BF9D14D4B5A6822F40012B0
:100F80005A601A6822F400121A60002428942994E6
:100F90002A942B942C94329433943494359403F5FE
:100FA0008633DA6C42F00102DA64DB6C03F0010391
:100FB0000D930D9B802330930323319330A94FF081
:100FC000904004F013FB2894402329932A942B94F7
:100FD0002C9428A9374804F03BFD0C942E4B1B6839
:100FE000324AA2FB0323DB0CC82202FB03F30C935F
:100FF0000C9B2BB10C9B013B0C930C9B002BF9D150
:101000002B4B5A6822F480025A601A6822F480023C
:101010001A600024289429942A942B942C943294B6
:1010200033943494359403F58633DA6C42F002023B
:10103000DA64DB6C03F002030B930B9B0123309308
:101040000323319330A91C4804F0D0FA289440239C
:1010500029932A942B942C9428A9184804F0F8FC7E
:101060000A940D4B1B68114AA2FB0323DB0CC82218
:1010700002FB03F30A930A9B2BB10A9B013B0A93E1
:101080000A9B002BF9D10A4B5A6822F0804217E0E4
:101090000008004800010050A40B0020632D3E050D
:1010A000CDCCCCCC001002400002014083DE1B43BB
:1010B0000004014004020140000400480C02014009
:1010C0005A601A6822F080421A60AE4DAB6C43F051
:1010D0000803AB64AB6C03F008030993099B00247D
:1010E0003094319432943394349435943694EB6C38
:1010F00043F48023EB64EB6C03F480230893089B98
:10110000A14BD86822462146C0F30220FFF7ECFB32
:101110000301DBB29D4A82F836334FF480035360FB
:101120009B4FFB6B23F40073FB6330943194329438
:10113000022634964FF00109CDF8D490369430AAA7
:101140009449384604F0DAFD3B6823F002033B6023
:10115000FB6B23F48073FB63FB6B23F00073FB6377
:1011600030AA8D49384604F0C9FD3B6823F40033AA
:101170003B60FB6B23F08073FB63309431943294BB
:101180003394349435943694289429942A942B9447
:101190002C942D94D5F8883023F44033C5F888304A
:1011A000EB6C43F00403EB64EB6C03F00403069375
:1011B000069B4FF48073289329962A94CDF8AC901F
:1011C0002C9408272D97DFF8E4A128A9504604F0B5
:1011D0000DFA4FF40073289329962A94CDF8AC9019
:1011E0002C942D9728A9504604F000FAAB6D43F0DB
:1011F0008043AB65AB6D03F080430793079B30944E
:10120000664B319332943394349435943694DFF8AA
:10121000A08130A9404604F0CBFDD8F8043043F05B
:101220000073C8F80430D8F80C3023F4FF6323F0BF
:101230000603C8F80C30D8F80C3023F40043C8F883
:101240000C30D8F8003023F40023C8F80030D8F868
:10125000003023F40033C8F80030514A536843F497
:1012600080035360289429942A942B9432943394C5
:1012700034943594EB6C43EA0903EB64EB6C03EABA
:1012800009030593059B30964FF00308CDF8C48001
:1012900030A94FF0904004F0A9F904233093CDF821
:1012A000C480349430A94FF0904004F09FF93097F7
:1012B000CDF8C480349430A94FF0904004F096F9F2
:1012C000289429942A942B94364F28A9384604F060
:1012D000A7FDBB6923F03803BB613B6823F480732F
:1012E0003B603B6823F010033B60289429942A94C8
:1012F0002B943294339434943594EB6C43EA090381
:10130000EB64EB6C03EA09030293029BEB6C43F082
:101310000403EB64EB6C03F004030393039BEB6C9B
:101320003343EB64EB6C33400493049B40233093D2
:10133000CDF8C48030A94FF0904004F057F98023D5
:101340003093CDF8C480349430A94FF0904004F02D
:101350004DF94FF0200BCDF8C0B0CDF8C4803494D7
:1013600030A9504604F042F9CDF8C090CDF8C480C1
:10137000349430A90C4804F039F9289429942A941B
:1013800018E000BF0010024000ED00E000E100E0C6
:101390000010005001001102F2004235722180005D
:1013A000000001400003014000040048000800481C
:1013B00000780040CDF8ACB028A9BF4804F030FD5B
:1013C000FB6923F03803FB617B6823F480737B6047
:1013D0007B6823F010037B601D945A46214628A8A1
:1013E0000BF0AEFF3022214630A80BF0A9FF22946B
:1013F000239424942594269427942B6E43F400631D
:101400002B662B6E03F400630093009BCDF878B03D
:1014100041F29A031F934FF480732093CDF8849088
:1014200007F524571DA9384604F03AFF3B6823F01E
:1014300080033B60DFF88CA2DFF88C82D8F8183C80
:1014400043F00803C8F8183C6023289329942A9491
:1014500040F64D032B932C942D942E942F9428AA70
:101460004946384604F09CFFD8F8183C23F00403A2
:10147000C8F8183CD8F8183C43F40063C8F8183C86
:1014800028AA1021384604F08BFFD8F8183C23F422
:101490008063C8F8183CDAF8043043F00803CAF84F
:1014A000043028AA4FF48071384604F079FFDAF846
:1014B000043023F00403CAF80430DAF8043043F4AB
:1014C0000063CAF804307023289341F299032B93E8
:1014D00028AA4FF48051384604F062FFDAF804304D
:1014E00023F48063CAF804307B6823F0007323F090
:1014F000700343F070037B607B6823F470037B60B0
:10150000BB6823F08003BB60234632462146384641
:10151000FFF704FAD8F8603C3343C8F8603C234630
:10152000042221463846FFF7F9F9D8F8603C43F029
:101530000403C8F8603C2346102221463846FFF7D2
:10154000EDF9D8F8603C43F01003C8F8603C4FF464
:10155000006330934FF48068CDF8C48032943F2309
:101560008DF8CC304FF4805AADF8CEA04FF400592E
:10157000CDF8D0904FF440333593369437944FF0F4
:10158000007338934FF4401339933A943B9430A945
:10159000384605F0A7F8EB6C43F01003EB64EB6CF6
:1015A00003F010030193019B4FF480732293239661
:1015B0002496259426962796404F22A9384604F073
:1015C00015F84FF4007322932396249625942696BB
:1015D000279622A9384604F009F8CDF8888023968A
:1015E000249625942696279622A9384603F0FEFFD6
:1015F0004FF40063229323962496259426962796EB
:1016000022A9384603F0F2FFCDF888A0239624964D
:1016100025942696279622A9384603F0E7FFCDF8B1
:1016200088902396249625942696279622A93846B4
:1016300003F0DCFF5A46214630A80BF081FE2A94C5
:101640002B942C94D5F8883023F00303C5F8883008
:101650002B6E43F480432B662B6E03F480431D9363
:101660001D9BEB6C43F00103EB64EB6C03F0010397
:101670002293229B4FF400732893299607252D95DA
:1016800028A94FF0904003F0B1FFCDF8A080299633
:101690002A942B942C942D9528A94FF0904003F078
:1016A000A5FF074BD3F8002822F0FF0242F01802F2
:1016B000C3F800280AE000BF0403014000100048FE
:1016C00000000240182C0140002001409A6822F4DA
:1016D000804222F010029A609A6822F440529A6086
:1016E0009A6822F020029A609A6822F040029A607A
:1016F0009A6842F080029A609A6822F440729A6076
:101700009A6822F440629A60D3F8042822F0FF021B
:1017100042F01902C3F80428DA6922F4804222F068
:10172000100242F01002DA61DA6922F44052DA6102
:10173000DA6922F02002DA61DA6922F04002DA6125
:10174000DA6942F08002DA61DA6922F44072DA6121
:10175000DA6922F44062DA6130944FF4E133319374
:101760003294339434940C2335933694379430A9BF
:10177000514804F0F3FF514A52E8003F23F0604320
:1017800042E800310029F7D152E8003F23F06063BE
:1017900042E800310029F7D1474B1A6822F0005285
:1017A0001A605A6822F490425A609A6822F02A021B
:1017B0009A601A6842F001021A601A46D36913F45B
:1017C000001FFBD0D36913F4800FF7D000F08EF820
:1017D0003B4DE86800220821C0F30220FFF784F89F
:1017E0000301DBB2374C84F8253320236360E868BB
:1017F00000220821C0F30220FFF776F80301DBB2D4
:1018000084F80B334FF400632360E8680022092159
:10181000C0F30220FFF768F80301DBB284F8183345
:101820004FF080732360E86800220521C0F3022096
:10183000FFF75AF80301DBB284F819334FF0007355
:101840002360E86800220721C0F30220FFF74CF86C
:101850000301DBB284F812334FF480232360E8687D
:1018600000220821C0F30220FFF73EF80301DBB29B
:1018700084F828334FF48073636003F0E7FB124C65
:1018800041AD26460FCE0FC533682B60002141A81D
:1018900005F089FB0D4B18603CAD14340FCC0FC51F
:1018A00023682B6000213CA805F07DFB084B1860E5
:1018B00005F074FBFEE700BF003801400838014026
:1018C00000ED00E000E100E068D30008C80B002054
:1018D000CC0B002008B50268034B9A4200D008BD2B
:1018E00003F0F0FFFBE700BF0010004008B503481D
:1018F00000F0B2F800F064FA08BD00BFD00B002081
:1019000008B503F0EBFF034BA3FB0030C00904F064
:101910008BF808BDD34D6210224A936823F440131C
:1019200023F0700343F010039360936823F4803333
:1019300023F0070343F0060393601B4B9B6D13F0EA
:10194000010F16D182B0184B9A6D42F001029A65D0
:101950009A6D02F001020192019A4FF080414A69AA
:1019600042F001024A619A6D22F001029A6502B0CA
:1019700070474FF0804359685A6822F0007222F095
:10198000700242F020025A605A6942F001025A6124
:101990005868064A0A4020F0007121F070010A439D
:1019A0005A607047002C0140001002407000000295
:1019B00010B502F1010E4FEA5E0E4FEA4E1E6FF0B7
:1019C000020202614FF0000C14461A78D2B20F2ABC
:1019D00010D8026912F0020FF7D004610CF1010C6B
:1019E0001FFA8CFCE645F0D81A78D2B20F2AECD850
:1019F00001230B8010BD000008B5024B186801F0F0
:101A000023FB08BDD00B002008B5024B186801F07D
:101A100033FB08BDD00B002008B5024B186801F05D
:101A200048FB08BDD00B002008B5024B186801F038
:101A300005FB08BDD00B002010B582B0049C0194BA
:101A4000009313460A460146024809F0ABF802B07B
:101A500010BD00BF00030020002844D0F0B583B0C3
:101A6000214E00273770214C046000F091FA204885
:101A700002F07CFF1F4806F01AF91F4806F07EFFAF
:101A80001E4800F0B5FF1E4806F0EAF91D4800F0B8
:101A9000AFFF1D4806F0D2F81C48A06202F0CAFC55
:101AA0001B4C204605F022FD204605F0DAFF0323FB
:101AB0008DF8003001258DF801508DF802700099E5
:101AC000204605F0D2FE8DF804508DF8055001999E
:101AD000204605F061FF204605F07AFE03F093F8FA
:101AE000357003B0F0BD7047C61E00203C000020DA
:101AF000B00A002060010020280A0020180A0020F7
:101B0000D0090020EC090020FC090020040C002072
:101B1000000C002038B505460C46074801F08EFA47
:101B200008B1002038BD044801F08EFA0028F9D031
:101B3000024BDD821C83F5E73C000020D40B002023
:101B400038B5234B1B78BBB1224B1B88ABB1013B93
:101B5000204A1380204B1B889BB223B11E4A138856
:101B6000013B9BB213801D4B1B889BB223B11B4AC8
:101B70001388013B9BB2138038BD194C01212046CC
:101B800002F08CFC00F032FB0121204602F0B2FC96
:101B900003F03AF8134C214651F80C0B8368984730
:101BA000606030B1214651F8080B03680A2298475B
:101BB00018B9084B01221A80CCE7204602F060FBDE
:101BC000206845680A23E289A168A847F1E700BFB9
:101BD000C61E0020CA1E0020C81E0020CC1E0020E9
:101BE000040C00208C0A0020014B1880704700BFB5
:101BF000C81E0020034B188880B2B0FA80F040095C
:101C0000704700BFC81E0020014B1880704700BFFE
:101C1000CC1E0020034B188880B2B0FA80F0400937
:101C2000704700BFCC1E002008B50C4B5A680C4B07
:101C30009A60002000F0BCFC0A4A1368013313606C
:101C4000094B93F829302BB90021054802F032FCEA
:101C5000002008BD044808F013F8F5E7001000E084
:101C6000040C002030620020600A002038B50546D0
:101C700090B1234B186800F090FE01462C23214CB4
:101C800003FB0544CA4392B2204601F090F9204676
:101C900001F023FAE0B938BD1B4800F047FF0146C8
:101CA0001A4805F0DBFF0446154B186800F075FE76
:101CB00004F00E0440EA04018CB2154800F036FF2F
:101CC0000146144806F0FBF800F00E012143D5E769
:101CD000114808F0FBFF114808F0AEFA084B53F822
:101CE000250000F010FE0E4B93F829301BB9284652
:101CF00000F008F9CFE70A4808F096F8F7E700BFC8
:101D0000380C00203C000020EC090020FC090020D9
:101D1000180A0020D00900200003002068000020DD
:101D2000600A002008B5074B1B78DBB2012B00D0FE
:101D300008BD054809F016F80020FFF797FF00F0EE
:101D4000B1FFF5E7C61E00200003002008B50748D4
:101D500008F0BCFF064808F06FFA002000F0D2F847
:101D600000228021034801F022F908BD0003002071
:101D7000680000203C00002008B5642005F09EF8B3
:101D80001E22002141F28830FFF7C4FE01242046C4
:101D900005F094F8FFF7D4FEF9E708B501242046D2
:101DA00005F08CF8FFF7BEFFF9E708B5FFF73CFE3A
:101DB00010B9FFF721FE08BDFFF726FEFBE7000084
:101DC00030B490B0444A454BD3611021D161D36106
:101DD000D3690F930F9B4FF090434FF00111D961DE
:101DE0000120D861D961DC690E940E9C3C4CDC6109
:101DF0008025DD61DC61DC690D940D9C394CDC6172
:101E00000225DD61DC61DC690C940C9C364CDC61E4
:101E10000825DD61DC61DC690B940B9C334CDC61D3
:101E20000425DD61DC61DC690A940A9C304CDC61CC
:101E30004025DD61DC61DB690993099B2D4BD36192
:101E40002024D461D361D3690893089B2A4BD961BC
:101E5000D861D961DB690793079B284B4FF4813226
:101E6000DA614FF40071D961DA61DA690692069A93
:101E70004FF48432DA614FF40061D961DA61DA69D2
:101E80000592059A4FF48232DA614FF48061D9618C
:101E9000DA61DA690492049A4FF49032DA614FF40D
:101EA0000051D961DA61DA690392039A4FF48832FA
:101EB000DA614FF48051D961DA61DA690292029AEB
:101EC0000F4ADA614FF48071D961DA61DB690193FD
:101ED000019B10B030BC70470008004810000100A2
:101EE0008000010002000100080001000400010060
:101EF00040000100200001000004004800100048DC
:101F00000001010038B505461A49262200FB02F2FD
:101F10008B1800248C525C809C80DC809C81DC814E
:101F20001C825C82DC83DC821C835C839C831C843B
:101F30002146114B53F8200005F0CDFE21460F4BF2
:101F400053F8250005F0C7FE0D4B53F8250006F0A9
:101F50008BF90C4B53F8250000F0D5FC0A4B53F8D5
:101F6000250008B105F0D2FD2946084802F086FA9E
:101F700038BD00BFD40B0020C8090020C4090020D0
:101F8000CC090020380C0020BC090020040C0020E3
:101F90002DE9F04F85B0DFF85C914648C9F80000A4
:101FA00007F008F9FFF7B8FC434F384605F07FFE0D
:101FB000424E304606F0FCFB414D32463946286819
:101FC00006F03EF9D9F8003000933E4B3E4A2968AE
:101FD0003E4806F027F83E4805F069FE3D4805F00A
:101FE00066FE3D4B1B68DFF81081C3F80C803B4C4C
:101FF0009C60DFF808B1DFF808A1DBF80030DAF800
:10200000002041463648006805F073FD3548364BE0
:10201000186005F082FF3548D9F800300360C0F839
:1020200004808460DFF8DC80C0F80C80264B0361FC
:102030002F4B4361DBF800308361DAF80030C36175
:10204000224B03624662DFF8C0B0C0F828B0DFF868
:10205000BC90C0F82C904FF0000AC0F830A008F0F7
:1020600013FDC9F80060C9F80440C9F80870C9F840
:102070000CB0484608F068F85046FFF743FF0123CC
:1020800084F82430286806F077F92082C0F30F40E6
:102090006082286806F070F9C0F30F40A0822868BB
:1020A00006F06AF9524601B2404600F075FF05B0ED
:1020B000BDE8F08F9C010020600100206008002036
:1020C000CC0900204C080020280A002088020020AB
:1020D0003401002008010020C0090020D40B00209A
:1020E000BC09002040020020FC0B0020000300205F
:1020F00000000020380C0020D0090020C809002072
:10210000C40900203C00002088090020680000204D
:1021100010B504460C4B53F8200006F000FF0B48A6
:1021200008F0D4FD0A4808F087F82046FFF7EAFED9
:102130004FF44870FFF768FD06482C2303FB0404A6
:102140000823E37710BD00BF380C002000030020F7
:10215000680000203C000020FF2807D008B5044B91
:1021600053F8200008B105F027FD08BD704700BFF7
:10217000BC09002030B583B0044672B6184B262245
:1021800002FB003318690190B3F9105062B693F85E
:1021900024305BB172B6ADF804501148262303FB1E
:1021A00004040198206162B603B030BD0D4B53F8B2
:1021B000240006F0B9F80546094B262202FB043339
:1021C000D883094B53F824000028E3D0ADF804501D
:1021D000044B53F82420019905F09CFCDAE700BF7A
:1021E000D40B0020CC090020BC09002070B584B0BD
:1021F0000023ADF80E300DF10E01B34806F0C0F922
:102200000446B24B186805F0DBFDB14800F01AFF38
:1022100038B1AF4B0A22DA77AE480AF031FA04B08F
:1022200070BDAB4800F00CFF002840F0AE81A84B19
:10223000DB7F142BF0D801A252F823F09122000882
:102240001922000819220008192200088923000811
:10225000192200089724000819220008F924000810
:1022600019220008332500081F250008192200083C
:102270001922000819220008192200082923000841
:10228000EB22000819220008232400083B2500083F
:102290008F4B9B7F03F0FD03012BBDD18C4800F0D9
:1022A00024FF01468C4805F0EBFE8C4B186890F833
:1022B0007F304BB9002100F02EFB854B1122DA77DD
:1022C000874807F0A5FFA7E70121A0F8601000F0FC
:1022D00022FB0021814B186806F0A1FD1420FFF7B6
:1022E00083FC7B4B1022DA77EAE7794B9B7F052B47
:1022F0000ED00121794B186800F00DFB00288BD01F
:10230000734B9B7F032B07D0714B1422DA7783E743
:102310000020FFF7FDFE7FE70020FFF7F3FD6C4B89
:1023200000229A77DA7777E7694B9B7F052B27D0D6
:10233000FFF760FC00283FF46FAF684C206806F0A0
:10234000EEFD684B012283F824206749674B18682B
:1023500005F088FF5C4806F0F7F9206800F058F9AE
:102360000020FFF7CFFD5B4808F0C4FC206800F0B8
:10237000CEFA574B0422DA77206800F0C8FA4BE710
:102380000020FFF7C5FE47E7514B9B7F052B3AD056
:10239000514805F0BFFE002839D1534D0DF106011B
:1023A000284606F044FB484E0DF10601304606F083
:1023B00037FA0446464800F098FE41B2304606F02F
:1023C000C4FA2146284606F0BDFB002C3FF424AF9A
:1023D000444DB6F90410686800F05EFD0290444C6C
:1023E000206805F09AFD0022B5F91010206805F06C
:1023F000D5FD1922BDF90810206805F0CFFD344B3A
:102400001322DA7708E70020FFF782FE04E7374B54
:10241000186805F089FF334BB3F9142018825A82EB
:10242000BBE72B4B9B7F052B31D02F4D02A92846B4
:1024300006F0FDFA0446284606F096FB14B900287B
:102440003FF4EAAE274BB3F910502A4C204605F072
:102450004AFC01B205FB01F1204605F03CFC204896
:1024600008F0EEFA214C1849206805F0FBFE002028
:10247000FFF772FE0020FFF77DFE206805F089FF60
:10248000134C204600F09CFD0623E377C4E60020B1
:10249000FFF73EFEC0E60E4B9B7F052B0AD00C4893
:1024A00000F08EFD0020FFF765FE3CB10C4807F000
:1024B000C7FEB1E60020FFF72BFEADE6002220218B
:1024C000034800F074FDF1E760080020C009002017
:1024D0003C0000200003002088020020380C00206F
:1024E00068000020D40B0020280A0020CC0900201E
:1024F000FC0B002060010020FFF78CFB00283FF45C
:102500008BAE244C2146244B186805F0ABFE2046C8
:1025100006F01EFA214B00229A77DA777CE61F4BF1
:102520009B7F022B7FF478AE1C4B00229A77DA77E0
:1025300072E61A4B0B22DA776EE6184B9B7F052B5F
:102540001FD017480AF006FD00287FF465AE154B32
:10255000012283F824200F490F4B186805F082FEF2
:10256000114806F0F1F80020FFF7CCFC0C4808F009
:10257000C1FB0E4B186800F0CAF9084B0422DA7749
:102580004AE60020FFF7C4FD46E6044B0B22DA774B
:1025900042E600BF280A0020CC0900203C000020B1
:1025A00000030020D40B002060080020380C00201D
:1025B00000B583B0114BDB7F132B12D000F0F6FB7C
:1025C00000F0A4FB0E4B1868036801A99847019816
:1025D0000C4B18600C4808F0D1FD002003B05DF8EA
:1025E00004FB0A4B186805F0B6FC0028E6D1074B3F
:1025F000186805F09AFC034B1882DFE73C000020C6
:10260000380C0020D40B002000030020FC0B00201D
:102610000023A0F86830A0F86A30A0F86C3083631B
:102620004363704730B583B00B46019109B2B0F8EF
:102630004EC00CFB01FCB0F870E019140EFB01F168
:10264000C1EBC1714D000CEB410404EBD47252108C
:10265000CCEB410101EBD1735B10B4F1FF3F40DBE8
:10266000B1F1FF3FC0F2E380012580F87A50D21A21
:1026700044BF02F57F3202F2FF324FEA9E0303EBC2
:10268000A2430A460029BCBF01F57F3202F2FF32A5
:1026900003EBA24C2246002CBCBF04F57F3202F2B1
:1026A000FF32A3EBA24290F88510002900F0B88019
:1026B0000221A0F858100021A0F85A100121A0F81A
:1026C0005C1023EAE373A0F850302CEAEC73A0F816
:1026D000523022EAE272A0F854204369984703B0CE
:1026E00030BDB1F1FF3F2EDB002D5FDD022380F80E
:1026F0007A30521B44BF02F57F3202F2FF324FEABA
:102700009E0303EBA2432246002CBCBF04F57F329C
:1027100002F2FF32A3EBA2422946002DBCBF05F511
:10272000FF3101F2FF1102EB614C90F88510002996
:102730006FD00021A0F858100221A0F85A100121F2
:10274000A0F85C10BDE7042580F87A50D21A44BF87
:1027500002F57F3202F2FF324FEA9E0303EBA243FF
:102760000A460029BCBF01F57F3202F2FF3203EBBB
:10277000A24C2146002CBCBF04F57F3101F2FF3191
:10278000A3EBA14290F8851049B10121A0F858109F
:102790000021A0F85A100221A0F85C1091E7A0F8DF
:1027A0005820A0F85A30A0F85CC08AE7032280F8CD
:1027B0007A20EA1A44BF02F57F3202F2FF324FEA72
:1027C0009E0303EBA2430A460029BCBF01F57F32FA
:1027D00002F2FF3203EBA24C2A46002DBCBF05F5E6
:1027E000FF3202F2FF12ACEB624290F8851049B161
:1027F0000021A0F858100121A0F85A100221A0F8D9
:102800005C105EE7A0F85820A0F85AC0A0F85C3031
:1028100057E7A0F858C0A0F85A20A0F85C3050E75D
:10282000A0F858C0A0F85A30A0F85C2049E7002D65
:102830002FDD002280F87A20EA1A44BF02F57F32A9
:1028400002F2FF324FEA9E0303EBA2430A4600293D
:10285000BCBF01F57F3202F2FF3203EBA24C2946E6
:10286000002DBCBF05F5FF3101F2FF11ACEB614259
:1028700090F87D1019B990F8851000293CD00221FC
:10288000A0F858100121A0F85A100021A0F85C10FF
:1028900017E7052380F87A30521B44BF02F57F32D8
:1028A00002F2FF324FEA9E0303EBA2432246002CC2
:1028B000BCBF04F57F3202F2FF32A3EBA2422946ED
:1028C000002DBCBF05F5FF3101F2FF1102EB614C99
:1028D00090F8851049B10121A0F858100221A0F804
:1028E0005A100021A0F85C10EBE6A0F85830A0F8D0
:1028F0005A20A0F85CC0E4E6A0F85830A0F85AC00E
:10290000A0F85C20DDE608B54368984708BD08B527
:102910008368984708BD10B5044619B1012908D04D
:10292000002010BDFFF7EFFFE36820469847012025
:10293000F7E7B0F8603043B1013B9BB2A0F86030DC
:102940002BB9C36898470120EBE70120E9E7002095
:10295000E7E790F883301BB990F87B30022B04D066
:10296000012380F8803078307047C36BB0F848207E
:102970009A62036CB0F84A209A62436CB0F84C201B
:102980009A62EDE74B6C43F480634B64012380F85B
:10299000813080F8833078307047034690F881208A
:1029A000A2B1002280F88120022093F8802022B179
:1029B00040F04000002283F8802093F8822022B16A
:1029C00040F48060002283F8822070470020ECE70A
:1029D00008B5C369984708BD08B5036A984708BD9C
:1029E00008B5436A984708BD08B5836A984708BD8B
:1029F00070B54B490023FF2406E0042C88BF1C4619
:102A00000133DBB2042B7BD051F8042B002AF4D025
:102A100092F804E090F804C0E645F1D11568026828
:102A20009542EDD1032B69D81A463D4941F8230060
:102A30003C49002441F8334001688C6814F0010FD0
:102A40002CD14C6824F004044C60016804240C6010
:102A50000468616821F020016160016820240C6035
:102A60000468A16821F0404121F03F0141F000419C
:102A7000A1600468A1680029FCDB216811F0010F46
:102A80000CD1A16821F0004121F03F0141F001018A
:102A9000A1600468216811F0010FF2D0224902EB15
:102AA0004204650001EB44044FF0000C01F805C03E
:102AB0006371237101680A6B22F00F020A630468D4
:102AC000017909291ED801EB41058A0642EA05521F
:102AD000012505FA01F10A43D50D05F0040514346A
:102AE0002959C2F304524FF0070C0CFA02FC21EAF8
:102AF0000C01866806FA02F20A432A51037370BD7C
:102B000023468FE701EB4102A2F11E0501228A4014
:102B100042EA055242EA816242F00072DCE700BFFD
:102B2000141F0020D01E0020F01E002030B4027BB5
:102B300002EB4201574B13F81130002B3CD104211A
:102B4000544D06E019460133DBB2042B79D0032B38
:102B50001DD803EB430415F81440002CF3D003EB0D
:102B6000430105EB410149799142EBD9494C02EB14
:102B7000420504EB450569712B7103EB430004EB3F
:102B80004000427101EB410104EB41010A71414BEC
:102B900002EB420103EB4100012403F81140002144
:102BA00041703D49097801EB410103EB41035B783A
:102BB000A3421CBF384B1A70384B93F8A030002B3F
:102BC00037D1374B53F8220004680179092954D8CA
:102BD00001EB41058B0643EA0553012505FA01F196
:102BE0000B43216B1B0D03F4F86321F4F8610B43D5
:102BF000236301680B6C8B6823F0004323F03F03D1
:102C000043F004038B60264B53F822301B6819688D
:102C100011F0040FFBD0186C02EB42031D4901EBCD
:102C2000430320F00F01598058791B490870022195
:102C3000597002EB4202174B03EB4202508830BC42
:102C40007047042916D0134B01EB410003EB400001
:102C5000407902EB420403EB44046071217101EB03
:102C6000410103EB41014A7100EB400003EB4003DB
:102C70001A718CE7084B1A7089E701EB4103A3F145
:102C80001E0501238B4043EA055343EA816343F069
:102C90000073A6E7F01E0020101F00209C010020FA
:102CA000141F002070B5144B1C681CB1134B1B780B
:102CB000012B00D070BD257B2046FFF737FF014672
:102CC0000F4B188005EB45020E4B03EB42035B787C
:102CD00013B10A4B02221A700B4B53F83560002EC9
:102CE000E8D0064B00221A70074B03EBC5056A6853
:102CF0002046B047DEE700BF081F00200C1F002061
:102D00000E1F0020F01E0020D01E0020244B1A7839
:102D100002EB4201234B13F81130002B3FD010B4CB
:102D2000214B53F8221009680420086053F8220050
:102D300004680179092925D801EB410C8B0643EA87
:102D40000C534FF0010C0CFA01F10B43216B1B0DDE
:102D500003F4F86321F4F8610B43236301680B6CFF
:102D60008B6823F0004323F03F0343F004038B60A0
:102D700002EB42020B4B03EB4202012353705DF85E
:102D8000044B704701EB4103A3F11E0C01238B4060
:102D900043EA0C5343EA816343F00073D6E770477C
:102DA000101F0020F01E0020141F0020174B1B785E
:102DB00003EB4301164A12F811202AB310B4154A46
:102DC00052F82320106804680A46114901EB4202B8
:102DD000527812F0FD0F0CD014F0040F09D0006CE3
:102DE00003EB430201EB420220F00F01518002216C
:102DF000517003EB4303064A02EB43035A79034B3A
:102E00001A705DF8044B7047704700BF101F002018
:102E1000F01E0020141F002084B001B2001444F6FC
:102E2000E61202FB00F002FB01F35B42A3EB40035E
:102E3000B3F1804F05DADA1312F5004F10DB13B24D
:102E400001E047F6FF73074A9342B8BF13460020DC
:102E500089B261F30F009BB263F31F4004B0704767
:102E6000014BF0E70180FFFF0080FFFF82B0094BBC
:102E70004FF060121A6000F1FF4000F5FE0058604C
:102E80009B6800209AB262F30F001B0C63F31F4093
:102E900002B07047000C024030B585B0019004B21A
:102EA00005140846FFF7E2FF03B2021403FB04F027
:102EB00002FB1500B0F1804F05DAC11311F5004F88
:102EC00014DB09B201E047F6FF7112488142B8BF36
:102ED000014605FB03F002FB0400C313B0F1804F71
:102EE00006DA13F5004F12DB1BB203E00A49ECE7E8
:102EF00047F6FF73074A9342B8BF134600208AB2D1
:102F000062F30F009BB263F31F4005B030BD024B6C
:102F1000F0E700BF0180FFFF0080FFFF30B585B004
:102F2000019004B205140846FFF7A0FF03B2001495
:102F300000FB05F203FB042205FB03F300FB143343
:102F40000020C2F3CF3262F30F00C3F3CF3363F339
:102F50001F4005B030BD0000002809DD72B6054BEA
:102F600040F269121A6058609868C00B62B67047E8
:102F700000207047000C024082B08DED010A0198DC
:102F800002B0704701230373C181828380F824302B
:102F9000032380F825307047022303730182828364
:102FA000012380F82430042380F825307047038CF7
:102FB0000B4323EA02030384438C19434184704783
:102FC00090F82430012B00D0704710B50446037BE5
:102FD000022B18D0032B25D0012B03D0032384F818
:102FE00024302AE04368002283F82420032100686B
:102FF00005F047F9A28BB4F90E10206805F046F9E8
:103000000028EBD016E04368002283F82420042136
:10301000006805F036F9A28BB4F91010206805F0AD
:1030200035F9EDE74368012283F824204368D0F89E
:1030300012201A61022384F8243010BDC07F70472B
:10304000408C7047008C704710B50446FFF7F6FFC0
:1030500008B1002010BD2046FFF7F2FF08B10020A4
:10306000F8E72046FFF7EEFF20B90120A07784F8AB
:103070002400EFE70020EDE738B50546FFF7DEFF57
:1030800050B1B0F10C0418BF01242846FFF7D8FF57
:1030900020B10024204638BD0024F6E72846FFF77B
:1030A000D1FF20B9002CF5D00523AB77F2E700243F
:1030B000F0E710B50446FFF7C1FF0B2801D0002050
:1030C00010BD2046FFF7BEFF28B90023638402230A
:1030D000A3770120F4E70020F2E7438C008C43EA59
:1030E0000040704790F825007047037B022B0DD0FD
:1030F000032B13D0012B01D001207047B0F90E3003
:10310000002BACBF01204FF0FF307047B0F91030FA
:10311000002BACBF01204FF0FF307047B0F91230E8
:10312000002BACBF01204FF0FF307047B0F90E000C
:103130007047808B704703680022DA609A6170479D
:1031400008B50368586905F038F808BD08B5006887
:1031500005F094F808BD82B04368D3F81600002348
:1031600082B262F30F03000C60F31F43184602B0F3
:10317000704782B04368D3F81A00002382B262F32A
:103180000F03000C60F31F43184602B070474368FA
:10319000B3F91E00704710B54468006805F0ECF8FC
:1031A0002082C0F30F40608210BD08B5806A01F034
:1031B00065F908BD08B5FEF7C9FDFEE708B5064B81
:1031C0005B6913F4005F00D108BD034B4FF400525C
:1031D0005A61FEF7EAFDF7E70004014008B54FF039
:1031E000A04340221A60FEF71FFD08BD08B5044B3E
:1031F0006FF001021A61034806F086FB08BD00BFAC
:10320000002C01409C01002008B50D4B1B6913F0F8
:10321000800F06D00A4B6FF080021A610948FFF751
:1032200098FB074B1B6913F4807F06D004496FF4A9
:1032300080730B610348FFF7A5FBFEF781FC08BD17
:10324000002C01409C01002008B502F081F808BD67
:103250000C4B1B6813F0040F02D00A4B04225A6077
:10326000084B1B6813F0020F02D0064B02225A6073
:10327000044B1B6813F0080F02D0024B08225A605F
:10328000704700BF000002400D4B1B6813F0200F79
:1032900009D00B4B20225A60DA6922F00102DA6170
:1032A000084B00221A70064B1B6813F0800F06D0E3
:1032B000034B80225A60DA6922F00102DA6170471A
:1032C000000002404020002018293CD011D80829D5
:1032D00023D0102942D1B0F5656F30D024D9B0F594
:1032E000696F2ED041F65832904214BF0520042059
:1032F00022E0282932D11288023292B21A80BDF817
:1033000000108A4226D8E8282CD020F0800080B215
:10331000282814BF05200420704748280CBF04202B
:10332000052001221A80704720F0400080B2B0F5DD
:10333000B26F14BF0520042002221A8070470020BB
:10334000FAE70020F8E718280CBF04200520042223
:103350001A80704700221A800A20704700221A80C3
:10336000072070470420704770B582B01C461829AA
:1033700000F0908129D8082944D0102940F07082AB
:103380001588B0F5F26F00F06F8140F2A880B0F5BB
:10339000796F00F06B8140F2EC8041F61043984267
:1033A00000F0588140F2128141F65043984218BF14
:1033B000052040F0DB80A04B5A68C5EB05435188DF
:1033C00093FBF1F353820020D0E0282940F048829B
:1033D000138802339BB22380BDF818108B4200F291
:1033E0002D82B0F5D47F00F02D8200F23D82E828D6
:1033F00000F03C8220F0800080B2282814BF052015
:1034000004209CE1B0F5916F4ED01BD888282ED0B7
:1034100009D9B0F5816F5CD00CD9B0F5896F14BFB4
:103420000520042003E0482814BF052004200123C0
:10343000238084E1C8284ED0B0F5727F14BF0520E8
:103440000420F4E7B0F5E96F05D111787A4809F066
:1034500037FF0020EBE701D90520E8E7B0F5996FC9
:103460003BD0B0F5A16F14BF05200420DFE713782F
:10347000042B03D0032B0CD00020D8E76F4D284637
:10348000FFF785FE014600222846FFF785FD002054
:10349000CDE76A4D2846FFF759FE0146002228462F
:1034A000FFF770FD0020C2E715782946644804F054
:1034B000C5FE2946634804F0C1FE07EE905AF8EEB7
:1034C000677A5D4BC3ED127A5F4B83F8765000202C
:1034D000ADE70420ABE70420A9E70420A7E7B0F597
:1034E000547F00F093800DD9B0F58A6F00F09D8075
:1034F0001DD9B0F5926F2ED129B2544804F0E1FBEA
:10350000002033E0D0287BD0B0F5887F05D129B2E8
:103510004F4804F003FC002028E0902818BF052045
:1035200024D129B24A4804F0CCFB00201EE0B0F5BB
:10353000647F18BF052019D1414E0DF1060201A983
:10354000304605F0E3F92AB2BDF90410304605F023
:10355000E4F900200AE001D2052007E020F0400055
:1035600080B2B0F5B26F14BF05200420022323807F
:10357000E5E0B0F5396F7BD009D9B0F5656F7FD044
:103580001BD9B0F5696F14BF05200020EEE7B0F538
:10359000256F6FD008D9B0F5296F6FD0B0F5356FB2
:1035A00014BF05200420E1E7B0F51D6F64D0B0F52D
:1035B000216F14BF05200420D8E7B0F5456F61D016
:1035C000B0F5496F14BF05200420CFE741F2500346
:1035D000984259D00AD941F25033984258D041F616
:1035E0005833984214BF05200420BFE7B0F57D6F23
:1035F0004CD041F21003984214BF05200420B5E7D7
:1036000029B2134804F05FFB0020AFE70C4E0DF128
:10361000060201A9304605F079F9BDF9062029B264
:10362000304605F07AF90020A0E729B2074804F0F7
:103630004AFB00209AE700BF000300203C00002066
:1036400060080020280A002068000020940800205C
:1036500060010020864B5A68C5EB0543518893FBF7
:10366000F1F39381002081E704207FE704207DE7C8
:1036700004207BE7042079E7042077E7042075E73E
:10368000002073E7042071E704206FE704206DE752
:1036900004206BE7116841F61803984200F0A480FB
:1036A00017D941F6D803984200F0B18066D941F6A7
:1036B000D813984200F0BA806FD941F61853984257
:1036C00040F0838000EE101A694809F0FFFD0020E9
:1036D00033E0B0F5067F00F0838006D9B0F5167FA1
:1036E0002FD1644B5961002027E0D82800F0948046
:1036F0000CD9B0F58C7F00F09380B0F5EC7F18BF4B
:1037000005201AD15B4B1961002016E098280CD1D6
:103710000BB2594981FB0321A1EBE371002209B2ED
:103720005648FFF72FFC002007E077D820F0400034
:1037300080B2182814BF052004200423238002B07F
:1037400070BD01D20520F8E741F25873984269D064
:1037500009D920F0400080B241F29873984214BF1A
:1037600005200420E9E741F2D86398425CD041F299
:103770001873984214BF05200420DEE741F6580371
:10378000984240D041F69803984218BF0520D4D102
:10379000374BC3F8E0100020CFE741F618139842EA
:1037A00004D1334BC3F834110020C6E741F6171398
:1037B00098423DD941F6581398423BD041F69813B0
:1037C000984214BF05200420B7E735D820F0400008
:1037D00080B241F61823984214BF05200420ACE7BC
:1037E000244BD9600020A8E7214B93F834301BB15B
:1037F0000A2B01D00420A0E700EE101A1C4807F0A5
:103800001DFC002099E71E4B1963002095E718481E
:1038100009F034FD002090E704208EE705208CE7B6
:1038200004208AE7042088E7042086E7042084E750
:10383000052082E7042080E705207EE7002323801F
:103840000A207CE7D2F802300B4981FB0301A1EB8F
:10385000E371D28809B20948FFF794FB00206EE7B4
:103860000023238007206AE7052068E7042066E735
:103870000003002004000020ABAAAA2A3C0000207C
:103880006800002030B583B015461C46BDF91830DD
:10389000A1F1080CBCF1200F74D8DFE80CF0117313
:1038A0007373737373731773737373737373267391
:1038B00073737373737356737373737373735A0081
:1038C000002B62DD0123238005205CE0012B5EDDFF
:1038D000B0F5656F07D0B0F5696F14BF0520002003
:1038E000022323804FE00020FAE7032B51DD41F251
:1038F0005863984215D041F2986398421BD041F228
:103900001863984203D00520042323803BE0224B18
:10391000986A00F015FE8DED010A019B2B600020D6
:10392000F2E71D4B986A00F06DFE8DED010A019BD8
:103930002B600020E8E7184B986A00F02FFE8DED11
:10394000010A019B2B600020DEE700232380052075
:1039500019E0282804D005202B880233238012E0A8
:103960000A222A809BB20B2B0AD90C4B19685A6881
:10397000C5F80210C5F806201B896B810020EBE713
:103980000820E9E7072003B030BD0846FBE7082020
:10399000F9E70820F7E700BF3C00002050D50008F9
:1039A00070B58EB014461D46BDF94830A1F1080C23
:1039B000BCF1200F00F29C83DFE81CF021009A0389
:1039C0009A039A039A039A039A039A0381009A032B
:1039D0009A039A039A039A039A039A03D2019A03C9
:1039E0009A039A039A039A039A039A0334039A0355
:1039F0009A039A039A039A039A039A033803002BB3
:103A000040F37983B0F5816F43D00CD9B0F5996F4D
:103A10004DD022D9B0F5A16F2DD1AB4B93F86230C8
:103A20002370002016E0C8282DD006D9B0F5727F8B
:103A30000FD10123237000200CE048281DD08828D6
:103A400018BF052006D1A148FFF74CFB20700020CD
:103A500000E0052001232B804BE3B0F5896F22D0D5
:103A6000B0F5916F18BF0520F4D1994804F0E4FB3C
:103A700020700020EEE70520ECE79448FFF7DEFA1F
:103A800020700020E6E7934B93F848302370002025
:103A9000E0E7914809F0BAFB8B4B93F834300344CC
:103AA00023700020D6E70F2323700020D2E78A4B33
:103AB000D3F8483593F84A3023700020CAE7012B29
:103AC00040F31B83B0F5296F00F0D18050D8B0F5DA
:103AD000926F00F00F8113D9B0F51D6F00F0B9801F
:103AE00038D9B0F5216F00F0BA80B0F5256F18BF56
:103AF000052076D17548FFF73CFB2080002070E060
:103B0000B0F5547F00F0C9800ED9B0F5647F00F0A5
:103B1000CF80B0F58A6F18BF052062D16F4804F0DE
:103B2000D7F8208000205CE0D02800F08680B0F537
:103B3000887F05D16A4804F0F3F82080002050E027
:103B4000902818BF05204CD1654804F0BEF82080AD
:103B5000002046E0B0F5B26F75D0B0F5BA6F18BF6F
:103B600005203ED15F4804F092F82080002038E024
:103B7000B0F57D6F00F0CA8020D941F250339842F1
:103B800000F0D28047D941F61043984200F0D4802B
:103B900041F65043984218BF052022D14E4B5A6837
:103BA000538A528802FB03F34F4A82FB03121A44E2
:103BB000DB17C3EBE2332380002012E0B0F5496F3E
:103BC00063D011D9B0F5796F00F09A8000F2C4800B
:103BD000B0F5656F00F0C280B0F5696F14BF0520C5
:103BE000002002232B8084E2B0F5396F47D0B0F576
:103BF000456F05D1364804F07BFE20800020F0E7B9
:103C0000B0F5356F18BF0520EBD1314BB3F9043057
:103C100023800020E5E741F2100398427ED041F274
:103C20005003984218BF0520DBD1304803F0DDFF78
:103C3000C0F30F4323800020D3E7294804F048F85D
:103C400020800020CDE72A4803F01AFF20800020C2
:103C5000C7E71E48FFF77FFA20800020C1E71B4816
:103C6000FFF779FAC0F30F4323800020B9E7174824
:103C7000FFF77FFAC0F30F4323800020B1E7144819
:103C800004F0D0FA20800020ABE7114804F030FEA9
:103C9000C0F30F4323800020A3E70DF10E0203A918
:103CA0000B4804F033FEBDF80C302380002098E769
:103CB0000DF10E0203A9064804F028FEBDF80E30EF
:103CC000238000208DE700BF680000203C0000201A
:103CD00060080020880200200003002094080020D3
:103CE00060010020FC090020018000800400002009
:103CF000D0090020AD4803F0E8FF2080002070E7E5
:103D0000AB4803F067FF208000206AE7A84803F073
:103D100061FFC0F30F432380002062E7A44803F053
:103D200064FF208000205CE7A24BD3F84835B3F84D
:103D300048302380002054E79E4B5A68938952886C
:103D400002FB03F39C4A82FB03121A44DB17C3EB0A
:103D5000E2332380002044E7052042E7002040E7CB
:103D6000032B40F3CC8141F2D873984200F00B81D1
:103D70005BD8B0F5067F00F0E28018D941F21873E5
:103D8000984200F0F0803ED941F25873984200F01A
:103D9000F28041F29873984218BF052030D1854BCC
:103DA00093ED180AFFF7E8F82060002028E0D828F3
:103DB00000F0B9800DD9B0F58C7F00F0BA80B0F575
:103DC000EC7F18BF05201BD1794B1B6923600020B5
:103DD00016E0582800F09E80982808D17748FFF711
:103DE000B5F900EB400040002060002008E01828F2
:103DF00018BF052004D17148FFF76FF9206000203B
:103E000004232B8075E1B0F5167F00F09D8041F210
:103E1000D863984218BF0520F2D1664B93ED190A7A
:103E2000FFF7AAF820600020EAE741F698139842CD
:103E300000F0D48019D941F65823984200F0EC8064
:103E400056D941F65833984200F0838041F6185312
:103E5000984218BF0520D3D1564809F02BFA8DEDB2
:103E6000010A019B23600020CAE741F6D80398426B
:103E700000F0968023D941F61813984200F0A880EC
:103E800041F65813984218BF0520B9D14C4BD3F8CE
:103E90009C20D3ED0B7A9FED4B7A67EE877A93EDFA
:103EA000267A67EE877A92ED137AD2ED146A27EEBE
:103EB000267AC7EE877AC4ED007A0020A0E741F6A3
:103EC0005803984267D041F69803984205D1394B80
:103ED000D3F8E0302360002092E741F618039842BF
:103EE00018BF05208CD1334B9B6D2360002087E7E2
:103EF00041F6D813984200F08A8041F61823984280
:103F000018BF05207FF47CAF2A4BD3F8E83023603C
:103F1000002075E72948FFF713F900EB4000400047
:103F2000206000206CE7284BD3F80031236000208C
:103F300066E7254BD3F8FC302360002060E71C4B7C
:103F4000DB68236000205BE7194B5B69236000207E
:103F500056E71E4B186803F050FF8DED010A019BD8
:103F6000236000204CE7134B93ED1A0AFFF704F887
:103F70002060002044E70F4B93ED1B0AFEF7FCFF87
:103F8000206000203CE70E4B93ED140AFEF7F4FF8F
:103F90002060002034E70A4B1B6B236000202FE7D2
:103FA000044BD3F8E4302360002029E79408002074
:103FB0000400002000030020018000803C0000205D
:103FC00068000020CB151E3560080020C0090020C5
:103FD0004C4BD3F834312360002011E74A4BD3F81F
:103FE0009C20D3ED087A9FED497A67EE877A93EDAE
:103FF000267A67EE877A92ED137AD2ED146A27EE6D
:10400000267AC7EE877AC4ED007A0020F8E63D4BA9
:104010009B6D23600020F3E63A4BD3F8EC3023602D
:104020000020EDE600232B80052062E0A21CB0F505
:10403000947F47D00CD8A82823D0E82818BF0520A3
:104040001BD10E2121809BB20F2B2ED8082014E00B
:10405000B0F5D47F10D12E4E3046FFF767F800EB55
:1040600040004000C4F802003046FFF762F8E080EC
:1040700006232380002000E00520238802332B80C4
:1040800037E0102121809BB2112B01D80820F4E7E2
:10409000204B1B681E6858689968DB68C4F802608A
:1040A00050609160D3600020E7E71B4B1B681E68DF
:1040B00058689968C4F80260506091609B89938148
:1040C0000020DAE70C2222809BB20D2B0ED9134B75
:1040D000186859689A68DB68C4F80200C4F80610CA
:1040E000C4F80A20C4F80E300020C6E70820C4E750
:1040F00007200EB070BD0846FBE70820F9E708204E
:10410000F7E700BF0003002068000020CB151E3534
:104110003C000020880B00208C0B0020780B002036
:104120002DE9F04F87B0074645688368B0F90C4029
:104130000022ADF816202B4803902B480490FA81FA
:10414000944209DD03EB01091E469346C3F10108C1
:104150000DE08CBB00283FD10020F8813CE00A280C
:1041600001D1012038E04FF0010B002C31DD28880F
:10417000C1B210F0060F2ED1023C1FFA84FA0235AC
:1041800020F0070001F0070306AA02EB830324B224
:10419000009453F80C4C0DF116032A4601F0380137
:1041A000A047BDF81630AAEB030424B21D4406EB69
:1041B0000803DBB2012BCCD0B14510D006F8010BBF
:1041C000FB890133FB810028CFD00728C7D101200C
:1041D00002E05846BEE7012007B0BDE8F08F082096
:1041E000FAE700BFC9320008693300082DE9F0473B
:1041F00086B0D0F8049087680023ADF81630B0F888
:104200000C801D4A03921D4A0492C381B8F1000F2D
:104210002AD006460DB24C460DE0BDF816100F44EC
:10422000F3890B44F3816D1A2DB2A8EB040319FA3C
:1042300083F39BB2DBB134F8020BC1B210F0060F6E
:1042400014D120F0070001F0070306AA02EB830354
:10425000009553F80CAC0DF116033A4601F0380105
:10426000D047024618B9D8E7012200E001221046E3
:1042700006B0BDE8F08700BF85380008A139000806
:1042800030B583B004464168088820F007039BB22C
:1042900000F47F42B2F5807F42D0013800F0070081
:1042A0002C22624D02FB0055A089023880B2A08109
:1042B0000231616022689289013A1FFA82FE12B2CD
:1042C0004FF0000CA4F80EC0482B3BD8482B00F24E
:1042D000A180DFE803F0479F9F9F9F9F9F9F4E9F76
:1042E0009F9F9F9F9F9F539F9F9F9F9F9F9F589F71
:1042F0009F9F9F9F9F9F5F9F9F9F9F9F9F9F689F45
:104300009F9F9F9F9F9F749F9F9F9F9F9F9F849F03
:104310009F9F9F9F9F9F899F9F9F9F9F9F9F8F0072
:10432000C3F3C403A089023880B2A0810231616066
:1043300022689289013A12B20025E581012B5FD9EA
:104340000D2068E0782B2AD0B3F5807F57D0682BFA
:1043500018BF02205FD1A368009304F10E03FDF79C
:104360006BFB58E00423E381A36801221A7000204C
:1043700051E071462046FFF7D3FE4CE071462046DF
:10438000FFF734FF47E02846FEF75EFE80F00100AD
:10439000C0B240E02846FEF76FFE00203BE001F08F
:1043A00031FB002037E02846FEF748FE062801D002
:1043B000002030E02846FEF7BEFE00202BE0284615
:1043C000FEF73CFE30B92846FEF73EFE80F00100C5
:1043D000C0B220E02846FEF74FFE00201BE0284632
:1043E000FEF767FE002016E000212846FEF7DDFEFE
:1043F000002010E02846FEF7CEFE00200BE0002350
:104400000B4D55F8235075B1A368009304F10E03CA
:10441000A84700E00220E389A268D054E389013371
:10442000E38103B030BD0D20F5E700BF3C00002064
:10443000581E00200F4AD2F8FC3043F08073C2F8B7
:10444000FC300D4B1B6833B10B4B00225A601A68CD
:1044500042F001021A6000238360C3604FF0FF3214
:10446000026143618361C36102624362037043601E
:10447000704700BF00ED00E0001000E010B400EB5A
:1044800041120023D3604FF0FF3414615361D361B4
:10449000146253625DF8044B7047000001230370FF
:1044A00000234360024B5B6800EB011083607047A0
:1044B000001000E00E4B5A6800EB01139B6893421A
:1044C00088BF02F1FF32D31A00EB0112D3600278E9
:1044D00012B142681A44426000EB011042699A42EC
:1044E00038BF436102699A4288BF0361704700BFC9
:1044F000001000E0114B5A680023037000EB011319
:104500009B68934288BF02F1FF32D31A00EB01127D
:10451000D36042689A4204D200EB011C9B1ACCF88B
:104520000C3000EB0113DA685969914238BF5A61C7
:1045300019698A4238BF1A61704700BF001000E055
:10454000D0ED077AB8EE677ADFED106AC7EE267A0B
:104550009FED0F0A67EE807A90ED037AB8EE477A06
:1045600087EE260A9FED0B7A20EE070A77EE807A17
:10457000B7EE007AF4EE477AF1EE10FAC8BFF0EE2B
:10458000477A9FED050A27EE800A7047E81F224D03
:1045900000007A4400409C460000C842D0ED097AF1
:1045A000F8EE677ADFED126A87EEA60ADFED117A80
:1045B00020EE270ADFED107A30EE270A90ED057A1B
:1045C000B8EE477AC7EE267A9FED0C7A67EE877AC7
:1045D00077EE807AB7EE007AF4EE477AF1EE10FAD1
:1045E000C8BFF0EE477A9FED060A27EE800A7047B3
:1045F000E81F224D00007A440000000000409C4665
:104600000000C842036AB3F1FF3F2FD007EE903A93
:10461000F8EE677A9FED1A7A87EE870ADFED197A4E
:1046200020EE270ADFED187A30EE270A0369B3F18E
:10463000FF3F0DD007EE903AF8EE677ADFED106A93
:1046400087EEA67ADFED117A67EE277A30EE270A39
:10465000F7EE007AB4EE670AF1EE10FAC8BFB0EEDA
:10466000670ADFED0B7A20EE270A70470369B3F182
:10467000FF3F02D09FED040ADCE79FED030AF0E75D
:10468000E81F224D00007A440000000000409C46D4
:104690000000C842036840221A62026852E8003FE4
:1046A00043F0400342E800310029F7D1026802F1EB
:1046B000080353E8003F43F0800302F1080C4CE884
:1046C00000310029F3D1036803F12802036904498A
:1046D000C95C83680B449A60036840221A62704781
:1046E00028D50008026802F1080353E8003F43F0B0
:1046F000010302F1080C4CE800310029F3D10368F2
:1047000003F12402C3680B49C95C43680B449A60F7
:10471000036840221A62026802F1080353E8003F6E
:1047200043F0400302F1080040E800310029F3D1D2
:10473000704700BF28D5000810B50446FFF7D2FF28
:104740002046FFF7A7FF10BD30B404690E4D15F8E1
:1047500004C0846804EB0C0354F80C4014F0010FFF
:1047600010D1D9600369EB5C84681C4463681B0C3E
:104770001B04134363600369EA5C81688B5843F050
:1047800001038B5030BC704728D5000870B4124C20
:10479000C36814F803C0466856F80C5025F00105AC
:1047A00046F80C50C36814F803C043689C44CCF826
:1047B0000C10C368E35C416819444B681B0C1B0474
:1047C00013434B60C368E25C41688B5843F00103BC
:1047D0008B5070BC704700BF28D5000803681022BA
:1047E0001A62026852E8003F43F0100342E80031C9
:1047F0000029F7D170472DE9F041C469037FDB0937
:10480000417F01F03F01C4F38635C4F3465790F869
:104810006CC01A46634528BF624680F86C2090F849
:104820006D208A4228BF0A4680F86D2090F86EE01D
:104830002E46754528BF764680F86E6090F86F600A
:10484000B846B74228BFB04680F86F80634502D9AA
:104850000020BDE8F081914210D8754501D90020B3
:10486000F7E7B74201D90020F3E790F87000C4F3EE
:104870000214A04214BF00200120EAE70020E8E76C
:1048800070B584460D4611461A460C68354EE3B2A3
:10489000F35CC4F307205840335CC4F3074058402E
:1048A000305CC4F3036358402F4B1B5C44EA037431
:1048B0000C6072B6DCF8483073B162B6092D2CD0AA
:1048C0000A2D3DD0002D48D19CF82400002846D167
:1048D00002238CF8243016E0092D15D00A2D4FF054
:1048E000030307BF8CF82E300CF128038CF824301A
:1048F0000CF12003CCF8483062B6DCF85830DCF814
:1049000014009847002070BDDCF8403003209871F7
:10491000DCF84030CCF84830EEE7DCF8403018687E
:10492000884214BF03200020DCF8441029B1022182
:104930009971DCF840309A80E5E7CCF84430F6E72E
:104940009CF82E30012B01D00320DCE702238CF8E9
:104950002E30ACF82C200020D5E70020D3E7032030
:10496000D1E700BF6CD500085CD5000810B504463F
:10497000C36C40699847002384F8643084F865303C
:1049800084F86030636D042204F11C01606998476B
:1049900010BD08B5024691F804C0CB785B0543EA28
:1049A0000C1391F800C043EACC1391F801C043EA1C
:1049B0000C23897843EA813343F0050342F8203F12
:1049C00004230021FFF75CFF08BD10B590F860E0FC
:1049D0000EF0010E90F8633003F00F04130343EA66
:1049E000042343EA011343EA411343EA8E1343EAE3
:1049F000CE1343F00603024642F8203F0423002171
:104A0000FFF73EFF10BD0A2A09D090F83630012B7F
:104A100013D990F83E30012B1AD90020704790F836
:104A20002E30012B01D900207047836A04330B60BC
:104A3000012380F82E3018467047012380F8363065
:104A400000F130020264026B04320A6018467047BB
:104A5000012380F83E3000F138020264826B043298
:104A60000A601846704708B58C46194690F86430BD
:104A7000022B01D0022008BD41EA02134CF8043C8D
:104A800090F86C30012B0CD00A2903D1037CA3B120
:104A900000230374043293B2ACF10402FFF7F0FE7A
:104AA000E9E7CA230CF802300CEB02034FF0FE0ECC
:104AB00083F801E0023292B2E6E70120DBE738B585
:104AC0000446C26900230B8090F86130002B00F08F
:104AD0008280002380F8613090F86430012B35D05B
:104AE000022B51D043B10025636D042204F11C0157
:104AF00060699847284638BD836E052B03D0062B86
:104B00001DD00025F0E7FFF776FE88B194F86E30EF
:104B100001335B01A38194F86F309B01E38194F82A
:104B20006D3001335B01A4F85E30012384F86430FA
:104B300004F16C012046FFF72CFF0025D4E7C2F3F7
:104B40000F320021FFF741FF0025CDE7836E052BD3
:104B500003D0062B0ED00025C6E7FFF74CFE10B998
:104B6000002384F8643004F16C012046FFF711FF44
:104B70000025B9E7C2F30F320121FFF726FF022318
:104B800084F864300025AFE7836E052B05D0062B33
:104B90000ED0092B13D00025A6E7FFF72CFE84F8D2
:104BA000640004F16C012046FFF7F3FE00259BE74B
:104BB000C2F30F320121FFF708FF002594E790F8B8
:104BC0006030013380F8603001230374B0F85C304A
:104BD0000B80856988E790F862300BB9002589E77A
:104BE0001A0442EA032343F00F03024642F8203F2F
:104BF00004230021FFF744FE002584F86250236D52
:104C00006069984776E770477047000008B502482A
:104C100001F072F908BD00BF241F002000B583B069
:104C20000E4B1A6E42F001021A661A6E02F0010271
:104C30000092009A9A6D42F080529A659B6D03F043
:104C400080530193019B00220F216FF0010000F0BF
:104C500095FE00F079FE03B05DF804FB0010024001
:104C600030B589B004461E4B9A6D42F010029A6529
:104C70009B6D03F010030193019B02A903A800F0B0
:104C800045FE00F031FE03461648174A026040F226
:104C9000E732C260154AA2FB03239B0C013B436031
:104CA00000230361836001F0C3FA054610B1284672
:104CB00009B030BD0B4801F0D9F805460028F6D1FF
:104CC000362000F091FE0F2C01D90125EFE70022DC
:104CD0002146362000F052FE054B1C60E7E700BF7E
:104CE00000100240241F00200010004083DE1B4300
:104CF000A00B002001280DD0022812D0032812D0CA
:104D0000042812D0052812D0062808BF052002D09A
:104D1000002070470020C0EBC003064800EB830072
:104D200070470120F7E70220F5E70320F3E70420AE
:104D3000F1E700BFB8D6000808B50A4A0623137089
:104D400000215170084830F8113093701B0AD3705D
:104D50000E3102325429F6D10E220249282000F0E9
:104D6000B5FA08BD701F0020B8D600082DE9F04143
:104D7000FFF7C0FF70B305464068FBF79EFAC6B266
:104D8000A868FBF79AFA5FFA80F8134C2B88237017
:104D90002B881B0A63702B7BA3706B7BE3702671DF
:104DA00032466968601D08F0BDFAB71D053604F883
:104DB00006804246A968E01908F0B4FA07EB080239
:104DC0006B69A350A969131DE150083221462920BF
:104DD00000F07CFABDE8F081701F002008B5FFF7F5
:104DE00089FF002831D0437B13F0010F2DD01749E4
:104DF00003880B7003881B0A4B70037B032B07D8B7
:104E0000012B15D803691A78104B9A70032218E009
:104E1000043BDBB2022B13D80069431E0C4A03305B
:104E200013F8011F02F8011F8342F9D1062208E09E
:104E300002691178054B99705278DA70042200E00B
:104E4000022202492A2000F041FA08BD701F00200A
:104E5000711F002038B50D461446FFF74BFF0028A0
:104E600061D00346427B12F0020F5ED0007B032824
:104E700008D8022834BF0122022291B2A1420BD9E4
:104E8000002053E0A0F1040C5FFA8CFCBCF1020F8F
:104E900001D80422F1E7002206283BD8DFE800F021
:104EA000041A20272D32370095F9001007EE901ACA
:104EB000F8EEE77A93ED057AB4EEE77AF1EE10FAC0
:104EC00035DC93ED067AB4EEE77AF1EE10FA24D5EC
:104ED00000202BE0297807EE901AF8EE677AE9E7D0
:104EE000B5F9001007EE901AF8EEE77AE2E72988A4
:104EF00007EE901AF8EE677ADCE7D5ED007AF8EE67
:104F0000E77AD7E7D5ED007AF8EE677AD2E7D5ED04
:104F1000007ACFE7DFED077ACCE72946186908F079
:104F200001FA012002E0002000E0002038BD00204E
:104F3000FCE700BF0000000010B50438272817D890
:104F4000DFE800F03B16161616161616161616167D
:104F500016161616161616161616161616166016A7
:104F6000161616161616161614172029FFF7E4FE45
:104F700010BD012AFCD948780B7843EA0020FFF7DE
:104F8000F5FEF5E7012AF3D948780B7843EA0020CB
:104F9000FFF724FFECE7022AEAD94B7811F8024B1D
:104FA00044EA0324023A92B22046FFF753FF002856
:104FB000DED02046FFF712FFDAE7154900230B7019
:104FC0004B708B70CB700B714B718B71CB710B7203
:104FD0004B728B720122CA720B734B738B73CA7341
:104FE0000B744B748B740222CA740B754B758B75E2
:104FF000CA750B760420487605238B761B2200F0B9
:1050000065F9B5E7002211461E2000F05FF9AFE711
:10501000701F00208C46B9B1411E8C440020030A49
:1050200043EA002080B211F8013F5840C0F3031357
:10503000584003B283EA0033580100F4FF5298B29B
:1050400050406145EBD170470020704782B0624B01
:105050000022C3F8802083F88420C3F88820C3F896
:105060008C205E4AC3F890205D4B9A6C42F001029E
:105070009A649B6C03F001030193019B594B9A685E
:1050800022F001029A60584A1A619A6842F020029E
:105090009A609A6822F040029A609A6842F0800210
:1050A0009A609A6822F440729A609A6822F4406288
:1050B0009A609A6822F4405242F400529A609A68C8
:1050C00042F002029A60DA6922F00102DA61474A8C
:1050D0005A62DA6922F02002DA61DA6922F04002CB
:1050E000DA61DA6942F08002DA61DA6922F4407248
:1050F000DA61DA6922F44062DA61DA6922F4405254
:1051000042F40052DA61DA6942F00202DA61384AA6
:1051100052E8003F43F0400342E800310029F7D154
:1051200052E8003F43F0800342E80031084600297E
:10513000F6D1304BDB68C3F30223C3F10701042926
:1051400028BF04211A1D062A8CBF033B03464FF0DB
:10515000FF328A40D24302F001029A401201D2B2D9
:10516000254B83F80B2303F54063DA68C2F3022270
:10517000C2F10701042928BF0421131D062B88BF93
:10518000D01E4FF0FF338B40DB4303F0010383401D
:105190001B01DBB2184A82F80C334FF40063136032
:1051A0004FF4805313600F4A0B4B5361D3681B0CB1
:1051B0001B0443F04003D360936843F00103936002
:1051C000A2F5484252E8003F43F0100342E80031A4
:1051D0000029F7D102B0704744200020394F000861
:1051E00000100240000002402438014028380140ED
:1051F0000838014000ED00E000E100E0F8B5324B76
:10520000D3F88030032B0DD92F4A92F84020AA2AD8
:1052100004D12D4A92F84120552A04D02A4B00226D
:10522000C3F88020F8BD284A92F84250AA1ED2B294
:10523000022A43D8022D24D0032D26D0224A92F8E8
:10524000431092F84440240244EA014492F8452075
:1052500014432F193A1D9342E4D31B4E7019214673
:105260004230FFF7D7FE3E4496F8422096F843308E
:1052700043EA0223984210D0134B0022C3F8802047
:10528000D0E7114A92F84340E3E70F4A92F84310FF
:1052900092F8444044EA0124DBE70B4BD3F89060DA
:1052A0003EB1621E59190B4692B2433193F8420047
:1052B000B047054B0022C3F88020B3E7024B002221
:1052C000C3F88020AEE700BF4420002038B51C4B57
:1052D0001B780BB9392A00D938BD1A4BAA241C7087
:1052E00055245C7002F1010E02249C7083F803E0E7
:1052F000187112B30B46144C881813F801CB04F83C
:1053000001CF8342F9D1541D0E4D7146281DFFF780
:1053100081FE030A2B552B195870094B01221A7074
:105320000A4B9D62196AA21C0C0C240422431A62C7
:10533000DA6942F00102DA61CEE70524E4E700BF52
:105340004020002000200020042000200000024017
:1053500008B51E4BDB6913F0100F35D01B4B102224
:105360001A621B4B1B787BBB194B01221A70194B1D
:10537000DB689BB2D3F1400C0CD0174BD3F88020E4
:1053800040321A440CEB030013F8011B02F8011B16
:105390008342F9D1104AD2F880306344C2F8803099
:1053A000FFF72CFF0B4A936823F001039360D36847
:1053B0001B0C1B0443F04003D360936843F00103CC
:1053C0009360034B00221A7008BD00BF00380140F3
:1053D000FC1F0020000002404420002000B583B0E4
:1053E0000368144A934205D0134A934212D003B083
:1053F0005DF804FB114B1A6E42F400621A661B6ED4
:1054000003F400630093009B00220621192000F0A2
:10541000B5FAECE7094B1A6E42F480321A661B6E3D
:1054200003F480330193019B00220621182000F031
:10543000A5FADCE7002C01400040014000100240CA
:10544000014B1860704700BFA40B00200346027A8E
:10545000002A00F0B18010B4006800283FD05A7ACA
:10546000012A1DD0022A26D062B101209A7A002A90
:1054700035D0022A3FD0032A48D0012A25D040F057
:1054800002002CE002F1804202F58232516821EAEA
:105490000000506011681868014311600020E5E7C2
:1054A000514A116821EA00001060516818680143F0
:1054B00051600020DAE74C4A1168084310605168D7
:1054C0001868014351600020D0E7474AD1681C6842
:1054D00021EA0401D16091681C68214391605A68F7
:1054E000002A51D0597A012931D0022939D0B9B1D5
:1054F00040F0040020E03C4A91681C6821EA040165
:105500009160D1681C682143D160E8E7364A916810
:105510001C6821439160D1681C682143D160DEE79B
:1055200001F1804101F582314C6A24EA02024A62AB
:105530000A6A5C6822430A629A7A2AB3022A26D04F
:10554000032A2FD0012A15D040F005001CE026497F
:105550000C6A24EA02020A624A6A5C6822434A62CE
:10556000EAE721490C6A22430A624A6A5C682243DC
:105570004A62E1E71C4AD16A5C6821EA0401D1620F
:10558000916A5B680B4393625DF8044B7047164A5F
:10559000916A5C6821EA04019162D16A5B680B43FD
:1055A000D362F1E7104A916A5C6821439162D16A43
:1055B0005B680B43D362E7E70B4A1168006821EA96
:1055C000000111605168186821EA00015160116AF8
:1055D000586821EA00011162516A5B6821EA0303FD
:1055E00053620020704700BF000401402DE9F047DE
:1055F0000B6893FAA3F4B4FA84F4224633FA04F461
:1056000000F0B4804FF0010E4FF0030C20244FF057
:105610000F0A4EE0D1F80880876893FAA3F6D6B156
:10562000B6FA86F676000CFA06F627EA060693FA2C
:10563000A3F797B1B7FA87F77F0008FA07F7374360
:1056400087600F68466826EA0706CD6805FB07F7FE
:105650003E43466035E02646E4E72746ECE726462B
:1056600038E0274641E0264652E02746BF0008FAC8
:1056700007F7374307624F68D0F8008093FAA3F624
:10568000002E6FD0B6FA86F676000CFA06F628EAF7
:10569000060693FAA3F3002B66D0B3FA83F35B00FC
:1056A00007FA03F33343036001320B6833FA02F560
:1056B0005CD00EFA02F63340F6D04E68013E012E61
:1056C000A8D9D1F81080C76893FAA3F6002EC6D0E7
:1056D000B6FA86F676000CFA06F627EA060693FA7C
:1056E000A3F7002FBDD0B7FA87F77F0008FA07F7B6
:1056F0003743C7604E68022EBDD1FF2B14D8D1F8B6
:105700001480076A93FAA3F6002EACD0B6FA86F698
:10571000B6000AFA06F627EA060693FAA3F7002F60
:10572000A3D0B7FA87F7A1E7D1F81480D0F8249076
:105730001E0A96FAA6F78FB1B7FA87F7BF000AFAE2
:1057400007F729EA070796FAA6F64EB1B6FA86F6E3
:10575000B60008FA06F6374347628CE72746EDE7BE
:105760002646F5E726468FE7234698E70020BDE862
:10577000F08700004FF0A0439A6803F580739B68A0
:10578000134313F0010F19D14A687AB110B4846839
:105790000B4B234013430A6813438A681343CA68B8
:1057A0001343836000205DF8044B70478268044B0C
:1057B00013400A681343836000207047012070473C
:1057C000E030C0FF836813F0010F10D110B4C2683D
:1057D0000B684C68234389680B4322F4404222F053
:1057E00018021343C36000205DF8044B704701208A
:1057F00070470000836813F0010F24D14B68ABB1F0
:10580000C268124B13400A6813438A681343CA687C
:1058100013430A6913434A691343C360036B23F0BC
:105820000F034A681343036300207047C268074BA5
:1058300013400A681343CA6813430A6913434A6949
:105840001343C360EAE70120704700BF1CC0F0FFAC
:10585000836813F0010F1CD14B689BB1C36823F020
:1058600004738A681343CA681343C360C36C23F488
:10587000FF7323F001030A6813434A681343C364A8
:1058800000207047C36823F00473CA681343C360E1
:10589000ECE701207047000010B5094A136843F493
:1058A00080731360032000F057F80020FFF7D8F949
:1058B00010B10124204610BD0446FFF7AFF9F9E707
:1058C00000200240034A1368034909680B4413602F
:1058D000704700BFD82000209C0B0020014B1868A7
:1058E000704700BFA40B0020054B9B68C3F3022345
:1058F000044AD35C03F01F03034A1068D840704782
:1059000000100240A0D70008A40B00200F23036062
:105910000B4B9A6802F0030242609A6802F0F002B0
:1059200082609A6802F4E062C2609B68DB0803F45C
:10593000E0630361034B1B6803F00F030B607047C8
:105940000010024000200240024A936843F4804362
:1059500093607047007000400749CA68030203F46F
:10596000E06322F4E0621204120C134343F0BF63BD
:1059700043F40033CB60704700ED00E000B5184BF6
:10598000DB68C3F30223C3F1070CBCF1040F28BF8B
:105990004FF0040C03F1040EBEF1060F8CBF033B65
:1059A00000234FF0FF3E0EFA0CFC21EA0C01994057
:1059B0000EFA03F322EA03021143002809DB09016E
:1059C000C9B200F1604000F5614080F800135DF855
:1059D00004FB00F00F000901C9B2024B1954F6E7AD
:1059E00000ED00E014ED00E0002808DB420900F0C3
:1059F0001F00012303FA00F0014B43F82200704717
:105A000000E100E0BFF34F8F0549CA6802F4E0628D
:105A1000044B1343CB60BFF34F8F00BFFDE700BFC4
:105A200000ED00E00400FA050138B0F1807F0BD2F0
:105A30004FF0E0235861054AF02182F8231000203E
:105A4000986107221A6170470120704700ED00E05D
:105A50000368002B12DB10B404680B684A68134318
:105A60008A681343CA6813430A691343044A2240ED
:105A70001343036000205DF8044B7047012070471A
:105A80000F7E00FF044B9B68C3F30313034AD35CF0
:105A900003F01F03D84070470010024090D7000861
:105AA000044B9B68C3F30223034AD35C03F01F0338
:105AB000D840704700100240A0D70008144B9B68E4
:105AC00003F00C03082B1ED00C2B1ED1104BDB68EF
:105AD00003F003030F481049032B18BF01460C4B7A
