:020000040800F2
:1000000000800020E5290108352A0108CD4D0008AF
:10001000352A0108352A0108352A010800000000A8
:1000200000000000000000000000000031DD0008BA
:10003000352A01080000000081DF0008E9DF000820
:10004000352A0108352A0108352A0108352A010810
:10005000352A0108352A0108352A0108352A010800
:10006000352A0108352A0108352A0108B950000847
:10007000FD500008352A0108352A0108352A0108F3
:10008000352A01080000000039500008352A01080F
:10009000352A0108352A0108352A0108352A0108C0
:1000A000695000084D500008352A0108352A01081A
:1000B000352A0108352A0108352A0108352A0108A0
:1000C000352A0108352A0108352A0108352A010890
:1000D000352A0108AD500008352A0108352A0108E3
:1000E000D74D0008352A0108352A0108352A0108AC
:1000F000352A0108352A0108352A010800000000C8
:1001000000000000352A010800000000352A01081F
:10011000352A01080000000001820008352A010884
:10012000352A0108352A0108352A0108352A01082F
:10013000352A01080000000000000000352A0108EF
:10014000352A0108352A01080000000000000000DF
:10015000000000000000000000000000000000009F
:10016000000000000000000000000000352A010827
:10017000352A010800000000000000000000000017
:1001800000000000352A0108000000000000000007
:10019000000000000000000000000000000000005F
:1001A0000000000000000000352A0108352A01087F
:1001B000352A0108352A0108352A01080000000007
:1001C00000000000352A01080000000000000000C7
:0801D000352A0108352A010857
:1001E00010B5054C237833B9044B13B10448AFF371
:1001F00000800123237010BD200C002000000000AF
:10020000B457010808B5034B1BB103490348AFF3CA
:10021000008008BD00000000240C0020B457010835
:1002200070B4840746D04C1E002941D0D5B2034695
:1002300002E0611EE4B30C4603F8015B9907F8D1B4
:10024000032C2ED9D5B245EA05250F2C45EA0545E4
:1002500019D9264603F11001103E0F2E41F8105C0B
:1002600041F80C5C41F8085C41F8045C01F11001B4
:10027000F2D8A4F1100121F00F0104F00F041031A5
:10028000032C0B440DD91E4621460439032946F898
:10029000045BFAD8211F21F0030104310B4404F060
:1002A00003042CB1D2B21C4403F8012BA342FBD1AE
:1002B00070BC70470C460346C2E7000081F0004165
:1002C00002E000BF83F0004330B54FEA41044FEA3B
:1002D000430594EA050F08BF90EA020F1FBF54EAD6
:1002E000000C55EA020C7FEA645C7FEA655C00F072
:1002F000E2804FEA5454D4EB5555B8BF6D420CDD43
:100300002C4480EA020281EA030382EA000083EAC5
:10031000010180EA020281EA0303362D88BF30BD65
:1003200011F0004F4FEA01314FF4801C4CEA1131BB
:1003300002D0404261EB410113F0004F4FEA03331A
:100340004CEA133302D0524263EB430394EA050FA5
:1003500000F0A780A4F10104D5F1200E0DDB02FA14
:100360000EFC22FA05F2801841F1000103FA0EF2A8
:10037000801843FA05F359410EE0A5F120050EF16E
:10038000200E012A03FA0EFC28BF4CF0020C43FA9F
:1003900005F3C01851EBE37101F0004507D54FF0AC
:1003A000000EDCF1000C7EEB00006EEB0101B1F5FC
:1003B000801F1BD3B1F5001F0CD349085FEA300042
:1003C0004FEA3C0C04F101044FEA445212F5800F4D
:1003D00080F09A80BCF1004F08BF5FEA500C50F1EA
:1003E000000041EB045141EA050130BD5FEA4C0CCD
:1003F000404141EB0101013C28BFB1F5801FE9D22A
:1004000091F0000F04BF01460020B1FA81F308BF4C
:100410002033A3F10B03B3F120020CDA0C3208DD18
:1004200002F1140CC2F10C0201FA0CF021FA02F1F3
:100430000CE002F11402D8BFC2F1200C01FA02F163
:1004400020FA0CFCDCBF41EA0C019040E41AA2BF88
:1004500001EB0451294330BD6FEA04041F3C1CDA50
:100460000C340EDC04F11404C4F1200220FA04F070
:1004700001FA02F340EA030021FA04F345EA03011A
:1004800030BDC4F10C04C4F1200220FA02F001FADC
:1004900004F340EA0300294630BD21FA04F029465E
:1004A00030BD94F0000F83F4801306BF81F48011F7
:1004B0000134013D4EE77FEA645C18BF7FEA655C6A
:1004C00029D094EA050F08BF90EA020F05D054EA3C
:1004D000000C04BF1946104630BD91EA030F1EBF41
:1004E0000021002030BD5FEA545C05D14000494145
:1004F00028BF41F0004130BD14F580043CBF01F538
:10050000801130BD01F0004545F0FE4141F470011D
:100510004FF0000030BD7FEA645C1ABF19461046F8
:100520007FEA655C1CBF0B46024650EA013406BFF9
:1005300052EA033591EA030F41F4002130BD00BFB8
:1005400090F0000F04BF0021704730B54FF4806475
:1005500004F132044FF000054FF0000150E700BFF6
:1005600090F0000F04BF0021704730B54FF4806455
:1005700004F1320410F0004548BF40424FF0000142
:100580003EE700BF42004FEAE2014FEA31014FEA85
:1005900002701FBF12F07F4393F07F4F81F06051D4
:1005A000704732F07F4208BF704793F07F4F04BF1F
:1005B00041F40021704730B54FF4607401F00045FC
:1005C00021F000411CE700BF50EA010208BF70475C
:1005D00030B54FF000050AE050EA010208BF70474D
:1005E00030B511F0004502D5404261EB41014FF4B6
:1005F000806404F132045FEA915C3FF4D8AE4FF0BE
:1006000003025FEADC0C18BF03325FEADC0C18BFA0
:10061000033202EBDC02C2F1200300FA03FC20FAF1
:1006200002F001FA03FE40EA0E0021FA02F114443E
:10063000BDE600BF4A0011D212F5001211D20DD54D
:100640006FF47873B3EB62520ED44FEAC12343F0D8
:10065000004343EA505323FA02F070474FF0000082
:10066000704750EA013002D14FF0FF3070474FF031
:100670000000704780B400AF044BDB681B0A03F036
:1006800007031846BD465DF8047B704700ED00E0A7
:1006900080B483B000AF0346FB7197F90730002B9D
:1006A0000BDBFB7903F01F02074997F907305B0961
:1006B000012000FA02F241F8232000BF0C37BD46AA
:1006C0005DF8047B704700BF00E100E080B483B0B8
:1006D00000AF03463960FB7197F90730002B0ADB46
:1006E0003B68DAB20C4997F907301201D2B20B44D9
:1006F00083F800230AE03B68DAB20849FB7903F08B
:100700000F03043B1201D2B20B441A7600BF0C3720
:10071000BD465DF8047B704700E100E000ED00E0BD
:1007200080B489B000AFF860B9607A60FB6803F00C
:100730000703FB61FB69C3F10703042B28BF0423F4
:10074000BB61FB690433062B02D9FB69033B00E064
:1007500000237B614FF0FF32BB6902FA03F3DA43F7
:10076000BB681A407B699A404FF0FF317B6901FA00
:1007700003F3D9437B680B40134318462437BD4627
:100780005DF8047B7047000080B485B000AF7860EE
:10079000084B9A6C07497B6813438B64054B9A6C32
:1007A0007B681340FB60FB6800BF1437BD465DF8F3
:1007B000047B70470010024080B485B000AF7860C1
:1007C000084BDA6C07497B681343CB64054BDA6C42
:1007D0007B681340FB60FB6800BF1437BD465DF8C3
:1007E000047B70470010024080B485B000AF786091
:1007F000084B9A6D07497B6813438B65054B9A6DCF
:100800007B681340FB60FB6800BF1437BD465DF892
:10081000047B70470010024080B485B000AF786060
:10082000084B1A6E07497B6813430B66054B1A6E1B
:100830007B681340FB60FB6800BF1437BD465DF862
:10084000047B70470010024080B400AF054B1B686A
:10085000044A43F48073136000BFBD465DF8047B17
:10086000704700BF0010024080B400AF074B1B6808
:1008700003F48063B3F5806F01D1012300E000230E
:100880001846BD465DF8047B704700BF001002406B
:1008900080B483B000AF7860074B5B6823F0FE4202
:1008A0007B681B06044913434B6000BF0C37BD46F1
:1008B0005DF8047B704700BF0010024080B483B035
:1008C00000AF7860064B9B6823F0030204497B6805
:1008D00013438B6000BF0C37BD465DF8047B704747
:1008E0000010024080B400AF044B9B6803F00C037F
:1008F0001846BD465DF8047B704700BF00100240FB
:1009000080B483B000AF7860064B9B6823F0F002A0
:1009100004497B6813438B6000BF0C37BD465DF80C
:10092000047B70470010024080B483B000AF786051
:10093000064B9B6823F4E06204497B6813438B6099
:1009400000BF0C37BD465DF8047B704700100240C5
:1009500080B483B000AF7860064B9B6823F460528C
:1009600004497B6813438B6000BF0C37BD465DF8BC
:10097000047B70470010024080B483B000AF786001
:10098000094BD3F888207B681B0CDB431A407B683B
:100990009BB205491343C1F8883000BF0C37BD46F0
:1009A0005DF8047B704700BF0010024080B485B042
:1009B00000AF78607B681A0E0F4B1344FB60FB6836
:1009C0001A687B681B0C03F01F03032101FA03F371
:1009D000DB431A407B68D9B27B681B0C03F01F0312
:1009E00001FA03F31A43FB681A6000BF1437BD46CF
:1009F0005DF8047B704700BF8810024080B483B06C
:100A000000AF78600E4BD3F888207B681B0C03F096
:100A10001F03032101FA03F3DB431A407B68D9B2B9
:100A20007B681B0C03F01F0301FA03F30449134313
:100A3000C1F8883000BF0C37BD465DF8047B7047B5
:100A40000010024080B400AF054B1B68044A43F01D
:100A50008073136000BFBD465DF8047B704700BF24
:100A60000010024080B400AF074B1B6803F0007316
:100A7000B3F1007F01D1012300E000231846BD46F9
:100A80005DF8047B704700BF0010024080B485B061
:100A900000AFF860B9607A603B600A4BDA680A4BD5
:100AA0001340F968BA6811437A68120211433A6830
:100AB0000A4304491343CB6000BF1437BD465DF8B9
:100AC000047B7047001002400C80FFF980B485B0B1
:100AD00000AFF860B9607A603B600A4BDA680A4B95
:100AE0001340F968BA6811437A68120211433A68F0
:100AF0000A4304491343CB6000BF1437BD465DF879
:100B0000047B7047001002400C80FF0780B400AFE8
:100B1000054BDB68044A43F48033D36000BFBD4615
:100B20005DF8047B704700BF0010024080B400AF46
:100B3000054BDB68044A43F08073D36000BFBD46B9
:100B40005DF8047B704700BF0010024080B483B0A2
:100B500000AF7860054B5A6804497B6813434B60CB
:100B600000BF0C37BD465DF8047B704700000140B4
:100B700080B487B000AF78603960184A3B6803F0F2
:100B80000303023352F823203B681B0CDB4302EAC9
:100B900003013B681B0C3B613B6993FAA3F3FB60C9
:100BA000FB687B617B69002B01D1202303E07B691B
:100BB000B3FA83F3DBB203F01F037A689A40074865
:100BC0003B6803F003030A43023340F8232000BFCD
:100BD0001C37BD465DF8047B704700BF0000014034
:100BE00080B483B000AF7860064B1B6823F00F021F
:100BF00004497B6813430B6000BF0C37BD465DF8AA
:100C0000047B70470020024080B400AF044B1B6897
:100C100003F00F031846BD465DF8047B704700BF24
:100C20000020024080B483B000AF786039607B68F8
:100C3000D3F8C03023F47F5323F03F033A681A43BC
:100C40007B68C3F8C0207B681B6923F480333A6853
:100C5000002A02D04FF4803200E000221A437B6861
:100C60001A6100BF0C37BD465DF8047B704780B445
:100C700087B000AFF860B9607A60FB6830331A461D
:100C8000BB681B0A9B0003F00C0313447B617B6968
:100C90001A68BB6803F01F031F2101FA03F3DB434B
:100CA0001A407B689B0E03F01F01BB6803F01F0313
:100CB00001FA03F31A437B691A6000BF1C37BD4673
:100CC0005DF8047B704780B483B000AF7860396012
:100CD0007B68DB6C23F4C0723B681A437B68DA6480
:100CE00000BF0C37BD465DF8047B704780B485B00B
:100CF00000AFF860B9607A60FB68DA6CBB6803F03B
:100D00001F031F2101FA03F3DB431A407B689B0E8C
:100D100003F01F01BB6803F01F0301FA03F31A433A
:100D2000FB68DA6400BF1437BD465DF8047B70478A
:100D300080B483B000AF786039607B68DB6823F0F3
:100D4000004323F400133A681A437B68DA6000BF5B
:100D50000C37BD465DF8047B704780B487B000AFA8
:100D6000F860B9607A60FB6814331A46BB685B0EA2
:100D70009B0003F0040313447B617B691A68BB6822
:100D80001B0D03F01F03072101FA03F3DB431A4095
:100D9000BB681B0D03F01F03796801FA03F31A43C4
:100DA0007B691A6000BF1C37BD465DF8047B704745
:100DB00080B485B000AFF860B9607A60FB68D3F8A2
:100DC000B020BB68C3F31203DB431A407B6803F017
:100DD00018030849D940BB680B40C3F312031A43F8
:100DE000FB68C3F8B02000BF1437BD465DF8047B34
:100DF000704700BFFFFF070080B483B000AF78608A
:100E000039607B681B6923F4806323F003033A682D
:100E10001A437B681A6100BF0C37BD465DF8047B3E
:100E2000704780B483B000AF78607B689B6823F024
:100E3000204323F03F037A68936000BF0C37BD4620
:100E40005DF8047B704780B483B000AF78607B6846
:100E50009B6823F0104323F03F0343F080527B68EC
:100E60009A6000BF0C37BD465DF8047B704780B4C4
:100E700083B000AF78607B681B6823F080027B68DA
:100E80001A6000BF0C37BD465DF8047B7047000058
:100E900080B485B000AF786039603B68012B2ED0FC
:100EA0003B68042B29D03B68102B24D03B68402B97
:100EB0001FD03B68B3F5807F19D03B68B3F5806FD6
:100EC00013D03B68B3F5805F0DD03B68B3F5804F1E
:100ED00007D03B68B3F5803F01D1082310E0092318
:100EE0000EE007230CE006230AE0052308E00423B4
:100EF00006E0032304E0022302E0012300E00023D4
:100F0000FB737B6818331946FB7B0B4AD35C0B449D
:100F1000BB60BB681A68FB7B0849CB5C194604239D
:100F20008B40DB431A40BB681A6000BF1437BD46D4
:100F30005DF8047B704700BF7458010880580108B1
:100F400080B485B000AF786039603B68012B2ED04B
:100F50003B68042B29D03B68102B24D03B68402BE6
:100F60001FD03B68B3F5807F19D03B68B3F5806F25
:100F700013D03B68B3F5805F0DD03B68B3F5804F6D
:100F800007D03B68B3F5803F01D1082310E0092367
:100F90000EE007230CE006230AE0052308E0042303
:100FA00006E0032304E0022302E0012300E0002323
:100FB000FB737B6818331946FB7B0A4AD35C0B44EE
:100FC000BB60BB681A68FB7B0749CB5C19460823EA
:100FD0008B401A43BB681A6000BF1437BD465DF8EA
:100FE000047B7047745801088058010880B483B0AE
:100FF00000AF786039607B685B6823F0007323F092
:1010000070033A681A437B685A6000BF0C37BD46CC
:101010005DF8047B704780B483B000AF78603960BE
:101020007B685B6823F470023B681A437B685A60F4
:1010300000BF0C37BD465DF8047B704780B483B0B9
:1010400000AF78607B689B6823F080027B689A60C1
:1010500000BF0C37BD465DF8047B704780B487B095
:1010600000AFF860B9607A60FB6860331A46BB680D
:1010700013447B617B691A687B681A437B691A6039
:1010800000BF1C37BD465DF8047B704780B48DB04F
:1010900000AFF860B9607A603B60FB6860331A4665
:1010A000BB681344FB62FB6A1A687B68BB61BB695F
:1010B00093FAA3F37B617B69FB61FB69002B01D190
:1010C000202303E0FB69B3FA83F3DBB203F01F03D1
:1010D0004FF4007101FA03F3DB431A407B687B6233
:1010E0007B6A93FAA3F33B623B6ABB62BB6A002B49
:1010F00001D1202303E0BB6AB3FA83F3DBB203F030
:101100001F03396801FA03F31A43FB6A1A6000BF30
:101110003437BD465DF8047B704780B48BB000AFB8
:10112000F860B9607A60FB681A68BB687B617B69AC
:1011300093FAA3F33B613B69BB61BB69002B01D10F
:10114000202303E0BB69B3FA83F3DBB25B00032126
:1011500001FA03F3DB431A40BB683B623B6A93FA34
:10116000A3F3FB61FB697B627B6A002B01D1202327
:1011700003E07B6AB3FA83F3DBB25B00796801FAC0
:1011800003F31A43FB681A6000BF2C37BD465DF8B5
:10119000047B704780B48BB000AFF860B9607A60B0
:1011A000FB68DA68BB687B617B6993FAA3F33B61F8
:1011B0003B69BB61BB69002B01D1202303E0BB6904
:1011C000B3FA83F3DBB25B00032101FA03F3DB43E1
:1011D0001A40BB683B623B6A93FAA3F3FB61FB696D
:1011E0007B627B6A002B01D1202303E07B6AB3FA88
:1011F00083F3DBB25B00796801FA03F31A43FB68FF
:10120000DA6000BF2C37BD465DF8047B704780B4C0
:1012100083B000AF786039607B683A689A6100BF3C
:101220000C37BD465DF8047B704780B483B000AFD7
:1012300078607B681B6843F001027B681A6000BF1E
:101240000C37BD465DF8047B704780B483B000AFB7
:1012500078607B681B6823F000527B681A6000BFCF
:101260000C37BD465DF8047B704780B489B000AF91
:10127000786039607B680833FB60FB6853E8003FA7
:10128000BB60BB6823F060423B685B071343FB61B4
:101290007B680833FA69BA617B617969BA6941E8A8
:1012A00000233B613B69002BE4D100BF00BF243722
:1012B000BD465DF8047B704780B489B000AF7860AC
:1012C00039607B680833FB60FB6853E8003FBB6014
:1012D000BB6823F060623B685B061343FB617B687D
:1012E0000833FA69BA617B617969BA6941E8002318
:1012F0003B613B69002BE4D100BF00BF2437BD46F2
:101300005DF8047B704780B483B000AF78607B6881
:101310005B6823F490427B685A607B689B6823F08B
:101320002A027B689A6000BF0C37BD465DF8047BDB
:10133000704780B483B000AF78607B68DB6903F4EA
:101340000013B3F5001F01D1012300E0002318466C
:101350000C37BD465DF8047B704780B483B000AFA6
:1013600078607B68DB6903F48003B3F5800F01D1FB
:10137000012300E0002318460C37BD465DF8047BCE
:10138000704780B485B000AFF860B9607A60FB68E0
:10139000DA6BBB6803F010034FF4007101FA03F33A
:1013A000DB431A40BB6803F01003796801FA03F3CA
:1013B0001A43FB68DA6300BF1437BD465DF8047B4F
:1013C000704780B483B000AF786039607B68DA6BB7
:1013D0003B6803F010034FF4807101FA03F3DB4321
:1013E0001A407B68DA6300BF0C37BD465DF8047BAA
:1013F000704780B483B000AF786039607B681A684A
:101400003B6803F01003022101FA03F3DB431A40A7
:101410007B681A6000BF0C37BD465DF8047B7047DF
:1014200080B487B000AFF860B9607A60FB687B6118
:101430000E4ABB6813441B781A467B6913441B6829
:1014400023F4804323F010030849BA680A44127851
:1014500011467A690A4411467A6813430B6000BF4B
:101460001C37BD465DF8047B704700BF8C580108EF
:1014700080B487B000AFF860B9607A60FB687B61C8
:101480000D4ABB6813441B781A467B6913441B68DA
:1014900023F020020849BB680B441B7819467B697E
:1014A0000B4419467B6813430B6000BF1C37BD46D5
:1014B0005DF8047B704700BF8C58010880B487B08A
:1014C00000AFF860B9607A60FB687B610D4ABB6869
:1014D00013441B781A467B6913441B6823F04002AF
:1014E0000849BB680B441B7819467B690B441946B5
:1014F0007B6813430B6000BF1C37BD465DF8047B5F
:10150000704700BF8C58010880B487B000AFF86006
:10151000B9607A60FB687B610D4ABB6813441B7835
:101520001A467B6913441B6823F080020849BB6894
:101530000B441B7819467B690B4419467B6813439F
:101540000B6000BF1C37BD465DF8047B704700BFD1
:101550008C58010880B487B000AFF860B9607A6039
:10156000FB687B610D4ABB6813441B781A467B6994
:1015700013441B6823F440720849BB680B441B7872
:1015800019467B690B4419467B6813430B6000BF07
:101590001C37BD465DF8047B704700BF8C580108BE
:1015A00080B487B000AFF860B9607A60FB687B6197
:1015B0000D4ABB6813441B781A467B6913441B68A9
:1015C00023F440620849BB680B441B7819467B69C9
:1015D0000B4419467B6813430B6000BF1C37BD46A4
:1015E0005DF8047B704700BF8C58010880B487B059
:1015F00000AFF860B9607A60FB687B610D4ABB6838
:1016000013441B781A467B6913441B6823F4405229
:101610000849BB680B441B7819467B690B44194683
:101620007B6813430B6000BF1C37BD465DF8047B2D
:10163000704700BF8C58010880B487B000AFF860D5
:10164000B9607A60FB689B0A83F4801383F080039F
:10165000DB007B61BA687B6913449B0003F1804324
:1016600003F502331B6823F0FF01BA687B6913445A
:101670009B0003F1804303F502337A680A431A6042
:1016800000BF1C37BD465DF8047B704780B483B053
:1016900000AF786039607B689B6923F038023B6853
:1016A0001A437B689A6100BF0C37BD465DF8047B26
:1016B000704780B483B000AF786039607B681B6886
:1016C00023F480723B681A437B681A6000BF0C37B2
:1016D000BD465DF8047B704780B483B000AF78608E
:1016E00039607B681B6823F010023B681A437B68F3
:1016F0001A6000BF0C37BD465DF8047B704780B4AC
:1017000083B000AF78607B681B6823F400327B688D
:101710001A6000BF0C37BD465DF8047B704780B48B
:1017200083B000AF78607B681B6823F400227B687D
:101730001A6000BF0C37BD465DF8047B704780B46B
:1017400085B000AFF860B9607A60FB68DB6823F4AD
:10175000FF6323F00603B9687A680A431A43FB68FB
:10176000DA6000BF1437BD465DF8047B704780B473
:1017700083B000AF78607B68DB6823F400427B684D
:10178000DA6000BF0C37BD465DF8047B704780B45B
:1017900083B000AF78607B685B6843F000727B6861
:1017A0005A6000BF0C37BD465DF8047B70470000EF
:1017B00080B483B000AF7860064B1A687B68DB4367
:1017C000044913400B6000BF0C37BD465DF8047B35
:1017D000704700BF0004014080B483B000AF786060
:1017E000064B5A687B68DB43044913404B6000BFDB
:1017F0000C37BD465DF8047B704700BF0004014014
:1018000080B400AF064BD3F88030054A23F48073D0
:10181000C2F8803000BFBD465DF8047B704700BF52
:1018200000700040B0B58AB000AF08F09FFA00F039
:101830004BF800F0B9FF00F0ADFF00F00BF900F03D
:10184000F9F900F0CBFA00F021FB00F077FB00F093
:10185000CDFB00F0D3FB00F02DFC00F0A3FC00F06A
:10186000FBFC00F067FD00F0C3FE01F029F800F07A
:101870008DF8114B07F114041D460FCD0FC42B68D2
:10188000236007F11403002118460BF038FF0346CC
:101890000A4A13600A4B3C461D460FCD0FC42B6805
:1018A00023603B46002118460BF029FF0346054AFA
:1018B00013600BF01DFFFEE7E45701083C0C00200D
:1018C000F8570108400C002080B582B000AF04201A
:1018D000FFF786F900BFFFF797F90346042BFAD10B
:1018E000FFF78EFFFEF7B0FF00BFFEF7BDFF034618
:1018F000012BFAD14020FEF7CBFF002355223021E7
:101900000220FFF7C3F84FF0804355223021022018
:10191000FFF7DCF8FFF70AF9FFF7F8F8FFF792F89E
:1019200000BFFFF79FF80346012BFAD10320FEF713
:10193000C5FF8020FEF7E4FF00BFFEF7D3FF03469C
:101940000C2BFAD155237B6002E07B68013B7B6066
:101950007B68002BF9D10020FEF7D2FF0020FEF7B4
:10196000E3FF0020FEF7F4FF074807F0F9FC002032
:1019700006F07AFC0346002B01D000F09BFF00BF6D
:101980000837BD4680BD00BF80FE210A80B500AF8C
:10199000FEF770FE0346002208211846FEF7C0FE3F
:1019A000034619462520FEF791FE2520FEF770FE1E
:1019B000FEF760FE0346002208211846FEF7B0FE3F
:1019C000034619460B20FEF781FE0B20FEF760FE52
:1019D000FEF750FE0346002209211846FEF7A0FE3E
:1019E000034619461820FEF771FE1820FEF750FE38
:1019F000FEF740FE0346002205211846FEF790FE42
:101A0000034619461920FEF761FE1920FEF740FE35
:101A1000FEF730FE0346002207211846FEF780FE3F
:101A2000034619461220FEF751FE1220FEF730FE43
:101A3000FEF720FE0346002208211846FEF770FE3E
:101A4000034619462820FEF741FE2820FEF720FE17
:101A500000BF80BD80B598B000AF07F150030022F1
:101A60001A605A609A6007F1380300221A605A60BF
:101A70009A60DA601A615A6107F1280300221A603D
:101A80005A609A60DA6007F1180300221A605A60FF
:101A90009A60DA603B4600221A605A609A60DA6007
:101AA0001A615A615C48FEF7A9FF4FF40050FEF737
:101AB00083FE0120FEF780FE01233B6003237B6051
:101AC00000233B613B4619464FF0904007F0CCFFA6
:101AD00004233B6003237B6000233B613B461946A4
:101AE0004FF0904007F0C0FF00233B654FF40043E8
:101AF0007B650023BB6507F1500319464FF0A040FA
:101B000008F086F80023BB630023FB6300233B64DB
:101B100000237B640023BB640023FB6407F13803CC
:101B200019464FF0A04008F099F800214FF0A0406E
:101B3000FFF778F800214FF0A040FFF75DF9002390
:101B4000BB620023FB6207F128031946334808F003
:101B50001FF88023BB610023FB6100233B6200234D
:101B60007B6207F1180319464FF0A04008F0C0F857
:101B70004FF000414FF0A040FFF7DAF880214FF01E
:101B8000A040FFF7A0F84FF0A040FFF74AF94FF050
:101B9000A040FFF758F9224B1B689B09214AA2FB82
:101BA00003239A0913469B0013449B001A461E4BBD
:101BB000A3FB0223DB08FB6502E0FB6D013BFB6539
:101BC000FB6D002BF9D1194A09214FF0A040FFF716
:101BD0008DF8012215494FF0A040FFF7BEF87F2293
:101BE00012494FF0A040FFF7E3F8114A06214FF0E9
:101BF000A040FFF73CF804220D494FF0A040FFF74A
:101C0000ACF87F220A494FF0A040FFF7D1F800BF9F
:101C10006037BD4680BD00BF01001C0000030050BE
:101C2000980B0020632D3E05CDCCCCCC0800900C49
:101C30000200300480B594B000AF07F140030022E9
:101C40001A605A609A6007F1280300221A605A60ED
:101C50009A60DA601A615A6107F1180300221A606B
:101C60005A609A60DA603B4600221A605A609A60B5
:101C7000DA601A615A615148FEF7C0FE4FF4005015
:101C8000FEF79AFD0120FEF797FD0420FEF794FD74
:101C900040233B6003237B6000233B613B461946A6
:101CA0004FF0904007F0E0FE10233B6003237B6081
:101CB00000233B613B461946414807F0D5FE00230F
:101CC0003B644FF400437B640023BB6407F1400393
:101CD00019463C4807F09CFF0023BB620023FB62CF
:101CE00000233B6300237B630023BB630023FB6370
:101CF00007F128031946334807F0B0FF00213148A7
:101D0000FEF790FF00212F48FFF776F88023BB6194
:101D10000023FB6100233B6200237B6207F1180371
:101D20001946284807F0E4FF4FF000412548FEF728
:101D3000FFFF80212348FEF7C6FF2248FFF771F816
:101D40002048FFF780F8204B1B689B091F4AA2FB25
:101D500003239A0913469B0013449B001A461C4B0D
:101D6000A3FB0223DB08FB6402E0FB6C013BFB648A
:101D7000FB6C002BF9D1174A09211248FEF7B6FF78
:101D8000012214490F48FEF7E8FF7F2211490D4850
:101D9000FFF70EF8104A06210A48FEF768FF0422F2
:101DA0000D490848FEF7D9FF7F220B490548FEF789
:101DB000FFFF00BF5037BD4680BD00BF01001C00C3
:101DC0000008004800010050980B0020632D3E05DC
:101DD000CDCCCCCC0800900C2000F01480B58CB099
:101DE00000AF07F11C0300221A605A609A60DA60A3
:101DF0001A613B1D00221A605A609A60DA601A610B
:101E00005A610120FEF7D8FC02237B600323BB60EC
:101E100000237B613B1D19464FF0904007F024FEE4
:101E20000023FB6140233B6200237B620023BB62F3
:101E30000023FB6207F11C031946114808F06AF9F8
:101E400000233B600F4B1B680F4AA2FB0323DB0CF4
:101E5000C82202FB03F33B6002E03B68013B3B60AE
:101E60003B68002BF9D14FF40010FFF7B5FC4FF49D
:101E70000010FFF79DFC00BF3037BD4680BD00BF9E
:101E800000020140980B002083DE1B4380B58CB01C
:101E900000AF07F11C0300221A605A609A60DA60F2
:101EA0001A613B1D00221A605A609A60DA601A615A
:101EB0005A610120FEF780FC80237B600323BB6016
:101EC00000237B613B1D19464FF0904007F0CCFD8D
:101ED0000023FB6140233B6200237B620023BB6243
:101EE0000023FB6207F11C031946114808F012F9A0
:101EF00000233B600F4B1B680F4AA2FB0323DB0C44
:101F0000C82202FB03F33B6002E03B68013B3B60FD
:101F10003B68002BF9D14FF48000FFF75DFC4FF4D4
:101F20008000FFF745FC00BF3037BD4680BD00BFD5
:101F300004020140980B002083DE1B4380B58CB067
:101F400000AF07F11C0300221A605A609A60DA6041
:101F50001A613B1D00221A605A609A60DA601A61A9
:101F60005A610220FEF728FC01237B600323BB603B
:101F700000237B613B1D1946184807F075FD0023BF
:101F8000FB6140233B6200237B620023BB62002392
:101F9000FB6207F11C031946114808F0BBF8002347
:101FA0003B60104B1B68104AA2FB0323DB0CC822CA
:101FB00002FB03F33B6002E03B68013B3B603B6894
:101FC000002BF9D14FF08040FFF706FC4FF0804026
:101FD000FFF7EEFB00BF3037BD4680BD0004004870
:101FE0000C020140980B002083DE1B4380B500AF3C
:101FF0000820FEF7C9FB00BF80BD000080B588B097
:1020000000AF3B1D00221A605A609A60DA601A61C4
:102010005A619A614FF48020FEF7CEFBFEF72AFB4F
:102020000346002200211846FEF77AFB03461946B4
:102030003620FEF74BFB3620FEF72AFB00221A491A
:102040001A48FFF79EF900237B600023BB60002342
:10205000FB6002237B610123BB610023FB613B1D0D
:102060001A461149114808F036FB0F490F48FFF78F
:10207000C0F90D490D48FFF7A4F900220C490B489F
:10208000FFF77FF93B1D1A460949084808F023FB72
:1020900007490648FFF7ADF905490448FFF791F9EC
:1020A00000BF2037BD4680BD010011020010005066
:1020B000F200423580B58EB000AF07F11C0300225C
:1020C0001A605A609A60DA601A615A619A613B1D1F
:1020D00000221A605A609A60DA601A615A614FF4FD
:1020E0008010FEF763FC0420FEF766FB4FF480735C
:1020F0007B600223BB600023FB6001233B61002364
:102100007B610823BB613B1D1946234807F0ACFCEB
:102110004FF400737B600223BB600023FB6001234C
:102120003B6100237B610823BB613B1D19461A48B4
:1021300007F09AFC4FF08040FEF756FB0023FB614E
:10214000164B3B6200237B620023BB620023FB62D1
:1021500000233B6300237B6307F11C0319461048EF
:1021600008F003FC0E48FFF712FB002200210C4888
:10217000FFF7E5FA0A48FFF7FAFA0948FFF7CFFA3E
:102180000748FFF7BCFA4FF48000FEF7DFFC00BF02
:102190003837BD4680BD00BF00080048722180006E
:1021A0000078004080B58AB000AF07F11803002224
:1021B0001A605A609A60DA603B4600221A605A60E0
:1021C0009A60DA601A615A610120FEF7F5FA02237B
:1021D0003B6003237B6000233B613B4619464FF085
:1021E000904007F041FC04233B6003237B60002305
:1021F0003B613B4619464FF0904007F035FC082301
:102200003B6003237B6000233B613B4619464FF054
:10221000904007F029FC0023BB610023FB610023F1
:102220003B6200237B6207F118031946094808F056
:10223000ECFB00210748FFF729FA00210548FFF7CA
:1022400038FA00210348FFF747FA00BF2837BD4698
:1022500080BD00BF0003014080B58AB000AF07F128
:10226000180300221A605A609A60DA603B46002226
:102270001A605A609A60DA601A615A610120FEF7AA
:102280009BFA0420FEF798FA0220FEF795FA402305
:102290003B6003237B6000233B613B4619464FF0C4
:1022A000904007F0E1FB80233B6003237B60002329
:1022B0003B613B4619464FF0904007F0D5FB202389
:1022C0003B6003237B6000233B613B461946164875
:1022D00007F0CAFB01233B6003237B6000233B61C3
:1022E0003B461946114807F0BFFB0023BB610023A2
:1022F000FB6100233B6220237B6207F11803194630
:102300000B4808F082FB00210948FFF7BFF90021C4
:102310000748FFF7CEF900210548FFF7DDF900BFB8
:102320002837BD4680BD00BF0008004800040048B3
:102330000403014080B5A0B000AF07F16C03002298
:102340001A605A609A60DA601A6107F14C03202221
:102350000021184613F026FA07F11C033022002151
:10236000184613F01FFA3B1D00221A605A609A604B
:10237000DA601A615A614FF40060FEF74DFA0023EB
:10238000A7F86C3020233B6741F29A037B674FF438
:102390008073BB670123FB6707F16C031946924802
:1023A00008F01CFF9048FEF762FD01218E48FEF701
:1023B000C7FD6023FB6400233B6500237B6540F67B
:1023C0004D03BB650023FB6500233B6600237B6652
:1023D0000023BB6607F14C031A460121824808F02E
:1023E00087FF01218048FEF753FD10217E48FEF74C
:1023F000A7FD07F14C031A4610217B4808F078FF2F
:1024000010217948FEF744FD4FF480717648FEF7BD
:1024100097FD07F14C031A464FF48071724808F09B
:1024200067FF4FF480717048FEF732FD4FF4805122
:102430006D48FEF785FD7023FB6441F29903BB658F
:1024400007F14C031A464FF48051674808F050FFDB
:102450004FF480516448FEF71BFD70216248FEF77F
:10246000C5FD00216048FEF7D6FD5F48FEF7E6FD9A
:102470000023022200215C48FEF708FE0222002110
:102480005948FEF7EBFD0023042200215648FEF7D1
:10249000FDFD042200215448FEF7E0FD0023102238
:1024A00000215148FEF7F2FD102200214E48FEF7B0
:1024B000D5FD4FF40063FB614FF480633B62002362
:1024C0007B623F2387F828304FF480537B854FF49D
:1024D0000053FB624FF440333B6300237B630023D4
:1024E000BB634FF00073FB634FF440133B64002366
:1024F0007B640023BB6407F11C0319463A4808F0CB
:1025000057FF1020FEF758F94FF480737B600223C9
:10251000BB600223FB6000233B6102237B6102233B
:10252000BB613B1D1946314807F09EFA4FF400731A
:102530007B600223BB600223FB6000233B6102231C
:102540007B610223BB613B1D1946284807F08CFACA
:102550004FF480637B600223BB600223FB60002397
:102560003B6102237B610223BB613B1D19461F486F
:1025700007F07AFA4FF400637B600223BB6002230A
:10258000FB6000233B6102237B610223BB613B1D97
:102590001946164807F068FA4FF480537B6002230F
:1025A000BB600223FB6000233B6102237B610223AB
:1025B000BB613B1D19460D4807F056FA4FF4005316
:1025C0007B600223BB600223FB6000233B6102238C
:1025D0007B610223BB613B1D1946044807F044FAA6
:1025E00000BF8037BD4680BD002C01400010004870
:1025F00080B58EB000AF07F11803202200211846E5
:1026000013F0D0F83B4600221A605A609A60DA60F4
:102610001A615A614FF44030FEF7AEF94FF4804032
:10262000FEF7FAF80120FEF7C7F84FF400733B609D
:1026300002237B600023BB600023FB6000233B611F
:1026400007237B613B4619464FF0904007F00CFA98
:102650004FF480633B6002237B600023BB60002358
:10266000FB6000233B6107237B613B4619464FF02B
:10267000904007F0F9F9182200214448FEF7DCFFEA
:10268000002200214148FEF7CBFE002200213F48F6
:10269000FEF7ACFF002200213C48FEF7E9FE0022D5
:1026A00000213A48FEF70AFF802200213748FEF752
:1026B0002BFF002200213548FEF74CFF00220021AD
:1026C0003248FEF76DFF192201213048FEF7B4FFB2
:1026D000102201212D48FEF7A3FE002201212B48E4
:1026E000FEF784FF002201212848FEF7C1FE0022E8
:1026F00001212648FEF7E2FE802201212348FEF751
:1027000003FF002201212148FEF724FF00220121BE
:102710001E48FEF745FF0023BB614FF4E133FB6128
:1027200000233B6200237B620023BB620C23FB621D
:1027300000233B6300237B6307F118031946144809
:1027400009F020FA00211248FEF78FFD0021104801
:10275000FEF7B2FD0E48FEF778FD0D48FEF7D3FDFB
:102760000B48FEF762FD00BF0948FEF7E2FD034695
:10277000002BF9D00648FEF7F0FD0346002BF3D0FE
:1027800000BF00BF3837BD4680BD00BF000002401B
:102790000038014080B500AF0420FDF7F5FF0120AF
:1027A000FDF7F2FF00BF80BD80B58AB000AF07F132
:1027B0001C0300221A605A609A603B1D00221A60B6
:1027C0005A609A60DA601A615A610420FDF7F4FFDA
:1027D0000120FDF7F1FF0220FDF7EEFF1020FDF7CD
:1027E000EBFF80212748FEF712FD27490220FEF764
:1027F000BFF94FF40053FB61012387F82430002315
:1028000087F82530012387F8263007F11C03184686
:1028100006F0E6FE00224FF400511C48FEF7BAFC19
:1028200000224FF400511948FEF777FC80237B60AB
:102830000123BB600023FB6000233B6100237B611D
:102840003B1D19460F4807F00FF94FF480437B609A
:102850000023BB6001237B613B1D1946094807F03B
:1028600003F94FF400437B600023BB6001237B61CD
:102870003B1D1946034807F0F7F800BF2837BD464F
:1028800080BD00BF001000480300F00000080048B1
:1028900080B582B000AF78607B681B68044A9342C1
:1028A00001D107F083FA00BF0837BD4680BD00BFE5
:1028B0000010004080B400AF72B600BFFEE7000019
:1028C00080B500AF034800F0BBF900F091FB00BFFA
:1028D00080BD00BF440C002080B500AF07F078FA3F
:1028E0000346044AA2FB0323DB09184607F0F1FB69
:1028F00000BF80BDD34D621080B485B000AF78605A
:10290000084B9A6D07497B6813438B65054B9A6D9D
:102910007B681340FB60FB6800BF1437BD465DF861
:10292000047B70470010024080B483B000AF786031
:10293000074B9A6D7B6813407A689A4201D1012354
:1029400000E0002318460C37BD465DF8047B704755
:102950000010024080B483B000AF7860064B9A6DDF
:102960007B68DB43044913408B6500BF0C37BD46D1
:102970005DF8047B704700BF0010024080B483B054
:1029800000AF786039607B685B6823F0007323F0E8
:1029900070033A681A437B685A6000BF0C37BD4623
:1029A0005DF8047B704780B483B000AF7860396015
:1029B0007B689B6823F4803323F007033A681A434B
:1029C0007B689A6000BF0C37BD465DF8047B70479A
:1029D00080B483B000AF786039607B689B6823F473
:1029E000401323F070033A681A437B689A6000BF73
:1029F0000C37BD465DF8047B704780B483B000AFF0
:102A000078607B686FF002021A6100BF0C37BD4628
:102A10005DF8047B704780B483B000AF78607B685A
:102A20001B6903F00203022B01D1012300E0002304
:102A300018460C37BD465DF8047B704780B483B000
:102A400000AF78607B685B6943F001027B685A6184
:102A500000BF0C37BD465DF8047B704780B582B07F
:102A600000AF10211848FFF7B3FF06211648FFF703
:102A70009AFF0120FFF758FF78607B68002B0AD18E
:102A80000120FFF739FF4FF08040FFF7D7FF01200B
:102A9000FFF760FF13E04FF080435A680B4B134081
:102AA0003B6020214FF08040FFF768FF4FF08040EF
:102AB000FFF7C4FF39684FF08040FFF75FFF00BFAA
:102AC0000837BD4680BD00BF002C014070000002E9
:102AD00080B586B000AFF860B9603B601346FB710B
:102AE000FB7901335B089BB25B01BB82F868FFF79F
:102AF00084FF0023FB8218E0F868FFF78CFF034691
:102B0000012B12D1F868FFF778FFFB8A0133FB82B3
:102B1000FA8ABB8A9A4208D33B681B78DBB20F2B38
:102B200003D8BB6801221A8005E03B681B78DBB242
:102B30000F2BE1D900BF00BF1837BD4680BD000094
:102B400080B500AF034B1B68184601F0F4FE034646
:102B5000184680BD440C002080B500AF034B1B68B5
:102B6000184601F00EFF0346184680BD440C0020B5
:102B700080B500AF034B1B68184601F031FF0346D8
:102B8000184680BD440C002080B500AF034B1B6885
:102B9000184601F0CEFF0346184680BD440C0020C5
:102BA00080B586B002AFB9607B600346FB811346F7
:102BB000BB81B7F90C20F989BB6901937B6800934D
:102BC0001346BA68034811F0DFFB03461846103776
:102BD000BD4680BD8C03002080B485B000AF786016
:102BE00039603B6843F480327B68DA617B683A681D
:102BF000DA613B6843F480327B68DA617B68DB69C9
:102C0000FB60FB6800BF1437BD465DF8047B70476E
:102C100080B485B000AF78600B46FB70074B5B68F3
:102C2000FB60FB787A681B0113440833FA681A606A
:102C300000BF1437BD465DF8047B7047001000E00C
:102C400080B584B000AF78607B68002B41D0234B07
:102C500000221A707B68224A1A6000F04DFB21485E
:102C60000CF09FF920480DF0A4FA204801F05AFB1F
:102C70001F480CF03CFB1F4801F054FB1E480CF0B1
:102C800035F9174B1D4A9A621C4804F0A7FA1C48F4
:102C90000BF02CFB1A480BF029FF1A4A07F10C0322
:102CA0001268114619800233120C1A70F968144820
:102CB0000BF0B0FD144B1B883B81B96810480BF03A
:102CC00071FE0F480BF0FCFE05F08BFA034B01225E
:102CD0001A7000BF1037BD4680BD00BF421F0020E4
:102CE000A409002010000020D0090020340A002090
:102CF000440A0020080A0020180A0020840C002042
:102D0000800C00200C5801081058010880B586B0CE
:102D100000AF0346FB800B46BB8013467B80104B05
:102D20003B610023FB750F4B1B68FB60386901F0AA
:102D300000FF0346002B0DD1386901F0FCFD03466E
:102D4000FB75FB7D002B05D0074AFB88D382064A22
:102D5000BB881383FB7D18461837BD4680BD00BF76
:102D6000A4090020AC0C0020480C002098B500AF4E
:102D7000314B1B78DBB2002B5CD0304B1B88002B17
:102D800006D02E4B1B88013B9AB22C4B1A8039E09F
:102D900001212B4804F090FA00F0BAFB01212848E9
:102DA00004F0F2FA05F024FA264B1B689B68254ACA
:102DB00012682549104698470346224A5360214B22
:102DC0005B68002B1BD01F4B1B681B681D4A1068DB
:102DD0000A221E499847034683F00103DBB2002B09
:102DE0000DD1184804F020F8164B1B685C68154B91
:102DF0001868144B9968134BDA890A23A0470F4BC4
:102E000001221A80124B1B889BB2002B06D0104B5C
:102E10001B889BB2013B9AB20D4B1A800D4B1B884D
:102E20009BB2002B06D00B4B1B889BB2013B9AB286
:102E3000084B1A8000BF98BD421F00203C1F002095
:102E4000840C0020E80A0020F40A0020F00A002088
:102E50003E1F0020401F002080B483B000AF034617
:102E6000FB80044AFB88138000BF0C37BD465DF829
:102E7000047B70473E1F002080B483B000AF002366
:102E8000FB71074B1B889BB2002B01D10123FB7107
:102E9000FB7918460C37BD465DF8047B704700BFD0
:102EA0003E1F002080B483B000AF0346FB80044A7D
:102EB000FB88138000BF0C37BD465DF8047B70476C
:102EC000401F002080B483B000AF0023FB71074B8C
:102ED0001B889BB2002B01D10123FB71FB791846A3
:102EE0000C37BD465DF8047B704700BF401F0020D3
:102EF00080B582B000AF0023FB7100210E48FFF7C0
:102F000087FEFB79184600F027FF0C4B1B68013346
:102F10000A4A13600A4B93F82930002B02D0084864
:102F20000FF00EFC0021044804F0E4F9FB79184688
:102F30000837BD4680BD00BF840C00202062002001
:102F4000F80A002080B500AF044B1B78DBB2012BE0
:102F500002D1034811F0F8FA00BF80BD421F0020E3
:102F60008C03002080B500AF074811F0A1FA074894
:102F700010F054FD002000F0BFFD00228021044825
:102F800001F04DFD00BF80BD8C030020F008002043
:102F9000A409002080B582B000AF786006F0B6F9D1
:102FA000642009F05FFD1E22002141F28830FFF706
:102FB000ADFE012009F056FDFFF7D8FEF9E780B518
:102FC00082B000AF7860012009F04CFDFFF7BAFF36
:102FD000F9E780B500AFFFF7D7FD0346002B02D11C
:102FE000FFF7AEFD01E0FFF7B7FD00BF80BD0000B9
:102FF00080B500AF10212448FFF7EEFD01214FF00E
:103000009040FFF7E9FD80214FF09040FFF7E4FD8D
:1030100002214FF09040FFF7DFFD08214FF0904074
:10302000FFF7DAFD04214FF09040FFF7D5FD402176
:103030004FF09040FFF7D0FD20211348FFF7CCFD63
:1030400001211248FFF7C8FD4FF400711048FFF747
:10305000C3FD4FF400610E48FFF7BEFD4FF48061E1
:103060000B48FFF7B9FD4FF400510948FFF7B4FDD5
:103070004FF480510648FFF7AFFD4FF480710448CC
:10308000FFF7AAFD00BF80BD00080048000400480B
:103090000010004880B483B000AF786039607B686E
:1030A0001A6A3B681A437B681A6200BF0C37BD4638
:1030B0005DF8047B7047000080B487B000AFF86013
:1030C000B9607A60BB68012B2ED0BB68042B29D075
:1030D000BB68102B24D0BB68402B1FD0BB68B3F556
:1030E000807F19D0BB68B3F5806F13D0BB68B3F590
:1030F000805F0DD0BB68B3F5804F07D0BB68B3F5D8
:10310000803F01D1082310E009230EE007230CE0E3
:1031100006230AE0052308E0042306E0032304E075
:10312000022302E0012300E00023FB75FB68183353
:103130001946FB7D0E4AD35C0B443B613B691A6820
:10314000FB7D0C49CB5C19460B4B8B40DB431A4093
:10315000FB7D0849CB5C19467B688B401A433B6971
:103160001A6000BF1C37BD465DF8047B704700BF86
:1031700094580108A05801087300010080B485B07C
:1031800000AF786039603B68012B2ED03B68042B80
:1031900029D03B68102B24D03B68402B1FD03B68C4
:1031A000B3F5807F19D03B68B3F5806F13D03B68CF
:1031B000B3F5805F0DD03B68B3F5804F07D03B6817
:1031C000B3F5803F01D1082310E009230EE0072367
:1031D0000CE006230AE0052308E0042306E00323AD
:1031E00004E0022302E0012300E00023FB737B687C
:1031F00018331946FB7B0A4AD35C0B44BB60BB689F
:103200001A68FB7B0749CB5C194608238B401A439D
:10321000BB681A6000BF1437BD465DF8047B704779
:1032200094580108A058010880B483B000AF7860BA
:1032300039607B685B6C23F0FF023B681A437B6854
:103240005A6400BF0C37BD465DF8047B704780B4FC
:1032500083B000AF786039607B683A685A6300BF1A
:103260000C37BD465DF8047B704780B483B000AF77
:10327000786039607B683A689A6300BF0C37BD4656
:103280005DF8047B704780B483B000AF786039602C
:103290007B683A68DA6300BF0C37BD465DF8047B93
:1032A000704780B483B000AF78607B685B6C43F498
:1032B00000427B685A6400BF0C37BD465DF8047B52
:1032C000704780B483B000AF78607B68B3F9043096
:1032D00018460C37BD465DF8047B704780B582B058
:1032E00000AF786039607B681B68396878689847F8
:1032F00000BF0837BD4680BD90B585B002AF554BC5
:10330000554A1A6054480DF023FDFFF7A7FB5348B8
:103310000BF047FE52480CF03BFD524B1B68504AE5
:103320004E4918460CF09BFB4E4B1968494B1B68E5
:1033300000934D4B4D4A4E480CF04AF94D480BF066
:1033400030FE4D480BF02DFE4C4B1B684C4ADA60AA
:103350004A4B1B684B4A9A604B4B18684B4B1A6898
:103360004B4B1B6846490BF0BDFC4A4B4A4A1A605E
:10337000484B1B6818460BF0F2FF364B1B68474A58
:103380001360464B3E4A5A60444B3E4A9A60434B58
:10339000434ADA60414B354A1A61404B414A5A610F
:1033A0003B4B1B683D4A9361384B1B683B4AD361DA
:1033B0003A4B2F4A1A62394B294A5A62374B3A4ADA
:1033C0009A62364B394ADA62344B00221A63334828
:1033D00010F04CFF354B224A1A60344B294A5A6090
:1033E000324B1E4A9A60314B2F4ADA602F4810F058
:1033F000B1FA002000F080FB224B012283F8242048
:10340000184B1B681F4C18460CF096FC03461A46D6
:103410002282C3F30F436382124B1B6818460CF0E1
:103420008BFC03463B60B7F90220164B9A820D4B8A
:103430001B6818460CF080FC03467B60B7F904302B
:1034400000221946164801F057FA00BF0C37BD4656
:1034500090BD00BFAC0C00207801002010000020BF
:103460001C0200209009002044030020D009002005
:10347000000100203C000020680000209C09002082
:10348000440A0020480C0020A009002098090020D0
:1034900094090020700C0020580300208C030020A9
:1034A000A409002070030020CC000020F0080020B8
:1034B00080B582B000AF0346FB71FB79104A52F829
:1034C000233018460EF000FD0E4810F0F1FF0E48B4
:1034D00010F0A4FAFB79184600F00EFB4FF4487088
:1034E000FFF7E0FCFB79094A2C2101FB03F31344AD
:1034F0001F3308221A7000BF0837BD4680BD00BFC9
:10350000AC0C00208C030020F0080020A40900204F
:1035100090B58DB000AF0023FB85002387F82D30D8
:10352000B74801F01EFB0346002B40F0B282B44BBB
:10353000DB7F142B00F2B18201A252F823F000BF0E
:10354000953500089B3A00089B3A00089B3A000812
:10355000F13700089B3A0008B53900089B3A00088B
:10356000F13900089B3A0008313A00081B3A00087C
:103570009B3A00089B3A00089B3A00089B3A0008D7
:103580007F370008373700089B3A000805390008E4
:10359000393A00089A4B9B7F012B04D0984B9B7FB4
:1035A000032B40F07C82964801F008FB0346194645
:1035B00094480CF063F894480BF082FA0421924886
:1035C0000BF0B4FA642009F04DFA904B1B6801220D
:1035D000A3F860208D4B1B680021184600F07CFC8E
:1035E0008A4B1B6818460EF0D6FB1420FFF734FCFC
:1035F0004FF00003FB614FF00003BB614FF000038D
:103600007B61834B7B624FF000033B627C4801F09F
:10361000D5FA034619467B480CF030F840F2555174
:103620007C48FFF737FD602201217A48FFF744FD0F
:10363000602210217748FFF73FFD60224FF4807130
:103640007448FFF739FD32217248FFF7EDFD012183
:103650007048FFF793FD10216E48FFF78FFD4FF480
:1036600080716C48FFF78AFD64216A48FFF7EFFD1F
:1036700064216848FFF7F9FD64216648FFF703FEFF
:103680004FF47A7009F0EEF9624B5B6C614A43F4D7
:10369000806353645F48FFF704FE5B480BF010FA49
:1036A00007F1140307F1180207F11C015A48D7ED7E
:1036B000080A97ED090A0FF08FFCD7ED077A9FED06
:1036C000577A67EE877AFCEEE77A17EE901A514840
:1036D000FFF7BDFDD7ED067A9FED507A67EE877A4A
:1036E000FCEEE77A17EE901A4A48FFF7BEFDD7EDD9
:1036F000057A9FED4A7A67EE877AFCEEE77A17EE55
:10370000901A4448FFF7BFFD424B5B6C414A43F4BB
:10371000806353643F48FFF7C4FD3F4BD3ED007A0D
:103720009FED3F7A77EE877A3B4BC3ED007A1E2000
:1037300009F098F9B4E7324B9B7F052B03D10020A9
:10374000FFF7B6FEADE1314B1B680121184600F0D2
:10375000C3FB0346002B00F0A481294B9B7F032B66
:1037600009D1002000F0C8F9254B00229A77244B9C
:103770000022DA7795E1224B1422DA7791E1204B8F
:103780009B7F052B03D10020FFF792FE8BE1FFF713
:1037900073FB0346002B00F086811C4B1B68184608
:1037A0000EF092FB1F4B012283F824201E4B1B6856
:1037B0001E4918460CF07FF91D480CF043FB134BD3
:1037C0001B68184600F054FB002000F095F91948DA
:1037D00010F082FE0D4B1B68184600F071FB084B81
:1037E0000422DA77094B1B68184600F069FB5AE19E
:1037F000034B9B7F052B1FD10020FFF759FE54E19F
:10380000A409002000010020800C0020AC0C002046
:10381000CDCCCC3D002C0140441F002000D084457D
:10382000CDCCCC3D480C002090090020D0090020D0
:103830001C0200208C030020A4480BF09BFF0346D1
:1038400083F00103DBB2002B10D1A14B1B6818469B
:103850000CF016FA0346BB819E4BB3F91430FB8182
:103860009C4B103307F10C021068186007F112032B
:10387000194699480CF0E8FC07F1120319469748DD
:103880000CF04EFB034687F82A30954801F096F974
:1038900003465BB2194691480CF07BFC97F82A303E
:1038A00019468D480CF0EAFD97F82A30002B00F0FD
:1038B000FC808A48FFF705FD03461946854B5A6888
:1038C0001346184600F02EFF0346BB60854B1B686D
:1038D00018460BF044FD834B1B687E4AB2F910205A
:1038E0001146002218460BF089FD7E4B1B68B7F984
:1038F00008201146192218460BF080FD784B132240
:10390000DA77D2E0764B9B7F052B03D10020FFF7BF
:10391000CFFDCCE0BB1D19466F480CF095FC03466B
:1039200087F82C306C480CF0CDFD034687F82B301F
:1039300097F82C30002B03D197F82B30002B01D0B7
:10394000012300E0002387F82C3097F82C3003F097
:10395000010387F82C3097F82C30002B00F0A7805B
:103960005C4BB3F910301C465F480BF095FB0346E7
:103970001BB204FB03F319465B480BF069FB5B4881
:1039800010F050FC524B1B68544918460CF093F849
:10399000002000F05DF9002000F076F94C4B1B6828
:1039A00018460CF0E4F94E4801F05DF84C4B062245
:1039B000DA777CE04A4B9B7F052B03D10020FFF791
:1039C00077FD7BE0464801F04EF8002000F05CF9FE
:1039D00097F82D3083F00103DBB2002B04D00022D6
:1039E00020213F4801F01BF8404810F01BF865E02B
:1039F000FFF768FA0346002B5BD0354B1B6836494E
:103A000018460CF058F834480CF0DEFB344B00221A
:103A10009A77334B0022DA774BE0314B9B7F022BB6
:103A200049D12F4B00229A772D4B0022DA7742E0C2
:103A30002B4B0B22DA7741E0294B9B7F052B03D1DF
:103A40000020FFF735FD38E0294811F0F3FB03466D
:103A500083F00103DBB2002B2FD01E4B012283F831
:103A600024201B4B1B681C4918460CF024F81B48EB
:103A70000CF0E8F9002000F03FF81D4810F02CFD94
:103A80001C4B1B68184600F01BFA154B0422DA7712
:103A900013E0134B0A22DA7710E000BF0EE000BFFC
:103AA0000CE000BF0AE000BF08E000BF06E000BF76
:103AB00004E000BF02E000BF00E000BF0C4810F0CF
:103AC0004FFF00BF3437BD4690BD00BF000100204E
:103AD00090090020480C0020D00900201C02002082
:103AE000A4090020700C002010000020F008002025
:103AF0008C030020AC0C002080B586B000AF0346DC
:103B0000FB710023BB820023FB8200233B82002346
:103B10007B820023BB810023FB81FB79454A262160
:103B200001FB03F313441A4607F1140318681060ED
:103B3000FB79404A262101FB03F3134404331A4660
:103B400007F10C0318681060FB793A4A262101FB43
:103B500003F313440C331A4607F11003186810607E
:103B6000FB79344A262101FB03F3134410331A4630
:103B700007F1100318681060FB792E4A262101FB1B
:103B800003F313441E3300221A80FB79294A2621AD
:103B900001FB03F313441033063307F110021068DE
:103BA0001860FB79234A262101FB03F313441833E1
:103BB000023307F10C0210681860FB791D4A2621B8
:103BC00001FB03F31344203300221A80FB791A4AC5
:103BD00052F82330002118460BF03AFAFB79174AC5
:103BE00052F82330002118460BF032FAFB79144AC0
:103BF00052F8233018460BF06CFFFB79114A52F84B
:103C00002330184600F050F9FB790F4A52F8233060
:103C1000002B06D0FB790C4A52F8233018460BF0E3
:103C200083F8FB791946094803F01CFB00BF1837DD
:103C3000BD4680BD480C0020940900209809002052
:103C400090090020AC0C0020A0090020840C00206A
:103C500080B582B000AF0346FB71FB79FF2B0CD01F
:103C6000FB79084A52F82330002B06D0FB79054A2D
:103C700052F8233018460BF0F7F800BF0837BD465E
:103C800080BD00BFA009002090B585B000AF0346FD
:103C9000FB7172B600BFFB792C4A262101FB03F3AE
:103CA000134403F1100207F10C031068186062B6A8
:103CB00000BFFB79254A262101FB03F3134424337B
:103CC0001B78002B2DD1FB79214A52F82330FC7947
:103CD00018460BF0D5FF034619461C4A262304FB61
:103CE00003F313441E330A461A80FB79174A262130
:103CF00001FB03F313441E33B3F90030BB81FB799E
:103D0000144A52F82330002B0BD0FB79114A52F899
:103D10002300FB790E4A52F823301A46F9680BF05B
:103D200013F872B600BFFB79084A262101FB03F3A2
:103D3000134410331A4607F10C031868106062B67A
:103D400000BF00BF1437BD4690BD00BF480C002027
:103D500090090020A009002080B588B000AF03467C
:103D6000FB714FF00003FB614FF00003BB614FF0AC
:103D700000033B614FF00003FB60314BDB7F132BF3
:103D800013D1304B1B6818460BF0C2FB034683F07F
:103D90000103DBB2002B08D02A4B1B6818460BF03E
:103DA000F7FA03461AB2284B1A8200F037FC00F0EB
:103DB00099FB264B1B6807F1140211461846FFF7C2
:103DC0008DFA214B1A4607F1140318681060B7F9F1
:103DD000143007EE903AF8EEE77AC7ED077AB7F9B4
:103DE000163007EE903AF8EEE77AC7ED067A184BF0
:103DF000D3ED007A07F10C0207F1100397ED061AD4
:103E0000D7ED070AB0EE670A114618460FF072F9AF
:103E1000D7ED047AFDEEE77A17EE903A1AB20A4B24
:103E20009A81D7ED037AFDEEE77A17EE903A1AB24F
:103E3000054BDA81002318462037BD4680BD00BF00
:103E4000A4090020700C0020480C0020AC0C0020BD
:103E5000441F002080B483B000AF786039607B6875
:103E60003A689A6200BF0C37BD465DF8047B704724
:103E700080B483B000AF78607B680022A3F868202C
:103E80007B680022A3F86A207B680022A3F86C20DC
:103E90007B6800229A637B6800225A6300BF0C375C
:103EA000BD465DF8047B704780B582B000AF786096
:103EB0007B685B687868984700BF0837BD4680BD5F
:103EC00080B582B000AF78607B689B68786898475F
:103ED00000BF0837BD4680BD80B584B000AF7860B4
:103EE0000B46FB700023FB73FB78002B09D178682D
:103EF000FFF7DAFF7B68DB68786898470123FB737C
:103F00001DE0FB78012B1AD17B68B3F86030002BE1
:103F100013D07B68B3F86030013B9AB27B68A3F89A
:103F200060207B68B3F86030002B08D17B68DB68C9
:103F3000786898470123FB7301E00123FB73FB7B47
:103F400018461037BD4680BD80B584B000AF78609C
:103F50007B6893F8833083F00103DBB2002B1FD022
:103F60007B6893F87B30022B1AD17B68DA6B7B6815
:103F7000B3F8483019461046FFF76CFF7B681A6C9F
:103F80007B68B3F84A3019461046FFF763FF7B6839
:103F90005A6C7B68B3F84C3019461046FFF75AFF4D
:103FA0007B68012283F880207B687833FB60FB68A4
:103FB00018461037BD4680BD80B485B000AF78602C
:103FC00039603B685B6C43F480623B685A647B6891
:103FD000012283F881207B68012283F883207B689B
:103FE0007833FB60FB6818461437BD465DF8047BE8
:103FF000704780B485B000AF78600023FB817B6898
:1040000093F88130002B05D00223FB817B680022CE
:1040100083F881207B6893F88030002B07D0FB89E0
:1040200043F04003FB817B68002283F880207B689B
:1040300093F88230002B07D0FB8943F48063FB8127
:104040007B68002283F88220FB8918461437BD461E
:104050005DF8047B704780B582B000AF78607B6804
:10406000DB697868984700BF0837BD4680BD80B5DA
:1040700082B000AF78607B681B6A7868984700BFA1
:104080000837BD4680BD80B582B000AF78607B68E0
:104090009B6A7868984700BF0837BD4680BD80B4EA
:1040A00083B000AF786039607B681B6B23F00F0230
:1040B0003B681A437B681A6300BF0C37BD465DF846
:1040C000047B704780B487B000AFF860B9607A6055
:1040D000FB6830331A46BB681B0A9B0003F00C03D5
:1040E00013447B617B691A68BB6803F01F031F21BF
:1040F00001FA03F3DB431A407B689B0E03F01F01B8
:10410000BB6803F01F0301FA03F31A437B691A60CB
:1041100000BF1C37BD465DF8047B704780B487B094
:1041200000AFF860B9607A60FB6814331A46BB6868
:104130005B0E9B0003F0040313447B617B691A68E8
:10414000BB681B0D03F01F03072101FA03F3DB43D8
:104150001A40BB681B0D03F01F03796801FA03F3D3
:104160001A437B691A6000BF1C37BD465DF8047BAB
:10417000704780B483B000AF78607B689B6823F0A1
:10418000004323F03F0343F001027B689A6000BFC5
:104190000C37BD465DF8047B704780B483B000AF38
:1041A00078607B689B6803F00103012B01D1012338
:1041B00000E0002318460C37BD465DF8047B7047CD
:1041C00080B483B000AF786039607B689B6823F06F
:1041D000404323F03F033A6802F08042134343F028
:1041E00000427B689A6000BF0C37BD465DF8047BD7
:1041F000704780B483B000AF78607B689B6803F041
:104200000043B3F1004F01D1012300E00023184621
:104210000C37BD465DF8047B704780B483B000AFB7
:1042200078607B689B6823F0004323F03F0343F0F2
:1042300004027B689A6000BF0C37BD465DF8047BC2
:10424000704780B483B000AF78607B681B6803F070
:104250000103012B01D1012300E0002318460C3794
:10426000BD465DF8047B704780B483B000AF7860D2
:104270007B681B6803F00403042B01D1012300E0D9
:10428000002318460C37BD465DF8047B704780B4A8
:1042900083B000AF78607B6804221A6000BF0C37DF
:1042A000BD465DF8047B704780B483B000AF786092
:1042B0007B6820221A6000BF0C37BD465DF8047B86
:1042C000704780B483B000AF78607B685B6823F090
:1042D00004027B685A6000BF0C37BD465DF8047B62
:1042E000704780B483B000AF78607B685B6823F070
:1042F00020027B685A6000BF0C37BD465DF8047B26
:10430000704780B483B000AF78607B681B6C9BB251
:1043100023F00F039BB218460C37BD465DF8047BB3
:104320007047000080B584B000AF7860FF23FB7356
:104330000023BB7329E0BB7B674A52F82330002B74
:1043400004D1FB7B042B01D9BB7BFB73BB7B624A93
:1043500052F82330002B15D0BB7B5F4A52F8233034
:104360001A797B681B799A420CD1BB7B5A4A52F866
:1043700023301A687B681B689A4203D1BB7BFB73AE
:104380000423BB73BB7B0133BB73BB7B032BD2D931
:10439000FB7B032B00F29980FB7B4F497A6841F845
:1043A0002320FB7B4D4A002142F833107B681B68B9
:1043B0001846FFF7F2FE0346002B30D17B681B68DE
:1043C0001846FFF77EFF7B681B681846FFF75FFF04
:1043D0007B681B681846FFF784FF7B681B681846DC
:1043E000FFF762FF7B681B687F211846FFF7E8FE36
:1043F00000BF7B681B681846FFF7FBFE0346012BD6
:10440000F7D004E07B681B681846FFF7B2FE7B68B4
:104410001B681846FFF715FF0346002BF2D0FA7B06
:104420002F4913465B0013445B000B4400221A70B3
:10443000FA7B2B4913465B0013445B000B440533A6
:10444000FA7B1A70FA7B264913465B0013445B0023
:104450000B440433FA7B1A707B681B6800211846F2
:10446000FFF71DFE7B6818687B681B79092B12D843
:104470007B681B799B061A467B681B7919460123CA
:104480008B401A437B681B7919460B465B000B4433
:104490001B05134314E07B681B799B061A467B6857
:1044A0001B79194601238B401A437B681B791946F7
:1044B0000B465B000B441E3B1B05134343F000738C
:1044C0007A6892681946FFF729FE7B68FA7B1A73AF
:1044D00000BF1037BD4680BD481F0020581F002078
:1044E000781F002080B500AF494B1B781946494A18
:1044F0000B465B000B445B0013441B78002B00F061
:104500008480434B1B781A46434B53F822301B6878
:104510001846FFF7BCFE3E4B1B781A463E4B53F83D
:10452000223018683A4B1B781A463B4B53F822301E
:104530001B79092B21D8364B1B781A46364B53F87A
:1045400022301B799B061A46314B1B781946324B99
:1045500053F821301B79194601238B401A432C4B09
:104560001B7819462C4B53F821301B7919460B4602
:104570005B000B441B05134323E0254B1B781A46B5
:10458000254B53F822301B799B061A46204B1B788B
:104590001946214B53F821301B79194601238B40D2
:1045A0001A431B4B1B7819461B4B53F821301B79C0
:1045B00019460B465B000B441E3B1B05134343F09F
:1045C00000731A460621FFF77DFD114B1B781A4632
:1045D000114B53F822301B681846FFF792FE0C4B24
:1045E0001B781A460C4B53F822301B681846FFF70D
:1045F00014FE074B1B781946064A0B465B000B441A
:104600005B001344013301221A7000BF80BD00BF5C
:10461000901F0020781F0020481F002090B583B015
:1046200000AF304B1B7819462F4A0B465B000B44FA
:104630005B0013441B78002B50D02A4B1B78194683
:10464000294A0B465B000B445B00134401331B7883
:10465000FB71244B1B781A46244B53F822301B68FD
:104660001846FFF701FE3860FB79022B29D0FB7951
:10467000002B26D03B68002B23D01A4B1B781A4600
:104680001A4B53F822301B68164A12781446184603
:10469000FFF737FE03461946134A23465B002344BF
:1046A0005B00134402330A461A800E4B1B781946EE
:1046B0000D4A0B465B000B445B001344013302229E
:1046C0001A70084B1B781946074A0B465B000B44CF
:1046D0005B00134405331A78024B1A7000BF0C3785
:1046E000BD4690BD901F0020781F0020481F00206D
:1046F00080B483B000AF786039607B683A685A60F4
:1047000000BF0C37BD465DF8047B704780B483B0B2
:1047100000AF78607B689B6818460C37BD465DF833
:10472000047B704780B58CB000AF78600B467B800F
:10473000B7F90230184600F06DF80346FB60B7F990
:104740000430B7F90C2002FB03F3BB62B7F9063063
:10475000B7F90E2002FB03F37B62BA6A7B6AD31AB5
:10476000DB133B623B6AB3F5004F03DB47F6FF7395
:10477000FB8509E03B6A13F5004F03DA4FF4004371
:10478000FB8501E03B6AFB85FB8D3B82B7F910306E
:1047900013F5004F02D148F201033B82B7F9043010
:1047A000B7F90E2002FB03F3FB61B7F90630B7F946
:1047B0000C2002FB03F3BB61FA69BB691344DB13F2
:1047C0003B623B6AB3F5004F03DB47F6FF73FB85A3
:1047D00009E03B6A13F5004F03DA4FF40043FB8511
:1047E00001E03B6AFB85FB8D7B82B7F9123013F544
:1047F000004F02D148F201037B823B697B610023B9
:10480000BA8A62F30F03FA8A62F31F4318463037FD
:10481000BD4680BD80B584B000AF0346FB80104B21
:104820004FF060121A60B7F9063003F1FF4303F549
:10483000FE0319460A48FFF75BFF0948FFF766FFCA
:104840000346BB60BB68FB600023BA8962F30F03B9
:10485000FA8962F31F4318461037BD4680BD00BF7A
:10486000000C024080B485B000AF87ED010A3B1D0B
:10487000FB60FB681B6818461437BD465DF8047B77
:10488000704780B483B000AF78607B680022DA6044
:104890007B6800229A6100BF0C37BD465DF8047B3F
:1048A000704780B483B000AF78607B685B6918465E
:1048B0000C37BD465DF8047B704780B483B000AF11
:1048C00078600B467B8013463B807B6801221A731D
:1048D0007B687A88DA817B683A889A837B680122D0
:1048E00083F824207B68032283F8252000BF0C373F
:1048F000BD465DF8047B704780B483B000AF78603C
:104900000B467B8013463B807B6802221A737B68D0
:104910007A881A827B683A889A837B68012283F8B6
:1049200024207B68042283F8252000BF0C37BD4675
:104930005DF8047B704780B584B000AF78600023D9
:10494000FB73786800F0F5F80346002B14D1786803
:1049500000F0FBF80346002B0ED1786800F001F957
:104960000346002B08D17B6801229A777B680122DD
:1049700083F824200123FB73FB7B18461037BD46C8
:1049800080BD80B584B000AF78600023FB73786889
:1049900000F0CFF803467B737B7B002B02D07B7B40
:1049A0000C2B02D10023BB7301E00123BB73786899
:1049B00000F0CBF80346002B0DD1786800F0D1F859
:1049C0000346002B07D1BB7B002B04D07B6805225C
:1049D0009A770123FB73FB7B18461037BD4680BDD9
:1049E00080B584B000AF78600023FB73786800F076
:1049F000A0F803460B2B0DD1786800F0B2F80346FF
:104A0000002B07D17B6800225A847B6802229A77A8
:104A10000123FB73FB7B18461037BD4680BD80B475
:104A200083B000AF78600B467B8013463B807B6889
:104A30001A8C7B8813439BB21AB2B7F90030DB4360
:104A40001BB213401BB29AB27B681A847B685A8CE3
:104A50007B8813439AB27B685A8400BF0C37BD46EB
:104A60005DF8047B704780B584B000AF78607B68E8
:104A700093F82430012B58D10023FB737B681B7BF8
:104A8000032B36D0032B43DC012B02D0022B18D092
:104A90003EE07B685B68002283F824207B681B680B
:104AA000032118460BF043F87B6818687B68B3F95C
:104AB0000E107B689B8B1A460BF04CF80346FB7379
:104AC00027E07B685B68002283F824207B681B68F2
:104AD000042118460BF02BF87B6818687B68B3F943
:104AE00010107B689B8B1A460BF034F80346FB735F
:104AF0000FE07B685B68012283F824207B685B6899
:104B00007A681033123212681A600123FB7300E0D6
:104B100000BFFB7B002B04D07B68022283F824209B
:104B200003E07B68032283F8242000BF1037BD46D2
:104B300080BD80B483B000AF78607B68DB7F1846AF
:104B40000C37BD465DF8047B704780B483B000AF7E
:104B500078607B685B8C18460C37BD465DF8047B3B
:104B6000704780B483B000AF78607B681B8C1846B8
:104B70000C37BD465DF8047B704780B485B000AF4C
:104B800078607B685B8CFB607B681B8C1B04FA681D
:104B90001343FB60FB6818461437BD465DF8047B81
:104BA000704780B483B000AF78607B6893F825309D
:104BB00018460C37BD465DF8047B704780B485B05D
:104BC00000AF78600123FB817B681B7B032B18D02F
:104BD000032B1FDC012B02D0022B09D01AE07B68CB
:104BE000B3F90E30002B17DA4FF6FF73FB8113E099
:104BF0007B68B3F91030002B10DA4FF6FF73FB819E
:104C00000CE07B68B3F91230002B09DA4FF6FF7322
:104C1000FB8105E000BF04E000BF02E000BF00E050
:104C200000BFB7F90E3018461437BD465DF8047B57
:104C3000704780B483B000AF78607B68B3F90E3002
:104C400018460C37BD465DF8047B704780B483B0CE
:104C500000AF78607B689B8B18460C37BD465DF8CB
:104C6000047B704780B582B000AF78607B681B68BA
:104C70001846FFF706FE00BF0837BD4680BD80B569
:104C800084B000AF78607B681B681846FFF709FEA8
:104C9000F860F8680AF024FE03467B81B7F90A3011
:104CA00018461037BD4680BD80B582B000AF786031
:104CB0007B681B6818460AF01EFF03461846083733
:104CC000BD4680BD80B485B000AF78607B685A680F
:104CD00007F10C031632106818600023BA8962F3DA
:104CE0000F03FA8962F31F4318461437BD465DF877
:104CF000047B704780B485B000AF78607B685A68E9
:104D000007F10C031A32106818600023BA8962F3A5
:104D10000F03FA8962F31F4318461437BD465DF846
:104D2000047B704780B483B000AF78607B685B68B9
:104D3000B3F91E3018460C37BD465DF8047B70474A
:104D400090B583B000AF78607B681A687B685C6858
:104D500010460AF0F1FF03461A462282C3F30F43BE
:104D6000638200BF0C37BD4690BD80B582B000AFF6
:104D700078600B46FB707B689B6AFA781146184690
:104D800002F070FA00BF0837BD4680BD80B483B022
:104D900000AF7860044B5A697B68134018460C37A3
:104DA000BD465DF8047B70470004014080B483B0C9
:104DB00000AF7860044A7B68536100BF0C37BD4682
:104DC0005DF8047B704700BF0004014080B500AF70
:104DD000FEF7C8F8FEE780B500AF4FF40050FFF7CC
:104DE000D5FF0346002B05D04FF40050FFF7DEFF40
:104DF000FEF7EFF800BF80BD80B483B000AF7860ED
:104E00007B6840221A6000BF0C37BD465DF8047B0A
:104E1000704780B483B000AF78607B686FF00102A8
:104E20001A6100BF0C37BD465DF8047B704780B443
:104E300083B000AF78607B686FF080021A6100BFBA
:104E40000C37BD465DF8047B704780B483B000AF7B
:104E500078607B681B6903F08003802B01D10123FC
:104E600000E0002318460C37BD465DF8047B704710
:104E700080B483B000AF78607B686FF480721A6191
:104E800000BF0C37BD465DF8047B704780B483B02B
:104E900000AF78607B681B6903F48073B3F5807F93
:104EA00001D1012300E0002318460C37BD465DF810
:104EB000047B704780B485B000AF786039607B6850
:104EC000FB600C4A3B6813441B781A46FB6813448A
:104ED0001B6808493A680A4412781146FA680A447D
:104EE00023F00103136000BF1437BD465DF8047B57
:104EF000704700BFAC58010880B483B000AF786041
:104F00007B681B6803F00203022B01D1012300E040
:104F1000002318460C37BD465DF8047B704780B40B
:104F200083B000AF78607B681B6803F02003202B00
:104F300001D1012300E0002318460C37BD465DF87F
:104F4000047B704780B483B000AF78607B681B68D7
:104F500003F00403042B01D1012300E000231846D1
:104F60000C37BD465DF8047B704780B483B000AF5A
:104F700078607B681B6803F00803082B01D10123CC
:104F800000E0002318460C37BD465DF8047B7047EF
:104F900080B483B000AF78607B681B6803F0800347
:104FA000802B01D1012300E0002318460C37BD46B9
:104FB0005DF8047B704780B483B000AF78607B6895
:104FC00002225A6000BF0C37BD465DF8047B704773
:104FD00080B483B000AF78607B6820225A6000BF45
:104FE0000C37BD465DF8047B704780B483B000AFDA
:104FF00078607B6804225A6000BF0C37BD465DF8BC
:10500000047B704780B483B000AF78607B6808226F
:105010005A6000BF0C37BD465DF8047B704780B412
:1050200083B000AF78607B6880225A6000BF0C3785
:10503000BD465DF8047B704780B500AF4FF0A040DF
:10504000FFF7DAFEFDF754FF00BF80BD80B500AF6B
:105050000348FFF7DEFE03480CF085FF00BF80BD6C
:10506000002C01407801002080B500AF0D48FFF70B
:10507000ECFE0346002B05D00A48FFF7D8FE0A488D
:10508000FEF762FF0748FFF701FF0346002B06D03B
:105090000448FFF7EDFE03490348FEF78DFF00BF0C
:1050A00080BD00BF002C01407801002080B500AF1A
:1050B00003F056FC00BF80BD80B500AF0E48FFF77F
:1050C00041FF0346002B02D00B48FFF78EFF0A4832
:1050D000FFF712FF0346002B02D00748FFF76BFFD4
:1050E0000548FFF742FF0346002B02D00248FFF7B6
:1050F00089FF00BF80BD00BF0000024080B500AF47
:105100000F48FFF70CFF0346002B09D00C48FFF7B0
:105110005FFF01210A48FFF7CDFE0A4B00221A70FB
:105120000748FFF735FF0346002B06D00448FFF77A
:1051300076FF01210248FFF7BDFE00BF80BD00BF22
:10514000000002403020002080B483B000AF7860BF
:105150007B68B3F9043018460C37BD465DF8047B14
:10516000704780B483B000AF78607B6893F84830B4
:1051700018460C37BD465DF8047B704780B483B099
:1051800000AF78607B68D3F8003118460C37BD4615
:105190005DF8047B704780B483B000AF78607B68B3
:1051A000D3F8FC3018460C37BD465DF8047B7047D9
:1051B00080B582B000AF78607B68D3ED147AB0EE32
:1051C000670AFFF74FFB034618460837BD4680BD08
:1051D00080B483B000AF78600B2318460C37BD460F
:1051E0005DF8047B704780B485B000AF78607B6861
:1051F00093F83430FB73FB7B18461437BD465DF8DB
:10520000047B704780B483B000AF78600B46FB70BE
:105210007B68FA7883F8762000BF0C37BD465DF8CE
:10522000047B704780B483B000AF786087ED000ADC
:105230007B683A681A6300BF0C37BD465DF8047B93
:10524000704780B483B000AF78607B681B6B07EE5B
:10525000903AB0EE670A0C37BD465DF8047B7047A4
:1052600080B485B000AF7860124BFB607B6893ED33
:105270000B7AD7ED037A27EE277A7B68D3ED267A6F
:1052800027EE277A7B68D3F89C30D3ED136A7B68CE
:10529000D3F89C30D3ED147A66EEA77AC7EE276A6E
:1052A000F0EE667AB0EE670A1437BD465DF8047B0F
:1052B000704700BFCB151E3580B485B000AF786055
:1052C000124BFB607B6893ED087AD7ED037A27EEEB
:1052D000277A7B68D3ED267A27EE277A7B68D3F886
:1052E0009C30D3ED136A7B68D3F89C30D3ED147AED
:1052F00066EEA77AC7EE276AF0EE667AB0EE670A26
:105300001437BD465DF8047B704700BFCB151E35D2
:1053100080B483B000AF78607B6893F86230184641
:105320000C37BD465DF8047B704780B483B000AF96
:105330007860052318460C37BD465DF8047B70473E
:1053400080B582B000AF78607B68D3ED197AB0EE9B
:10535000670AFFF787FA034618460837BD4680BD3F
:1053600080B582B000AF78607B68D3ED1A7AB0EE7A
:10537000670AFFF777FA034618460837BD4680BD2F
:1053800080B582B000AF78607B68D3ED1B7AB0EE59
:10539000670AFFF767FA034618460837BD4680BD1F
:1053A00080B582B000AF78607B68D3ED187AB0EE3C
:1053B000670AFFF757FA034618460837BD4680BD0F
:1053C00080B483B000AF78600B46FB70FB7807EECB
:1053D000903AF8EE677A7B68C3ED127A00BF0C371B
:1053E000BD465DF8047B704780B483B000AF786041
:1053F0007B689B6D07EE903AB0EE670A0C37BD46AE
:105400005DF8047B704780B483B000AF786087EDAF
:10541000000A7B683A68C3F8E02000BF0C37BD463D
:105420005DF8047B704780B483B000AF78607B6820
:10543000D3F8E03007EE903AB0EE670A0C37BD467D
:105440005DF8047B704780B483B000AF78607B6800
:10545000D3F8E43018460C37BD465DF8047B70473E
:1054600080B483B000AF78607B68D3F8E83018462A
:105470000C37BD465DF8047B704780B483B000AF45
:1054800078607B68D3F8EC3018460C37BD465DF881
:10549000047B704780B483B000AF78607B689B6DFD
:1054A00007EE903AB0EE670A0C37BD465DF8047B14
:1054B000704780B483B000AF786087ED000A7B68E6
:1054C0003A68C3F8342100BF0C37BD465DF8047B51
:1054D000704780B483B000AF78607B68D3F8343114
:1054E00007EE903AB0EE670A0C37BD465DF8047BD4
:1054F000704780B483B000AF78607B68D3F84835DC
:10550000B3F8483018460C37BD465DF8047B704749
:1055100080B483B000AF78607B68D3F8483593F8E7
:105520004A3018460C37BD465DF8047B70470000D2
:1055300080B582B000AF78607B685B689B891A4653
:105540007B685B685B8802FB03F30B4A82FB0312F8
:105550001A44D213DB17D31A1846FBF701F8024698
:105560000B4610461946FBF765F803469BB21846F2
:105570000837BD4680BD00BF0180008080B582B085
:1055800000AF78607B685B685B8A1A467B685B6803
:105590005B8802FB03F30B4A82FB03121A44D2130B
:1055A000DB17D31A1846FAF7DBFF02460B46104604
:1055B0001946FBF73FF803469BB218460837BD462D
:1055C00080BD00BF0180008080B483B000AF7860F0
:1055D0000B467B807A8813461B049B1A7A685268B4
:1055E000528893FBF2F27B685B6892B29A8100BFAB
:1055F0000C37BD465DF8047B704780B483B000AFC4
:1056000078600B467B807A8813461B049B1A7A6865
:105610005268528893FBF2F27B685B6892B25A82BE
:1056200000BF0C37BD465DF8047B704780B487B07F
:1056300000AFBA607B600346FB810B467B7300239F
:10564000FB757B7B282B4AD0282B73DC182B39D099
:10565000182B6FDC082B02D0102B0DD06AE0FB89D1
:10566000482B02D10423FB7502E00523FB7500BF24
:105670007B6801221A8063E0FB8941F6583293422D
:1056800015D041F65832934214DCB3F5696F14D04B
:10569000B3F5696F0EDCB3F5656F0ED0B3F5656FCA
:1056A00008DCB3F5B26F02D0B3F5BA6F02D10423B0
:1056B000FB7503E00523FB7500E000BF7B68022259
:1056C0001A803DE0FB89182B02D10423FB7502E010
:1056D0000523FB7500BF7B6804221A8030E0BB689D
:1056E0001B88BB82BB8A02339AB27B681A80BB6874
:1056F0003B613B6901333B613B6901333B617B6843
:105700001A883B8C9A4205D97B6800221A800A23AA
:10571000FB7515E0FB89E82B05D0E82B06DC282B70
:1057200001D0A82B02D10423FB7502E00523FB75F1
:1057300000BF05E00723FB757B6800221A8000BFCD
:10574000FB7D18461C37BD465DF8047B70470000A2
:1057500080B594B000AFBA607B600346FB810B4616
:105760007B73002387F84F30002387F84E3097F87B
:105770004E302C2202FB03F34D4A1344BB647B7B67
:10578000282B00F02D83282B00F37483182B00F0B6
:10579000E081182B00F36E83082B03D0102B00F050
:1057A000918067E3FB89B3F5E96F6FD0B3F5E96FDB
:1057B00075DCB3F5A16F65D0B3F5A16F6FDCB3F500
:1057C000996F5FD0B3F5996F69DCB3F5916F41D0F4
:1057D000B3F5916F63DCB3F5896F53D0B3F5896F7F
:1057E0005DDCB3F5816F4DD0B3F5816F57DCB3F558
:1057F000727F47D0B3F5727F51DCC82B26D0C82BFF
:105800004DDC482B02D0882B04D048E0042387F8D5
:105810004F3049E0BB681B78FB76FB7E042B08D138
:10582000B86CFFF77FFA034600221946B86CFFF701
:1058300063F8FB7E032B36D1B86CFFF735FA0346CD
:1058400000221946B86CFFF738F82CE0042387F8DB
:105850004F3029E0BB681B783B773B7F19461548E2
:105860000AF0EEF83B7F194613480AF0E9F83B7F4F
:1058700019461248FFF7A4FD3B7F19461048FFF771
:10588000C1FC11E0042387F84F300DE0BB681B78A2
:105890007B777B7F194609480FF082FE04E00523E1
:1058A00087F84F3000E000BF7B6801221A80E8E2F1
:1058B000A40900201C020020D00900208C03002035
:1058C000F0080020BB681B88FB83FB8941F650422F
:1058D000934200F02B8141F65042934200F3308115
:1058E00041F61042934200F01B8141F61042934270
:1058F00000F3268141F65832934200F0CD8041F604
:105900005832934200F31C8141F25032934200F02E
:10591000138141F25032934200F3128141F250025E
:10592000934200F0F98041F25002934200F3088163
:1059300041F21002934200F0EF8041F210029342D4
:1059400000F3FE80B3F57D6F00F0E680B3F57D6F68
:1059500000F3F680B3F5796F00F0DE80B3F5796F70
:1059600000F3EE80B3F5696F00F0EE80B3F5696F78
:1059700000F3E680B3F5656F00F0E680B3F5656F80
:1059800000F3DE80B3F5496F00F0C280B3F5496FD4
:1059900000F3D680B3F5456F00F0BA80B3F5456FDC
:1059A00000F3CE80B3F5396F00F0B280B3F5396FF4
:1059B00000F3C680B3F5356F00F0AA80B3F5356FFC
:1059C00000F3BE80B3F5296F6ED0B3F5296F00F3F5
:1059D000B780B3F5256F67D0B3F5256F00F3B080BE
:1059E000B3F5216F60D0B3F5216F00F3A980B3F553
:1059F0001D6F59D0B3F51D6F00F3A280B3F5F26FA0
:105A00004ED0B3F5F26F00F39B80B3F5BA6F43D07D
:105A1000B3F5BA6F00F39480B3F5B26F3CD0B3F531
:105A2000B26F00F38D80B3F5926F6AD0B3F5926FC9
:105A300000F38680B3F58A6F5CD0B3F58A6F7FDCA4
:105A4000B3F5647F45D0B3F5647F79DCB3F5547F5B
:105A50002ED0B3F5547F73DCB3F5887F15D0B3F542
:105A6000887F6DDC902B02D0D02B07D068E0B7F98F
:105A70001E301946B94809F0B3FA66E0B7F91E308E
:105A80001946B64809F0BBFA5FE0B7F91E3019466F
:105A9000B24809F04FFB58E0042387F84F3054E038
:105AA000042387F84F3050E0042387F84F304CE050
:105AB00007F1160207F118031946A9480AF0FAFA85
:105AC000B7F91E30B7F916201946A5480AF008FBA9
:105AD0003BE007F1120207F114031946A0480AF04F
