:020000040800F2
:10000000008000200D1E01085D1E01084D4D0008F6
:100010005D1E01085D1E01085D1E01080000000054
:10002000000000000000000000000000F1D1000806
:100030005D1E01080000000041D40008A9D400089A
:100040005D1E01085D1E01085D1E01085D1E0108A0
:100050005D1E01085D1E01085D1E01085D1E010890
:100060005D1E01085D1E01085D1E01083950000873
:100070007D5000085D1E01085D1E01085D1E01081F
:100080005D1E010800000000B94F00085D1E010858
:100090005D1E01085D1E01085D1E01085D1E010850
:1000A000E94F0008CD4F00085D1E01085D1E0108E4
:1000B0005D1E01085D1E01085D1E01085D1E010830
:1000C0005D1E01085D1E01085D1E01085D1E010820
:1000D0005D1E01082D5000085D1E01085D1E01080F
:1000E000574D00085D1E01085D1E01085D1E0108D8
:1000F0005D1E01085D1E01085D1E01080000000074
:10010000000000005D1E0108000000005D1E0108E7
:100110005D1E010800000000C58100085D1E010889
:100120005D1E01085D1E01085D1E01085D1E0108BF
:100130005D1E010800000000000000005D1E0108B7
:100140005D1E01085D1E01080000000000000000A7
:10015000000000000000000000000000000000009F
:100160000000000000000000000000005D1E01080B
:100170005D1E0108000000000000000000000000FB
:10018000000000005D1E01080000000000000000EB
:10019000000000000000000000000000000000005F
:1001A00000000000000000005D1E01085D1E010847
:1001B0005D1E01085D1E01085D1E010800000000B3
:1001C000000000005D1E01080000000000000000AB
:0801D0005D1E01085D1E01081F
:1001E00010B5054C237833B9044B13B10448AFF371
:1001F00000800123237010BD140C002000000000BB
:10020000B847010808B5034B1BB103490348AFF3D6
:10021000008008BD00000000180C0020B84701084D
:1002200070B4840746D04C1E002941D0D5B2034695
:1002300002E0611EE4B30C4603F8015B9907F8D1B4
:10024000032C2ED9D5B245EA05250F2C45EA0545E4
:1002500019D9264603F11001103E0F2E41F8105C0B
:1002600041F80C5C41F8085C41F8045C01F11001B4
:10027000F2D8A4F1100121F00F0104F00F041031A5
:10028000032C0B440DD91E4621460439032946F898
:10029000045BFAD8211F21F0030104310B4404F060
:1002A00003042CB1D2B21C4403F8012BA342FBD1AE
:1002B00070BC70470C460346C2E7034613F8012B97
:1002C000002AFBD1181A01387047000081F0004164
:1002D00002E000BF83F0004330B54FEA41044FEA2B
:1002E000430594EA050F08BF90EA020F1FBF54EAC6
:1002F000000C55EA020C7FEA645C7FEA655C00F062
:10030000E2804FEA5454D4EB5555B8BF6D420CDD32
:100310002C4480EA020281EA030382EA000083EAB5
:10032000010180EA020281EA0303362D88BF30BD55
:1003300011F0004F4FEA01314FF4801C4CEA1131AB
:1003400002D0404261EB410113F0004F4FEA03330A
:100350004CEA133302D0524263EB430394EA050F95
:1003600000F0A780A4F10104D5F1200E0DDB02FA04
:100370000EFC22FA05F2801841F1000103FA0EF298
:10038000801843FA05F359410EE0A5F120050EF15E
:10039000200E012A03FA0EFC28BF4CF0020C43FA8F
:1003A00005F3C01851EBE37101F0004507D54FF09C
:1003B000000EDCF1000C7EEB00006EEB0101B1F5EC
:1003C000801F1BD3B1F5001F0CD349085FEA300032
:1003D0004FEA3C0C04F101044FEA445212F5800F3D
:1003E00080F09A80BCF1004F08BF5FEA500C50F1DA
:1003F000000041EB045141EA050130BD5FEA4C0CBD
:10040000404141EB0101013C28BFB1F5801FE9D219
:1004100091F0000F04BF01460020B1FA81F308BF3C
:100420002033A3F10B03B3F120020CDA0C3208DD08
:1004300002F1140CC2F10C0201FA0CF021FA02F1E3
:100440000CE002F11402D8BFC2F1200C01FA02F153
:1004500020FA0CFCDCBF41EA0C019040E41AA2BF78
:1004600001EB0451294330BD6FEA04041F3C1CDA40
:100470000C340EDC04F11404C4F1200220FA04F060
:1004800001FA02F340EA030021FA04F345EA03010A
:1004900030BDC4F10C04C4F1200220FA02F001FACC
:1004A00004F340EA0300294630BD21FA04F029464E
:1004B00030BD94F0000F83F4801306BF81F48011E7
:1004C0000134013D4EE77FEA645C18BF7FEA655C5A
:1004D00029D094EA050F08BF90EA020F05D054EA2C
:1004E000000C04BF1946104630BD91EA030F1EBF31
:1004F0000021002030BD5FEA545C05D14000494135
:1005000028BF41F0004130BD14F580043CBF01F527
:10051000801130BD01F0004545F0FE4141F470010D
:100520004FF0000030BD7FEA645C1ABF19461046E8
:100530007FEA655C1CBF0B46024650EA013406BFE9
:1005400052EA033591EA030F41F4002130BD00BFA8
:1005500090F0000F04BF0021704730B54FF4806465
:1005600004F132044FF000054FF0000150E700BFE6
:1005700090F0000F04BF0021704730B54FF4806445
:1005800004F1320410F0004548BF40424FF0000132
:100590003EE700BF42004FEAE2014FEA31014FEA75
:1005A00002701FBF12F07F4393F07F4F81F06051C4
:1005B000704732F07F4208BF704793F07F4F04BF0F
:1005C00041F40021704730B54FF4607401F00045EC
:1005D00021F000411CE700BF50EA010208BF70474C
:1005E00030B54FF000050AE050EA010208BF70473D
:1005F00030B511F0004502D5404261EB41014FF4A6
:10060000806404F132045FEA915C3FF4D8AE4FF0AD
:1006100003025FEADC0C18BF03325FEADC0C18BF90
:10062000033202EBDC02C2F1200300FA03FC20FAE1
:1006300002F001FA03FE40EA0E0021FA02F114442E
:10064000BDE600BF4A0011D212F5001211D20DD53D
:100650006FF47873B3EB62520ED44FEAC12343F0C8
:10066000004343EA505323FA02F070474FF0000072
:10067000704750EA013002D14FF0FF3070474FF021
:100680000000704780B400AF044BDB681B0A03F026
:1006900007031846BD465DF8047B704700ED00E097
:1006A00080B483B000AF0346FB7197F90730002B8D
:1006B0000BDBFB7903F01F02074997F907305B0951
:1006C000012000FA02F241F8232000BF0C37BD469A
:1006D0005DF8047B704700BF00E100E080B483B0A8
:1006E00000AF03463960FB7197F90730002B0ADB36
:1006F0003B68DAB20C4997F907301201D2B20B44C9
:1007000083F800230AE03B68DAB20849FB7903F07A
:100710000F03043B1201D2B20B441A7600BF0C3710
:10072000BD465DF8047B704700E100E000ED00E0AD
:1007300080B489B000AFF860B9607A60FB6803F0FC
:100740000703FB61FB69C3F10703042B28BF0423E4
:10075000BB61FB690433062B02D9FB69033B00E054
:1007600000237B614FF0FF32BB6902FA03F3DA43E7
:10077000BB681A407B699A404FF0FF317B6901FAF0
:1007800003F3D9437B680B40134318462437BD4617
:100790005DF8047B7047000080B485B000AF7860DE
:1007A000084B9A6C07497B6813438B64054B9A6C22
:1007B0007B681340FB60FB6800BF1437BD465DF8E3
:1007C000047B70470010024080B485B000AF7860B1
:1007D000084BDA6C07497B681343CB64054BDA6C32
:1007E0007B681340FB60FB6800BF1437BD465DF8B3
:1007F000047B70470010024080B485B000AF786081
:10080000084B9A6D07497B6813438B65054B9A6DBE
:100810007B681340FB60FB6800BF1437BD465DF882
:10082000047B70470010024080B485B000AF786050
:10083000084B1A6E07497B6813430B66054B1A6E0B
:100840007B681340FB60FB6800BF1437BD465DF852
:10085000047B70470010024080B400AF054B1B685A
:10086000044A43F48073136000BFBD465DF8047B07
:10087000704700BF0010024080B400AF074B1B68F8
:1008800003F48063B3F5806F01D1012300E00023FE
:100890001846BD465DF8047B704700BF001002405B
:1008A00080B483B000AF7860074B5B6823F0FE42F2
:1008B0007B681B06044913434B6000BF0C37BD46E1
:1008C0005DF8047B704700BF0010024080B483B025
:1008D00000AF7860064B9B6823F0030204497B68F5
:1008E00013438B6000BF0C37BD465DF8047B704737
:1008F0000010024080B400AF044B9B6803F00C036F
:100900001846BD465DF8047B704700BF00100240EA
:1009100080B483B000AF7860064B9B6823F0F00290
:1009200004497B6813438B6000BF0C37BD465DF8FC
:10093000047B70470010024080B483B000AF786041
:10094000064B9B6823F4E06204497B6813438B6089
:1009500000BF0C37BD465DF8047B704700100240B5
:1009600080B483B000AF7860064B9B6823F460527C
:1009700004497B6813438B6000BF0C37BD465DF8AC
:10098000047B70470010024080B483B000AF7860F1
:10099000094BD3F888207B681B0CDB431A407B682B
:1009A0009BB205491343C1F8883000BF0C37BD46E0
:1009B0005DF8047B704700BF0010024080B485B032
:1009C00000AF78607B681A0E0F4B1344FB60FB6826
:1009D0001A687B681B0C03F01F03032101FA03F361
:1009E000DB431A407B68D9B27B681B0C03F01F0302
:1009F00001FA03F31A43FB681A6000BF1437BD46BF
:100A00005DF8047B704700BF8810024080B483B05B
:100A100000AF78600E4BD3F888207B681B0C03F086
:100A20001F03032101FA03F3DB431A407B68D9B2A9
:100A30007B681B0C03F01F0301FA03F30449134303
:100A4000C1F8883000BF0C37BD465DF8047B7047A5
:100A50000010024080B400AF054B1B68044A43F00D
:100A60008073136000BFBD465DF8047B704700BF14
:100A70000010024080B400AF074B1B6803F0007306
:100A8000B3F1007F01D1012300E000231846BD46E9
:100A90005DF8047B704700BF0010024080B485B051
:100AA00000AFF860B9607A603B600A4BDA680A4BC5
:100AB0001340F968BA6811437A68120211433A6820
:100AC0000A4304491343CB6000BF1437BD465DF8A9
:100AD000047B7047001002400C80FFF980B485B0A1
:100AE00000AFF860B9607A603B600A4BDA680A4B85
:100AF0001340F968BA6811437A68120211433A68E0
:100B00000A4304491343CB6000BF1437BD465DF868
:100B1000047B7047001002400C80FF0780B400AFD8
:100B2000054BDB68044A43F48033D36000BFBD4605
:100B30005DF8047B704700BF0010024080B400AF36
:100B4000054BDB68044A43F08073D36000BFBD46A9
:100B50005DF8047B704700BF0010024080B483B092
:100B600000AF7860054B5A6804497B6813434B60BB
:100B700000BF0C37BD465DF8047B704700000140A4
:100B800080B487B000AF78603960184A3B6803F0E2
:100B90000303023352F823203B681B0CDB4302EAB9
:100BA00003013B681B0C3B613B6993FAA3F3FB60B9
:100BB000FB687B617B69002B01D1202303E07B690B
:100BC000B3FA83F3DBB203F01F037A689A40074855
:100BD0003B6803F003030A43023340F8232000BFBD
:100BE0001C37BD465DF8047B704700BF0000014024
:100BF00080B483B000AF7860064B1B6823F00F020F
:100C000004497B6813430B6000BF0C37BD465DF899
:100C1000047B70470020024080B400AF044B1B6887
:100C200003F00F031846BD465DF8047B704700BF14
:100C30000020024080B483B000AF786039607B68E8
:100C4000D3F8C03023F47F5323F03F033A681A43AC
:100C50007B68C3F8C0207B681B6923F480333A6843
:100C6000002A02D04FF4803200E000221A437B6851
:100C70001A6100BF0C37BD465DF8047B704780B435
:100C800087B000AFF860B9607A60FB6830331A460D
:100C9000BB681B0A9B0003F00C0313447B617B6958
:100CA0001A68BB6803F01F031F2101FA03F3DB433B
:100CB0001A407B689B0E03F01F01BB6803F01F0303
:100CC00001FA03F31A437B691A6000BF1C37BD4663
:100CD0005DF8047B704780B483B000AF7860396002
:100CE0007B68DB6C23F4C0723B681A437B68DA6470
:100CF00000BF0C37BD465DF8047B704780B485B0FB
:100D000000AFF860B9607A60FB68DA6CBB6803F02A
:100D10001F031F2101FA03F3DB431A407B689B0E7C
:100D200003F01F01BB6803F01F0301FA03F31A432A
:100D3000FB68DA6400BF1437BD465DF8047B70477A
:100D400080B483B000AF786039607B68DB6823F0E3
:100D5000004323F400133A681A437B68DA6000BF4B
:100D60000C37BD465DF8047B704780B487B000AF98
:100D7000F860B9607A60FB6814331A46BB685B0E92
:100D80009B0003F0040313447B617B691A68BB6812
:100D90001B0D03F01F03072101FA03F3DB431A4085
:100DA000BB681B0D03F01F03796801FA03F31A43B4
:100DB0007B691A6000BF1C37BD465DF8047B704735
:100DC00080B485B000AFF860B9607A60FB68D3F892
:100DD000B020BB68C3F31203DB431A407B6803F007
:100DE00018030849D940BB680B40C3F312031A43E8
:100DF000FB68C3F8B02000BF1437BD465DF8047B24
:100E0000704700BFFFFF070080B483B000AF786079
:100E100039607B681B6923F4806323F003033A681D
:100E20001A437B681A6100BF0C37BD465DF8047B2E
:100E3000704780B483B000AF78607B689B6823F014
:100E4000204323F03F037A68936000BF0C37BD4610
:100E50005DF8047B704780B483B000AF78607B6836
:100E60009B6823F0104323F03F0343F080527B68DC
:100E70009A6000BF0C37BD465DF8047B704780B4B4
:100E800083B000AF78607B681B6823F080027B68CA
:100E90001A6000BF0C37BD465DF8047B7047000048
:100EA00080B485B000AF786039603B68012B2ED0EC
:100EB0003B68042B29D03B68102B24D03B68402B87
:100EC0001FD03B68B3F5807F19D03B68B3F5806FC6
:100ED00013D03B68B3F5805F0DD03B68B3F5804F0E
:100EE00007D03B68B3F5803F01D1082310E0092308
:100EF0000EE007230CE006230AE0052308E00423A4
:100F000006E0032304E0022302E0012300E00023C3
:100F1000FB737B6818331946FB7B0B4AD35C0B448D
:100F2000BB60BB681A68FB7B0849CB5C194604238D
:100F30008B40DB431A40BB681A6000BF1437BD46C4
:100F40005DF8047B704700BFA0480108AC48010869
:100F500080B485B000AF786039603B68012B2ED03B
:100F60003B68042B29D03B68102B24D03B68402BD6
:100F70001FD03B68B3F5807F19D03B68B3F5806F15
:100F800013D03B68B3F5805F0DD03B68B3F5804F5D
:100F900007D03B68B3F5803F01D1082310E0092357
:100FA0000EE007230CE006230AE0052308E00423F3
:100FB00006E0032304E0022302E0012300E0002313
:100FC000FB737B6818331946FB7B0A4AD35C0B44DE
:100FD000BB60BB681A68FB7B0749CB5C19460823DA
:100FE0008B401A43BB681A6000BF1437BD465DF8DA
:100FF000047B7047A0480108AC48010880B483B066
:1010000000AF786039607B685B6823F0007323F081
:1010100070033A681A437B685A6000BF0C37BD46BC
:101020005DF8047B704780B483B000AF78603960AE
:101030007B685B6823F470023B681A437B685A60E4
:1010400000BF0C37BD465DF8047B704780B483B0A9
:1010500000AF78607B689B6823F080027B689A60B1
:1010600000BF0C37BD465DF8047B704780B487B085
:1010700000AFF860B9607A60FB6860331A46BB68FD
:1010800013447B617B691A687B681A437B691A6029
:1010900000BF1C37BD465DF8047B704780B48DB03F
:1010A00000AFF860B9607A603B60FB6860331A4655
:1010B000BB681344FB62FB6A1A687B68BB61BB694F
:1010C00093FAA3F37B617B69FB61FB69002B01D180
:1010D000202303E0FB69B3FA83F3DBB203F01F03C1
:1010E0004FF4007101FA03F3DB431A407B687B6223
:1010F0007B6A93FAA3F33B623B6ABB62BB6A002B39
:1011000001D1202303E0BB6AB3FA83F3DBB203F01F
:101110001F03396801FA03F31A43FB6A1A6000BF20
:101120003437BD465DF8047B704780B48BB000AFA8
:10113000F860B9607A60FB681A68BB687B617B699C
:1011400093FAA3F33B613B69BB61BB69002B01D1FF
:10115000202303E0BB69B3FA83F3DBB25B00032116
:1011600001FA03F3DB431A40BB683B623B6A93FA24
:10117000A3F3FB61FB697B627B6A002B01D1202317
:1011800003E07B6AB3FA83F3DBB25B00796801FAB0
:1011900003F31A43FB681A6000BF2C37BD465DF8A5
:1011A000047B704780B48BB000AFF860B9607A60A0
:1011B000FB68DA68BB687B617B6993FAA3F33B61E8
:1011C0003B69BB61BB69002B01D1202303E0BB69F4
:1011D000B3FA83F3DBB25B00032101FA03F3DB43D1
:1011E0001A40BB683B623B6A93FAA3F3FB61FB695D
:1011F0007B627B6A002B01D1202303E07B6AB3FA78
:1012000083F3DBB25B00796801FA03F31A43FB68EE
:10121000DA6000BF2C37BD465DF8047B704780B4B0
:1012200083B000AF786039607B683A689A6100BF2C
:101230000C37BD465DF8047B704780B483B000AFC7
:1012400078607B681B6843F001027B681A6000BF0E
:101250000C37BD465DF8047B704780B483B000AFA7
:1012600078607B681B6823F000527B681A6000BFBF
:101270000C37BD465DF8047B704780B489B000AF81
:10128000786039607B680833FB60FB6853E8003F97
:10129000BB60BB6823F060423B685B071343FB61A4
:1012A0007B680833FA69BA617B617969BA6941E898
:1012B00000233B613B69002BE4D100BF00BF243712
:1012C000BD465DF8047B704780B489B000AF78609C
:1012D00039607B680833FB60FB6853E8003FBB6004
:1012E000BB6823F060623B685B061343FB617B686D
:1012F0000833FA69BA617B617969BA6941E8002308
:101300003B613B69002BE4D100BF00BF2437BD46E1
:101310005DF8047B704780B483B000AF78607B6871
:101320005B6823F490427B685A607B689B6823F07B
:101330002A027B689A6000BF0C37BD465DF8047BCB
:10134000704780B483B000AF78607B68DB6903F4DA
:101350000013B3F5001F01D1012300E0002318465C
:101360000C37BD465DF8047B704780B483B000AF96
:1013700078607B68DB6903F48003B3F5800F01D1EB
:10138000012300E0002318460C37BD465DF8047BBE
:10139000704780B485B000AFF860B9607A60FB68D0
:1013A000DA6BBB6803F010034FF4007101FA03F32A
:1013B000DB431A40BB6803F01003796801FA03F3BA
:1013C0001A43FB68DA6300BF1437BD465DF8047B3F
:1013D000704780B483B000AF786039607B68DA6BA7
:1013E0003B6803F010034FF4807101FA03F3DB4311
:1013F0001A407B68DA6300BF0C37BD465DF8047B9A
:10140000704780B483B000AF786039607B681A6839
:101410003B6803F01003022101FA03F3DB431A4097
:101420007B681A6000BF0C37BD465DF8047B7047CF
:1014300080B487B000AFF860B9607A60FB687B6108
:101440000E4ABB6813441B781A467B6913441B6819
:1014500023F4804323F010030849BA680A44127841
:1014600011467A690A4411467A6813430B6000BF3B
:101470001C37BD465DF8047B704700BFB8480108C3
:1014800080B487B000AFF860B9607A60FB687B61B8
:101490000D4ABB6813441B781A467B6913441B68CA
:1014A00023F020020849BB680B441B7819467B696E
:1014B0000B4419467B6813430B6000BF1C37BD46C5
:1014C0005DF8047B704700BFB848010880B487B05E
:1014D00000AFF860B9607A60FB687B610D4ABB6859
:1014E00013441B781A467B6913441B6823F040029F
:1014F0000849BB680B441B7819467B690B441946A5
:101500007B6813430B6000BF1C37BD465DF8047B4E
:10151000704700BFB848010880B487B000AFF860DA
:10152000B9607A60FB687B610D4ABB6813441B7825
:101530001A467B6913441B6823F080020849BB6884
:101540000B441B7819467B690B4419467B6813438F
:101550000B6000BF1C37BD465DF8047B704700BFC1
:10156000B848010880B487B000AFF860B9607A600D
:10157000FB687B610D4ABB6813441B781A467B6984
:1015800013441B6823F440720849BB680B441B7862
:1015900019467B690B4419467B6813430B6000BFF7
:1015A0001C37BD465DF8047B704700BFB848010892
:1015B00080B487B000AFF860B9607A60FB687B6187
:1015C0000D4ABB6813441B781A467B6913441B6899
:1015D00023F440620849BB680B441B7819467B69B9
:1015E0000B4419467B6813430B6000BF1C37BD4694
:1015F0005DF8047B704700BFB848010880B487B02D
:1016000000AFF860B9607A60FB687B610D4ABB6827
:1016100013441B781A467B6913441B6823F4405219
:101620000849BB680B441B7819467B690B44194673
:101630007B6813430B6000BF1C37BD465DF8047B1D
:10164000704700BFB848010880B487B000AFF860A9
:10165000B9607A60FB689B0A83F4801383F080038F
:10166000DB007B61BA687B6913449B0003F1804314
:1016700003F502331B6823F0FF01BA687B6913444A
:101680009B0003F1804303F502337A680A431A6032
:1016900000BF1C37BD465DF8047B704780B483B043
:1016A00000AF786039607B689B6923F038023B6843
:1016B0001A437B689A6100BF0C37BD465DF8047B16
:1016C000704780B483B000AF786039607B681B6876
:1016D00023F480723B681A437B681A6000BF0C37A2
:1016E000BD465DF8047B704780B483B000AF78607E
:1016F00039607B681B6823F010023B681A437B68E3
:101700001A6000BF0C37BD465DF8047B704780B49B
:1017100083B000AF78607B681B6823F400327B687D
:101720001A6000BF0C37BD465DF8047B704780B47B
:1017300083B000AF78607B681B6823F400227B686D
:101740001A6000BF0C37BD465DF8047B704780B45B
:1017500085B000AFF860B9607A60FB68DB6823F49D
:10176000FF6323F00603B9687A680A431A43FB68EB
:10177000DA6000BF1437BD465DF8047B704780B463
:1017800083B000AF78607B68DB6823F400427B683D
:10179000DA6000BF0C37BD465DF8047B704780B44B
:1017A00083B000AF78607B685B6843F000727B6851
:1017B0005A6000BF0C37BD465DF8047B70470000DF
:1017C00080B483B000AF7860064B1A687B68DB4357
:1017D000044913400B6000BF0C37BD465DF8047B25
:1017E000704700BF0004014080B483B000AF786050
:1017F000064B5A687B68DB43044913404B6000BFCB
:101800000C37BD465DF8047B704700BF0004014003
:1018100080B400AF064BD3F88030054A23F48073C0
:10182000C2F8803000BFBD465DF8047B704700BF42
:1018300000700040B0B58AB000AF08F071FD00F054
:101840004DF800F0BBFF00F0AFFF00F00DF900F025
:10185000FBF900F0CDFA00F023FB00F079FB00F07B
:10186000CFFB00F0D5FB00F02FFC00F0A5FC00F052
:10187000FDFC00F069FD00F0C5FE01F02BF807F05B
:1018800053FD00F08DF8114B07F114041D460FCDE8
:101890000FC42B68236007F11403002118460BF0D6
:1018A00032FA03460A4A13600A4B3C461D460FCDE6
:1018B0000FC42B6823603B46002118460BF023FA27
:1018C0000346054A13600BF017FAFEE7E8470108E4
:1018D000300C0020FC470108340C002080B582B099
:1018E00000AF0420FFF784F900BFFFF795F9034626
:1018F000042BFAD1FFF78CFFFEF7AEFF00BFFEF717
:10190000BBFF0346012BFAD14020FEF7C9FF00239D
:10191000552230210220FFF7C1F84FF080435522B5
:1019200030210220FFF7DAF8FFF708F9FFF7F6F8A1
:10193000FFF790F800BFFFF79DF80346012BFAD19F
:101940000320FEF7C3FF8020FEF7E2FF00BFFEF793
:10195000D1FF03460C2BFAD155237B6002E07B6854
:10196000013B7B607B68002BF9D10020FEF7D0FFA4
:101970000020FEF7E1FF0020FEF7F2FF074807F026
:10198000C9FF002006F052FC0346002B01D000F0F6
:101990009BFF00BF0837BD4680BD00BF80FE210A07
:1019A00080B500AFFEF76EFE034600220821184600
:1019B000FEF7BEFE034619462520FEF78FFE2520C2
:1019C000FEF76EFEFEF75EFE034600220821184673
:1019D000FEF7AEFE034619460B20FEF77FFE0B20F6
:1019E000FEF75EFEFEF74EFE034600220921184672
:1019F000FEF79EFE034619461820FEF76FFE1820DC
:101A0000FEF74EFEFEF73EFE034600220521184675
:101A1000FEF78EFE034619461920FEF75FFE1920D9
:101A2000FEF73EFEFEF72EFE034600220721184673
:101A3000FEF77EFE034619461220FEF74FFE1220E7
:101A4000FEF72EFEFEF71EFE034600220821184672
:101A5000FEF76EFE034619462820FEF73FFE2820BB
:101A6000FEF71EFE00BF80BD80B598B000AF07F145
:101A7000500300221A605A609A6007F1380300226E
:101A80001A605A609A60DA601A615A6107F1280395
:101A900000221A605A609A60DA6007F11803002287
:101AA0001A605A609A60DA603B4600221A605A60F7
:101AB0009A60DA601A615A615C48FEF7A7FF4FF43A
:101AC0000050FEF781FE0120FEF77EFE01233B6001
:101AD00003237B6000233B613B4619464FF0904057
:101AE00008F09CFA04233B6003237B6000233B61E6
:101AF0003B4619464FF0904008F090FA00233B65B2
:101B00004FF400437B650023BB6507F15003194682
:101B10004FF0A04008F056FB0023BB630023FB639B
:101B200000233B6400237B640023BB640023FB642D
:101B300007F1380319464FF0A04008F069FB002177
:101B40004FF0A040FFF776F800214FF0A040FFF7DC
:101B50005BF90023BB620023FB6207F128031946EF
:101B6000334808F0EFFA8023BB610023FB610023B8
:101B70003B6200237B6207F1180319464FF0A04037
:101B800008F090FB4FF000414FF0A040FFF7D8F86D
:101B900080214FF0A040FFF79EF84FF0A040FFF7E4
:101BA00048F94FF0A040FFF756F9224B1B689B09FC
:101BB000214AA2FB03239A0913469B0013449B006E
:101BC0001A461E4BA3FB0223DB08FB6502E0FB6DFC
:101BD000013BFB65FB6D002BF9D1194A09214FF040
:101BE000A040FFF78BF8012215494FF0A040FFF706
:101BF000BCF87F2212494FF0A040FFF7E1F8114AEC
:101C000006214FF0A040FFF73AF804220D494FF0AB
:101C1000A040FFF7AAF87F220A494FF0A040FFF743
:101C2000CFF800BF6037BD4680BD00BF01001C007B
:101C300000030050A40B0020632D3E05CDCCCCCC7E
:101C40000800900C0200300480B594B000AF07F19A
:101C5000400300221A605A609A6007F128030022AC
:101C60001A605A609A60DA601A615A6107F11803C3
:101C700000221A605A609A60DA603B4600221A60BD
:101C80005A609A60DA601A615A615148FEF7BEFEE6
:101C90004FF40050FEF798FD0120FEF795FD04205B
:101CA000FEF792FD40233B6003237B6000233B61F2
:101CB0003B4619464FF0904008F0B0F910233B60C6
:101CC00003237B6000233B613B461946414808F0F3
:101CD000A5F900233B644FF400437B640023BB64FD
:101CE00007F1400319463C4808F06CFA0023BB6238
:101CF0000023FB6200233B6300237B630023BB6361
:101D00000023FB6307F128031946334808F080FAE3
:101D100000213148FEF78EFF00212F48FFF774F8AD
:101D20008023BB610023FB6100233B6200237B62B5
:101D300007F118031946284808F0B4FA4FF000419B
:101D40002548FEF7FDFF80212348FEF7C4FF224807
:101D5000FFF76FF82048FFF77EF8204B1B689B09C0
:101D60001F4AA2FB03239A0913469B0013449B00BE
:101D70001A461C4BA3FB0223DB08FB6402E0FB6C4E
:101D8000013BFB64FB6C002BF9D1174A0921124877
:101D9000FEF7B4FF012214490F48FEF7E6FF7F2249
:101DA00011490D48FFF70CF8104A06210A48FEF7C2
:101DB00066FF04220D490848FEF7D7FF7F220B4932
:101DC0000548FEF7FDFF00BF5037BD4680BD00BF90
:101DD00001001C000008004800010050A40B002076
:101DE000632D3E05CDCCCCCC0800900C2000F01427
:101DF00080B58CB000AF07F11C0300221A605A6056
:101E00009A60DA601A613B1D00221A605A609A607B
:101E1000DA601A615A610120FEF7D6FC02237B606A
:101E20000323BB6000237B613B1D19464FF09040AC
:101E300008F0F4F80023FB6140233B6200237B623F
:101E40000023BB620023FB6207F11C031946114803
:101E500008F03AFC00233B600F4B1B680F4AA2FBC3
:101E60000323DB0CC82202FB03F33B6002E03B6868
:101E7000013B3B603B68002BF9D14FF40010FFF7AA
:101E8000B3FC4FF40010FFF79BFC00BF3037BD469A
:101E900080BD00BF00020140A40B002083DE1B4375
:101EA00080B58CB000AF07F11C0300221A605A60A5
:101EB0009A60DA601A613B1D00221A605A609A60CB
:101EC000DA601A615A610120FEF77EFC80237B6094
:101ED0000323BB6000237B613B1D19464FF09040FC
:101EE00008F09CF80023FB6140233B6200237B62E7
:101EF0000023BB620023FB6207F11C031946114853
:101F000008F0E2FB00233B600F4B1B680F4AA2FB6B
:101F10000323DB0CC82202FB03F33B6002E03B68B7
:101F2000013B3B603B68002BF9D14FF48000FFF789
:101F30005BFC4FF48000FFF743FC00BF3037BD4629
:101F400080BD00BF04020140A40B002083DE1B43C0
:101F500080B58CB000AF07F11C0300221A605A60F4
:101F60009A60DA601A613B1D00221A605A609A601A
:101F7000DA601A615A610220FEF726FC01237B60B9
:101F80000323BB6000237B613B1D1946184808F002
:101F900045F80023FB6140233B6200237B62002362
:101FA000BB620023FB6207F11C031946114808F0CD
:101FB0008BFB00233B60104B1B68104AA2FB0323E2
:101FC000DB0CC82202FB03F33B6002E03B68013BF1
:101FD0003B603B68002BF9D14FF08040FFF704FCD9
:101FE0004FF08040FFF7ECFB00BF3037BD4680BDAF
:101FF000000400480C020140A40B002083DE1B43B8
:1020000080B500AF0820FEF7C7FB00BF80BD000011
:1020100080B588B000AF3B1D00221A605A609A60FC
:10202000DA601A615A619A614FF48020FEF7CCFBA6
:10203000FEF728FB0346002200211846FEF778FB36
:10204000034619463620FEF749FB3620FEF728FBEB
:1020500000221A491A48FFF79CF900237B600023ED
:10206000BB600023FB6002237B610123BB61002373
:10207000FB613B1D1A461149114808F006FE0F4945
:102080000F48FFF7BEF90D490D48FFF7A2F90022EE
:102090000C490B48FFF77DF93B1D1A4609490848D2
:1020A00008F0F3FD07490648FFF7ABF90549044876
:1020B000FFF78FF900BF2037BD4680BD0100110238
:1020C00000100050F200423580B58EB000AF07F12D
:1020D0001C0300221A605A609A60DA601A615A6121
:1020E0009A613B1D00221A605A609A60DA601A6198
:1020F0005A614FF48010FEF761FC0420FEF764FB88
:102100004FF480737B600223BB600023FB600123DC
:102110003B6100237B610823BB613B1D19462348BB
:1021200007F07CFF4FF400737B600223BB60002349
:10213000FB6001233B6100237B610823BB613B1DE6
:1021400019461A4807F06AFF4FF08040FEF754FB2B
:102150000023FB61164B3B6200237B620023BB62C2
:102160000023FB6200233B6300237B6307F11C0316
:102170001946104808F0D3FE0E48FFF710FB002266
:1021800000210C48FFF7E3FA0A48FFF7F8FA09487C
:10219000FFF7CDFA0748FFF7BAFA4FF48000FEF7D1
:1021A000DDFC00BF3837BD4680BD00BF00080048D9
:1021B000722180000078004080B58AB000AF07F13E
:1021C000180300221A605A609A60DA603B460022C7
:1021D0001A605A609A60DA601A615A610120FEF74B
:1021E000F3FA02233B6003237B6000233B613B4601
:1021F00019464FF0904007F011FF04233B60032382
:102200007B6000233B613B4619464FF0904007F04E
:1022100005FF08233B6003237B6000233B613B46B3
:1022200019464FF0904007F0F9FE0023BB610023F0
:10223000FB6100233B6200237B6207F11803194610
:10224000094808F0BCFE00210748FFF727FA0021E3
:102250000548FFF736FA00210348FFF745FA00BFAB
:102260002837BD4680BD00BF0003014080B58AB05D
:1022700000AF07F1180300221A605A609A60DA6012
:102280003B4600221A605A609A60DA601A615A610D
:102290000120FEF799FA0420FEF796FA0220FEF7D5
:1022A00093FA40233B6003237B6000233B613B4662
:1022B00019464FF0904007F0B1FE80233B600323A6
:1022C0007B6000233B613B4619464FF0904007F08E
:1022D000A5FE20233B6003237B6000233B613B463C
:1022E0001946164807F09AFE01233B6003237B60E2
:1022F00000233B613B461946114807F08FFE00233F
:10230000BB610023FB6100233B6220237B6207F15A
:10231000180319460B4808F052FE00210948FFF740
:10232000BDF900210748FFF7CCF900210548FFF768
:10233000DBF900BF2837BD4680BD00BF000800485C
:10234000000400480403014080B5A0B000AF07F1CD
:102350006C0300221A605A609A60DA601A6107F111
:102360004C0320220021184612F01EFA07F11C032C
:1023700030220021184612F017FA3B1D00221A6085
:102380005A609A60DA601A615A614FF40060FEF791
:102390004BFA0023A7F86C3020233B6741F29A03E5
:1023A0007B674FF48073BB670123FB6707F16C0306
:1023B0001946924809F0ECF99048FEF760FD0121BA
:1023C0008E48FEF7C5FD6023FB6400233B650023B8
:1023D0007B6540F64D03BB650023FB6500233B6630
:1023E00000237B660023BB6607F14C031A460121DC
:1023F000824809F057FA01218048FEF751FD10216B
:102400007E48FEF7A5FD07F14C031A4610217B48D4
:1024100009F048FA10217948FEF742FD4FF4807127
:102420007648FEF795FD07F14C031A464FF480718C
:10243000724809F037FA4FF480717048FEF730FDAA
:102440004FF480516D48FEF783FD7023FB6441F229
:102450009903BB6507F14C031A464FF48051674856
:1024600009F020FA4FF480516448FEF719FD7021FD
:102470006248FEF7C3FD00216048FEF7D4FD5F48C7
:10248000FEF7E4FD0023022200215C48FEF706FE71
:10249000022200215948FEF7E9FD00230422002111
:1024A0005648FEF7FBFD042200215448FEF7DEFDEE
:1024B0000023102200215148FEF7F0FD10220021D8
:1024C0004E48FEF7D3FD4FF40063FB614FF4806389
:1024D0003B6200237B623F2387F828304FF4805310
:1024E0007B854FF40053FB624FF440333B63002382
:1024F0007B630023BB634FF00073FB634FF4401317
:102500003B6400237B640023BB6407F11C03194672
:102510003A4809F027FA1020FEF756F94FF4807375
:102520007B600223BB600223FB6000233B6102232C
:102530007B610223BB613B1D1946314807F06EFDEC
:102540004FF400737B600223BB600223FB60002317
:102550003B6102237B610223BB613B1D1946284876
:1025600007F05CFD4FF480637B600223BB600223B5
:10257000FB6000233B6102237B610223BB613B1DA7
:1025800019461F4807F04AFD4FF400637B600223A1
:10259000BB600223FB6000233B6102237B610223BB
:1025A000BB613B1D1946164807F038FD4FF48053B8
:1025B0007B600223BB600223FB6000233B6102239C
:1025C0007B610223BB613B1D19460D4807F026FDC8
:1025D0004FF400537B600223BB600223FB600023A7
:1025E0003B6102237B610223BB613B1D194604480A
:1025F00007F014FD00BF8037BD4680BD002C0140B0
:102600000010004880B58EB000AF07F118032022FB
:102610000021184612F0C8F83B4600221A605A60A2
:102620009A60DA601A615A614FF44030FEF7ACF9F3
:102630004FF48040FEF7F8F80120FEF7C5F84FF49C
:1026400000733B6002237B600023BB600023FB60C0
:1026500000233B6107237B613B4619464FF09040C6
:1026600007F0DCFC4FF480633B6002237B600023B7
:10267000BB600023FB6000233B6107237B613B467B
:1026800019464FF0904007F0C9FC18220021444839
:10269000FEF7DAFF002200214148FEF7C9FE0022C2
:1026A00000213F48FEF7AAFF002200213C48FEF728
:1026B000E7FE002200213A48FEF708FF80220021B1
:1026C0003748FEF729FF002200213548FEF74AFF70
:1026D000002200213248FEF76BFF19220121304809
:1026E000FEF7B2FF102201212D48FEF7A1FE0022C5
:1026F00001212B48FEF782FF002201212848FEF726
:10270000BFFE002201212648FEF7E0FE80220121C3
:102710002348FEF701FF002201212148FEF722FF96
:10272000002201211E48FEF743FF0023BB614FF446
:10273000E133FB6100233B6200237B620023BB6229
:102740000C23FB6200233B6300237B6307F1180328
:102750001946144809F0F0FC00211248FEF78DFDDF
:1027600000211048FEF7B0FD0E48FEF776FD0D483B
:10277000FEF7D1FD0B48FEF760FD00BF0948FEF7EC
:10278000E0FD0346002BF9D00648FEF7EEFD0346B8
:10279000002BF3D000BF00BF3837BD4680BD00BF5F
:1027A000000002400038014080B500AF0420FDF772
:1027B000F3FF0120FDF7F0FF00BF80BD80B58AB0B8
:1027C00000AF07F11C0300221A605A609A603B1D9B
:1027D00000221A605A609A60DA601A615A61042015
:1027E000FDF7F2FF0120FDF7EFFF0220FDF7ECFF00
:1027F0001020FDF7E9FF80212748FEF710FD27494B
:102800000220FEF7BDF94FF40053FB61012387F866
:102810002430002387F82530012387F8263007F17C
:102820001C03184607F0B6F900224FF400511C486B
:10283000FEF7B8FC00224FF400511948FEF775FC72
:1028400080237B600123BB600023FB6000233B618E
:1028500000237B613B1D19460F4807F0DFFB4FF457
:1028600080437B600023BB6001237B613B1D1946D5
:10287000094807F0D3FB4FF400437B600023BB60A3
:1028800001237B613B1D1946034807F0C7FB00BFCE
:102890002837BD4680BD00BF001000480300F0008F
:1028A0000008004880B582B000AF78607B681B6884
:1028B000044A934201D107F053FD00BF0837BD46DB
:1028C00080BD00BF0010004080B400AF72B600BFF2
:1028D000FEE7000080B500AF034800F0BBF900F050
:1028E00093FB00BF80BD00BF380C002080B500AF57
:1028F00007F048FD0346044AA2FB0323DB09184600
:1029000007F0C1FE00BF80BDD34D621080B485B01A
:1029100000AF7860084B9A6D07497B6813438B655D
:10292000054B9A6D7B681340FB60FB6800BF143752
:10293000BD465DF8047B70470010024080B483B050
:1029400000AF7860074B9A6D7B6813407A689A42B3
:1029500001D1012300E0002318460C37BD465DF885
:10296000047B70470010024080B483B000AF7860F1
:10297000064B9A6D7B68DB43044913408B6500BFAF
:102980000C37BD465DF8047B704700BF0010024065
:1029900080B483B000AF786039607B685B6823F0F7
:1029A000007323F070033A681A437B685A6000BFD3
:1029B0000C37BD465DF8047B704780B483B000AF30
:1029C000786039607B689B6823F4803323F00703C9
:1029D0003A681A437B689A6000BF0C37BD465DF8C1
:1029E000047B704780B483B000AF786039607B6847
:1029F0009B6823F4401323F070033A681A437B6802
:102A00009A6000BF0C37BD465DF8047B704780B408
:102A100083B000AF78607B686FF002021A6100BF7C
:102A20000C37BD465DF8047B704780B483B000AFBF
:102A300078607B681B6903F00203022B01D101233C
:102A400000E0002318460C37BD465DF8047B704754
:102A500080B483B000AF78607B685B6943F00102AB
:102A60007B685A6100BF0C37BD465DF8047B704738
:102A700080B582B000AF10211848FFF7B3FF0621E0
:102A80001648FFF79AFF0120FFF758FF78607B6830
:102A9000002B0AD10120FFF739FF4FF08040FFF7EC
:102AA000D7FF0120FFF760FF13E04FF080435A6823
:102AB0000B4B13403B6020214FF08040FFF768FF35
:102AC0004FF08040FFF7C4FF39684FF08040FFF7B8
:102AD0005FFF00BF0837BD4680BD00BF002C01402E
:102AE0007000000280B586B000AFF860B9603B604E
:102AF0001346FB71FB7901335B089BB25B01BB8220
:102B0000F868FFF784FF0023FB8218E0F868FFF7FE
:102B10008CFF0346012B12D1F868FFF778FFFB8A80
:102B20000133FB82FA8ABB8A9A4208D33B681B783E
:102B3000DBB20F2B03D8BB6801221A8005E03B688B
:102B40001B78DBB20F2BE1D900BF00BF1837BD46A1
:102B500080BD000080B500AF034B1B68184601F034
:102B6000AAFE0346184680BD380C002080B500AF91
:102B7000034B1B68184601F0C4FE0346184680BD8F
:102B8000380C002080B500AF034B1B68184601F0DD
:102B9000E7FE0346184680BD380C002080B500AF24
:102BA000034B1B68184601F084FF0346184680BD9E
:102BB000380C002080B586B002AFB9607B60034658
:102BC000FB811346BB81B7F90C20F989BB690193DE
:102BD0007B6800931346BA68034810F0D7FB03469E
:102BE00018461037BD4680BD8C03002080B485B0E8
:102BF00000AF786039603B6843F480327B68DA610B
:102C00007B683A68DA613B6843F480327B68DA615A
:102C10007B68DB69FB60FB6800BF1437BD465DF86D
:102C2000047B704780B485B000AF78600B46FB70C2
:102C3000074B5B68FB60FB787A681B011344083321
:102C4000FA681A6000BF1437BD465DF8047B704710
:102C5000001000E080B584B000AF78607B68002B86
:102C600044D0244B00221A707B68234A1A6000F07B
:102C70004FFB224804F038FF21480BF0B2FB2148FB
:102C80000CF0B7FC204801F00DFB20480BF04FFD85
:102C90001F4801F007FB1F480BF048FB164B1E4A6C
:102CA0009A621D4804F05AFA1C480AF03FFD1B487E
:102CB0000BF03CF91A4A07F10C031268114619800F
:102CC0000233120C1A70F96814480AF0C3FF154B4E
:102CD0001B883B81B96811480BF084F80F480BF052
:102CE0000FF905F061FA034B01221A7000BF10378B
:102CF000BD4680BD361F0020A4090020740A0020B4
:102D000010000020D0090020340A0020440A0020CE
:102D1000080A0020180A0020780C0020740C0020FB
:102D2000104801081448010880B586B000AF03467A
:102D3000FB800B46BB8013467B80104B3B6100231E
:102D4000FB750F4B1B68FB60386901F0B2FE034650
:102D5000002B0DD1386901F0AEFD0346FB75FB7DFC
:102D6000002B05D0074AFB88D382064ABB88138311
:102D7000FB7D18461837BD4680BD00BFA409002062
:102D8000A00C00203C0C002098B500AF314B1B7804
:102D9000DBB2002B5CD0304B1B88002B06D02E4BB7
:102DA0001B88013B9AB22C4B1A8039E001212B4839
:102DB00004F042FA00F0B8FB0121284804F0A4FA1C
:102DC00005F0F9F9264B1B689B68254A12682549CE
:102DD000104698470346224A5360214B5B68002BFC
:102DE0001BD01F4B1B681B681D4A10680A221E4916
:102DF0009847034683F00103DBB2002B0DD118483E
:102E000003F0D2FF164B1B685C68154B1868144B17
:102E10009968134BDA890A23A0470F4B01221A80C5
:102E2000124B1B889BB2002B06D0104B1B889BB209
:102E3000013B9AB20D4B1A800D4B1B889BB2002BA5
:102E400006D00B4B1B889BB2013B9AB2084B1A80F1
:102E500000BF98BD361F0020301F0020780C0020D6
:102E6000E80A0020F40A0020F00A0020321F0020A7
:102E7000341F002080B483B000AF0346FB80044AB7
:102E8000FB88138000BF0C37BD465DF8047B70479C
:102E9000321F002080B483B000AF0023FB71074BCA
:102EA0001B889BB2002B01D10123FB71FB791846D3
:102EB0000C37BD465DF8047B704700BF321F002011
:102EC00080B483B000AF0346FB80044AFB881380C4
:102ED00000BF0C37BD465DF8047B7047341F0020EF
:102EE00080B483B000AF0023FB71074B1B889BB2FB
:102EF000002B01D10123FB71FB7918460C37BD462D
:102F00005DF8047B704700BF341F002080B582B09D
:102F100000AF0023FB7100210E48FFF783FEFB7911
:102F2000184600F01BFF0C4B1B6801330A4A136064
:102F30000A4B93F82930002B02D008480EF014FEFB
:102F40000021044804F096F9FB7918460837BD467D
:102F500080BD00BF780C002090620020F80A00209D
:102F600080B500AF044B1B78DBB2012B02D10348C4
:102F700010F0ECFA00BF80BD361F00208C0300204B
:102F800080B500AF074810F095FA07480FF048FDEC
:102F9000002000F0B3FD00228021044801F0FFFC76
:102FA00000BF80BD8C030020F0080020A409002091
:102FB00080B582B000AF7860642009F02FFB1E223C
:102FC000002141F28830FFF7AFFE012009F026FB17
:102FD000FFF7DAFEF9E780B582B000AF7860012034
:102FE00009F01CFBFFF7BCFFF9E780B500AFFFF766
:102FF000D5FD0346002B02D1FFF7ACFD01E0FFF742
:10300000B5FD00BF80BD000080B500AF1021244891
:10301000FFF7ECFD01214FF09040FFF7E7FD802125
:103020004FF09040FFF7E2FD02214FF09040FFF794
:10303000DDFD08214FF09040FFF7D8FD04214FF04F
:103040009040FFF7D3FD40214FF09040FFF7CEFDB9
:1030500020211348FFF7CAFD01211248FFF7C6FDE2
:103060004FF400711048FFF7C1FD4FF400610E48A6
:10307000FFF7BCFD4FF480610B48FFF7B7FD4FF43D
:1030800000510948FFF7B2FD4FF480510648FFF7A1
:10309000ADFD4FF480710448FFF7A8FD00BF80BD6F
:1030A00000080048000400480010004880B483B0C5
:1030B00000AF786039607B681A6A3B681A437B68A6
:1030C0001A6200BF0C37BD465DF8047B70470000F4
:1030D00080B487B000AFF860B9607A60BB68012B3C
:1030E0002ED0BB68042B29D0BB68102B24D0BB6822
:1030F000402B1FD0BB68B3F5807F19D0BB68B3F5F8
:10310000806F13D0BB68B3F5805F0DD0BB68B3F59B
:10311000804F07D0BB68B3F5803F01D1082310E092
:1031200009230EE007230CE006230AE0052308E04C
:10313000042306E0032304E0022302E0012300E06D
:103140000023FB75FB6818331946FB7D0E4AD35CE0
:103150000B443B613B691A68FB7D0C49CB5C19460B
:103160000B4B8B40DB431A40FB7D0849CB5C194677
:103170007B688B401A433B691A6000BF1C37BD4611
:103180005DF8047B704700BFC0480108CC480108C7
:103190007300010080B485B000AF786039603B688F
:1031A000012B2ED03B68042B29D03B68102B24D058
:1031B0003B68402B1FD03B68B3F5807F19D03B683C
:1031C000B3F5806F13D03B68B3F5805F0DD03B68DB
:1031D000B3F5804F07D03B68B3F5803F01D108239A
:1031E00010E009230EE007230CE006230AE0052384
:1031F00008E0042306E0032304E0022302E00123A5
:1032000000E00023FB737B6818331946FB7B0A4AF6
:10321000D35C0B44BB60BB681A68FB7B0749CB5C83
:10322000194608238B401A43BB681A6000BF143745
:10323000BD465DF8047B7047C0480108CC480108D2
:1032400080B483B000AF786039607B685B6C23F03A
:10325000FF023B681A437B685A6400BF0C37BD46C7
:103260005DF8047B704780B483B000AF786039604C
:103270007B683A685A6300BF0C37BD465DF8047B33
:10328000704780B483B000AF786039607B683A687B
:103290009A6300BF0C37BD465DF8047B704780B46D
:1032A00083B000AF786039607B683A68DA6300BF4A
:1032B0000C37BD465DF8047B704780B483B000AF27
:1032C00078607B685B6C43F400427B685A6400BFA3
:1032D0000C37BD465DF8047B704780B483B000AF07
:1032E00078607B68B3F9043018460C37BD465DF84A
:1032F000047B704780B582B000AF786039607B682E
:103300001B6839687868984700BF0837BD4680BD9C
:1033100090B585B002AF554B554A1A6054480CF031
:1033200037FFFFF7A5FB53480BF05BF852480BF053
:103330004FFF524B1B68504A4E4918460BF0AFFDE9
:103340004E4B1968494B1B6800934D4B4D4A4E48F4
:103350000BF05EFB4D480BF044F84D480BF041F884
:103360004C4B1B684C4ADA604A4B1B684B4A9A60CC
:103370004B4B18684B4B1A684B4B1B6846490AF07D
:10338000D1FE4A4B4A4A1A60484B1B6818460BF05C
:1033900006FA364B1B68474A1360464B3E4A5A6052
:1033A000444B3E4A9A60434B434ADA60414B354AAC
:1033B0001A61404B414A5A613B4B1B683D4A93613D
:1033C000384B1B683B4AD3613A4B2F4A1A62394B40
:1033D000294A5A62374B3A4A9A62364B394ADA627C
:1033E000344B00221A6333480FF042FF354B224A18
:1033F0001A60344B294A5A60324B1E4A9A60314B4C
:103400002F4ADA602F480FF0A7FA002000F076FB71
:10341000224B012283F82420184B1B681F4C1846AE
:103420000BF0AAFE03461A462282C3F30F436382BF
:10343000124B1B6818460BF09FFE03463B60B7F922
:103440000220164B9A820D4B1B6818460BF094FE17
:1034500003467B60B7F9043000221946164801F094
:103460000BFA00BF0C37BD4690BD00BFA00C00207A
:1034700078010020100000201C020020900900208C
:1034800044030020D0090020000100203C0000205F
:10349000680000209C090020440A00203C0C002009
:1034A000A00900209809002094090020640C002045
:1034B000580300208C030020A40900207003002082
:1034C000CC000020F008002080B582B000AF034699
:1034D000FB71FB79104A52F8233018460DF014FFA7
:1034E0000E480FF0E7FF0E480FF09AFAFB791846E6
:1034F00000F004FB4FF44870FFF7E2FCFB79094A47
:103500002C2101FB03F313441F3308221A7000BF60
:103510000837BD4680BD00BFA00C00208C030020F2
:10352000F0080020A409002090B58DB000AF002362
:10353000FB85002387F82D30B34801F0D2FA03460B
:10354000002B40F0A882B04BDB7F142B00F2A78247
:1035500001A252F823F000BFAD3500089F3A0008E1
:103560009F3A00089F3A0008F73700089F3A000882
:10357000B93900089F3A0008F53900089F3A000859
:10358000353A00081F3A00089F3A00089F3A0008A1
:103590009F3A00089F3A0008853700083D37000829
:1035A0009F3A0008093900083D3A0008964B9B7F76
:1035B000012B04D0944B9B7F032B40F072829248E6
:1035C00001F0BCFA0346194690480BF077FA904890
:1035D0000AF096FC04218E480AF0C8FC642009F029
:1035E0001DF88C4B1B680122A3F860201420FFF704
:1035F00041FC4FF00003FB614FF00003BB614FF053
:1036000000037B614FF000033B61834B7B624FF013
:1036100000033B627C4801F091FA034619467B485F
:103620000BF04CFA40F255517C48FFF73FFD602209
:1036300001217A48FFF74CFD602210217748FFF7FF
:1036400047FD60224FF480717448FFF741FD32213D
:103650007248FFF7F5FD01217048FFF79BFD10212F
:103660006E48FFF797FD4FF480716C48FFF792FDAD
:1036700064216A48FFF7F7FD64216848FFF701FEFF
:1036800064216648FFF70BFE4FF47A7008F0C6FF1E
:10369000624B5B6C614A43F4806353645F48FFF79D
:1036A0000CFE5B480AF02CFC07F1140307F118022A
:1036B00007F11C0107F11000D7ED080A97ED090A80
:1036C0000EF060FED7ED077A9FED557A67EE877AA8
:1036D000FCEEE77A17EE901A5048FFF7C4FDD7EDDD
:1036E000067A9FED4F7A67EE877AFCEEE77A17EE5F
:1036F000901A4A48FFF7C5FDD7ED057A9FED487A45
:1037000067EE877AFCEEE77A17EE901A4348FFF7E8
:10371000C6FD424B5B6C414A43F4806353643F48AF
:10372000FFF7CBFDD7ED047A9FED3E7A77EE877AEF
:10373000C7ED047A012008F071FFB5E7324B9B7F9B
:10374000052B03D10020FFF7BFFEACE1314B1B6816
:103750000121184600F080FB0346002B00F0A381F6
:10376000294B9B7F032B09D1002000F0C7F9264B82
:1037700000229A77244B0022DA7794E1224B14221C
:10378000DA7790E1204B9B7F052B03D10020FFF7D8
:103790009BFE8AE1FFF77EFB0346002B00F085814C
:1037A0001C4B1B6818460DF0AFFD1F4B012283F820
:1037B00024201E4B1B681E4918460BF09CFB1D481D
:1037C0000BF060FD134B1B68184600F011FB002046
:1037D00000F094F918480FF081FE0E4B1B68184654
:1037E00000F02EFB084B0422DA770A4B1B681846C0
:1037F00000F026FB59E1044B9B7F052B1ED10020D6
:10380000FFF762FE53E100BFA40900200001002081
:10381000740C0020A00C0020CDCCCC3D002C01402D
:1038200000D08445CDCCCC3D3C0C0020900900203C
:10383000D00900201C0200208C030020A4480BF0BB
:10384000B9F9034683F00103DBB2002B10D1A14B81
:103850001B6818460BF034FC03463B819E4BB3F9C2
:1038600014307B819C4B103307F1080210681860FC
:1038700007F10E03194699480BF006FF07F10E03F6
:10388000194697480BF06CFD034687F82A30954897
:1038900001F054F903465BB2194691480BF099FECA
:1038A00097F82A3019468D480CF008F897F82A3016
:1038B000002B00F0FC808A48FFF70FFD03461946F5
:1038C000854B5A681346184600F0ECFE03467B60B1
:1038D000854B1B6818460AF062FF834B1B687E4AC3
:1038E000B2F910201146002218460AF0A7FF7E4BBD
:1038F0001B68B7F904201146192218460AF09EFFEA
:10390000784B1322DA77D2E0764B9B7F052B03D1DD
:103910000020FFF7D9FDCCE0BB1C19466F480BF027
:10392000B3FE034687F82C306C480BF0EBFF0346E0
:1039300087F82B3097F82C30002B03D197F82B30D9
:10394000002B01D0012300E0002387F82C3097F8EA
:103950002C3003F0010387F82C3097F82C30002B23
:1039600000F0A7805C4BB3F910301C465F480AF0AA
:10397000B3FD03461BB204FB03F319465B480AF090
:1039800087FD5B480FF050FC524B1B6854491846AA
:103990000BF0B1FA002000F05DF9002000F076F99C
:1039A0004C4B1B6818460BF002FC4E4801F01BF80C
:1039B0004C4B0622DA777CE04A4B9B7F052B03D1E8
:1039C0000020FFF781FD7BE0464801F00CF8002065
:1039D00000F05CF997F82D3083F00103DBB2002B87
:1039E00004D0002220213F4800F0D9FF40480FF0CA
:1039F0001BF865E0FFF774FA0346002B5BD0354BEC
:103A00001B68364918460BF076FA34480BF0FCFD7B
:103A1000344B00229A77334B0022DA774BE0314B5C
:103A20009B7F022B49D12F4B00229A772D4B0022EE
:103A3000DA7742E02B4B0B22DA7741E0294B9B7F70
:103A4000052B03D10020FFF73FFD38E0294810F097
:103A5000F3FB034683F00103DBB2002B2FD01E4B98
:103A6000012283F824201B4B1B681C4918460BF0CD
:103A700042FA1B480BF006FC002000F03FF81D48FE
:103A80000FF02CFD1C4B1B68184600F0D9F9154BA4
:103A90000422DA7713E0134B0A22DA7710E000BF32
:103AA0000EE000BF0CE000BF0AE000BF08E000BF6E
:103AB00006E000BF04E000BF02E000BF00E000BF7E
:103AC0000C480FF04FFF00BF3437BD4690BD00BF1C
:103AD00000010020900900203C0C0020D0090020AB
:103AE0001C020020A4090020640C0020100000200B
:103AF000F00800208C030020A00C002080B586B0C8
:103B000000AF0346FB710023BB820023FB8200232E
:103B10003B8200237B820023BB810023FB81FB7956
:103B2000454A262101FB03F313441A4607F1140307
:103B300018681060FB79404A262101FB03F3134407
:103B400004331A4607F10C0318681060FB793A4AEF
:103B5000262101FB03F313440C331A4607F110032B
:103B600018681060FB79344A262101FB03F31344E3
:103B700010331A4607F1100318681060FB792E4ABB
:103B8000262101FB03F313441E3300221A80FB7924
:103B9000294A262101FB03F313441033063307F1AE
:103BA000100210681860FB79234A262101FB03F3F9
:103BB00013441833023307F10C0210681860FB79C4
:103BC0001D4A262101FB03F31344203300221A80EF
:103BD000FB791A4A52F82330002118460AF058FCA3
:103BE000FB79174A52F82330002118460AF050FC9E
:103BF000FB79144A52F8233018460BF08AF9FB7906
:103C0000114A52F82330184600F00EF9FB790F4A9A
:103C100052F82330002B06D0FB790C4A52F823309F
:103C200018460AF0A1FAFB791946094803F0DAFAB6
:103C300000BF1837BD4680BD3C0C00209409002011
:103C40009809002090090020A00C0020A009002065
:103C5000780C002080B582B000AF0346FB71FB7981
:103C6000FF2B0CD0FB79084A52F82330002B06D0EA
:103C7000FB79054A52F8233018460AF015FB00BFBD
:103C80000837BD4680BD00BFA009002090B585B0B3
:103C900000AF0346FB7172B600BFFB792C4A2621A8
:103CA00001FB03F3134403F1100207F10C03106846
:103CB000186062B600BFFB79254A262101FB03F399
:103CC000134424331B78002B2DD1FB79214A52F861
:103CD0002330FC7918460BF0F3F9034619461C4AC9
:103CE000262304FB03F313441E330A461A80FB7990
:103CF000174A262101FB03F313441E33B3F90030A6
:103D0000BB81FB79144A52F82330002B0BD0FB798E
:103D1000114A52F82300FB790E4A52F823301A4612
:103D2000F9680AF031FA72B600BFFB79084A262119
:103D300001FB03F3134410331A4607F10C03186810
:103D4000106062B600BF00BF1437BD4690BD00BF13
:103D50003C0C002090090020A009002080B584B010
:103D600000AF0346FB71174BDB7F132B13D1164BB0
:103D70001B6818460AF0ECFD034683F00103DBB232
:103D8000002B08D0104B1B6818460AF021FD034693
:103D90001AB20E4B1A8200F001FC00F063FB0C4BD0
:103DA0001B6807F10C0211461846FFF7A3FA074BF0
:103DB0001A4607F10C0318681060002318461037E4
:103DC000BD4680BDA4090020640C00203C0C0020EE
:103DD000A00C002080B483B000AF786039607B68AD
:103DE0003A689A6200BF0C37BD465DF8047B7047A5
:103DF00080B483B000AF78607B680022A3F86820AD
:103E00007B680022A3F86A207B680022A3F86C205C
:103E10007B6800229A637B6800225A6300BF0C37DC
:103E2000BD465DF8047B704780B582B000AF786016
:103E30007B685B687868984700BF0837BD4680BDDF
:103E400080B582B000AF78607B689B6878689847DF
:103E500000BF0837BD4680BD80B584B000AF786034
:103E60000B46FB700023FB73FB78002B09D17868AD
:103E7000FFF7DAFF7B68DB68786898470123FB73FC
:103E80001DE0FB78012B1AD17B68B3F86030002B62
:103E900013D07B68B3F86030013B9AB27B68A3F81B
:103EA00060207B68B3F86030002B08D17B68DB684A
:103EB000786898470123FB7301E00123FB73FB7BC8
:103EC00018461037BD4680BD80B584B000AF78601D
:103ED0007B6893F8833083F00103DBB2002B1FD0A3
:103EE0007B6893F87B30022B1AD17B68DA6B7B6896
:103EF000B3F8483019461046FFF76CFF7B681A6C20
:103F00007B68B3F84A3019461046FFF763FF7B68B9
:103F10005A6C7B68B3F84C3019461046FFF75AFFCD
:103F20007B68012283F880207B687833FB60FB6824
:103F300018461037BD4680BD80B485B000AF7860AC
:103F400039603B685B6C43F480623B685A647B6811
:103F5000012283F881207B68012283F883207B681B
:103F60007833FB60FB6818461437BD465DF8047B68
:103F7000704780B485B000AF78600023FB817B6818
:103F800093F88130002B05D00223FB817B6800224F
:103F900083F881207B6893F88030002B07D0FB8961
:103FA00043F04003FB817B68002283F880207B681C
:103FB00093F88230002B07D0FB8943F48063FB81A8
:103FC0007B68002283F88220FB8918461437BD469F
:103FD0005DF8047B704780B582B000AF78607B6885
:103FE000DB697868984700BF0837BD4680BD80B55B
:103FF00082B000AF78607B681B6A7868984700BF22
:104000000837BD4680BD80B582B000AF78607B6860
:104010009B6A7868984700BF0837BD4680BD80B46A
:1040200083B000AF786039607B681B6B23F00F02B0
:104030003B681A437B681A6300BF0C37BD465DF8C6
:10404000047B704780B487B000AFF860B9607A60D5
:10405000FB6830331A46BB681B0A9B0003F00C0355
:1040600013447B617B691A68BB6803F01F031F213F
:1040700001FA03F3DB431A407B689B0E03F01F0138
:10408000BB6803F01F0301FA03F31A437B691A604C
:1040900000BF1C37BD465DF8047B704780B487B015
:1040A00000AFF860B9607A60FB6814331A46BB68E9
:1040B0005B0E9B0003F0040313447B617B691A6869
:1040C000BB681B0D03F01F03072101FA03F3DB4359
:1040D0001A40BB681B0D03F01F03796801FA03F354
:1040E0001A437B691A6000BF1C37BD465DF8047B2C
:1040F000704780B483B000AF78607B689B6823F022
:10410000004323F03F0343F001027B689A6000BF45
:104110000C37BD465DF8047B704780B483B000AFB8
:1041200078607B689B6803F00103012B01D10123B8
:1041300000E0002318460C37BD465DF8047B70474D
:1041400080B483B000AF786039607B689B6823F0EF
:10415000404323F03F033A6802F08042134343F0A8
:1041600000427B689A6000BF0C37BD465DF8047B57
:10417000704780B483B000AF78607B689B6803F0C1
:104180000043B3F1004F01D1012300E000231846A2
:104190000C37BD465DF8047B704780B483B000AF38
:1041A00078607B689B6823F0004323F03F0343F073
:1041B00004027B689A6000BF0C37BD465DF8047B43
:1041C000704780B483B000AF78607B681B6803F0F1
:1041D0000103012B01D1012300E0002318460C3715
:1041E000BD465DF8047B704780B483B000AF786053
:1041F0007B681B6803F00403042B01D1012300E05A
:10420000002318460C37BD465DF8047B704780B428
:1042100083B000AF78607B6804221A6000BF0C375F
:10422000BD465DF8047B704780B483B000AF786012
:104230007B6820221A6000BF0C37BD465DF8047B06
:10424000704780B483B000AF78607B685B6823F010
:1042500004027B685A6000BF0C37BD465DF8047BE2
:10426000704780B483B000AF78607B685B6823F0F0
:1042700020027B685A6000BF0C37BD465DF8047BA6
:10428000704780B483B000AF78607B681B6C9BB2D2
:1042900023F00F039BB218460C37BD465DF8047B34
:1042A0007047000080B584B000AF7860FF23FB73D7
:1042B0000023BB7329E0BB7B674A52F82330002BF5
:1042C00004D1FB7B042B01D9BB7BFB73BB7B624A14
:1042D00052F82330002B15D0BB7B5F4A52F82330B5
:1042E0001A797B681B799A420CD1BB7B5A4A52F8E7
:1042F00023301A687B681B689A4203D1BB7BFB732F
:104300000423BB73BB7B0133BB73BB7B032BD2D9B1
:10431000FB7B032B00F29980FB7B4F497A6841F8C5
:104320002320FB7B4D4A002142F833107B681B6839
:104330001846FFF7F2FE0346002B30D17B681B685E
:104340001846FFF77EFF7B681B681846FFF75FFF84
:104350007B681B681846FFF784FF7B681B6818465C
:10436000FFF762FF7B681B687F211846FFF7E8FEB6
:1043700000BF7B681B681846FFF7FBFE0346012B56
:10438000F7D004E07B681B681846FFF7B2FE7B6835
:104390001B681846FFF715FF0346002BF2D0FA7B87
:1043A0002F4913465B0013445B000B4400221A7034
:1043B000FA7B2B4913465B0013445B000B44053327
:1043C000FA7B1A70FA7B264913465B0013445B00A4
:1043D0000B440433FA7B1A707B681B680021184673
:1043E000FFF71DFE7B6818687B681B79092B12D8C4
:1043F0007B681B799B061A467B681B79194601234B
:104400008B401A437B681B7919460B465B000B44B3
:104410001B05134314E07B681B799B061A467B68D7
:104420001B79194601238B401A437B681B79194677
:104430000B465B000B441E3B1B05134343F000730C
:104440007A6892681946FFF729FE7B68FA7B1A732F
:1044500000BF1037BD4680BD381F0020481F002018
:10446000681F002080B500AF494B1B781946494AA8
:104470000B465B000B445B0013441B78002B00F0E1
:104480008480434B1B781A46434B53F822301B68F9
:104490001846FFF7BCFE3E4B1B781A463E4B53F8BE
:1044A000223018683A4B1B781A463B4B53F822309F
:1044B0001B79092B21D8364B1B781A46364B53F8FB
:1044C00022301B799B061A46314B1B781946324B1A
:1044D00053F821301B79194601238B401A432C4B8A
:1044E0001B7819462C4B53F821301B7919460B4683
:1044F0005B000B441B05134323E0254B1B781A4636
:10450000254B53F822301B799B061A46204B1B780B
:104510001946214B53F821301B79194601238B4052
:104520001A431B4B1B7819461B4B53F821301B7940
:1045300019460B465B000B441E3B1B05134343F01F
:1045400000731A460621FFF77DFD114B1B781A46B2
:10455000114B53F822301B681846FFF792FE0C4BA4
:104560001B781A460C4B53F822301B681846FFF78D
:1045700014FE074B1B781946064A0B465B000B449A
:104580005B001344013301221A7000BF80BD00BFDD
:10459000801F0020681F0020381F002090B583B0C6
:1045A00000AF304B1B7819462F4A0B465B000B447B
:1045B0005B0013441B78002B50D02A4B1B78194604
:1045C000294A0B465B000B445B00134401331B7804
:1045D000FB71244B1B781A46244B53F822301B687E
:1045E0001846FFF701FE3860FB79022B29D0FB79D2
:1045F000002B26D03B68002B23D01A4B1B781A4681
:104600001A4B53F822301B68164A12781446184683
:10461000FFF737FE03461946134A23465B0023443F
:104620005B00134402330A461A800E4B1B7819466E
:104630000D4A0B465B000B445B001344013302221E
:104640001A70084B1B781946074A0B465B000B444F
:104650005B00134405331A78024B1A7000BF0C3705
:10466000BD4690BD801F0020681F0020381F00201D
:1046700080B483B000AF786039607B683A685A6074
:1046800000BF0C37BD465DF8047B704780B483B033
:1046900000AF78607B689B6818460C37BD465DF8B4
:1046A000047B704780B58CB000AF78600B467B8090
:1046B000B7F90230184600F06DF80346FB60B7F911
:1046C0000430B7F90C2002FB03F3BB62B7F90630E4
:1046D000B7F90E2002FB03F37B62BA6A7B6AD31A36
:1046E000DB133B623B6AB3F5004F03DB47F6FF7316
:1046F000FB8509E03B6A13F5004F03DA4FF40043F2
:10470000FB8501E03B6AFB85FB8D3B82B7F91030EE
:1047100013F5004F02D148F201033B82B7F9043090
:10472000B7F90E2002FB03F3FB61B7F90630B7F9C6
:104730000C2002FB03F3BB61FA69BB691344DB1372
:104740003B623B6AB3F5004F03DB47F6FF73FB8523
:1047500009E03B6A13F5004F03DA4FF40043FB8591
:1047600001E03B6AFB85FB8D7B82B7F9123013F5C4
:10477000004F02D148F201037B823B697B61002339
:10478000BA8A62F30F03FA8A62F31F43184630377E
:10479000BD4680BD80B584B000AF0346FB80104BA2
:1047A0004FF060121A60B7F9063003F1FF4303F5CA
:1047B000FE0319460A48FFF75BFF0948FFF766FF4B
:1047C0000346BB60BB68FB600023BA8962F30F033A
:1047D000FA8962F31F4318461037BD4680BD00BFFB
:1047E000000C024080B485B000AF87ED010A3B1D8C
:1047F000FB60FB681B6818461437BD465DF8047BF8
:10480000704780B483B000AF78607B680022DA60C4
:104810007B6800229A6100BF0C37BD465DF8047BBF
:10482000704780B483B000AF78607B685B691846DE
:104830000C37BD465DF8047B704780B483B000AF91
:1048400078600B467B8013463B807B6801221A739D
:104850007B687A88DA817B683A889A837B68012250
:1048600083F824207B68032283F8252000BF0C37BF
:10487000BD465DF8047B704780B483B000AF7860BC
:104880000B467B8013463B807B6802221A737B6851
:104890007A881A827B683A889A837B68012283F837
:1048A00024207B68042283F8252000BF0C37BD46F6
:1048B0005DF8047B704780B584B000AF786000235A
:1048C000FB73786800F0F5F80346002B14D1786884
:1048D00000F0FBF80346002B0ED1786800F001F9D8
:1048E0000346002B08D17B6801229A777B6801225E
:1048F00083F824200123FB73FB7B18461037BD4649
:1049000080BD80B584B000AF78600023FB73786809
:1049100000F0CFF803467B737B7B002B02D07B7BC0
:104920000C2B02D10023BB7301E00123BB73786819
:1049300000F0CBF80346002B0DD1786800F0D1F8D9
:104940000346002B07D1BB7B002B04D07B680522DC
:104950009A770123FB73FB7B18461037BD4680BD59
:1049600080B584B000AF78600023FB73786800F0F6
:10497000A0F803460B2B0DD1786800F0B2F803467F
:10498000002B07D17B6800225A847B6802229A7729
:104990000123FB73FB7B18461037BD4680BD80B4F6
:1049A00083B000AF78600B467B8013463B807B680A
:1049B0001A8C7B8813439BB21AB2B7F90030DB43E1
:1049C0001BB213401BB29AB27B681A847B685A8C64
:1049D0007B8813439AB27B685A8400BF0C37BD466C
:1049E0005DF8047B704780B584B000AF78607B6869
:1049F00093F82430012B58D10023FB737B681B7B79
:104A0000032B36D0032B43DC012B02D0022B18D012
:104A10003EE07B685B68002283F824207B681B688B
:104A2000032118460AF0A3FA7B6818687B68B3F97B
:104A30000E107B689B8B1A460AF0ACFA0346FB7398
:104A400027E07B685B68002283F824207B681B6872
:104A5000042118460AF08BFA7B6818687B68B3F962
:104A600010107B689B8B1A460AF094FA0346FB737E
:104A70000FE07B685B68012283F824207B685B6819
:104A80007A681033123212681A600123FB7300E057
:104A900000BFFB7B002B04D07B68022283F824201C
:104AA00003E07B68032283F8242000BF1037BD4653
:104AB00080BD80B483B000AF78607B68DB7F184630
:104AC0000C37BD465DF8047B704780B483B000AFFF
:104AD00078607B685B8C18460C37BD465DF8047BBC
:104AE000704780B483B000AF78607B681B8C184639
:104AF0000C37BD465DF8047B704780B485B000AFCD
:104B000078607B685B8CFB607B681B8C1B04FA689D
:104B10001343FB60FB6818461437BD465DF8047B01
:104B2000704780B483B000AF78607B6893F825301D
:104B300018460C37BD465DF8047B704780B485B0DD
:104B400000AF78600123FB817B681B7B032B18D0AF
:104B5000032B1FDC012B02D0022B09D01AE07B684B
:104B6000B3F90E30002B17DA4FF6FF73FB8113E019
:104B70007B68B3F91030002B10DA4FF6FF73FB811E
:104B80000CE07B68B3F91230002B09DA4FF6FF73A3
:104B9000FB8105E000BF04E000BF02E000BF00E0D1
:104BA00000BFB7F90E3018461437BD465DF8047BD8
:104BB000704780B483B000AF78607B68B3F90E3083
:104BC00018460C37BD465DF8047B704780B483B04F
:104BD00000AF78607B689B8B18460C37BD465DF84C
:104BE000047B704780B582B000AF78607B681B683B
:104BF0001846FFF706FE00BF0837BD4680BD80B5EA
:104C000084B000AF78607B681B681846FFF709FE28
:104C1000F860F8680AF084F803467B81B7F90A3037
:104C200018461037BD4680BD80B582B000AF7860B1
:104C30007B681B6818460AF07EF903461846083759
:104C4000BD4680BD80B485B000AF78607B685A688F
:104C500007F10C031632106818600023BA8962F35A
:104C60000F03FA8962F31F4318461437BD465DF8F7
:104C7000047B704780B485B000AF78607B685A6869
:104C800007F10C031A32106818600023BA8962F326
:104C90000F03FA8962F31F4318461437BD465DF8C7
:104CA000047B704780B483B000AF78607B685B683A
:104CB000B3F91E3018460C37BD465DF8047B7047CB
:104CC00090B583B000AF78607B681A687B685C68D9
:104CD00010460AF051FA03461A462282C3F30F43E4
:104CE000638200BF0C37BD4690BD80B582B000AF77
:104CF00078600B46FB707B689B6AFA781146184611
:104D000002F070FA00BF0837BD4680BD80B483B0A2
:104D100000AF7860044B5A697B68134018460C3723
:104D2000BD465DF8047B70470004014080B483B049
:104D300000AF7860044A7B68536100BF0C37BD4602
:104D40005DF8047B704700BF0004014080B500AFF0
:104D5000FEF716F9FEE780B500AF4FF40050FFF7FD
:104D6000D5FF0346002B05D04FF40050FFF7DEFFC0
:104D7000FEF73BF900BF80BD80B483B000AF786020
:104D80007B6840221A6000BF0C37BD465DF8047B8B
:104D9000704780B483B000AF78607B686FF0010229
:104DA0001A6100BF0C37BD465DF8047B704780B4C4
:104DB00083B000AF78607B686FF080021A6100BF3B
:104DC0000C37BD465DF8047B704780B483B000AFFC
:104DD00078607B681B6903F08003802B01D101237D
:104DE00000E0002318460C37BD465DF8047B704791
:104DF00080B483B000AF78607B686FF480721A6112
:104E000000BF0C37BD465DF8047B704780B483B0AB
:104E100000AF78607B681B6903F48073B3F5807F13
:104E200001D1012300E0002318460C37BD465DF890
:104E3000047B704780B485B000AF786039607B68D0
:104E4000FB600C4A3B6813441B781A46FB6813440A
:104E50001B6808493A680A4412781146FA680A44FD
:104E600023F00103136000BF1437BD465DF8047BD7
:104E7000704700BFD848010880B483B000AF7860A5
:104E80007B681B6803F00203022B01D1012300E0C1
:104E9000002318460C37BD465DF8047B704780B48C
:104EA00083B000AF78607B681B6803F02003202B81
:104EB00001D1012300E0002318460C37BD465DF800
:104EC000047B704780B483B000AF78607B681B6858
:104ED00003F00403042B01D1012300E00023184652
:104EE0000C37BD465DF8047B704780B483B000AFDB
:104EF00078607B681B6803F00803082B01D101234D
:104F000000E0002318460C37BD465DF8047B70476F
:104F100080B483B000AF78607B681B6803F08003C7
:104F2000802B01D1012300E0002318460C37BD4639
:104F30005DF8047B704780B483B000AF78607B6815
:104F400002225A6000BF0C37BD465DF8047B7047F3
:104F500080B483B000AF78607B6820225A6000BFC5
:104F60000C37BD465DF8047B704780B483B000AF5A
:104F700078607B6804225A6000BF0C37BD465DF83C
:104F8000047B704780B483B000AF78607B680822F0
:104F90005A6000BF0C37BD465DF8047B704780B493
:104FA00083B000AF78607B6880225A6000BF0C3706
:104FB000BD465DF8047B704780B500AF4FF0A04060
:104FC000FFF7DAFEFDF7A2FF00BF80BD80B500AF9E
:104FD0000348FFF7DEFE03480CF0E5F900BF80BD93
:104FE000002C01407801002080B500AF0D48FFF78C
:104FF000ECFE0346002B05D00A48FFF7D8FE0A480E
:10500000FEF762FF0748FFF701FF0346002B06D0BB
:105010000448FFF7EDFE03490348FEF78DFF00BF8C
:1050200080BD00BF002C01407801002080B500AF9A
:1050300004F0C8FA00BF80BD80B500AF0E48FFF78E
:1050400041FF0346002B02D00B48FFF78EFF0A48B2
:10505000FFF712FF0346002B02D00748FFF76BFF54
:105060000548FFF742FF0346002B02D00248FFF736
:1050700089FF00BF80BD00BF0000024080B500AFC7
:105080000F48FFF70CFF0346002B09D00C48FFF731
:105090005FFF01210A48FFF7CDFE0A4B00221A707C
:1050A0000748FFF735FF0346002B06D00448FFF7FB
:1050B00076FF01210248FFF7BDFE00BF80BD00BFA3
:1050C000000002403021002080B483B000AF78603F
:1050D0007B68B3F9043018460C37BD465DF8047B95
:1050E000704780B483B000AF78607B6893F8483035
:1050F00018460C37BD465DF8047B704780B483B01A
:1051000000AF78607B68D3F8003118460C37BD4695
:105110005DF8047B704780B483B000AF78607B6833
:10512000D3F8FC3018460C37BD465DF8047B704759
:1051300080B582B000AF78607B68D3ED147AB0EEB2
:10514000670AFFF74FFB034618460837BD4680BD88
:1051500080B483B000AF78600B2318460C37BD468F
:105160005DF8047B704780B485B000AF78607B68E1
:1051700093F83430FB73FB7B18461437BD465DF85B
:10518000047B704780B483B000AF78600B46FB703F
:105190007B68FA7883F8762000BF0C37BD465DF84F
:1051A000047B704780B483B000AF786087ED000A5D
:1051B0007B683A681A6300BF0C37BD465DF8047B14
:1051C000704780B483B000AF78607B681B6B07EEDC
:1051D000903AB0EE670A0C37BD465DF8047B704725
:1051E00080B485B000AF7860124BFB607B6893EDB4
:1051F0000B7AD7ED037A27EE277A7B68D3ED267AF0
:1052000027EE277A7B68D3F89C30D3ED136A7B684E
:10521000D3F89C30D3ED147A66EEA77AC7EE276AEE
:10522000F0EE667AB0EE670A1437BD465DF8047B8F
:10523000704700BFCB151E3580B485B000AF7860D5
:10524000124BFB607B6893ED087AD7ED037A27EE6B
:10525000277A7B68D3ED267A27EE277A7B68D3F806
:105260009C30D3ED136A7B68D3F89C30D3ED147A6D
:1052700066EEA77AC7EE276AF0EE667AB0EE670AA6
:105280001437BD465DF8047B704700BFCB151E3553
:1052900080B483B000AF78607B6893F862301846C2
:1052A0000C37BD465DF8047B704780B483B000AF17
:1052B0007860052318460C37BD465DF8047B7047BF
:1052C00080B582B000AF78607B68D3ED197AB0EE1C
:1052D000670AFFF787FA034618460837BD4680BDC0
:1052E00080B582B000AF78607B68D3ED1A7AB0EEFB
:1052F000670AFFF777FA034618460837BD4680BDB0
:1053000080B582B000AF78607B68D3ED1B7AB0EED9
:10531000670AFFF767FA034618460837BD4680BD9F
:1053200080B582B000AF78607B68D3ED187AB0EEBC
:10533000670AFFF757FA034618460837BD4680BD8F
:1053400080B483B000AF78600B46FB70FB7807EE4B
:10535000903AF8EE677A7B68C3ED127A00BF0C379B
:10536000BD465DF8047B704780B483B000AF7860C1
:105370007B689B6D07EE903AB0EE670A0C37BD462E
:105380005DF8047B704780B483B000AF786087ED30
:10539000000A7B683A68C3F8E02000BF0C37BD46BE
:1053A0005DF8047B704780B483B000AF78607B68A1
:1053B000D3F8E03007EE903AB0EE670A0C37BD46FE
:1053C0005DF8047B704780B483B000AF78607B6881
:1053D000D3F8E43018460C37BD465DF8047B7047BF
:1053E00080B483B000AF78607B68D3F8E8301846AB
:1053F0000C37BD465DF8047B704780B483B000AFC6
:1054000078607B68D3F8EC3018460C37BD465DF801
:10541000047B704780B483B000AF78607B689B6D7D
:1054200007EE903AB0EE670A0C37BD465DF8047B94
:10543000704780B483B000AF786087ED000A7B6866
:105440003A68C3F8342100BF0C37BD465DF8047BD1
:10545000704780B483B000AF78607B68D3F8343194
:1054600007EE903AB0EE670A0C37BD465DF8047B54
:10547000704780B483B000AF78607B68D3F848355C
:10548000B3F8483018460C37BD465DF8047B7047CA
:1054900080B483B000AF78607B68D3F8483593F868
:1054A0004A3018460C37BD465DF8047B7047000053
:1054B00080B582B000AF78607B685B689B891A46D4
:1054C0007B685B685B8802FB03F30B4A82FB031279
:1054D0001A44D213DB17D31A1846FBF749F80246D1
:1054E0000B4610461946FBF7ADF803469BB218462B
:1054F0000837BD4680BD00BF0180008080B582B006
:1055000000AF78607B685B685B8A1A467B685B6883
:105510005B8802FB03F30B4A82FB03121A44D2138B
:10552000DB17D31A1846FBF723F802460B46104642
:105530001946FBF787F803469BB218460837BD4665
:1055400080BD00BF0180008080B483B000AF786070
:105550000B467B807A8813461B049B1A7A68526834
:10556000528893FBF2F27B685B6892B29A8100BF2B
:105570000C37BD465DF8047B704780B483B000AF44
:1055800078600B467B807A8813461B049B1A7A68E6
:105590005268528893FBF2F27B685B6892B25A823F
:1055A00000BF0C37BD465DF8047B704780B487B000
:1055B00000AFBA607B600346FB810B467B73002320
:1055C000FB757B7B282B4AD0282B73DC182B39D01A
:1055D000182B6FDC082B02D0102B0DD06AE0FB8952
:1055E000482B02D10423FB7502E00523FB7500BFA5
:1055F0007B6801221A8063E0FB8941F658329342AE
:1056000015D041F65832934214DCB3F5696F14D0CB
:10561000B3F5696F0EDCB3F5656F0ED0B3F5656F4A
:1056200008DCB3F5B26F02D0B3F5BA6F02D1042330
:10563000FB7503E00523FB7500E000BF7B680222D9
:105640001A803DE0FB89182B02D10423FB7502E090
:105650000523FB7500BF7B6804221A8030E0BB681D
:105660001B88BB82BB8A02339AB27B681A80BB68F4
:105670003B613B6901333B613B6901333B617B68C3
:105680001A883B8C9A4205D97B6800221A800A232B
:10569000FB7515E0FB89E82B05D0E82B06DC282BF1
:1056A00001D0A82B02D10423FB7502E00523FB7572
:1056B00000BF05E00723FB757B6800221A8000BF4E
:1056C000FB7D18461C37BD465DF8047B7047000023
:1056D00080B594B000AFBA607B600346FB810B4697
:1056E0007B73002387F84F30002387F84E3097F8FC
:1056F0004E302C2202FB03F34D4A1344BB647B7BE8
:10570000282B00F02D83282B00F37483182B00F036
:10571000E081182B00F36E83082B03D0102B00F0D0
:10572000918067E3FB89B3F5E96F6FD0B3F5E96F5B
:1057300075DCB3F5A16F65D0B3F5A16F6FDCB3F580
:10574000996F5FD0B3F5996F69DCB3F5916F41D074
:10575000B3F5916F63DCB3F5896F53D0B3F5896FFF
:105760005DDCB3F5816F4DD0B3F5816F57DCB3F5D8
:10577000727F47D0B3F5727F51DCC82B26D0C82B7F
:105780004DDC482B02D0882B04D048E0042387F856
:105790004F3049E0BB681B78FB76FB7E042B08D1B9
:1057A000B86CFFF77FFA034600221946B86CFFF782
:1057B00063F8FB7E032B36D1B86CFFF735FA03464E
:1057C00000221946B86CFFF738F82CE0042387F85C
:1057D0004F3029E0BB681B783B773B7F1946154863
:1057E00009F04EFB3B7F1946134809F049FB3B7F0C
:1057F00019461248FFF7A4FD3B7F19461048FFF7F2
:10580000C1FC11E0042387F84F300DE0BB681B7822
:105810007B777B7F194609480EF0C4FE04E0052320
:1058200087F84F3000E000BF7B6801221A80E8E271
:10583000A40900201C020020D00900208C030020B5
:10584000F0080020BB681B88FB83FB8941F65042AF
:10585000934200F02B8141F65042934200F3308195
:1058600041F61042934200F01B8141F610429342F0
:1058700000F3268141F65832934200F0CD8041F684
:105880005832934200F31C8141F25032934200F0AF
:10589000138141F25032934200F3128141F25002DF
:1058A000934200F0F98041F25002934200F30881E4
:1058B00041F21002934200F0EF8041F21002934255
:1058C00000F3FE80B3F57D6F00F0E680B3F57D6FE9
:1058D00000F3F680B3F5796F00F0DE80B3F5796FF1
:1058E00000F3EE80B3F5696F00F0EE80B3F5696FF9
:1058F00000F3E680B3F5656F00F0E680B3F5656F01
:1059000000F3DE80B3F5496F00F0C280B3F5496F54
:1059100000F3D680B3F5456F00F0BA80B3F5456F5C
:1059200000F3CE80B3F5396F00F0B280B3F5396F74
:1059300000F3C680B3F5356F00F0AA80B3F5356F7C
:1059400000F3BE80B3F5296F6ED0B3F5296F00F375
:10595000B780B3F5256F67D0B3F5256F00F3B0803E
:10596000B3F5216F60D0B3F5216F00F3A980B3F5D3
:105970001D6F59D0B3F51D6F00F3A280B3F5F26F20
:105980004ED0B3F5F26F00F39B80B3F5BA6F43D0FE
:10599000B3F5BA6F00F39480B3F5B26F3CD0B3F5B2
:1059A000B26F00F38D80B3F5926F6AD0B3F5926F4A
:1059B00000F38680B3F58A6F5CD0B3F58A6F7FDC25
:1059C000B3F5647F45D0B3F5647F79DCB3F5547FDC
:1059D0002ED0B3F5547F73DCB3F5887F15D0B3F5C3
:1059E000887F6DDC902B02D0D02B07D068E0B7F910
:1059F0001E301946B94808F013FD66E0B7F91E30AD
:105A00001946B64808F01BFD5FE0B7F91E3019468D
:105A1000B24808F0AFFD58E0042387F84F3054E057
:105A2000042387F84F3050E0042387F84F304CE0D0
:105A300007F1160207F118031946A94809F05AFDA3
:105A4000B7F91E30B7F916201946A54809F068FDC8
:105A50003BE007F1120207F114031946A04809F0D0
:105A600049FDB7F91430B7F91E2019469C4809F0D2
:105A700057FD2AE0B7F91E3019469A4808F0DFFCB6
:105A800023E0B7F91E301946964808F0C9FC1CE01F
:105A9000042387F84F3018E0042387F84F3014E0D0
:105AA000FB8B19469048FFF74FFD0EE0FB8B194624
:105AB0008D48FFF762FD08E0042387F84F3004E0CB
:105AC000052387F84F3000E000BF7B6802221A8070
:105AD00097E1BB681B687B63FB8941F618529342D0
