:020000040800F2
:1000000000800020D9A1000829A20008D9320008E8
:1000100029A2000829A2000829A200080000000067
:100020000000000000000000000000004175000812
:1000300029A2000800000000D175000835760008EC
:1000400029A2000829A2000829A2000829A2000864
:1000500029A2000829A2000829A2000829A2000854
:1000600029A2000829A2000829A200085D3300087F
:100070008933000829A2000829A2000829A2000843
:1000800029A2000800000000F932000829A2000897
:1000900029A2000829A2000829A2000829A2000814
:1000A0001D3300080533000829A2000829A2000812
:1000B00029A2000829A2000829A2000829A20008F4
:1000C00029A2000829A2000829A2000829A20008E4
:1000D00029A200085933000829A2000829A2000813
:1000E000E132000829A2000829A2000829A200087C
:1000F00029A2000829A2000829A200080000000087
:100100000000000029A200080000000029A2000849
:1001100029A20008000000001D4E000829A20008C6
:1001200029A2000829A2000829A2000829A2000883
:1001300029A20008000000000000000029A2000819
:1001400029A2000829A20008000000000000000009
:10015000000000000000000000000000000000009F
:1001600000000000000000000000000029A20008BC
:1001700029A20008000000000000000000000000AC
:100180000000000029A2000800000000000000009C
:10019000000000000000000000000000000000005F
:1001A000000000000000000029A2000829A20008A9
:1001B00029A2000829A2000829A2000800000000C6
:1001C0000000000029A2000800000000000000005C
:0801D00029A2000829A2000881
:1001E00010B5054C237833B9044B13B10448AFF371
:1001F00000800123237010BDA00B00200000000030
:1002000034D4000808B5034B1BB103490348AFF3CE
:10021000008008BD00000000A40B002034D40008BA
:1002200070B54FF0FF0C4CF4E06C1CEA11541DBF8C
:100230001CEA135594EA0C0F95EA0C0F00F0DEF857
:100240002C4481EA030621EA4C5123EA4C5350EA3C
:10025000013518BF52EA033541F4801143F480138D
:1002600038D0A0FB02CE4FF00005E1FB02E506F01E
:100270000042E0FB03E54FF00006E1FB03569CF073
:10028000000F18BF4EF0010EA4F1FF04B6F5007F79
:1002900064F5407404D25FEA4E0E6D4146EB0606EB
:1002A00042EAC62141EA55514FEAC52040EA5E5074
:1002B0004FEACE2EB4F1FD0C88BFBCF5E06F1ED81E
:1002C000BEF1004F08BF5FEA500E50F1000041EB55
:1002D000045170BD06F0004646EA010140EA020002
:1002E00081EA0301B4EB5C04C2BFD4EB0C0541EA24
:1002F000045170BD41F480114FF0000E013C00F339
:10030000AB8014F1360FDEBF002001F0004170BD5C
:10031000C4F10004203C35DA0C341BDC04F1140475
:10032000C4F1200500FA05F320FA04F001FA05F201
:1003300040EA020001F0004221F0004110EBD370CE
:1003400021FA04F642EB06015EEA430E08BF20EAFA
:10035000D37070BDC4F10C04C4F1200500FA04F39D
:1003600020FA05F001FA04F240EA020001F000412F
:1003700010EBD37041F100015EEA430E08BF20EAA2
:10038000D37070BDC4F1200500FA05F24EEA020EEA
:1003900020FA04F301FA05F243EA020321FA04F019
:1003A00001F0004121FA04F220EA020000EBD370D0
:1003B0005EEA430E08BF20EAD37070BD94F0000FD0
:1003C0000FD101F00046400041EB010111F4801F04
:1003D00008BF013CF7D041EA060195F0000F18BFB5
:1003E000704703F00046520043EB030313F4801FF1
:1003F00008BF013DF7D043EA0603704794EA0C0FAB
:100400000CEA135518BF95EA0C0F0CD050EA4106C0
:1004100018BF52EA4306D1D181EA030101F000413D
:100420004FF0000070BD50EA410606BF1046194665
:1004300052EA430619D094EA0C0F02D150EA013671
:1004400013D195EA0C0F05D152EA03361CBF1046B2
:1004500019460AD181EA030101F0004141F0FE4151
:1004600041F470014FF0000070BD41F0FE4141F4D5
:10047000780170BD81F0004102E000BF83F00043CD
:1004800030B54FEA41044FEA430594EA050F08BF2F
:1004900090EA020F1FBF54EA000C55EA020C7FEAF3
:1004A000645C7FEA655C00F0E2804FEA5454D4EB70
:1004B0005555B8BF6D420CDD2C4480EA020281EA3A
:1004C000030382EA000083EA010180EA020281EA72
:1004D0000303362D88BF30BD11F0004F4FEA0131C4
:1004E0004FF4801C4CEA113102D0404261EB4101D3
:1004F00013F0004F4FEA03334CEA133302D0524259
:1005000063EB430394EA050F00F0A780A4F1010414
:10051000D5F1200E0DDB02FA0EFC22FA05F280184E
:1005200041F1000103FA0EF2801843FA05F3594134
:100530000EE0A5F120050EF1200E012A03FA0EFCB3
:1005400028BF4CF0020C43FA05F3C01851EBE371DD
:1005500001F0004507D54FF0000EDCF1000C7EEBFA
:1005600000006EEB0101B1F5801F1BD3B1F5001F38
:100570000CD349085FEA30004FEA3C0C04F1010457
:100580004FEA445212F5800F80F09A80BCF1004F80
:1005900008BF5FEA500C50F1000041EB045141EA02
:1005A000050130BD5FEA4C0C404141EB0101013CCB
:1005B00028BFB1F5801FE9D291F0000F04BF0146BA
:1005C0000020B1FA81F308BF2033A3F10B03B3F18C
:1005D00020020CDA0C3208DD02F1140CC2F10C021C
:1005E00001FA0CF021FA02F10CE002F11402D8BF7A
:1005F000C2F1200C01FA02F120FA0CFCDCBF41EA46
:100600000C019040E41AA2BF01EB0451294330BD14
:100610006FEA04041F3C1CDA0C340EDC04F11404F1
:10062000C4F1200220FA04F001FA02F340EA0300C8
:1006300021FA04F345EA030130BDC4F10C04C4F10E
:10064000200220FA02F001FA04F340EA03002946EE
:1006500030BD21FA04F0294630BD94F0000F83F438
:10066000801306BF81F480110134013D4EE77FEA1B
:10067000645C18BF7FEA655C29D094EA050F08BF67
:1006800090EA020F05D054EA000C04BF1946104648
:1006900030BD91EA030F1EBF0021002030BD5FEA8C
:1006A000545C05D14000494128BF41F0004130BDB4
:1006B00014F580043CBF01F5801130BD01F0004508
:1006C00045F0FE4141F470014FF0000030BD7FEA7B
:1006D000645C1ABF194610467FEA655C1CBF0B4676
:1006E000024650EA013406BF52EA033591EA030F8D
:1006F00041F4002130BD00BF90F0000F04BF002185
:10070000704730B54FF4806404F132044FF00005B7
:100710004FF0000150E700BF90F0000F04BF002130
:10072000704730B54FF4806404F1320410F0004596
:1007300048BF40424FF000013EE700BF42004FEA91
:10074000E2014FEA31014FEA02701FBF12F07F430E
:1007500093F07F4F81F06051704732F07F4208BFC5
:10076000704793F07F4F04BF41F40021704730B5CC
:100770004FF4607401F0004521F000411CE700BF18
:1007800050EA010208BF704730B54FF000050AE09B
:1007900050EA010208BF704730B511F0004502D59C
:1007A000404261EB41014FF4806404F132045FEA9E
:1007B000915C3FF4D8AE4FF003025FEADC0C18BF47
:1007C00003325FEADC0C18BF033202EBDC02C2F139
:1007D000200300FA03FC20FA02F001FA03FE40EACB
:1007E0000E0021FA02F11444BDE600BF4FEA4102B7
:1007F00012F5001215D211D56FF47873B3EB625273
:1008000012D94FEAC12343F0004343EA505311F099
:10081000004F23FA02F018BF404270474FF000002B
:10082000704750EA013005D111F0004008BF6FF069
:10083000004070474FF00000704700BF70B484075D
:1008400046D04C1E002941D0D5B2034602E0611EBD
:10085000E4B30C4603F8015B9907F8D1032C2ED9B9
:10086000D5B245EA05250F2C45EA054519D9264696
:1008700003F11001103E0F2E41F8105C41F80C5CA2
:1008800041F8085C41F8045C01F11001F2D8A4F1D0
:10089000100121F00F0104F00F041031032C0B4460
:1008A0000DD91E4621460439032946F8045BFAD8BF
:1008B000211F21F0030104310B4404F003042CB187
:1008C000D2B21C4403F8012BA342FBD170BC704789
:1008D0000C460346C2E70000394A00B5136823F00E
:1008E0000F0343F0040383B01360136803F00F0396
:1008F000042BFAD13349344BD1F8802022F4807292
:10090000C1F880201A6842F480721A601A68520591
:10091000FCD559682D4A21F0FE4141F080415960D3
:10092000D8682B49024042F4AA4242F03202DA600F
:10093000D868284A01400A43DA60DA68224942F05E
:100940008072DA60DA6842F48032DA601A6842F063
:1009500080721A600B689B01FCD58B681A4A43F0C1
:1009600003038B608B6823F0F00343F080038B60FC
:10097000936803F00C030C2BFAD155230193019BD0
:100980002BB1019B013B0193019B002BF9D10E4B35
:1009900011489A6822F0F0029A609A6822F4E062A4
:1009A0009A609A6822F460529A6004F0FDFC00207C
:1009B00004F05CFA08B172B6FEE703B05DF804FB20
:1009C0000020024000700040001002400C80FFF93F
:1009D0000C80FF073255004080FE210A0000000015
:1009E0002DE98048BFB004F017FFFFF775FF002224
:1009F000CDE92B22CDE93222CDE93422CDE93622D0
:100A0000C94BCA49DA6C42F00402DA64DA6C02F0CB
:100A100004021692169ADA6C42F00102DA64DA6C79
:100A200002F001021792179ADA6C42F00202DA64BD
:100A3000DA6C02F002021892189ADA6C42F0100294
:100A4000DA64DB6C03F0100319938020B84B199A19
:100A500088615969F02321F0F00193FAA3F30BB1F7
:100A6000B3FA83F3022202FA03F3B14A0B43536150
:100A70004FF4005401232AA88DF8B0308DF8B2301D
:100A80002A9404F097FCAB4BDA6894FAA4F3B3FA17
:100A900083F303215B0001FA03F322EA030294FAD1
:100AA000A4F1A449CA600A6894FAA4F3B3FA83F3E0
:100AB00003215B0001FA03F322EA0302234693FABF
:100AC000A3F39C4B984E1A609FED898B80200121E7
:100AD0000024CDE9320132A9944836948DED348B4F
:100AE00004F022FD9FED847B012232A98F483692CB
:100AF0008DED327B04F018FD9FED817B012232A940
:100B00008A4836928DED327B04F00EFDB26CDFF830
:100B100030B2DFF830A2DFF83092874FDFF82C8256
:100B200042F00402B264B26C02F004020192019A33
:100B3000B26C42F00102B264B26C1A94CDE91B446B
:100B4000CDE92A44CDE92C44CDE92E44CDE91E441B
:100B5000CDE92044CDE92444CDE92644CDE934440F
:100B6000CDE9364402F001020292029AD6F88820BA
:100B700022F0405242F08052C6F88820F26C42F4D3
:100B80000052F264F26C02F400521492149AF26C65
:100B900042F00102F264F26C9FED5B7B02F0010215
:100BA000159232A94FF09040159A8DED327B04F0EA
:100BB000BBFC9FED577B9FED58AB4FF0A04532A992
:100BC0004FF090408DED327B369404F0ADFC1AA9C5
:100BD00028468DED1AAB1C9404F0B0FD2AA92846D6
:100BE0008DED2A8B8DED2C8B8DED2E8B04F0C0FDC1
:100BF000D5F8C020514802EA0B02C5F8C0202A6986
:100C000022F480322A612A699FED459B02EA0A029A
:100C10002A611EA98DED1E8B04F066FD24A92846CD
:100C20008DED268B8DED249B04F0D2FDEA6802EA5F
:100C3000090242F00042EA60EA6C22F4C07242F01B
:100C40008002EA64AA6822F0204222F03F02AA60F1
:100C5000AA6822F0104222F03F0242F08052AA60BD
:100C6000EA6C22F4785242F4C062EA646A6922F4BF
:100C7000606242F400726A61D5F8B02022F0080286
:100C8000C5F8B0202A6B22F4F86242F040022A63D1
:100C90006A6922F0380242F020026A61D5F8B02079
:100CA00022F00202C5F8B020CDE91E44CDE92A4465
:100CB000CDE92C44CDE92E44CDE924442094CDE95E
:100CC0002644CDE93444CDE93644D6F8882022F0D4
:100CD000405242F08052C6F88820F26C42F4005232
:100CE000F264F26C02F40052129231E0AFF3008031
:100CF00000000000000000000040000000000000B4
:100D0000008000000000000001000000030000005F
:100D1000040000000300000000000000008000004C
:100D20008000000000000000001002400010004899
:100D3000000001400008004800010050000300507E
:100D400000C0FFFFFCFBFFFFFFFFDF7F980B0020D1
:100D5000129AF26C42F00102F264F26C02F00102AB
:100D60001392139AF26C42F00402F264F26C9FED5B
:100D7000BE7B02F004021A9232A94FF090408DED32
:100D8000327B1A9A04F0D0FBB94B369410221846E5
:100D900032A90323CDE9322304F0C6FB1EA938464D
:100DA0008DED1EAB209404F0C9FC2AA938468DEDC8
:100DB0002A8B8DED2C8B8DED2E8B04F0D9FCD7F882
:100DC000C03003EA0B03C7F8C0303B6923F480331B
:100DD0003B613B6903EA0A033B6124A938468DED78
:100DE000249B8DED268B04F0F3FCFB6803EA0903DA
:100DF00043F00043FB60FB6C23F4C07343F08003BB
:100E0000FB64BB6823F0204323F03F03BB60BB6857
:100E100023F0104323F03F0343F08053BB60FB6C8F
:100E200023F4785343F4C063FB64D5F8143123F4FE
:100E3000606343F40073C5F81431D7F8B03023F081
:100E40000803C7F8B030D5F8303123F4F86343F421
:100E5000A073C5F83031D5F8143123F4603343F46E
:100E60000033C5F81431D7F8B03023F02003C7F8A9
:100E7000B030CDE92A44CDE92C44CDE93444CDE964
:100E800036442E94F36C43F00103F364F36C03F0E7
:100E9000010311930222119B32A903234FF09040CA
:100EA000CDE9322304F040FB0022402371482E9408
:100EB0002AA9CDE92A238DED2C8B04F09DFD6E4AE5
:100EC000D8F800301094A2FB0323DB0CC82202FBED
:100ED00003F31093109B2BB1109B013B1093109BBD
:100EE000002BF9D1654B5A6822F400125A601A6837
:100EF000002422F400121A60CDE92A44CDE92C44E2
:100F0000CDE93444CDE9364403F586332E94DA6CCA
:100F100042F00102DA64DB6C03F001030F938022DC
:100F20000F9B32A903234FF09040CDE9322304F008
:100F3000FBFA00224023CDE92A2351482E940022B7
:100F400000232AA9CDE92C2304F056FD4A4AD8F8FB
:100F500000300E94A2FB0323DB0CC82202FB03F338
:100F60000E930E9B2BB10E9B013B0E930E9B002B01
:100F7000F9D1424B43485A6822F480025A601A68F9
:100F8000002422F480021A60CDE92A44CDE92C44E1
:100F9000CDE93444CDE9364403F586332E94DA6C3A
:100FA00042F00202DA64DB6C03F002030D930122CB
:100FB0000D9B32A90323CDE9322304F0B5FA0022B8
:100FC0004023CDE92A2330482E94002200232AA969
:100FD000CDE92C2304F010FD274AD8F800300C94FA
:100FE000A2FB0323DB0CC82202FB03F30C930C9B34
:100FF0002BB10C9B013B0C930C9B002BF9D11F4B8D
:10100000224D5A6822F080425A601A6822F08042CB
:101010001A60AB6C43F00803AB64AB6C0024CDE901
:101020003244CDE93444CDE9364403F0080300935B
:101030003894009BEB6C43F48023EB64EB6C03F47B
:1010400080230B930B9B124BDB68124B83F83643C8
:101050004FF480025A60104E1049F36BDFF8409055
:10106000DFF8408020E000BF4000000003000000E7
:10107000000800480002014083DE1B4300040140D9
:1010800004020140000400480C020140001002402C
:1010900000ED00E000E100E000100050010011024E
:1010A0000078004000030140D34FDFF864A3DFF86D
:1010B00064B39FEDB38B9FEDB47B23F40073F363B4
:1010C00032AA30468DED367B349438948DED328BD8
:1010D00004F0A2FE3268C94922F002023260F26BCB
:1010E00022F48072F263F26B22F00072F2633046F7
:1010F00032AA04F091FE3268C14822F40032326014
:10110000F26B22F08072F263CDE92A44CDE92C44DF
:10111000CDE92E44CDE93244CDE93444CDE936441D
:101120003894D5F8882022F44032C5F88820EA6C3B
:1011300042F00402EA64EA6C9FED95AB9FED969B4A
:101140009FED977B02F0040209922AA9099A8DED7E
:101150002A7B8DED2CAB8DED2E9B04F0E5F99FEDF8
:10116000927B2AA9A6488DED2A7B8DED2CAB8DEDC7
:101170002E9B04F0D9F9AA6D42F08042AA65AA6DAF
:1011800038949FED8B7B02F080420A9232A9484648
:101190008DED327B0A9A8DED348B8DED368B04F01C
:1011A00095FED9F80420974842F00072C9F804204F
:1011B000D9F80C2022F4FF6222F00602C9F80C20B4
:1011C000D9F80C2022F40042C9F80C20D9F80020EC
:1011D00022F40022C9F80020D9F8002022F40032BD
:1011E000C9F80020426842F480024260CDE92A44F6
:1011F000CDE92C44CDE93444CDE93644EA6C42F0E3
:101200000102EA64EA6C9FED6C7B02F0010232A9F4
:1012100008924FF09040089A8DED327B04F084F9EB
:101220009FED677B32A94FF090408DED327B369475
:1012300004F07AF99FED647B32A94FF090408DED78
:10124000327B369404F070F92AA940468DED2A8B42
:101250008DED2C8B04F072FED8F8182022F03802A5
:10126000C8F81820D8F8002022F48072C8F80020AE
:10127000D8F8002022F01002C8F80020CDE92A4456
:10128000CDE92C44CDE93444CDE93644EA6C42F052
:101290000102EA64EA6C02F001020592059AEA6C26
:1012A00042F00402EA64EA6C02F004020692069A32
:1012B000EA6C42F00202EA64EA6C9FED457B02F0C0
:1012C0000202079232A94FF09040079A8DED327BCF
:1012D00004F02AF99FED407B32A94FF090408DED4C
:1012E000327B369404F020F99FED3D7B32A94448CF
:1012F00036948DED327B04F017F99FED3B7B32A9DC
:10130000414836948DED327B04F00EF99FED387B29
:101310002AA93E488DED2C7B8DED2A8B04F00EFE24
:10132000D8F81C2022F03802C8F81C20D8F8042075
:1013300022F48072C8F80420D8F8042022F01002A9
:10134000C8F80420214620222AA81E9408F0A0FFF5
:101350002146302232A808F09BFFCDE92444CDE994
:101360002644CDE928442A6E42F400622A662A6E99
:1013700002F4006203922023039A1F934CE000BF03
:10138000000000000000000002000000010000005A
:101390000000000001000000000000000800000044
:1013A0000001000002000000000200000200000036
:1013B0000000000072218000020000000300000015
:1013C000040000000300000008000000030000000B
:1013D0004000000003000000800000000300000047
:1013E00020000000030000000100000003000000D6
:1013F0000000000020000000002C0140F2004235F7
:1014000000080048000001400004004804030140B7
:1014100000200140182C01401EA9012341F29A022C
:101420004FF480743846CDE92143209204F074FFD4
:101430003A6822F080023A60DAF8182C602442F010
:1014400008020025CAF8182C0121CDE92A452AAA4C
:101450003846002440F64D058DED2E8B8DED308BFA
:10146000CDE92C4504F0ACFFDAF8182C22F0040288
:10147000CAF8182CDAF8182C42F40062CAF8182CB2
:1014800010212AAA384604F09BFFDAF8182C22F41F
:101490008062CAF8182CDBF8042042F00802CBF86E
:1014A00004204FF480712AAA384604F089FFDBF843
:1014B000042022F00402CBF80420DBF8042042F4DC
:1014C0000062CBF8042070222A9241F299022D92F8
:1014D0004FF480512AAA384604F072FFDBF804204A
:1014E00022F48062CBF804207B6823F0007323F0A1
:1014F000700343F070037B607B6823F470037B60B0
:10150000BB6823F08003BB60DAF8602C022393FAF7
:10151000A3F30BB1B3FA83F34FF4007101FA03F3B1
:1015200022EA0302022393FAA3F3C94BC3F8602C07
:10153000D3F8602C42F00202C3F8602CD3F8602C80
:10154000042393FAA3F30BB1B3FA83F34FF40071BE
:1015500001FA03F322EA0302042393FAA3F3BC4B38
:10156000C3F8602CD3F8602C42F00402C3F8602C5E
:10157000D3F8602C102393FAA3F30BB1B3FA83F3DF
:101580004FF4007101FA03F322EA0302102393FAE5
:10159000A3F3AF4BAF4CC3F8602CD3F8602C42F0F0
:1015A0001002C3F8602C4FF400624FF48063CDE961
:1015B00032233F238DF8D4304FF48053ADF8D6302A
:1015C0004FF400504FF44033CDE936034FF0007331
:1015D00000253A9332A94FF440139F483495CDE942
:1015E0003855CDE93C553B9305F096F8E36C9B48A4
:1015F00043F01003E364E36C03F010039FED928B60
:1016000004934FF002084FF00009022602274FF41E
:101610008072049B24A90223CDE92423CDE92689E5
:10162000CDE9286703F080FF24A98C484FF4806A35
:101630004FF0020BCDE92689CDE928678DED248B8B
:1016400003F072FF24A98548CDE92689CDE92867F2
:10165000CDE924AB03F068FF4FF40062022324A914
:101660007E48CDE92423CDE92689CDE9286703F01A
:101670005BFF4FF48052022324A97848CDE924234C
:10168000CDE92689CDE9286703F04EFF02234FF408
:10169000005224A97148CDE92423CDE92689CDE95A
:1016A000286703F041FF2946202232A808F0F0FD08
:1016B000CDE92C552E95D4F8883023F00303C4F8D7
:1016C0008830236E43F480432366236E03F4804303
:1016D0001E931E9BE36C43F00103E364E36C03F091
:1016E000010324932AA907234FF0904000240025EA
:1016F000249A2F938DED2A8B03F016FF00220723E7
:101700002AA94FF09040CDE92E23CDE92AABCDE9AF
:101710002C4503F009FF524B5249D3F80028524898
:1017200022F0FF0242F01802C3F800289A680A402B
:101730009A609A6822F440529A609A6822F02002D5
:101740009A609A6822F040029A609A6842F0800299
:101750009A609A6822F440729A609A6822F4406211
:101760009A60D3F8042822F0FF0242F01902C3F86D
:101770000428DA690A4042F01002DA61DA6922F4D8
:101780004052DA61DA6922F02002DA61DA6922F085
:101790004002DA61DA6942F08002DA61DA6922F441
:1017A0004072DA61DA6922F44062DA6100224FF4B1
:1017B000E133CDE9322332A900220C23CDE93623CF
:1017C000CDE93445CDE9384504F0EAFF274A52E82F
:1017D000003F23F0604342E800310029F7D152E88E
:1017E000003F23F0606342E80034002CF7D11E4B29
:1017F0001A6822F000521A605A6822F490425A6025
:101800009A6822F02A029A601A6842F001021A606D
:10181000DA699102FCD5DA695202F9D500F006F9CD
:10182000134BDB68C3F30223C3F107011A1D04291C
:1018300028BF0421062A88BFDA1E4FF0FF3303FABF
:1018400001F317E0AFF30080000200000200000087
:101850000020014000100240002C01400010004810
:1018600000000240EFBFFFFF003801400838014090
:1018700000ED00E06FEA030398BF002203F00803C5
:1018800093401B015F4ADBB282F82533202353606B
:101890005D4BDB68C3F30223C3F107011A1D042962
:1018A00028BF0421062A88BFDA1E4FF0FF3303FA4F
:1018B00001F36FEA030398BF002203F0080393408B
:1018C0001B01504ADBB282F80B334FF40063136004
:1018D0004D4BDB68C3F30223C3F107011A1D042932
:1018E00028BF0421062A88BFDA1E4FF0FF3303FA0F
:1018F00001F36FEA030398BF002203F0090393404A
:101900001B01404ADBB282F818334FF0807313603A
:101910003D4BDB68C3F30223C3F107011A1D042901
:1019200028BF0421062A88BFDA1E4FF0FF3303FACE
:1019300001F36FEA030398BF002203F0050393400D
:101940001B01304ADBB282F819334FF00073136089
:101950002D4BDB68C3F30223C3F107011A1D0429D1
:1019600028BF0421062A88BFDA1E4FF0FF3303FA8E
:1019700001F36FEA030398BF002203F007039340CB
:101980001B01204ADBB282F812334FF4802313602C
:101990001D4BDB68C3F30223C3F10702042A03F1E2
:1019A000040128BF0422062988BFDC1E4FF0FF3344
:1019B0009340DB4303F00803A340124A1B01DBB250
:1019C00082F828334FF480735360104C03F0BCFA54
:1019D0000FCC2AAD0FC554F8043B2B6000212AA878
:1019E00005F024FC0A4B18600FCC32AD0FC52368FC
:1019F0002B60002132A805F019FC064B186005F099
:101A00000FFCFEE700E100E000ED00E04CD4000830
:101A1000BC0B0020C00B0020034B02689A4200D090
:101A2000704703F011BF00BF0010004008B5034825
:101A300000F0A8F8BDE8084000F04EBAC40B002042
:101A400008B503F00DFF044BA3FB0030C009BDE84F
:101A5000084003F0B7BF00BFD34D62102149224AAE
:101A60008B6823F4401323F0700343F0100330B469
:101A70008B608B6823F4803323F0070343F0060365
:101A80008B60936DDB0782B015D4936D43F0010337
:101A90009365936D4FF0804103F001030193019B27
:101AA0004B6943F001034B61936D23F00103936590
:101AB00002B030BC70474FF080430C4C5A685968F4
:101AC0000B4D214041F020015960586940F0010060
:101AD000586159682A4021400A435A6002B030BC1C
:101AE000704700BF002C0140001002408FFFFFFD37
:101AF00070000002013270B552086FF00206550105
:101B00000661002293F800C0BCF10F0F02F1010E34
:101B10000CD80469A407F5D51FFA8EF29542066128
:101B2000F0D81C780F2CEDD801230B8070BD00BFBE
:101B3000014B186801F01ABBC40B0020014B186858
:101B400001F02ABBC40B0020014B186801F044BB14
:101B5000C40B0020014B186801F002BBC40B00202D
:101B600000B583B08446049801900093044813465E
:101B70000A46614609F0C2F803B05DF804FB00BFF5
:101B800000030020002842D070B5214C214E066091
:101B900082B00025257000F089FA1F4802F032FE5D
:101BA0001E4806F0E5F91E4807F040F81D4800F011
:101BB00059FF1D4806F0B2FA1C4800F053FF1C48BC
:101BC00006F09AF91B48B06202F07AFC1A4805F058
:101BD000F9FE194806F08EF840F20313ADF8043010
:101BE0008DF806500199144805F0F6FE40F20113F5
:101BF000ADF800300099104805F0CEFF0E4806F011
:101C00006FF803F007F90123237002B070BD70472D
:101C1000BA1E00203C000020B00A00206001002015
:101C2000280A0020180A0020D0090020EC09002012
:101C3000FC090020F80B0020F40B0020214B1B783E
:101C4000B3B170B5204C23889BB1013B23801F4A60
:101C500013889BB21BB11388013B9BB213801C4AB3
:101C600013889BB21BB11388013B9BB2138070BDDC
:101C700070471848184D012102F050FC00F018FB85
:101C80001448012102F078FC03F0C6F8294651F807
:101C90000C0B83689847686030B129460A2251F8D6
:101CA000080B0368984710B901232380CFE7284623
:101CB00002F02AFB2868EA894668A9680A23B04727
:101CC000F2E700BFBA1E0020BE1E0020BC1E00208E
:101CD000C01E0020F80B00208C0A0020014B188049
:101CE000704700BFBC1E0020034B188880B2B0FABA
:101CF00080F04009704700BFBC1E0020014B1880D7
:101D0000704700BFC01E0020034B188880B2B0FA95
:101D100080F04009704700BFC01E00200C4A08B583
:101D20000C4B52689A60002000F084FC0A4A0B4871
:101D3000136890F829100133136029B90548002170
:101D400002F0F8FB002008BD08F054F9F6E700BFE8
:101D5000001000E0F80B0020FC380020600A002092
:101D600070B5044682B0B0B1274D286800F056FE29
:101D70000146264804EB840304EB4303CA4300EB0B
:101D8000830092B2019001F0A3F9019801F036FAB4
:101D9000F0B902B070BD1E481B4D00F051FF014666
:101DA0001C4806F0BBF80646286800F037FE06F02F
:101DB0000E0640EA060118488EB200F041FF0146C7
:101DC000164806F0D5F900F00E0040EA0601D0E70B
:101DD000134809F027F8134808F0DAFA55F82400F8
:101DE00000F0C6FD104890F829302BB9204602B00B
:101DF000BDE8704000F012B908F0C0F9204602B00A
:101E0000BDE8704000F00AB92C0C00203C00002016
:101E1000EC090020FC090020180A0020D00900204D
:101E20000003002068000020600A002008B5074B6E
:101E30001B78012B00D008BD054809F03FF80020B1
:101E4000FFF78EFFBDE8084000F0C4BFBA1E0020B7
:101E50000003002008B5084808F0E4FF074808F030
:101E600097FA002000F0DAF8BDE8084004480022A4
:101E7000802101F02DB900BF000300206800002080
:101E80003C00002008B5084C084D012005F052F830
:101E900023689B0704D502232846636002F06CFF89
:101EA000FFF7CCFEF1E700BF00000240B00A0020BF
:101EB00008B5012005F03EF8FFF7B8FFF9E700BFCD
:101EC00008B5FFF747FE18B9BDE80840FFF730BE78
:101ED000BDE80840FFF732BE30B4464A464BD361F6
:101EE0001021D16190B0D361D1690F914FF090432F
:101EF0004FF0011101200F9CD961D861D961DC69D3
:101F00000E940E9D3D4CDC618025DD61DC61DC6959
:101F10000D940D9D3A4CDC610225DD61DC61DC69CC
:101F20000C940C9D374CDC610825DD61DC61DC69BB
:101F30000B940B9D344CDC610425DD61DC61DC69B4
:101F40000A940A9D314CDC614025DD61DC61DB696E
:101F5000099320242E4B099DD361D461D361D369A9
:101F60000893A2F58062089BD161D061D161294BB1
:101F7000D26907924FF400714FF481320798DA6109
:101F8000D961DA61DA6906924FF400614FF4843264
:101F90000698DA61D961DA61D96905914FF4823224
:101FA0004FF480610598DA61D961DA61DA690492E7
:101FB0004FF400514FF490320498DA61D961DA613C
:101FC000DA6903924FF480514FF488320398DA6152
:101FD000D961DA61DA6902924FF480710E4A02988F
:101FE000DA61D961DA61DB690193019B10B030BC21
:101FF000704700BF00080048100001008000010089
:10200000020001000800010004000100400001007E
:1020100020000100001000480001010038B526230F
:102020001B4900FB03F300255D50044603F1080241
:10203000581810330A440B441649456055609560A2
:1020400051F82400C3F80650C3F80A50C3F80E50E4
:10205000294605F0A1FF104B294653F8240005F04E
:102060009BFF0E4B53F8240006F074FA0C4B53F808
:10207000240000F07DFC0B4B53F8240008B105F060
:10208000A3FE21460848BDE8384002F03BBA00BF35
:10209000C80B0020C8090020C4090020CC0900207A
:1020A0002C0C0020BC090020F80B00202DE9F04F7B
:1020B000DFF858814548464F464EC8F8000085B0C5
:1020C00007F000FA444DDFF848A1DFF84891DFF847
:1020D00048B1424CFFF7C2FC384605F049FF304694
:1020E00006F0C8FC28683246394606F01BFAD8F8D4
:1020F0000030296800935246394B484606F0F4F800
:10210000384805F035FF384805F032FF374A384B7C
:1021100010681B68374A3849D96012689C60DBF840
:10212000003005F043FE354B3548186006F04EF898
:10213000304B3448DBF800201B68C0F82090DFF8F3
:10214000DC90D8F800C02C49DFF8D480DFF8D4B098
:10215000C0F810A0C0E906234FF0000A2A4BC0F8CF
:1021600000C04160436184604662C0F82C90C0F8B2
:1021700030A0C0F80C80C0F828B008F031FD484607
:10218000C9E9027BC9F80060C9F8044008F088F882
:102190005046FFF743FF0123286884F8243006F0F7
:1021A0005BFA2082C0F30F406082286806F054FA80
:1021B000C0F30F432868A38206F04EFA524601B2DC
:1021C000404605B0BDE8F04F00F078BF9C0100200C
:1021D0006001002060080020CC090020C80B00200E
:1021E0004C0800203401002008010020BC09002018
:1021F000C0090020C4090020D0090020F00B0020F5
:102200004002002000030020000000202C0C0020D1
:10221000280A002088020020C80900206800002049
:102220003C00002088090020FF2805D0034B53F80C
:10223000200008B105F024BE704700BFBC09002093
:102240002DE9F041054682B072B6164E262404FBF5
:1022500000642069B4F91070019062B694F82430DB
:102260005BB172B6262000FB0565ADF804700198DD
:10227000286162B602B0BDE8F081DFF8308058F81E
:10228000250006F0BFF9084BE083074653F8250008
:102290000028E6D0ADF8047058F82520019905F023
:1022A00097FDDEE7C80B0020BC090020CC09002008
:1022B000F0B583B000236946BC48ADF8003006F0A5
:1022C000D9FABB4BBB4C0546186805F0D3FE204637
:1022D00000F04AFF30B10A23E377B7480AF07CFAEE
:1022E00003B0F0BD204600F03DFF78BBE37F142B28
:1022F000F3D801A252F823F047250008DB2200089A
:10230000DB220008DB220008AD240008DB220008E5
:1023100029250008DB22000805240008DB2200082C
:102320004D2300087B240008DB220008DB22000884
:10233000DB220008DB22000825240008892400088D
:10234000DB220008A12300085B2300080B239A4826
:10235000E3770AF041FA03B0F0BDA37F052B00F04C
:102360000D8195480AF0A2FE05460028B5D1934A92
:10237000934B10689349012283F8242006F0E8F873
:102380008A4806F051FB2846FFF748FE8A4808F0C5
:102390005DFD8D4B186800F0EDFA0423E3779CE7B0
:1023A000A37F052B00F0EA80864801A906F096FC81
:1023B0000546844806F03AFD002D00F0F380804B7E
:1023C0008248B3F9105005F0EFFD00B200FB05F1B3
:1023D0007E487A4D05F0E0FD7D4808F0DDFB73494D
:1023E000286806F0B5F80020FFF71EFF0020FFF771
:1023F00027FF286806F03EF96E4800F075FE0623B8
:10240000E3776AE7FFF780FC00283FF466AF6B4B89
:102410006C49186806F09CF86A4806F0F9FB00233E
:10242000E3835AE7A37F052B00F0A880FFF75CFC4D
:1024300000283FF452AF644D286806F0DFFE5F4A83
:102440005F4B10685F49012283F8242006F080F872
:10245000564806F0E9FA286800F01AF90020FFF75C
:10246000DDFD554808F0F2FC286800F083FA0423EB
:102470002868E37700F07EFA2FE7A37F022B7FF432
:102480002CAF0023E38328E7A37F052B76D04E4BA8
:102490000121186800F070FA00283FF41EAFA37FF6
:1024A000032B00F0BA801423E37716E7A37F052BF4
:1024B00064D0484805F098FF002840F09E803B4ECD
:1024C00040480DF1020106F009FC0DF10201304611
:1024D00006F00AFB0546374800F09AFE41B2304646
:1024E00006F092FB3748294606F092FC002D3FF497
:1024F000F4AE334FB6F904107868374D00F05AFD4A
:1025000003462868019305F061FEB7F910102868AA
:10251000002205F0A5FEBDF904102868192205F077
:102520009FFE1323E377D8E6A37F052B26D021480F
:1025300000F0DAFD0020FFF783FE002D67D024486D
:1025400007F02AFFC9E6A57F05F0FD05012D7FF400
:10255000C4AE18481C4E00F05BFE01461D4805F055
:10256000FBFE306890F87F10002937D100F004FAA4
:102570001123E377164807F0F7FEAEE6124B186812
:1025800006F03CFE0C4808F04DFC114807F000FF37
:102590000020FFF743FD4FF44870FFF7AFFB08231F
:1025A000E3779AE600287FF40AAF96E660080020F9
:1025B000C00900203C00002000030020CC090020BE
:1025C000C80B0020280A00202C0C002060010020ED
:1025D0006800002088020020F00B00202946A0F8A7
:1025E000605000F0C9F93068002106F0CDFE1420DB
:1025F000FFF774FB1023E377BCE70B4B186806F07A
:1026000001F80A4BB3F9142018825A8257E7084898
:102610002A46202100F05CFD91E70020FFF7FEFC38
:102620000023E38359E600BFCC090020C80B00203B
:102630003C00002010B5114BDB7F132B82B011D072
:102640000F4C00F04BFC00F0F9FB0E4B186801A991
:1026500003689847019820600B4808F03BFE002073
:1026600002B010BD094C206805F0DAFD0028E7D162
:102670002068034C05F0B2FD2082E2E73C00002018
:10268000C80B00202C0C002000030020F00B0020C1
:102690000023C0E90D338366A0F86C30704700BF9B
:1026A00010B5B0F870C0B0F84E3082B00A14019185
:1026B0000CFB02F209B2C2EBC27203FB01F101EBA7
:1026C0004203C1EB420103EBD37E01EBD174B3F1C2
:1026D000FF3F4FEA42024FEA6E0E4FEA64046FDB9F
:1026E000B1F1FF3F3BDBBEEB040E44BF0EF57F3E76
:1026F0000EF2FF3E0029B8BF01F57F314FF0010215
:10270000B8BF01F2FF31002BB8BF03F57F3380F86B
:102710007A204FEA9C0C90F885200CEBAE4EB8BFA7
:1027200003F2FF330EEBA141AEEBA343002A72D1BB
:10273000A0F85810A0F85AE0A0F85C3042692EEAE0
:10274000EE7E21EAE17123EAE373A0F850E0A0F8FD
:102750005210A0F8543002B0BDE810401047002AD3
:1027600040F38B80B2EB040E44BF0EF57F3E0EF2B9
:10277000FF3E0029BCBF01F57F3101F2FF314FEA76
:102780009C0C002AB8BF02F5FF320CEBAE4E90F85D
:102790007D404FF000030EEBA141B8BF02F2FF12E3
:1027A00080F87A30A1EB624324B990F88520002AA2
:1027B00000F0D3806C4A82650022A0F85C20BDE75F
:1027C000B1F1FF3FC0F28380002A2ADDBEEB020E8A
:1027D00044BF0EF57F3E0EF2FF3E002BB8BF03F55F
:1027E0007F334FEA9C0C0CEBAE4EB8BF03F2FF33C5
:1027F00090F885400221AEEBA34380F87A1003EBFA
:102800006241002C00F094804FF400328265012276
:10281000A0F85C2092E7022282650122A0F85C20E9
:102820008CE7B2EB040E44BF0EF57F3E0EF2FF3E86
:102830000029B8BF01F57F314FF00303B8BF01F2A3
:10284000FF3180F87A304FEA9C0C131EB8BF03F5B5
:10285000FF330CEBAE4E90F885200EEBA141B8BFD4
:1028600003F2FF13A1EB6343002A6FD04FF48032D1
:1028700082650222A0F85C2060E7BEEB020E44BF36
:102880000EF57F3E0EF2FF3E002BBCBF03F57F33FB
:1028900003F2FF334FEA9C0C002AB8BF02F5FF3267
:1028A0000CEBAE4E90F885404FF00501AEEBA34324
:1028B000B8BF02F2FF1280F87A1003EB6241002CDD
:1028C0003DD02A4A82650022A0F85C2036E7BEEBA4
:1028D000040E44BF0EF57F3E0EF2FF3E0029B8BF46
:1028E00001F57F314FF00402B8BF01F2FF31002B38
:1028F000B8BF03F57F3380F87A204FEA9C0C90F83C
:1029000085200CEBAE4EB8BF03F2FF330EEBA141B6
:10291000AEEBA3432AB1012282650222A0F85C201B
:102920000CE7A0F85830A0F85AE0A0F85C1005E7D2
:10293000A0F85810A0F85A30A0F85CE0FEE6A0F825
:1029400058E0A0F85A30A0F85C10F7E6A0F858302C
:10295000A0F85A10A0F85CE0F0E6A0F858E0A0F863
:102960005A10A0F85C30E9E6020001000100020004
:10297000436818478368184710B5044682B099B178
:10298000012902D0002002B010BDB0F860309BB128
:10299000013B9BB20191A0F86030002BF2D1C368DB
:1029A000984701990846EEE7FFF7E2FF2046E36803
:1029B0009847012002B010BD084602B010BD00BF0C
:1029C00090F883301BB990F87B30022B04D00123A0
:1029D00080F8803078307047D0E90F2110B4436C14
:1029E000B0F848409462B0F84A40B0F84C208C628D
:1029F0009A62012380F880305DF8044B783070478C
:102A00004A6C03464FF0010C42F480624A6478300D
:102A100083F881C083F883C0704700BF90F881308D
:102A2000B3B1002380F881304221022390F8802046
:102A30001AB1002380F880300B4690F882202AB12A
:102A400043F4806300229BB280F8822018467047CE
:102A50004021EBE7C3691847036A1847436A1847E0
:102A6000836A1847724A116870B5002900F08F8098
:102A700090F804C00B799C4520D05368002B00F0DF
:102A80009D801C7964454FF0FF0100F089809468B7
:102A9000002C00F0B4802379634500F08880D3686F
:102AA000002B00F0B5801C79644500F0928003296A
:102AB00088BFFF2140F2B880017370BD03680968C8
:102AC0008B42DAD100215B4C42F821009A68002544
:102AD00044F83150D50722D45A68042422F0040265
:102AE0005A601C605A68202422F020025A601C6040
:102AF0009A6822F0404222F03F0242F000429A607F
:102B00009A68002AFCDB1A68D40708D44A4C9A68F1
:102B1000224042F001029A601A68D207F7D501EB11
:102B2000410C4FEA4C0C454C002204F80C20644444
:102B300061F3070261F30F22A2801A6B22F00F02E9
:102B40001A6390F804C0BCF1090F49D80CEB4C048F
:102B50004FEA8C6242EA0452012404FA0CFC42EA75
:102B60000C02D40D04F0040403F1140586686359C3
:102B7000C2F304524FF0070E06FA02FC0EFA02F2FC
:102B800023EA020242EA0C026251017370BD5368EB
:102B9000002B41D090F804C01C7964457FF477AFD6
:102BA0001C6803689C427FF472AF01218BE72468A4
:102BB00003689C427FF473AF022184E7946801218B
:102BC000002C7FF468AFD36873B31D790479A542F4
:102BD0002AD11C6803689C427FF469AF032172E725
:102BE00003226FF01D0412FB0C44012202FA0CF2C6
:102BF00042EA045242EA8C6242F00072B1E70429D0
:102C000010D9D36813B119798C450FD00368D3E775
:102C100004290368E2D856E794681CB190F804C010
:102C2000194638E72146CEE703684CE70221D0E792
:102C3000081F0020C41E0020C0FFFF7FE41E0020EC
:102C400010B5037B5F4A03EB43014FEA430C12F8D4
:102C5000111000293DD11078B0B9042190790028D5
:102C600000F08180D07A8342C0F09C80117B0029E3
:102C700000F09B80507C8342C0F0A180917C0029B1
:102C800040F09780022175E050799842E6D98E464F
:102C90000CEB030402EB44040EEB4E0E2171607149
:102CA000494C00EB400002EB4E0E02EB4000217855
:102CB0008EF8053003710CEB03004FF0010E01EBB1
:102CC000410122F810E002EB41014978714518BF3B
:102CD00023703E4991F8A010002934D13C4951F8A5
:102CE00023100C790868092C32D903216FF01D0ECE
:102CF00011FB04EE0121A14041EA0E5141EA846139
:102D000041F00071046B090D01F4F86124F4F864DA
:102D100021430163016C816821F0004121F03F01F2
:102D200041F00401816001684907FCD5006C0CEB9F
:102D3000030102EB410120F00F00488022484C794A
:102D4000047002204870634402EB4302508810BDB7
:102D500004EB440EA10641EA0E514FF0010E0EFAAB
:102D600004F42143CEE7107B002883D1907C00BB84
:102D7000042913D001EB41000CEB030402EB4404E3
:102D800002EB400021714179617101EB410102EBDD
:102D900041010D4C0B71437121788CE70A4C1946A7
:102DA000237088E701218E4672E7917C09B90121E1
:102DB000E0E7D07D98424FF00301DBD967E70221BD
:102DC00065E700BFE41E0020041F00209C010020D6
:102DD000081F0020144B2DE9F0411C681CB1134D55
:102DE0002B78012B01D0BDE8F0812046267BFFF730
:102DF00027FF0F4B18800F4B06EB460203EB4203F5
:102E000001465B780BB102232B700B4B53F83670E5
:102E1000002FE8D003EBC60320465A6800232B702E
:102E20003B46BDE8F0411847FC1E0020001F002073
:102E3000021F0020E41E0020C41E0020244B254851
:102E40001A7802EB420310F81330A3B3224B10B5EB
:102E500053F82230196804240C6093F804C0BCF1C4
:102E6000090F4FEA420E27D903236FF01D0413FB0D
:102E70000C44012303FA0CF343EA045343EA8C6342
:102E800043F00073724400EB42000A6B1B0D03F425
:102E9000F86322F4F86213430B630B6C8B6823F026
:102EA000004323F03F034FF0010C43F004038B6019
:102EB00080F801C010BD70470CEB4C044FEA8C63E6
:102EC00043EA0453012404FA0CFC43EA0C03D9E757
:102ED000041F0020E41E0020081F002030B4124808
:102EE000124A037803EB430112F8114002EB41014F
:102EF000BCB10F4C54F82340246825686D074FEA95
:102F0000430C09D54D7815F0FD0F05D0246C24F045
:102F10000F044C8002244C70634402EB430253794B
:102F2000037030BC704700BF041F0020E41E002067
:102F3000081F002044F6E61103B213FB01F2C0F3B0
:102F40000F4010FB01F15042A0EB4100B0F1804F67
:102F500084B005DAC11311F5004F0CDA094A01E01B
:102F600047F6FF729BB2002063F30F0093B263F346
:102F70001F4004B0704703480AB28242B8BF0246FD
:102F8000F0E700BF0180FFFF094B00F1FF404FF069
:102F9000601200F5FE001A6058609B6800209AB22B
:102FA00062F30F001B0C82B063F31F4002B0704746
:102FB000000C024030B585B00346054608461C1497
:102FC0000193FFF7E1FF2DB20FFA80FC031405FB1C
:102FD0000CF104FB1311B1F1804F05DACA1312F59D
:102FE000004F22DA144901E047F6FF710CFB04F4AC
:102FF00005FB0344B4F1804F4FEAE43204DA12F5E2
:10300000004F0CDA0C4B01E047F6FF738AB2002048
:1030100062F30F009BB263F31F4005B030BD06485A
:1030200013B28342B8BF0346F0E7034912B291429C
:10303000B8BF1146DAE700BF0180FFFF30B585B0A9
:103040000446054608460194FFF79EFF2414021427
:103050002DB200B204FB02F305FB003300FB04F4C5
:1030600005FB1244C3F3CF33002063F30F00C4F316
:10307000CF3464F31F4005B030BD00BF002809DD28
:1030800072B6054B40F269121A6058609868C00B1E
:1030900062B6704700207047000C024082B08DED90
:1030A000010A019802B070474FF0010C40F2013361
:1030B00080F80CC0C1818283838470474FF0020C7A
:1030C00040F2014380F80CC0018282838384704700
:1030D000038CB0F822C00B4323EA020341EA0C013F
:1030E00003844184704700BF90F82430012B00D046
:1030F000704710B5027B022A044607D0032A28D065
:10310000012A17D0032384F8243010BD436800221D
:1031100083F824200068042105F028FAA28BB4F972
:103120001010206805F026FA0028EBD0022384F85E
:10313000243010BD4368002283F824200068032156
:1031400005F014FAA28BB4F90E10206805F012FAFB
:10315000EAE7426882F82430D0F812301361E5E7DC
:10316000C07F7047408C7047008C704710B5044694
:10317000FFF7F6FF08B1002010BD2046FFF7F2FF71
:103180000028F8D12046FFF7EFFF0028F3D10120F7
:10319000A07784F8240010BD38B50546FFF7E0FF9E
:1031A00050B1B0F10C04284618BF0124FFF7DAFF34
:1031B00040B10024204638BD04462846FFF7D2FF20
:1031C0000028F6D12846FFF7CFFF0028F1D1002CC8
:1031D000EFD00523AB77EDE710B50446FFF7C0FF4E
:1031E0000B2801D0002010BD2046FFF7BDFF0028AE
:1031F000F8D10223A3776084012010BD438C008C9A
:1032000043EA0040704700BF90F82500704700BFB8
:10321000037B022B05D0032B13D0012B09D00120F7
:103220007047B0F91030002BACBF01204FF0FF30D9
:103230007047B0F90E30002BACBF01204FF0FF30CB
:103240007047B0F91230002BACBF01204FF0FF30B7
:10325000704700BFB0F90E00704700BF808B704709
:1032600003680022DA609A61704700BF03685869FA
:1032700005F00CB9006805F075B900BF4268D2F8D6
:103280001600002382B262F30F03000C60F31F43A9
:1032900082B0184602B070474268D2F81A00002384
:1032A00082B262F30F03000C60F31F4382B0184632
:1032B00002B070474368B3F91E00704710B5D0E9FB
:1032C000000405F0C9F9C0F30F432082638210BDEA
:1032D000806A01F017B900BF08B5FEF7BBFDFEE735
:1032E000044B5A69920400D470474FF400525A615B
:1032F000FEF7E6BD000401404FF0A04340221A60F3
:10330000FEF70CBD034B04486FF001021A6106F092
:103310009FBC00BF002C01409C01002008B50C4B55
:103320001A69120605D56FF080020A481A61FFF784
:1033300047FB07490B69DB0505D56FF4807305482A
:103340000B61FFF75DFBBDE80840FEF777BC00BFEF
:10335000002C01409C01002001F0EABF094B1A68D3
:10336000500744BF04225A60064B1A68910744BFB5
:1033700002225A60034B1A68120744BF08225A609F
:10338000704700BF000002400B4B1A68910608D539
:1033900020225A60DA69094922F001020020DA612C
:1033A0000870054B1A68120605D580225A60DA6942
:1033B00022F00102DA6170470000024088230020F9
:1033C0001829BDF900C032D013D808293BD01029E4
:1033D00035D1B0F5656F3ED01ED9B0F5696F3AD0E2
:1033E00041F65832904214BF0520042002221A8070
:1033F0007047282923D11288023292B21FFA8CFC1E
:1034000062451A8029D8E8282BD020F0800028288F
:1034100014BF05200420704720F04000B0F5B26FC3
:103420004FF0020214BF052004201A8070471828AC
:103430004FF004020CBF104605201A80704700228E
:103440001A800720704748284FF001020CBF042063
:1034500005201A8070470020C8E700221A800A2041
:1034600070470420704700BF30B583B01829BDF9FC
:1034700018C01C4600F00B8130D8082900F0C68027
:10348000102940F0F680B0F5F26F158821D042D9AE
:10349000B0F5796F1DD051D941F61043984200F034
:1034A000CB810DD941F65043984257D1A24B5A686F
:1034B000C5EB05455388B5FBF3F30020538209E0C3
:1034C00041F25003984204D07BD941F250339842E4
:1034D00070D104200223238003B030BD282940F09E
:1034E000C880138802339BB21FFA8CFC634523808B
:1034F00000F28381B0F5D47F00F0E18100F2ED812C
:10350000E82800F0808120F08000282814BF0520E2
:10351000042003B030BDB0F5547F00F0B58127D949
:10352000B0F58A6F00F0828155D9B0F5926F14D151
:10353000824829B204F024FD0020CBE7B0F5396FB2
:10354000C7D021D9B0F5656F00F05B8154D9B0F5D3
:10355000696F14BF05200020BCE701D20520B9E740
:1035600020F04000B0F5B26F14BF05200420B1E791
:10357000D02800F05581B0F5887F7FD1704829B2FE
:1035800004F02CFD0020A5E7B0F5256FA1D008D9E7
:10359000B0F5296F9DD0B0F5356F14BF052004201C
:1035A00098E7B0F51D6F94D0B0F5216F14BF0520DA
:1035B00004208FE741F65833984214BF05200420B9
:1035C00088E7B0F57D6F84D041F21003984214BFB4
:1035D000052004207EE7B0F5647FBFD159480DF186
:1035E000060201A905F0EEFA5648BDF904102AB208
:1035F00005F0F0FA00206DE7B0F5456F3FF469AFD4
:10360000B0F5496F14BF0520042063E7B0F5916F52
:1036100000F01C8112D8882800F0F78024D9B0F57A
:10362000816F00F0E88040F2D180B0F5896F14BF5F
:10363000052004200123238003B030BDB0F5E96FDD
:1036400005D13D48117809F0E7FE0020F2E701D9E5
:103650000520EFE7B0F5996F00F0CD80B0F5A16FD0
:1036600014BF05200420E5E7482814BF05200420E6
:10367000E0E700230720238003B030BD90287FF4CB
:103680006DAF2F4829B204F07BFC002022E741F601
:1036900018039842116800F0058116D941F6D80345
:1036A000984200F0EC8063D941F6D813984200F0BC
:1036B000A08016D941F61853984275D11E4800EEE5
:1036C000101A09F0AFFE002032E0B0F5067F00F0DE
:1036D000D2800FD9B0F5167F28D11B4B002059613D
:1036E00026E041F6181398424FD1134B0020C3F83F
:1036F00034111DE0D8287CD009D9B0F58C7F78D062
:10370000B0F5EC7F13D1104B0020196110E0982820
:1037100054D10E4B0E4809B283FB0123A3EBE17198
:10372000002209B2FFF7C0FC002001E012D2052000
:103730000423238003B030BD000300209408002040
:10374000600100206008002004000020ABAAAA2A23
:103750003C00002041F2587398424AD03ED920F0F4
:10376000400041F29873984214BF05200420DFE71F
:1037700041F6580398424FD041F698039842D6D16B
:10378000614B0020C3F8E010D2E741F617139842CE
:10379000CDD941F6581398422BD041F69813984250
:1037A00014BF05200420C3E7C1D820F0400041F633
:1037B0001823984214BF05200420B9E7B7D820F099
:1037C0004000182814BF05200420B1E7C82812D0F3
:1037D000B0F5727F14BF052004202BE741F2D863B7
:1037E000984206D041F21873984214BF0520042075
:1037F0009EE704209CE704201CE7002323800A2086
:103800006AE6002066E6042066E61378042B70D092
:10381000032B64D000200DE73C4B0020196387E7A1
:103820003B4829B204F0AEFB002053E6394829B2E8
:1038300004F0A8FB00204DE6334B5A68C5EB054564
:103840005388B5FBF3F30020938143E615783248A3
:10385000294604F065FE3148294604F061FE07EE72
:10386000905A294A294BF8EE677A83F87650C2EDD0
:10387000127A0020DEE62A4B0020D96058E7224861
:1038800009F0A8FD002053E723480DF1060201A925
:1038900005F098F92048BDF9062029B205F09AF9FB
:1038A000002017E6184B93F834300BB10A2BA0D147
:1038B000154800EE101A07F06DFC002038E7D2F82A
:1038C00002301849D28881FB0301A1EBE37116484D
:1038D00009B2FFF7E9FB0020FEE50520FCE51248F0
:1038E000FFF7C8FC002201460F48FFF7DDFB002070
:1038F000A0E60D48FFF7DEFC002201460A48FFF76C
:10390000DDFB002096E600BF0003002068000020D9
:10391000600100209408002060080020280A002090
:1039200004000020ABAAAA2A3C00002010B584B0F5
:10393000A1F1080CBDF918E0BCF1200F12D8DFE8A6
:103940000CF01D111111111111113811111111115A
:10395000111124111111111111114711111111110E
:1039600011111400072004B010BD28283AD0128885
:103970000232052092B21A8004B010BDBEF1000FD1
:103980002EDD01221A800520EDE7BEF1030F24DDB4
:1039900041F25861884253D041F29861884248D040
:1039A00041F21861884236D0052004221A8004B002
:1039B00010BDBEF1010F10DDB0F5656F29D0B0F577
:1039C000696F14BF0520002002221A8004B010BDC8
:1039D000002205201A8004B010BD082004B010BDDC
:1039E0000846C0E71FFA8EFE0A21BEF10B0F1180B8
:1039F00002D80C220820BEE715494868D1F800C05B
:103A00000989C2F80600C2F802C0518100200C22C8
:103A1000B1E70020D8E70F49886ACDE9022300F01A
:103A2000D1FD8DED010ADDE90112039B116000203B
:103A3000BBE70849886ACDE9022300F0EFFDF0E713
:103A40000449886ACDE9022300F018FEE9E700BFC7
:103A500018D600083C00002030B58DB0A1F1080C4C
:103A6000BDF940E014461D46BCF1200F12D8DFE836
:103A70000CF02E111111111111114611111111110A
:103A800011116B111111111111119111111111114C
:103A90001111140007200DB030BDB0F5947F02F174
:103AA000020300F03C827AD8A82800F02E82E82891
:103AB00040F026821FFA8EFE0E22BEF10F0F2280EA
:103AC00000F20B82102308202B800DB030BDBEF118
:103AD000000F40F31382B0F5816F00F03E827FD873
:103AE000C82800F034826FD9B0F5727F40F00482AC
:103AF00001231370002001232B800DB030BDBEF1D7
:103B0000010F40F3E581B0F5296F00F0648200F207
:103B10008380B0F5926F00F08A8200F2DE80B0F50B
:103B2000547F00F07A826BD9B0F5647F00F0418257
:103B3000B0F58A6F7FD1B34804F02AFA20800020C4
:103B400002232B800DB030BDBEF1030F40F3C081C6
:103B500041F2D873984200F00B8300F21B81B0F55C
:103B6000067F00F0008300F2FC80D82800F0F58288
:103B700040F2E980B0F58C7F00F0AD82B0F5EC7FCB
:103B800040F0FE82A04B1B691360002004232B80B1
:103B90000DB030BD002305202B800DB030BDB0F539
:103BA000D47F40F0AD819948FFF754FB00EB400013
:103BB0004300C4F802309548FFF750FB0623E0802D
:103BC0002380002008237FE7482800F0DD81882833
:103BD00040F092818D48FFF717FB207000208AE7A4
:103BE000B0F5996F00F0C48140F29180B0F5A16FFB
:103BF00040F08281864B93F86230137000207AE7A0
:103C0000D02800F0F681B0F5887F78D1814804F0A3
:103C1000E7F92080002093E7B0F57D6F00F0158272
:103C200025D8B0F5496F00F0088213D9B0F5796F47
:103C300000F0138201D9052082E7B0F5656F00F02E
:103C40004A81B0F5696F4FF0020314BF05200020D0
:103C50002B8077E7B0F5396F00F0D981B0F5456F6B
:103C600021D16D4804F0A2FF2080002068E741F2D6
:103C70005033984200F0C3811ED941F61043984258
:103C800000F0FD8141F650439842D4D1634B5A680D
:103C9000538A528802FB03F3614AA2FB0323DB0B26
:103CA000002023804CE7B0F5356FC4D15A4BB3F9EF
:103CB00004301380002043E741F21003984200F0E3
:103CC000D28141F250039842B5D14F4804F0F2F846
:103CD000C0F30F402080002032E7B0F51D6F00F0E8
:103CE000828122D9B0F5216F00F06D81B0F5256F8A
:103CF000A1D14648FFF7D0FA2080002020E7902885
:103D000099D1444804F040F92080002018E7B0F52C
:103D1000896F00F03581B0F5916F40F0ED803E483D
:103D200004F0FCFB20700020E5E6B0F5B26F00F077
:103D3000A081B0F5BA6F7FF47EAF3A4804F006F97F
:103D400020800020FCE6582800F0FE81982850D101
:103D50002E48FFF78FFA00EB400040002060002063
:103D600014E741F21873984200F0C98140F286804E
:103D700041F25873984200F0A68141F2987398423C
:103D800040F0FE81254B93ED180AFFF787F920607C
:103D90000020FBE641F69813984200F0A88154D821
:103DA00041F6D803984200F09C813FD941F61813A0
:103DB000984200F0788141F65813984240F0E08133
:103DC000134BDFED195AD3F89C20D3ED0B7AD3EDCA
:103DD000266A92ED137A92ED146A67EEA57A27EEC1
:103DE000067A67EEA67A0020C7EE877AC4ED007ADD
:103DF000CCE6182840F0C4810448FFF7FFF92060A2
:103E00000020C3E694080020040000203C000020AD
:103E100068000020600100206008002000030020EE
:103E200001800080FC090020CB151E3541F65803A7
:103E3000984200F0338141F6980398422FD1B44B59
:103E4000D3F8E03013600020A0E641F658239842F2
:103E500000F01E812DD941F65833984200F0298197
:103E600041F61853984240F08B81A94809F0CEFAE8
:103E70008DED010A019B2360002087E6B0F5167FD7
:103E800000F0018141F2D863984240F07981A04B63
:103E900093ED190AFFF702F92060002076E641F65B
:103EA0001803984240F06C81994B9B6D2360002071
:103EB0006CE641F6D8139842F6D041F618239842A2
:103EC00040F05E81924BD3F8E830136000205DE64D
:103ED00008200DB030BD002032E68E4A12685068CE
:103EE000D2F800C09168C4F802C058609960928905
:103EF0009A8100201023E7E50520FCE50846CAE585
:103F00002388023305209BB2DEE51FFA8EFE1022C5
:103F1000BEF1110F22803DD812230820D4E51FFAEC
:103F20008EFE0C22BEF10D0F22800DD97A4A506808
:103F3000D2F800C09168D268C4F802C05860996095
:103F4000DA6000200E23BFE50E230820BCE5734B8A
:103F500093F8483013700020CDE56D4809F002FA5F
:103F60006F4A92F834200346134400202370C2E5C0
:103F7000674BD3F8483593F84A3013700020BAE500
:103F80000F2313700020B6E56648FFF7E9F82070AC
:103F90000020B0E5644A12685068D2F800C0916809
:103FA000D268C4F802C058609960DA600020122319
:103FB0008AE55E480BAA0AA904F004FEBDF82C307D
:103FC00023800020BCE55748FFF758F9C0F30F40A5
:103FD00020800020B4E55348FFF75EF9C0F30F409E
:103FE00020800020ACE54F48FFF748F920800020F2
:103FF000A6E54F4803F0CCFF20800020A0E5444B0D
:10400000D3F84835B3F848301380002098E5474886
:1040100004F07AFA2080002092E544480BAA0AA90D
:1040200004F0D0FDBDF828302380002088E5414809
:1040300003F0AAFF2080002082E53C4804F0B6FD92
:10404000C0F30F40208000207AE53B4803F026FFB4
:10405000C0F30F402080002072E5374803F01EFFB8
:10406000208000206CE5344803F024FF20800020ED
:1040700066E5324803F064FE2080002060E5244BB2
:104080005A68938905E62C4B5B69136000207DE537
:104090001F4BD3F8EC301360002077E5204B1B6BEF
:1040A0001360002072E51A4BD3F8343113600020FE
:1040B0006CE5234B186803F0F9FF8DED010A019BB5
:1040C0002360002062E5124B93ED1B0AFEF7E6FF2A
:1040D000206000205AE5154BD3F8FC301360002017
:1040E00054E50B4BD3F8E430136000204EE50C4B45
:1040F000DFED145AD3F89C20D3ED087A67E6044B21
:1041000093ED1A0AFEF7CAFF206000203EE500BFCB
:10411000000300208C0B0020780B00208802002078
:10412000680000203C000020880B00206008002070
:10413000600100209408002004000020D009002025
:10414000C0090020CB151E350E48FFF78FF800EB95
:10415000400040002060002018E50B4BD3F80031F0
:104160001360002012E5094BDB68136000200DE5A9
:10417000074B93ED140AFEF791FF2060002005E540
:10418000052003E53C00002060080020040000201A
:10419000680000202DE9F04FB0F90C40324B89B097
:1041A0004FF0000A06935445304BADF816A0D0E905
:1041B00001C607460793A0F80EA03BDD06EB0108F9
:1041C000CDF80CA0C6F101090CF10205BCF800C045
:1041D0005FFA8CF1023C01F0070B0DF1200A1CF094
:1041E000060F0FFA84FE0DF116032A46A4B22CF036
:1041F00007000AEB8B0B01F0380122D1CDF800E06B
:104200005BF808BCD847BDF8162006EB0903DBB203
:10421000A41A012B24B205EB020C1AD0464514D087
:1042200006F8010BFB890133FB8140B9002CCBDC84
:10423000039838B90020F88109B0BDE8F08F07284D
:104240000CD1012009B0BDE8F08F082009B0BDE80D
:10425000F08F002CE2D10028ECD0F3E70A28F0D050
:1042600001230393E2E700BFC1330008693400086B
:104270002DE9F04786B00023ADF80E30C381B0F8C9
:104280000C801F4B04931F4BD0F804908668059355
:10429000B8F1000F23D007460DB24C4634F802CBDC
:1042A0005FFA8CF101F0070E0DF1180A1CF0060FF1
:1042B00032462CF007000DF10E030AEB8E0E01F0D2
:1042C00038010CD100955EF808ACD047A8EB040388
:1042D00019FA83F39BB230B106B0BDE8F087012034
:1042E00006B0BDE8F087BDF80EC0FA89A5EB0C0555
:1042F00062446644FA812DB2002BCFD1ECE700BFB7
:104300002D390008593A0008F0B545682B8803F4A8
:104310007F4223F0070CB2F5807F83B004461FFA7A
:104320008CFC5ED0013B03F0070303EB8302624F7A
:1043300003EB4203023507EB83072368456080895E
:104340009A890238013A80B20026BCF1480F91B236
:10435000A081E68112B232D8BCF1480F26D8DFE83E
:104360000CF06925252525252525712525252525BB
:10437000252564252525252525255C252525252577
:10438000252556252525252525257625252525255B
:10439000252552252525252525257E252525252547
:1043A000252584252525252525258B00002302206C
:1043B000A268D054E3890133E38103B0F0BDBCF1BE
:1043C000780F6ED0BCF5807F74D0BCF1680FEDD152
:1043D000A3680093294604F10E03FDF7C1FBE389AE
:1043E000E6E7808923680238CCF3C40C9A8980B24E
:1043F00002350023BCF1010FA0816560E38141D942
:1044000000230D20D4E73846FEF7AAFE28B138462F
:10441000FEF7C2FEE3890020CAE73846FEF7A6FE93
:1044200080F00100E389C0B2C2E72046FFF720FF19
:10443000E389BDE7A36804210122E1811A70E389C1
:104440000020B5E72046FFF7A5FEE389B0E7384630
:10445000FEF786FE062829D0E3890020A8E7384623
:10446000FEF7BAFEE3890020A2E738460021FEF7F6
:104470002FFFE38900209BE73846FEF71FFFE38903
:10448000002095E7013A12B20C4B53F82C60002E35
:10449000B6D0A3680093294604F10E03B047E38920
:1044A00086E701F07DFAE389304681E73846FEF77A
:1044B000D7FED1E7B446E7E73C0000204C1E0020C1
:1044C0000E490F4AD1F8FC3043F08073C1F8FC303C
:1044D00013682BB100235360136843F0010313608A
:1044E00000234FF0FF32C0E90233C0E90423C0E9E2
:1044F0000633C0E9082303704360704700ED00E015
:10450000001000E000EB411300224FF0FF31C3E93F
:104510000321C3E908125A61DA6170470022044B93
:10452000426000EB01115B68012202708B607047F2
:10453000001000E00F4A00EB011310B49B685468B0
:10454000A34288BF04F1FF340A01E31A024404784D
:10455000D36014B142681A44426000EB01105DF868
:10456000044B42699A42026938BF43619A4288BF4C
:1045700003617047001000E0114A00EB011310B412
:104580009B68546800220270A3424FEA0112024461
:1045900088BF04F1FF34E31AD36044689C4238BFFB
:1045A0001B1B00EB011038BFD36042695DF8044B60
:1045B0009342026988BF4361934238BF03617047E9
:1045C000001000E090ED037ADFED106AD0ED077A7D
:1045D000B8EE477AF8EE677A87EE260A87EEA66A83
:1045E000DFED0B6A9FED0B7A20EE260AF7EE007ADC
:1045F000A6EE070AB4EEE70AF1EE10FADABFDFED35
:10460000067A20EE270A9FED040A7047E81F224D24
:1046100000409C4600007A440000C84290ED097AB0
:10462000DFED116AD0ED057A9FED100AB8EE477AFA
:10463000F8EE677AC7EE265A87EEA66ADFED0C6AB7
:104640009FED0C7AA5EEA60AF7EE007AA6EE070A11
:10465000B4EEE70AF1EE10FADABFDFED077A20EEEA
:10466000270A9FED050A7047E81F224D0000000051
:1046700000007A4400409C460000C842036A5A1C6D
:104680002AD007EE903A9FED176A03699FED167ADC
:104690009FED160AF8EE677A591CC7EE866AA6EEF9
:1046A000870A0BD007EE903A9FED0E6A9FED107AC5
:1046B000F8EE677AC7EE866AA6EE870AF7EE007A0A
:1046C000B4EEE70AF1EE10FADABFDFED0A7A20EE77
:1046D000270A9FED080A704703699FED040A5A1CD8
:1046E000E0D17047E81F224D00007A44000000002E
:1046F00000409C460000C84230B4026802F1080144
:1047000051E8003F43F0010341E80034002CF7D1A9
:10471000C168194D43686C5C234402F1240199601F
:104720004023136202F1080151E8003F43F04003C7
:1047300041E80034002CF7D14023136252E8003FD7
:1047400043F0400342E800310029F7D102F10801AB
:1047500051E8003F43F0800341E80034002CF7D1DA
:1047600001698368695C0B4402F12800402198606C
:1047700030BC1162704700BFF0D500080369806843
:1047800010B40B4CE35CC458E40700EB030C0CD4EE
:10479000CCF80C10DCF80410090C09041143CCF817
:1047A0000410C25842F00102C2505DF8044B704739
:1047B000F0D5000830B4C3680B4D4468E85C255858
:1047C00004EB000C25F001052550CCF80C10DCF8AA
:1047D00004301B0C1B041A43CCF80420235843F06C
:1047E0000103235030BC7047F0D500080268102345
:1047F000136252E8003F43F0100342E80031002901
:10480000F7D1704770B504464069E36C98470023C0
:10481000656DA4F8643084F86030606904F11C01AF
:104820002B460422BDE87040184700BF10B40B7837
:104830000A7991F802C01E4CDB0143EA02134A7860
:1048400043EA0223CA7843EA8C3343EA4253DAB29A
:1048500042F0050223F07041A25C82EA1122D2B23A
:10486000A25C82EA1142D2B2A25C124C82EA1162CC
:10487000A25C43EA027343F00503036272B6836CE1
:104880004BB162B690F8243013B9022380F824307B
:104890005DF8044B704700F12001032380F82430B9
:1048A000816462B60422836D5DF8044B4069184749
:1048B00034D6000824D6000830B54FEA411C90F8E1
:1048C00060E090F863401E4D4CEA011C0EF0010EB2
:1048D0004CEA023C4CEA8E1343EACE1304F00F0478
:1048E00043EA0423DAB2174C42F0060243F0060111
:1048F000A25C82EA1322D2B2A25C82EA1342D2B252
:10490000A25C82EA1363EB5C41EA0373036272B652
:10491000836C3BB162B690F8243013B9022380F85F
:10492000243030BD00F12001032380F8243081645D
:1049300062B60422836D4069BDE83040184700BF6D
:1049400024D6000834D600080A2A10B403460BD037
:1049500090F83620012A21D990F83E20012A11D959
:1049600000205DF8044B704790F82E20012AF7D8FC
:10497000826A012404320A6083F82E4020465DF8E2
:10498000044B7047826B012003F1380483F83E002A
:1049900004321C645DF8044B0A607047026B01200E
:1049A00003F1300483F8360004321C645DF8044BD4
:1049B0000A60704770B590F86440022C02D0022162
:1049C000084670BD43EA021441F8044C90F86C406C
:1049D000012C04D14FF6CA648C52023292B20A2BD7
:1049E00003D1047C94B30024047451F8044C354D75
:1049F000E6B2C4F3072EAE5D8EEA060E043215F859
:104A00000E60C4F3074E8EEA060EA1F1040C15F8F1
:104A10000EE0C4F303658EEA050E2B4D15F80E501B
:104A200044EA057492B241F8044C72B6816CE1B16B
:104A300062B6092B0DD00A2B2ED0002B32D190F864
:104A4000241069BB022380F82430B9E7012108460D
:104A500070BD036C446C19688C4514BF03210021A0
:104A60006CB3022098719A80AAE7092B22D00A2BF6
:104A70004FF003010BBF00F1280300F1200380F881
:104A80002E1080F82410836462B6836D40696146FD
:104A900098470021084670BD90F82E30012B03D0B6
:104AA00003218DE700218BE7022380F82E308285D9
:104AB000002185E7036C032199718364E4E7436473
:104AC000CFE700BF34D6000824D600082DE9F8430C
:104AD00090F86130C269002504460D8093B190F8CA
:104AE000646080F86150012E54D0022E3ED0002E1A
:104AF00033D0636D6069042204F11C019847284695
:104B0000BDE8F88390F86250002DF8D02B0443EAFA
:104B10000525C5F307239649964883F00903CA5C27
:104B200045F00F0382EA15454A5D825C43EA027351
:104B3000236272B6A36C002B3AD062B694F824308C
:104B400013B9022384F8243000256069236D84F8AA
:104B5000625098472846BDE8F883836E052B00F025
:104B60009580062B00F0D7803546C2E7836E052B73
:104B70005FD0062B00F0D680092BBAD190F86030B8
:104B8000B0F85C20A5690133012084F860302074FE
:104B90000A80AEE7836E052B16D0062BA9D1C2F38F
:104BA0000F323146FFF788FE022384F86430A0E715
:104BB00004F12001032384F82430A16462B60422A6
:104BC000A36D60699847BFE7037F407F94F86D103D
:104BD00094F86C5094F86E6094F86F7000F03F0099
:104BE000DB098142C2F3863C28BF0146AB429846AE
:104BF000C2F3465E28BFA846B44584F86C80E04600
:104C000028BFB046BE4584F86E80F04628BFB8463F
:104C1000AB4284F86D1084F86F8040F289800023E5
:104C200084F8643004F16C012046FFF7FFFD002595
:104C30005FE7037F407F94F86D1094F86C6094F800
:104C40006EC094F86F7000F03F00DB09814228BF0E
:104C50000146C2F3863EB3429946C2F3465828BF86
:104C6000B146E64584F86C90F14628BFE146B84568
:104C700084F86E90C14628BFB946B34284F86D10DF
:104C800084F86F9065D984F86450CBE7657F007F26
:104C900094F86D3094F86CC094F86EE094F86F80DE
:104CA00005F03F05C009AB42C2F3863728BF2B464B
:104CB00060450146C2F3465928BF6146774584F8EE
:104CC0006C10394628BF7146C1454E4628BF46463E
:104CD000604584F86D3084F86E1084F86F60A1D858
:104CE0009D429FD877459DD8C1459BD894F87000C8
:104CF000C2F30212904295D14A1C0133D2B2DBB208
:104D00005201B6015B010121A281E681A4F85E3067
:104D100084F8641086E7C2F30F323146FFF7CCFD0A
:104D20003546E6E6C2F30F320121FFF7C5FDE0E6A6
:104D300088423FF674AFB4453FF671AFBE453FF6CB
:104D40006EAF94F87030C2F3021293427FF467AFF3
:104D500068E7884297D8E64595D8B84593D894F83F
:104D60007050C2F30212AB1A5D425D418BE700BF87
:104D700034D6000824D6000810B590F865300446F3
:104D80003BB1012B04D1002280F8652080F861300E
:104D900010BDC1691E4ACBB2D35C83EA1123DBB2DA
:104DA000D35C83EA1143DBB2D35C83EA1161535CC9
:104DB0005BB9037F03F00F03062B836609D8042B2E
:104DC0001ED8012384F8623010BD042380F86230BD
:104DD00010BD092BF5D1838B1B09A0F85C307BB18A
:104DE000B0F85E209A420FD390F86C208169406938
:104DF00003EB4202636D9847012384F8653010BDD0
:104E0000012384F8613010BD022380F8623010BDA8
:104E100034D60008704700BF704700BF014801F05A
:104E20008BB900BF181F00200F4B10B5186E40F053
:104E3000010018661C6E82B004F001040094009C0E
:104E40009C6D44F080549C659B6D03F080530193EE
:104E500000220F216FF00100019B00F055FD02B010
:104E6000BDE8104000F036BD001002401F4B70B589
:104E70009A6D1F4C42F010029A659B6D88B003F04A
:104E8000100301A90293064603A8029B00F000FD4F
:104E900000F0ECFC174A1849A2FB00239B0C013BD5
:104EA0000022C4E90013204640F2E7332261A260E9
:104EB000E36001F06FF8054610B1284608B070BDF8
:104EC000204601F0F7F805460028F6D1362000F01C
:104ED00059FD0F2E01D90125EFE72A46314636202C
:104EE00000F012FD054B1E60E7E700BF0010024016
:104EF000181F002083DE1B4300100040940B00208D
:104F0000042806D01E2803D10022114600F076B9ED
:104F100070470B4910B44FF0807200244FF00073BB
:104F2000C1E90044C1E90222C1E904334FF48062BF
:104F300005240A838C765DF8044B1B2200F05EB9D1
:104F4000641F002000000000694A6A48916C30B478
:104F50009FED657B684CC0F8104800F5016341F097
:104F6000010103ED027B9164926C644B6449654CD2
:104F700082B002F001020192019A9A68002522F0A3
:104F80000102C0F800589A6019619A6842F0200244
:104F90009A609A6880F8045822F040029A609968F2
:104FA000594A41F080019960996821F440719960F3
:104FB000996821F440619960996821F4405141F465
:104FC00000519960996841F002019960D96921F016
:104FD0000101D9615C62D96921F02001D961D969E7
:104FE00021F04001D961D96941F08001D961D969C5
:104FF00021F44071D961D96921F44061D961D9693D
:1050000021F4405141F40051D961D96941F00201C4
:10501000D96152E8003F43F0400342E800310029E3
:10502000F7D152E8003F43F0800342E800310B46DD
:105030000029F6D1354A364CD168C1F30221C1F1BD
:10504000070C0A1DBCF1040F28BF4FF0040C062A00
:105050004FF0FF3202FA0CF26FEA020294BF1946D7
:10506000033902F001028A401201D2B2274984F8C2
:105070000B23C968C1F30221C1F1070C0A1DBCF161
:10508000040F28BF4FF0040C062A4FF0FF3202FA3B
:105090000CF26FEA020288BFCB1E02F0010202FA94
:1050A00003F31B011A4ADBB282F80C334FF400639E
:1050B00013604FF4805313601049164A4861CB685F
:1050C0001B0C1B0443F48063CB608B6843F001032B
:1050D0008B6052E8003F43F0100342E800310029A2
:1050E000F7D102B030BC70470000000000000000A3
:1050F0000010024090230020014F000800000240F1
:1051000024380140283801400838014000ED00E013
:1051100000E100E00038014070B5354CD4F80038AB
:10512000032B06D994F80024AA2A03D00023C4F83C
:10513000003870BD94F80124552AF7D194F802C4C0
:10514000ACF10202022AF1D8BCF1020F4BD0BCF143
:10515000030F43D094F8041494F80324090241EA9D
:10516000024194F8052411430CEB010E0EF10402E8
:105170009342DED30CF10205002937D01D480CF212
:105180000142604408442244002312F8016F5BBAD4
:105190009BB27340C3F303165E4033B283EA063317
:1051A0005E0106F4FF569BB2824283EA0603ECD10D
:1051B000A6449EF802049EF8032442EA00229A4282
:1051C000B4D1D4F81038002BB0D025444A1E0A4977
:1051D00095F8000492B261449847A7E7B4F8031425
:1051E00049BA89B2C0E794F80314BDE70B46DFE77C
:1051F0009023002091270020932700202DE9F043E1
:10520000474D2B78002B74D140F2F9339A4270D875
:10521000571C444CBFB245F2AA53FF2F23806AD9D2
:1052200027714FEA17284FF0080E07264FF0060C9B
:105230004FF00509032304F8090084F80380A370E4
:105240007AB304EB0C03481C181A02285ED9501ECE
:1052500007285BD94FEA920E03EB8E0E0E4656F8E6
:10526000040B43F8040B9E45F9D122F003039A4244
:1052700003EB0C0010D0CE5C26545E1CB24200F151
:10528000010E09D902338E5D04F80E609A4200F1D6
:10529000020001D9CB5C235494440CF101060CF1BB
:1052A000020E21490023C81911F8012F5BBA9BB2E5
:1052B0005340C3F303125A4013B283EA02335A0134
:1052C00002F4FF521BB25A40814293B2ECD11B0A46
:1052D00004F80C30A255154A01232B709462136A0E
:1052E0001B0C1B0443EA0E031362D36943F0010352
:1052F000D361BDE8F0835FFA87F84FF0070E06260A
:105300004FF0050C4FF00409022394E7013B8E187F
:1053100011F8010B03F8010F8E42F9D1BCE700BF71
:1053200088230020881F00208B1F002000000240DF
:10533000F8B5194BDA69D2062CD5184D10221A622D
:105340002B783BBB0122164B2A70DA68154E92B2BD
:10535000D2F58064D6F8007806D007F58060304436
:105360002246314604F086FF3C44C6F80048FFF769
:10537000D3FE0B4A936823F001039360D3681B0CA0
:105380001B0443F48063D3609368002143F001035E
:1053900093602970F8BD00BF00380140841F0020D1
:1053A0000000024090230020014B1860704700BFAE
:1053B000980B002030B4027A6AB30268A2B1437A33
:1053C000012B6FD0022B50D0002B58D00324012387
:1053D000817A002979D002296FD0032900F09E80BC
:1053E000012900F09180224643688BB1417A01295E
:1053F0004FD0022931D021B342F00402817A39B171
:10540000022978D003296ED0012963D042F0050229
:10541000104630BC7047434B05681C6824EA0504FD
:105420001C60596821EA0501596040681C6A24EA39
:1054300000041C62596A21EA000130BC104659621E
:10544000704701F1804101F582314C6A24EA03047E
:105450004C620C6A1C430C62D0E732490C6A1C4354
:105460000C624C6A1C434C62C8E72E491C460B6810
:1054700013430B604B6813434B600023A8E7294993
:105480004C6824EA02044C600C6814430C6002244B
:105490009EE724490C6A24EA03040C624C6A1C430C
:1054A0004C62ABE71F4B196821EA02011960596889
:1054B00011435960022400238AE71A498C6824EAC0
:1054C00002048C60CC682243CA601A464368002BF1
:1054D0009ED08BE71349C86A20EA0300C862886A35
:1054E00003438B6294E70F49886A18438862C86A4D
:1054F0000343CB628CE70B49886A20EA0300886289
:10550000C86A0343CB6283E70649CC6824EA0204F5
:10551000CC608C6822438A601A4665E701498C6832
:105520001443CEE7000401402DE9F04F0D6895FAD1
:10553000A5F2B2FA82F235FA02F300F0A2804FF03F
:10554000010C4FF0030EEE4341E0D1F81090D0F87B
:105550000CA093FAA3F8B8F1000F07D0B8FA88F8B6
:105560004FEA48080EFA08F82AEA080A93FAA3F85C
:10557000B8F1000F00F08A80B8FA88F84FEA4808BE
:1055800009FA08F848EA0A0A022CC0F80CA054D01C
:10559000D0F8008093FAA3F9B9F1000F07D0B9FA57
:1055A00089F94FEA49090EFA09F928EA090893FA34
:1055B000A3F3002B68D0B3FA83F35B0004FA03F380
:1055C00043EA08030360013235FA02F359D00CFABA
:1055D00002F32B40F7D04C6804F1FF38B8F1010F0B
:1055E000B3D8D1F80890D0F808A093FAA3F8B8F18E
:1055F000000F07D0B8FA88F84FEA48080EFA08F802
:105600002AEA080A93FAA3F8B8F1000F63D0B8FAAF
:1056100088F84FEA480809FA08F848EA0A0AC0F880
:1056200008A0D0F80480CF6806EA080807FB05F94F
:1056300048EA0908C0F8048087E7FF2BD1F81490E6
:1056400027D8D0F820A093FAA3F8B8F1000F08D01B
:10565000B8FA88F84FEA88080F2707FA08F82AEA04
:10566000080A93FAA3F8B8F1000F3AD0B8FA88F80C
:105670004FEA880809FA08F848EA0A0AC0F820A0A0
:1056800086E70020BDE8F08F402397E74FF0400801
:1056900076E7D0F824A04FEA132898FAA8FBBBF1CC
:1056A000000F08D0BBFA8BFB4FEA8B0B0F2707FAD2
:1056B0000BFB2AEA0B0A98FAA8F8B8F1000F0DD0F4
:1056C000B8FA88F84FEA880809FA08F848EA0A0A96
:1056D000C0F824A05CE74FF040089CE74FF080083A
:1056E000F2E74FF08008C5E7124B4FF0A0429268F6
:1056F0009B68134313F001030CD130B44C6802468D
:1057000054B980680C4B096803400B4320469360F2
:1057100030BC70470120704785681846064B2B4007
:1057200023430C682343D1E9024123430B4330BC9C
:105730009360704700010050E030C0FF836813F0B1
:10574000010312D10246C06810B420F4404C184640
:10575000D1E90043896823432CF0180C0B4343EA3A
:105760000C035DF8044BD36070470120704700BF05
:105770008268D30718D430B44C680346B4B9C26801
:10578000124810400A681043CA681043D1E9045215
:1057900040EA05011143D9601A6B22F00F0222433F
:1057A000002030BC1A63704701207047C068074A68
:1057B00002400868024388680243C8680243D1E98E
:1057C000040102430A43DA60E6E700BF1CC0F0FFB1
:1057D0008368DB0715D410B44C68A4B9C368CA68E1
:1057E00023F004731343C360C36C096823F4FF738D
:1057F00023F0010323430B43C3645DF8044B0020F3
:10580000704701207047C2688B6822F004721A4307
:10581000CB681A43C260E7E70A4A136843F480730F
:1058200010B50320136000F05DF80020FFF71EFBA9
:1058300010B10124204610BD0446FFF7F5FA2046BA
:1058400010BD00BF00200240034A044913680968E4
:105850000B441360704700BFA42B0020900B002066
:10586000014B1868704700BF980B0020054B064A93
:105870009B680649C3F302230868D35C03F01F0347
:10588000D84070470010024074D70008980B0020E1
:105890000E4B0F2202609A6802F0030242609A687F
:1058A00002F0F00282609A6802F4E062C2609B68D3
:1058B000DB0810B403F4E063054C036123685DF872
:1058C000044B03F00F030B60704700BF0010024051
:1058D00000200240024A936843F48043936070477B
:1058E000007000400749CA6803024FF6FF0003F446
:1058F000E0630240134343F0BF6343F40033CB60E3
:10590000704700BF00ED00E01C4BDB68C3F30223CF
:1059100000B5C3F1070EBEF1040F03F1040C28BF5C
:105920004FF0040EBCF1060F1BD9033B4FF0FF3CB8
:105930000CFA03FC22EA0C024FF0FF3C0CFA0EFCBE
:1059400021EA0C019940002841EA02010CDB00F138
:105950006040090100F56140C9B280F800135DF8AC
:1059600004FB00221346E7E7054B00F00F00090196
:105970000344C9B219765DF804FB00BF00ED00E0F6
:10598000FCEC00E0002808DB044A4109012300F098
:105990001F0003FA00F042F82100704700E100E028
:1059A000BFF34F8F0549064BCA6802F4E062134308
:1059B000CB60BFF34F8F00BFFDE700BF00ED00E0FD
:1059C0000400FA050138B0F1807F10D210B44FF016
:1059D000E023084C58614FF0F00C84F823C00022FB
:1059E000072110469A615DF8044B19617047012048
:1059F000704700BF00ED00E00368002B12DB10B41D
:105A0000D1E900348A6823431343D1E903210468B0
:105A10001343054A0B432240134303605DF8044BD4
:105A200000207047012070470F7E00FF234A9368D3
:105A300003F00C03082B10B43DD00C2B39D1D168E6
:105A40001F4B204C01F00301032918BF1C46D368EB
:105A5000D168D268C2F34162C3F30623C1F30311D4
:105A6000013204FB03F301315200B3FBF1F3B3FB4A
:105A7000F2F3124903608A68134CC2F30312A25C6A
:105A8000124C02F01F02D34043608A68C2F3022224
:105A9000A25C02F01F0223FA02F282608A68C2F35B
:105AA000C222A25C5DF8044B02F01F02D340C36027
:105AB0007047034BDDE7034BDBE700BF00100240FC
:105AC0000024F40000127A0064D7000874D700089C
:105AD000032830B434D00C2805D0302800F08C8056
