:020000040800F2
:10000000008000202D2A01087D2A0108854F000864
:100010007D2A01087D2A01087D2A010800000000D0
:1000200000000000000000000000000091E0000857
:100030007D2A010800000000E1E2000849E3000811
:100040007D2A01087D2A01087D2A01087D2A0108F0
:100050007D2A01087D2A01087D2A01087D2A0108E0
:100060007D2A01087D2A01087D2A0108895300089C
:10007000CD5300087D2A01087D2A01087D2A010848
:100080007D2A010800000000D55200087D2A0108E1
:100090007D2A01087D2A01087D2A01087D2A0108A0
:1000A0004D530008315300087D2A01087D2A0108BC
:1000B0007D2A01087D2A01087D2A01087D2A010880
:1000C0007D2A01087D2A01087D2A01087D2A010870
:1000D0007D2A01087D5300087D2A01087D2A010838
:1000E0008F4F00087D2A01087D2A01087D2A01081A
:1000F0007D2A01087D2A01087D2A010800000000F0
:10010000000000007D2A0108000000007D2A01088F
:100110007D2A0108000000003D8400087D2A0108B6
:100120007D2A01087D2A01087D2A01087D2A01080F
:100130007D2A010800000000000000007D2A01085F
:100140007D2A01087D2A010800000000000000004F
:10015000000000000000000000000000000000009F
:100160000000000000000000000000007D2A0108DF
:100170007D2A0108000000000000000000000000CF
:10018000000000007D2A01080000000000000000BF
:10019000000000000000000000000000000000005F
:1001A00000000000000000007D2A01087D2A0108EF
:1001B0007D2A01087D2A01087D2A0108000000002F
:1001C000000000007D2A010800000000000000007F
:0801D0007D2A01087D2A0108C7
:1001E00010B5054C237833B9044B13B10448AFF371
:1001F00000800123237010BD000C002000000000CF
:100200000458010808B5034B1BB103490348AFF379
:10021000008008BD00000000040C00200458010804
:1002200070B4840746D04C1E002941D0D5B2034695
:1002300002E0611EE4B30C4603F8015B9907F8D1B4
:10024000032C2ED9D5B245EA05250F2C45EA0545E4
:1002500019D9264603F11001103E0F2E41F8105C0B
:1002600041F80C5C41F8085C41F8045C01F11001B4
:10027000F2D8A4F1100121F00F0104F00F041031A5
:10028000032C0B440DD91E4621460439032946F898
:10029000045BFAD8211F21F0030104310B4404F060
:1002A00003042CB1D2B21C4403F8012BA342FBD1AE
:1002B00070BC70470C460346C2E7000081F0004165
:1002C00002E000BF83F0004330B54FEA41044FEA3B
:1002D000430594EA050F08BF90EA020F1FBF54EAD6
:1002E000000C55EA020C7FEA645C7FEA655C00F072
:1002F000E2804FEA5454D4EB5555B8BF6D420CDD43
:100300002C4480EA020281EA030382EA000083EAC5
:10031000010180EA020281EA0303362D88BF30BD65
:1003200011F0004F4FEA01314FF4801C4CEA1131BB
:1003300002D0404261EB410113F0004F4FEA03331A
:100340004CEA133302D0524263EB430394EA050FA5
:1003500000F0A780A4F10104D5F1200E0DDB02FA14
:100360000EFC22FA05F2801841F1000103FA0EF2A8
:10037000801843FA05F359410EE0A5F120050EF16E
:10038000200E012A03FA0EFC28BF4CF0020C43FA9F
:1003900005F3C01851EBE37101F0004507D54FF0AC
:1003A000000EDCF1000C7EEB00006EEB0101B1F5FC
:1003B000801F1BD3B1F5001F0CD349085FEA300042
:1003C0004FEA3C0C04F101044FEA445212F5800F4D
:1003D00080F09A80BCF1004F08BF5FEA500C50F1EA
:1003E000000041EB045141EA050130BD5FEA4C0CCD
:1003F000404141EB0101013C28BFB1F5801FE9D22A
:1004000091F0000F04BF01460020B1FA81F308BF4C
:100410002033A3F10B03B3F120020CDA0C3208DD18
:1004200002F1140CC2F10C0201FA0CF021FA02F1F3
:100430000CE002F11402D8BFC2F1200C01FA02F163
:1004400020FA0CFCDCBF41EA0C019040E41AA2BF88
:1004500001EB0451294330BD6FEA04041F3C1CDA50
:100460000C340EDC04F11404C4F1200220FA04F070
:1004700001FA02F340EA030021FA04F345EA03011A
:1004800030BDC4F10C04C4F1200220FA02F001FADC
:1004900004F340EA0300294630BD21FA04F029465E
:1004A00030BD94F0000F83F4801306BF81F48011F7
:1004B0000134013D4EE77FEA645C18BF7FEA655C6A
:1004C00029D094EA050F08BF90EA020F05D054EA3C
:1004D000000C04BF1946104630BD91EA030F1EBF41
:1004E0000021002030BD5FEA545C05D14000494145
:1004F00028BF41F0004130BD14F580043CBF01F538
:10050000801130BD01F0004545F0FE4141F470011D
:100510004FF0000030BD7FEA645C1ABF19461046F8
:100520007FEA655C1CBF0B46024650EA013406BFF9
:1005300052EA033591EA030F41F4002130BD00BFB8
:1005400090F0000F04BF0021704730B54FF4806475
:1005500004F132044FF000054FF0000150E700BFF6
:1005600090F0000F04BF0021704730B54FF4806455
:1005700004F1320410F0004548BF40424FF0000142
:100580003EE700BF42004FEAE2014FEA31014FEA85
:1005900002701FBF12F07F4393F07F4F81F06051D4
:1005A000704732F07F4208BF704793F07F4F04BF1F
:1005B00041F40021704730B54FF4607401F00045FC
:1005C00021F000411CE700BF50EA010208BF70475C
:1005D00030B54FF000050AE050EA010208BF70474D
:1005E00030B511F0004502D5404261EB41014FF4B6
:1005F000806404F132045FEA915C3FF4D8AE4FF0BE
:1006000003025FEADC0C18BF03325FEADC0C18BFA0
:10061000033202EBDC02C2F1200300FA03FC20FAF1
:1006200002F001FA03FE40EA0E0021FA02F114443E
:10063000BDE600BF4A0011D212F5001211D20DD54D
:100640006FF47873B3EB62520ED44FEAC12343F0D8
:10065000004343EA505323FA02F070474FF0000082
:10066000704750EA013002D14FF0FF3070474FF031
:100670000000704780B400AF044BDB681B0A03F036
:1006800007031846BD465DF8047B704700ED00E0A7
:1006900080B483B000AF0346FB7197F90730002B9D
:1006A0000BDBFB7903F01F02074997F907305B0961
:1006B000012000FA02F241F8232000BF0C37BD46AA
:1006C0005DF8047B704700BF00E100E080B483B0B8
:1006D00000AF03463960FB7197F90730002B0ADB46
:1006E0003B68DAB20C4997F907301201D2B20B44D9
:1006F00083F800230AE03B68DAB20849FB7903F08B
:100700000F03043B1201D2B20B441A7600BF0C3720
:10071000BD465DF8047B704700E100E000ED00E0BD
:1007200080B489B000AFF860B9607A60FB6803F00C
:100730000703FB61FB69C3F10703042B28BF0423F4
:10074000BB61FB690433062B02D9FB69033B00E064
:1007500000237B614FF0FF32BB6902FA03F3DA43F7
:10076000BB681A407B699A404FF0FF317B6901FA00
:1007700003F3D9437B680B40134318462437BD4627
:100780005DF8047B7047000080B485B000AF7860EE
:10079000084B9A6C07497B6813438B64054B9A6C32
:1007A0007B681340FB60FB6800BF1437BD465DF8F3
:1007B000047B70470010024080B485B000AF7860C1
:1007C000084BDA6C07497B681343CB64054BDA6C42
:1007D0007B681340FB60FB6800BF1437BD465DF8C3
:1007E000047B70470010024080B485B000AF786091
:1007F000084B9A6D07497B6813438B65054B9A6DCF
:100800007B681340FB60FB6800BF1437BD465DF892
:10081000047B70470010024080B485B000AF786060
:10082000084B1A6E07497B6813430B66054B1A6E1B
:100830007B681340FB60FB6800BF1437BD465DF862
:10084000047B70470010024080B400AF054B1B686A
:10085000044A43F48073136000BFBD465DF8047B17
:10086000704700BF0010024080B400AF074B1B6808
:1008700003F48063B3F5806F01D1012300E000230E
:100880001846BD465DF8047B704700BF001002406B
:1008900080B483B000AF7860074B5B6823F0FE4202
:1008A0007B681B06044913434B6000BF0C37BD46F1
:1008B0005DF8047B704700BF0010024080B483B035
:1008C00000AF7860064B9B6823F0030204497B6805
:1008D00013438B6000BF0C37BD465DF8047B704747
:1008E0000010024080B400AF044B9B6803F00C037F
:1008F0001846BD465DF8047B704700BF00100240FB
:1009000080B483B000AF7860064B9B6823F0F002A0
:1009100004497B6813438B6000BF0C37BD465DF80C
:10092000047B70470010024080B483B000AF786051
:10093000064B9B6823F4E06204497B6813438B6099
:1009400000BF0C37BD465DF8047B704700100240C5
:1009500080B483B000AF7860064B9B6823F460528C
:1009600004497B6813438B6000BF0C37BD465DF8BC
:10097000047B70470010024080B483B000AF786001
:10098000094BD3F888207B681B0CDB431A407B683B
:100990009BB205491343C1F8883000BF0C37BD46F0
:1009A0005DF8047B704700BF0010024080B485B042
:1009B00000AF78607B681A0E0F4B1344FB60FB6836
:1009C0001A687B681B0C03F01F03032101FA03F371
:1009D000DB431A407B68D9B27B681B0C03F01F0312
:1009E00001FA03F31A43FB681A6000BF1437BD46CF
:1009F0005DF8047B704700BF8810024080B483B06C
:100A000000AF78600E4BD3F888207B681B0C03F096
:100A10001F03032101FA03F3DB431A407B68D9B2B9
:100A20007B681B0C03F01F0301FA03F30449134313
:100A3000C1F8883000BF0C37BD465DF8047B7047B5
:100A40000010024080B400AF054B1B68044A43F01D
:100A50008073136000BFBD465DF8047B704700BF24
:100A60000010024080B400AF074B1B6803F0007316
:100A7000B3F1007F01D1012300E000231846BD46F9
:100A80005DF8047B704700BF0010024080B485B061
:100A900000AFF860B9607A603B600A4BDA680A4BD5
:100AA0001340F968BA6811437A68120211433A6830
:100AB0000A4304491343CB6000BF1437BD465DF8B9
:100AC000047B7047001002400C80FFF980B485B0B1
:100AD00000AFF860B9607A603B600A4BDA680A4B95
:100AE0001340F968BA6811437A68120211433A68F0
:100AF0000A4304491343CB6000BF1437BD465DF879
:100B0000047B7047001002400C80FF0780B400AFE8
:100B1000054BDB68044A43F48033D36000BFBD4615
:100B20005DF8047B704700BF0010024080B400AF46
:100B3000054BDB68044A43F08073D36000BFBD46B9
:100B40005DF8047B704700BF0010024080B483B0A2
:100B500000AF7860054B5A6804497B6813434B60CB
:100B600000BF0C37BD465DF8047B704700000140B4
:100B700080B487B000AF78603960184A3B6803F0F2
:100B80000303023352F823203B681B0CDB4302EAC9
:100B900003013B681B0C3B613B6993FAA3F3FB60C9
:100BA000FB687B617B69002B01D1202303E07B691B
:100BB000B3FA83F3DBB203F01F037A689A40074865
:100BC0003B6803F003030A43023340F8232000BFCD
:100BD0001C37BD465DF8047B704700BF0000014034
:100BE00080B483B000AF7860064B1B6823F00F021F
:100BF00004497B6813430B6000BF0C37BD465DF8AA
:100C0000047B70470020024080B400AF044B1B6897
:100C100003F00F031846BD465DF8047B704700BF24
:100C20000020024080B483B000AF786039607B68F8
:100C3000D3F8C03023F47F5323F03F033A681A43BC
:100C40007B68C3F8C0207B681B6923F480333A6853
:100C5000002A02D04FF4803200E000221A437B6861
:100C60001A6100BF0C37BD465DF8047B704780B445
:100C700087B000AFF860B9607A60FB6830331A461D
:100C8000BB681B0A9B0003F00C0313447B617B6968
:100C90001A68BB6803F01F031F2101FA03F3DB434B
:100CA0001A407B689B0E03F01F01BB6803F01F0313
:100CB00001FA03F31A437B691A6000BF1C37BD4673
:100CC0005DF8047B704780B483B000AF7860396012
:100CD0007B68DB6C23F4C0723B681A437B68DA6480
:100CE00000BF0C37BD465DF8047B704780B485B00B
:100CF00000AFF860B9607A60FB68DA6CBB6803F03B
:100D00001F031F2101FA03F3DB431A407B689B0E8C
:100D100003F01F01BB6803F01F0301FA03F31A433A
:100D2000FB68DA6400BF1437BD465DF8047B70478A
:100D300080B483B000AF786039607B68DB6823F0F3
:100D4000004323F400133A681A437B68DA6000BF5B
:100D50000C37BD465DF8047B704780B487B000AFA8
:100D6000F860B9607A60FB6814331A46BB685B0EA2
:100D70009B0003F0040313447B617B691A68BB6822
:100D80001B0D03F01F03072101FA03F3DB431A4095
:100D9000BB681B0D03F01F03796801FA03F31A43C4
:100DA0007B691A6000BF1C37BD465DF8047B704745
:100DB00080B485B000AFF860B9607A60FB68D3F8A2
:100DC000B020BB68C3F31203DB431A407B6803F017
:100DD00018030849D940BB680B40C3F312031A43F8
:100DE000FB68C3F8B02000BF1437BD465DF8047B34
:100DF000704700BFFFFF070080B483B000AF78608A
:100E000039607B681B6923F4806323F003033A682D
:100E10001A437B681A6100BF0C37BD465DF8047B3E
:100E2000704780B483B000AF78607B689B6823F024
:100E3000204323F03F037A68936000BF0C37BD4620
:100E40005DF8047B704780B483B000AF78607B6846
:100E50009B6823F0104323F03F0343F080527B68EC
:100E60009A6000BF0C37BD465DF8047B704780B4C4
:100E700083B000AF78607B681B6823F080027B68DA
:100E80001A6000BF0C37BD465DF8047B7047000058
:100E900080B485B000AF786039603B68012B2ED0FC
:100EA0003B68042B29D03B68102B24D03B68402B97
:100EB0001FD03B68B3F5807F19D03B68B3F5806FD6
:100EC00013D03B68B3F5805F0DD03B68B3F5804F1E
:100ED00007D03B68B3F5803F01D1082310E0092318
:100EE0000EE007230CE006230AE0052308E00423B4
:100EF00006E0032304E0022302E0012300E00023D4
:100F0000FB737B6818331946FB7B0B4AD35C0B449D
:100F1000BB60BB681A68FB7B0849CB5C194604239D
:100F20008B40DB431A40BB681A6000BF1437BD46D4
:100F30005DF8047B704700BFC4580108D058010811
:100F400080B485B000AF786039603B68012B2ED04B
:100F50003B68042B29D03B68102B24D03B68402BE6
:100F60001FD03B68B3F5807F19D03B68B3F5806F25
:100F700013D03B68B3F5805F0DD03B68B3F5804F6D
:100F800007D03B68B3F5803F01D1082310E0092367
:100F90000EE007230CE006230AE0052308E0042303
:100FA00006E0032304E0022302E0012300E0002323
:100FB000FB737B6818331946FB7B0A4AD35C0B44EE
:100FC000BB60BB681A68FB7B0749CB5C19460823EA
:100FD0008B401A43BB681A6000BF1437BD465DF8EA
:100FE000047B7047C4580108D058010880B483B00E
:100FF00000AF786039607B685B6823F0007323F092
:1010000070033A681A437B685A6000BF0C37BD46CC
:101010005DF8047B704780B483B000AF78603960BE
:101020007B685B6823F470023B681A437B685A60F4
:1010300000BF0C37BD465DF8047B704780B483B0B9
:1010400000AF78607B689B6823F080027B689A60C1
:1010500000BF0C37BD465DF8047B704780B487B095
:1010600000AFF860B9607A60FB6860331A46BB680D
:1010700013447B617B691A687B681A437B691A6039
:1010800000BF1C37BD465DF8047B704780B48DB04F
:1010900000AFF860B9607A603B60FB6860331A4665
:1010A000BB681344FB62FB6A1A687B68BB61BB695F
:1010B00093FAA3F37B617B69FB61FB69002B01D190
:1010C000202303E0FB69B3FA83F3DBB203F01F03D1
:1010D0004FF4007101FA03F3DB431A407B687B6233
:1010E0007B6A93FAA3F33B623B6ABB62BB6A002B49
:1010F00001D1202303E0BB6AB3FA83F3DBB203F030
:101100001F03396801FA03F31A43FB6A1A6000BF30
:101110003437BD465DF8047B704780B48BB000AFB8
:10112000F860B9607A60FB681A68BB687B617B69AC
:1011300093FAA3F33B613B69BB61BB69002B01D10F
:10114000202303E0BB69B3FA83F3DBB25B00032126
:1011500001FA03F3DB431A40BB683B623B6A93FA34
:10116000A3F3FB61FB697B627B6A002B01D1202327
:1011700003E07B6AB3FA83F3DBB25B00796801FAC0
:1011800003F31A43FB681A6000BF2C37BD465DF8B5
:10119000047B704780B48BB000AFF860B9607A60B0
:1011A000FB68DA68BB687B617B6993FAA3F33B61F8
:1011B0003B69BB61BB69002B01D1202303E0BB6904
:1011C000B3FA83F3DBB25B00032101FA03F3DB43E1
:1011D0001A40BB683B623B6A93FAA3F3FB61FB696D
:1011E0007B627B6A002B01D1202303E07B6AB3FA88
:1011F00083F3DBB25B00796801FA03F31A43FB68FF
:10120000DA6000BF2C37BD465DF8047B704780B4C0
:1012100083B000AF786039607B683A689A6100BF3C
:101220000C37BD465DF8047B704780B483B000AFD7
:1012300078607B681B6843F001027B681A6000BF1E
:101240000C37BD465DF8047B704780B483B000AFB7
:1012500078607B681B6823F000527B681A6000BFCF
:101260000C37BD465DF8047B704780B489B000AF91
:10127000786039607B680833FB60FB6853E8003FA7
:10128000BB60BB6823F060423B685B071343FB61B4
:101290007B680833FA69BA617B617969BA6941E8A8
:1012A00000233B613B69002BE4D100BF00BF243722
:1012B000BD465DF8047B704780B489B000AF7860AC
:1012C00039607B680833FB60FB6853E8003FBB6014
:1012D000BB6823F060623B685B061343FB617B687D
:1012E0000833FA69BA617B617969BA6941E8002318
:1012F0003B613B69002BE4D100BF00BF2437BD46F2
:101300005DF8047B704780B483B000AF78607B6881
:101310005B6823F490427B685A607B689B6823F08B
:101320002A027B689A6000BF0C37BD465DF8047BDB
:10133000704780B483B000AF78607B68DB6903F4EA
:101340000013B3F5001F01D1012300E0002318466C
:101350000C37BD465DF8047B704780B483B000AFA6
:1013600078607B68DB6903F48003B3F5800F01D1FB
:10137000012300E0002318460C37BD465DF8047BCE
:10138000704780B485B000AFF860B9607A60FB68E0
:10139000DA6BBB6803F010034FF4007101FA03F33A
:1013A000DB431A40BB6803F01003796801FA03F3CA
:1013B0001A43FB68DA6300BF1437BD465DF8047B4F
:1013C000704780B483B000AF786039607B68DA6BB7
:1013D0003B6803F010034FF4807101FA03F3DB4321
:1013E0001A407B68DA6300BF0C37BD465DF8047BAA
:1013F000704780B483B000AF786039607B681A684A
:101400003B6803F01003022101FA03F3DB431A40A7
:101410007B681A6000BF0C37BD465DF8047B7047DF
:1014200080B485B000AF786039607B68FB600C4A9F
:101430003B6813441B781A46FB6813441B68084931
:101440003A680A4412781146FA680A4443F00103E4
:10145000136000BF1437BD465DF8047B704700BFC2
:10146000DC58010880B485B000AF786039607B68D3
:10147000FB600C4A3B6813441B781A46FB68134414
:101480001B6808493A680A4412781146FA680A4407
:1014900023F00103136000BF1437BD465DF8047BE1
:1014A000704700BFDC58010880B487B000AFF86017
:1014B000B9607A60FB687B610E4ABB6813441B7895
:1014C0001A467B6913441B6823F4804323F01003FE
:1014D0000849BA680A44127811467A690A441146E2
:1014E0007A6813430B6000BF1C37BD465DF8047B70
:1014F000704700BFDC58010880B487B000AFF860C7
:10150000B9607A60FB687B610D4ABB6813441B7845
:101510001A467B6913441B6823F020020849BB6804
:101520000B441B7819467B690B4419467B681343AF
:101530000B6000BF1C37BD465DF8047B704700BFE1
:10154000DC58010880B487B000AFF860B9607A60F9
:10155000FB687B610D4ABB6813441B781A467B69A4
:1015600013441B6823F040020849BB680B441B78F6
:1015700019467B690B4419467B6813430B6000BF17
:101580001C37BD465DF8047B704700BFDC5801087E
:1015900080B487B000AFF860B9607A60FB687B61A7
:1015A0000D4ABB6813441B781A467B6913441B68B9
:1015B00023F080020849BB680B441B7819467B69FD
:1015C0000B4419467B6813430B6000BF1C37BD46B4
:1015D0005DF8047B704700BFDC58010880B487B019
:1015E00000AFF860B9607A60FB687B610D4ABB6848
:1015F00013441B781A467B6913441B6823F440721A
:101600000849BB680B441B7819467B690B44194693
:101610007B6813430B6000BF1C37BD465DF8047B3D
:10162000704700BFDC58010880B487B000AFF86095
:10163000B9607A60FB687B610D4ABB6813441B7814
:101640001A467B6913441B6823F440620849BB684F
:101650000B441B7819467B690B4419467B6813437E
:101660000B6000BF1C37BD465DF8047B704700BFB0
:10167000DC58010880B487B000AFF860B9607A60C8
:10168000FB687B610D4ABB6813441B781A467B6973
:1016900013441B6823F440520849BB680B441B7871
:1016A00019467B690B4419467B6813430B6000BFE6
:1016B0001C37BD465DF8047B704700BFDC5801084D
:1016C00080B487B000AFF860B9607A60FB687B6176
:1016D0000D4ABB6813441B781A467B6913445B6848
:1016E0001B0C1B040849BA680A44127811467A692F
:1016F0000A4411467A6813434B6000BF1C37BD464D
:101700005DF8047B704700BFDC58010880B487B0E7
:1017100000AFF860B9607A60FB687B61074ABB681C
:1017200013441B781A467B6913441A467B68D360BE
:1017300000BF1C37BD465DF8047B7047DC580108CC
:1017400080B487B000AFF860B9607A60FB687B61F5
:10175000074ABB6813441B781A467B6913441A4630
:101760007B68936000BF1C37BD465DF8047B704703
:10177000DC58010880B487B000AFF860B9607A60C7
:10178000FB689B0A83F4801383F08003DB007B619A
:10179000BA687B6913449B0003F1804303F502336D
:1017A0001B6823F0FF01BA687B6913449B0003F1B7
:1017B000804303F502337A680A431A6000BF1C377E
:1017C000BD465DF8047B704780B483B000AF78609D
:1017D0007B684FF400725A6000BF0C37BD465DF85D
:1017E000047B704780B483B000AF78607B684FF4AF
:1017F00000525A6000BF0C37BD465DF8047B70474D
:1018000080B483B000AF78607B684FF400625A60A8
:1018100000BF0C37BD465DF8047B704780B483B0D1
:1018200000AF78607B684FF400425A6000BF0C370D
:10183000BD465DF8047B704780B483B000AF78602C
:1018400039607B689B6923F038023B681A437B68E8
:101850009A6100BF0C37BD465DF8047B704780B4C9
:1018600083B000AF786039607B681B6823F48072B6
:101870003B681A437B681A6000BF0C37BD465DF8B1
:10188000047B704780B483B000AF786039607B68B8
:101890001B6823F010023B681A437B681A6000BF84
:1018A0000C37BD465DF8047B704780B483B000AF51
:1018B00078607B681B6823F400327B681A6000BF85
:1018C0000C37BD465DF8047B704780B483B000AF31
:1018D00078607B681B6823F400227B681A6000BF75
:1018E0000C37BD465DF8047B704780B485B000AF0F
:1018F000F860B9607A60FB68DB6823F4FF6323F06B
:101900000603B9687A680A431A43FB68DA6000BFC5
:101910001437BD465DF8047B704780B483B000AFD8
:1019200078607B68DB6823F400427B68DA6000BF84
:101930000C37BD465DF8047B704780B483B000AFC0
:1019400078607B685B6843F000727B685A6000BF18
:101950000C37BD465DF8047B7047000080B483B04F
:1019600000AF7860064B1A687B68DB43044913407C
:101970000B6000BF0C37BD465DF8047B704700BFAD
:101980000004014080B483B000AF7860064B5A6811
:101990007B68DB43044913404B6000BF0C37BD46F6
:1019A0005DF8047B704700BF0004014080B400AFC5
:1019B000064BD3F88030054A23F48073C2F8803098
:1019C00000BFBD465DF8047B704700BF007000405B
:1019D00080B483B000AF78607B681B6843F040023E
:1019E0007B681A6000BF0C37BD465DF8047B70470A
:1019F00080B483B000AF78607B685B6843F001021D
:101A00007B685A6000BF0C37BD465DF8047B7047A9
:101A100080B483B000AF78607B685B6843F00202FB
:101A20007B685A6000BF0C37BD465DF8047B704789
:101A3000B0B58AB000AF08F0B9FA00F04DF800F088
:101A400099FF00F08DFF00F0EBF800F0D9F900F0FD
:101A5000ABFA00F001FB00F057FB00F0ADFB00F02B
:101A6000B3FB00F00DFC00F083FC00F0DBFC00F0A9
:101A700047FD00F0A3FE00F0F3FF01F01DF900F0B8
:101A80008DF8114B07F114041D460FCD0FC42B68C0
:101A9000236007F11403002118460BF0E4FF03460E
:101AA0000A4A13600A4B3C461D460FCD0FC42B68F3
:101AB00023603B46002118460BF0D5FF0346054A3C
:101AC00013600BF0C9FFFEE7345801081C0C00201E
:101AD00048580108200C002080B582B000AF0420D7
:101AE000FFF77EF800BFFFF78FF80346042BFAD10B
:101AF000FFF75CFFFEF7A8FE00BFFEF7B5FE03464A
:101B0000012BFAD14020FEF7C3FE002355223021DD
:101B10000220FEF7BBFF4FF0804355223021022008
:101B2000FEF7D4FFFFF702F8FEF7F0FFFEF78AFF9B
:101B300000BFFEF797FF0346012BFAD10320FEF703
:101B4000BDFE8020FEF7DCFE00BFFEF7CBFE0346A5
:101B50000C2BFAD155237B6002E07B68013B7B6054
:101B60007B68002BF9D10020FEF7CAFE0020FEF7AB
:101B7000DBFE0020FEF7ECFE074807F011FD002019
:101B800006F090FC0346002B01D001F08FF800BF57
:101B90000837BD4680BD00BF80FE210A80B500AF7A
:101BA000FEF768FD0346002208211846FEF7B8FD3F
:101BB000034619462520FEF789FD2520FEF768FD1E
:101BC000FEF758FD0346002208211846FEF7A8FD3F
:101BD000034619460B20FEF779FD0B20FEF758FD52
:101BE000FEF748FD0346002205211846FEF798FD42
:101BF000034619461920FEF769FDFEF73BFD034633
:101C0000002207211846FEF78BFD034619461220D5
:101C1000FEF75CFD1220FEF73BFD00BF80BD00001B
:101C200080B598B000AF07F1500300221A605A60E7
:101C30009A6007F1380300221A605A609A60DA60ED
:101C40001A615A6107F1280300221A605A609A60EB
:101C5000DA6007F1180300221A605A609A60DA60AD
:101C60003B4600221A605A609A60DA601A615A6133
:101C70005C48FEF7C3FE4FF40050FEF79DFD0120C7
:101C8000FEF79AFD01233B6003237B6000233B6149
:101C90003B4619464FF0904008F006F804233B609D
:101CA00003237B6000233B613B4619464FF0904085
:101CB00007F0FAFF00233B654FF400437B650023E8
:101CC000BB6507F1500319464FF0A04008F0C0F87B
:101CD0000023BB630023FB6300233B6400237B647E
:101CE0000023BB640023FB6407F1380319464FF05F
:101CF000A04008F0D3F800214FF0A040FEF792FF7B
:101D000000214FF0A040FFF777F80023BB620023CB
:101D1000FB6207F128031946334808F059F880237D
:101D2000BB610023FB6100233B6200237B6207F160
:101D3000180319464FF0A04008F0FAF84FF00041A0
:101D40004FF0A040FEF7F4FF80214FF0A040FEF7D7
:101D5000BAFF4FF0A040FFF764F84FF0A040FFF744
:101D600072F8224B1B689B09214AA2FB03239A09A4
:101D700013469B0013449B001A461E4BA3FB0223F1
:101D8000DB08FB6502E0FB6D013BFB65FB6D002B97
:101D9000F9D1194A09214FF0A040FEF7A7FF01220F
:101DA00015494FF0A040FEF7D8FF7F2212494FF0AF
:101DB000A040FEF7FDFF114A06214FF0A040FEF7BC
:101DC00056FF04220D494FF0A040FEF7C6FF7F22C8
:101DD0000A494FF0A040FEF7EBFF00BF6037BD4659
:101DE00080BD00BF01001C0000030050780B0020E4
:101DF000632D3E05CDCCCCCC0800900C0200300405
:101E000080B594B000AF07F1400300221A605A6019
:101E10009A6007F1280300221A605A609A60DA601B
:101E20001A615A6107F1180300221A605A609A6019
:101E3000DA603B4600221A605A609A60DA601A61E2
:101E40005A615148FEF7DAFD4FF40050FEF7B4FC3A
:101E50000120FEF7B1FC0420FEF7AEFC40233B60FE
:101E600003237B6000233B613B4619464FF09040C3
:101E700007F01AFF10233B6003237B6000233B61C4
:101E80003B461946414807F00FFF00233B644FF4DF
:101E900000437B640023BB6407F1400319463C48C0
:101EA00007F0D6FF0023BB620023FB6200233B63E5
:101EB00000237B630023BB630023FB6307F128033C
:101EC0001946334807F0EAFF00213148FEF7AAFE21
:101ED00000212F48FEF790FF8023BB610023FB61A8
:101EE00000233B6200237B6207F118031946284850
:101EF00008F01EF84FF000412548FEF719FF802139
:101F00002348FEF7E0FE2248FEF78BFF2048FEF74D
:101F10009AFF204B1B689B091F4AA2FB03239A09C7
:101F200013469B0013449B001A461C4BA3FB022341
:101F3000DB08FB6402E0FB6C013BFB64FB6C002BE9
:101F4000F9D1174A09211248FEF7D0FE012214499F
:101F50000F48FEF702FF7F2211490D48FEF728FFC8
:101F6000104A06210A48FEF782FE04220D4908485D
:101F7000FEF7F3FE7F220B490548FEF719FF00BF6D
:101F80005037BD4680BD00BF01001C00000800485E
:101F900000010050780B0020632D3E05CDCCCCCC49
:101FA0000800900C2000F01480B58CB000AF07F151
:101FB0001C0300221A605A609A60DA601A613B1DA5
:101FC00000221A605A609A60DA601A615A61012030
:101FD000FEF7F2FB02237B600323BB6000237B61DF
:101FE0003B1D19464FF0904007F05EFE0023FB6159
:101FF00040233B6200237B620023BB620023FB6221
:1020000007F11C031946114808F0A4F900233B60AE
:102010000F4B1B680F4AA2FB0323DB0CC82202FBF9
:1020200003F33B6002E03B68013B3B603B68002BF5
:10203000F9D14FF40010FFF7A5FC4FF40010FFF7A3
:102040008DFC00BF3037BD4680BD00BF000201409F
:10205000780B002083DE1B4380B58CB000AF07F106
:102060001C0300221A605A609A60DA601A613B1DF4
:1020700000221A605A609A60DA601A615A6101207F
:10208000FEF79AFB80237B600323BB6000237B6108
:102090003B1D19464FF0904007F006FE0023FB6100
:1020A00040233B6200237B620023BB620023FB6270
:1020B00007F11C031946114808F04CF900233B6056
:1020C0000F4B1B680F4AA2FB0323DB0CC82202FB49
:1020D00003F33B6002E03B68013B3B603B68002B45
:1020E000F9D14FF48000FFF74DFC4FF48000FFF76B
:1020F00035FC00BF3037BD4680BD00BF0402014043
:10210000780B002083DE1B4380B58CB000AF07F155
:102110001C0300221A605A609A60DA601A613B1D43
:1021200000221A605A609A60DA601A615A610220CD
:10213000FEF742FB01237B600323BB6000237B612E
:102140003B1D1946184807F0AFFD0023FB614023F3
:102150003B6200237B620023BB620023FB6207F12A
:102160001C031946114808F0F5F800233B60104B9A
:102170001B68104AA2FB0323DB0CC82202FB03F3FB
:102180003B6002E03B68013B3B603B68002BF9D1C0
:102190004FF08040FFF7F6FB4FF08040FFF7DEFB8B
:1021A00000BF3037BD4680BD000400480C0201402E
:1021B000780B002083DE1B4380B500AF0820FEF7BC
:1021C000E3FA00BF80BD000080B588B000AF3B1DC2
:1021D00000221A605A609A60DA601A615A619A6144
:1021E0004FF48020FEF7E8FAFEF744FA0346002297
:1021F00000211846FEF794FA034619463620FEF7EA
:1022000065FA3620FEF744FA00221A491A48FFF709
:10221000B8F800237B600023BB600023FB6002232F
:102220007B610123BB610023FB613B1D1A46114901
:10223000114808F070FB0F490F48FFF7DAF80D4915
:102240000D48FFF7BEF800220C490B48FFF799F83C
:102250003B1D1A460949084808F05DFB0749064836
:10226000FFF7C7F805490448FFF7ABF800BF203770
:10227000BD4680BD0100110200100050F200423541
:1022800080B58EB000AF07F11C0300221A605A60BF
:102290009A60DA601A615A619A613B1D00221A60E5
:1022A0005A609A60DA601A615A614FF48010FEF742
:1022B0007DFB0420FEF780FA4FF480737B600223DD
:1022C000BB600023FB6001233B6100237B6108238B
:1022D000BB613B1D1946234807F0E6FC4FF4007331
:1022E0007B600223BB600023FB6001233B61002372
:1022F0007B610823BB613B1D19461A4807F0D4FCDB
:102300004FF08040FEF770FA0023FB61164B3B62F2
:1023100000237B620023BB620023FB6200233B633C
:1023200000237B6307F11C031946104808F03DFCAD
:102330000E48FFF702FB002200210C48FFF7D5FAF8
:102340000A48FFF7EAFA0948FFF7BFFA0748FFF71C
:10235000ACFA4FF48000FEF7F9FB00BF3837BD46FA
:1023600080BD00BF00080048722180000078004056
:1023700080B58AB000AF07F1180300221A605A60D6
:102380009A60DA603B4600221A605A609A60DA600E
:102390001A615A610120FEF70FFA02233B60032302
:1023A0007B6000233B613B4619464FF0904007F0AD
:1023B0007BFC04233B6003237B6000233B613B46A3
:1023C00019464FF0904007F06FFC08233B60032351
:1023D0007B6000233B613B4619464FF0904007F07D
:1023E00063FC0023BB610023FB6100233B620023ED
:1023F0007B6207F118031946094808F026FC002102
:102400000748FFF719FA00210548FFF728FA0021CD
:102410000348FFF737FA00BF2837BD4680BD00BF2D
:102420000003014080B58AB000AF07F11803002215
:102430001A605A609A60DA603B4600221A605A605D
:102440009A60DA601A615A610120FEF7B5F904203A
:10245000FEF7B2F90220FEF7AFF940233B600323F9
:102460007B6000233B613B4619464FF0904007F0EC
:102470001BFC80233B6003237B6000233B613B46C6
:1024800019464FF0904007F00FFC20233B600323D8
:102490007B6000233B613B461946164807F004FC6D
:1024A00001233B6003237B6000233B613B461946CD
:1024B000114807F0F9FB0023BB610023FB610023F7
:1024C0003B6220237B6207F1180319460B4808F092
:1024D000BCFB00210948FFF7AFF900210748FFF7CF
:1024E000BEF900210548FFF7CDF900BF2837BD46EA
:1024F00080BD00BF000800480004004804030140FC
:1025000080B5A0B000AF07F16C0300221A605A60DA
:102510009A60DA601A6107F14C0320220021184604
:1025200013F068F907F11C0330220021184613F05C
:1025300061F93B1D00221A605A609A60DA601A61E4
:102540005A614FF40060FEF767F90023A7F86C307A
:1025500020233B6741F29A037B674FF48073BB678C
:102560000123FB6707F16C031946924808F056FFF8
:102570009048FEF77CFC01218E48FEF7E1FC6023C9
:10258000FB6400233B6500237B6540F64D03BB6580
:102590000023FB6500233B6600237B660023BB66AC
:1025A00007F14C031A460121824808F0C1FF0121BE
:1025B0008048FEF76DFC10217E48FEF7C1FC07F154
:1025C0004C031A4610217B4808F0B2FF10217948CD
:1025D000FEF75EFC4FF480717648FEF7B1FC07F120
:1025E0004C031A464FF48071724808F0A1FF4FF473
:1025F00080717048FEF74CFC4FF480516D48FEF737
:102600009FFC7023FB6441F29903BB6507F14C0307
:102610001A464FF48051674808F08AFF4FF4805102
:102620006448FEF735FC70216248FEF7DFFC0021AC
:102630006048FEF7F0FC5F48FEF700FD0023022231
:1026400000215C48FEF722FD022200215948FEF7D6
:1026500005FD0023042200215648FEF717FD042241
:1026600000215448FEF7FAFC0023102200215148B3
:10267000FEF70CFD102200214E48FEF7EFFC4FF450
:102680000063FB614FF480633B6200237B623F2366
:1026900087F828304FF480537B854FF40053FB625A
:1026A0004FF440333B6300237B630023BB634FF055
:1026B0000073FB634FF440133B6400237B640023EF
:1026C000BB6407F11C0319463A4808F091FF10203B
:1026D000FEF772F84FF480737B600223BB60022325
:1026E000FB6000233B6102237B610223BB613B1D36
:1026F0001946314807F0D8FA4FF400737B60022383
:10270000BB600223FB6000233B6102237B61022349
:10271000BB613B1D1946284807F0C6FA4FF4806399
:102720007B600223BB600223FB6000233B6102232A
:102730007B610223BB613B1D19461F4807F0B4FAB9
:102740004FF400637B600223BB600223FB60002325
:102750003B6102237B610223BB613B1D1946164886
:1027600007F0A2FA4FF480537B600223BB60022380
:10277000FB6000233B6102237B610223BB613B1DA5
:1027800019460D4807F090FA4FF400537B6002237E
:10279000BB600223FB6000233B6102237B610223B9
:1027A000BB613B1D1946044807F07EFA00BF803725
:1027B000BD4680BD002C01400010004880B58EB0A1
:1027C00000AF07F1180320220021184613F012F879
:1027D0003B4600221A605A609A60DA601A615A61B8
:1027E0004FF44030FEF7C8F84FF48040FEF714F87D
:1027F0000120FDF7E1FF4FF400733B6002237B6093
:102800000023BB600023FB6000233B6107237B6147
:102810003B4619464FF0904007F046FA4FF480636C
:102820003B6002237B600023BB600023FB6000232E
:102830003B6107237B613B4619464FF0904007F010
:1028400033FA182200214448FEF794FF00220021A9
:102850004148FEF729FE002200213F48FEF70AFF0B
:10286000002200213C48FEF747FE002200213A48A2
:10287000FEF768FE802200213748FEF789FE00221D
:1028800000213548FEF7AAFE002200213248FEF75B
:10289000CBFE192201213048FEF76CFF10220121E6
:1028A0002D48FEF701FE002201212B48FEF7E2FE33
:1028B000002201212848FEF71FFE002201212648A0
:1028C000FEF740FE802201212348FEF761FE002230
:1028D00001212148FEF782FE002201211E48FEF759
:1028E000A3FE0023BB614FF4E133FB6100233B6295
:1028F00000237B620023BB620C23FB6200233B634B
:1029000000237B6307F118031946144809F05AFAAB
:1029100000211248FEF7A9FC00211048FEF7CCFC6C
:102920000E48FEF792FC0D48FEF7EDFC0B48FEF753
:102930007CFC00BF0948FEF7FCFC0346002BF9D0E5
:102940000648FEF70AFD0346002BF3D000BF00BF88
:102950003837BD4680BD00BF00000240003801404E
:1029600080B500AF0420FDF70FFF0120FDF70CFF3D
:1029700000BF80BD80B58AB000AF07F11C03002204
:102980001A605A609A603B1D00221A605A609A6071
:10299000DA601A615A610420FDF70EFF0120FDF78D
:1029A0000BFF0220FDF708FF0820FDF705FF1020B0
:1029B000FDF702FF80212748FEF729FC2649022067
:1029C000FEF7D6F84FF40053FB61012387F824305B
:1029D000002387F82530012387F8263007F11C03F0
:1029E000184606F01DFF00224FF400511B48FEF769
:1029F000D1FB00224FF400511848FEF78EFB8023D4
:102A00007B600123BB600023FB6000233B6100234C
:102A10007B613B1D19460F4807F046F94FF4804390
:102A20007B600023BB6001237B613B1D1946094885
:102A300007F03AF94FF400437B600023BB600123A9
:102A40007B613B1D1946034807F02EF900BF28376C
:102A5000BD4680BD001000480300F000000800489B
:102A600080B590B000AF07F1180328220021184666
:102A700012F0C0FE3B4600221A605A609A60DA608B
:102A80001A615A610220FDF797FE4FF48050FDF75E
:102A9000C3FE38233B6002237B600223BB6000231C
:102AA000FB6000233B6105237B613B461946474899
:102AB00007F0FAF804233B6001237B600223BB602C
:102AC0000023FB6000233B613B461946404807F06A
:102AD000EBF804213E48FEF79AFB0023BB614FF45C
:102AE0008273FB614FF4E0633B6202237B6201234C
:102AF000BB624FF40073FB6210233B6300237B63D4
:102B00000023BB6307F118031946324809F00AFA9B
:102B10000B2202213048FEF72DFE102202212E4802
:102B2000FEF7C2FC002202212B48FEF7A3FD002283
:102B300002212948FEF7E0FC002202212648FEF788
:102B400001FD802202212448FEF722FD00220221FD
:102B50002148FEF743FD002202211F48FEF764FDD5
:102B60000A2203211C48FEF705FE002203211A4811
:102B7000FEF79AFC002203211748FEF77BFD002296
:102B800003211548FEF7B8FC002203211248FEF786
:102B9000D9FC802203211048FEF7FAFC0022032111
:102BA0000D48FEF71BFD002203210B48FEF73CFDFC
:102BB0000848FEF72DFF0748FEF71AFF0548FEF705
:102BC00007FF00BF4037BD4680BD00BF000400487E
:102BD000000C0048003001400000024080B584B085
:102BE00000AFF860B9601346FB802448FEF7ECFDA7
:102BF0002248FEF7F7FD2148FEF702FE1F48FEF7C8
:102C00000DFE02211D48FEF72DFCFB681A4602212D
:102C10001A48FEF77BFD1A4A02211848FEF790FD7C
:102C2000FB881A4602211548FEF74AFD0321134886
:102C3000FEF718FCBB681A4603211048FEF766FD34
:102C40000F4A03210D48FEF77BFDFB881A4603213E
:102C50000A48FEF735FD03210848FEF7E1FB022193
:102C60000648FEF7DDFB0748FEF7D2FE0548FEF7F3
:102C7000BFFE00BF1037BD4680BD00BF0000024050
:102C80000C3001400030014080B582B000AF786068
:102C90007B681B68044A934201D107F0A7F900BF83
:102CA0000837BD4680BD00BF0010004080B400AFB3
:102CB00072B600BFFEE7000080B500AF034800F029
:102CC000BBF900F083FB00BF80BD00BF240C0020D7
:102CD00080B500AF07F09CF90346044AA2FB03232A
:102CE000DB09184607F015FB00BF80BDD34D62100D
:102CF00080B485B000AF7860084B9A6D07497B6857
:102D000013438B65054B9A6D7B681340FB60FB6832
:102D100000BF1437BD465DF8047B704700100240C9
:102D200080B483B000AF7860074B9A6D7B68134026
:102D30007A689A4201D1012300E0002318460C373B
:102D4000BD465DF8047B70470010024080B483B03C
:102D500000AF7860064B9A6D7B68DB4304491340F3
:102D60008B6500BF0C37BD465DF8047B704700BF24
:102D70000010024080B483B000AF786039607B6897
:102D80005B6823F0007323F070033A681A437B6892
:102D90005A6000BF0C37BD465DF8047B704780B4B5
:102DA00083B000AF786039607B689B6823F4803320
:102DB00023F007033A681A437B689A6000BF0C3718
:102DC000BD465DF8047B704780B483B000AF786087
:102DD00039607B689B6823F4401323F070033A68E2
:102DE0001A437B689A6000BF0C37BD465DF8047BD0
:102DF000704780B483B000AF78607B686FF00202E8
:102E00001A6100BF0C37BD465DF8047B704780B483
:102E100083B000AF78607B681B6903F00203022B6C
:102E200001D1012300E0002318460C37BD465DF8B0
:102E3000047B704780B483B000AF78607B685B69C7
:102E400043F001027B685A6100BF0C37BD465DF854
:102E5000047B704780B582B000AF10211848FFF79F
:102E6000B3FF06211648FFF79AFF0120FFF758FF2E
:102E700078607B68002B0AD10120FFF739FF4FF003
:102E80008040FFF7D7FF0120FFF760FF13E04FF00E
:102E900080435A680B4B13403B6020214FF0804029
:102EA000FFF768FF4FF08040FFF7C4FF39684FF02D
:102EB0008040FFF75FFF00BF0837BD4680BD00BF01
:102EC000002C01407000000280B586B000AFF860B1
:102ED000B9603B601346FB71FB7901335B089BB221
:102EE0005B01BB82F868FFF784FF0023FB8218E0D8
:102EF000F868FFF78CFF0346012B12D1F868FFF743
:102F000078FFFB8A0133FB82FA8ABB8A9A4208D394
:102F10003B681B78DBB20F2B03D8BB6801221A80F9
:102F200005E03B681B78DBB20F2BE1D900BF00BF87
:102F30001837BD4680BD000080B500AF034B1B684D
:102F4000184601F0D4FD0346184680BD240C00202D
:102F500080B500AF034B1B68184601F0EEFD034639
:102F6000184680BD240C002080B500AF034B1B68C1
:102F7000184601F011FE0346184680BD240C0020BF
:102F800080B500AF034B1B68184601F0AEFE034648
:102F9000184680BD240C002080B586B002AFB96011
:102FA0007B600346FB811346BB81B7F90C20F9898E
:102FB000BB6901937B6800931346BA68034811F01C
:102FC0000BFA034618461037BD4680BD8C0300201F
:102FD00080B485B000AF786039603B6843F48032DC
:102FE0007B68DA617B683A68DA613B6843F4803277
:102FF0007B68DA617B68DB69FB60FB6800BF1437C4
:10300000BD465DF8047B704780B485B000AF786042
:103010000B46FB70074B5B68FB60FB787A681B0113
:1030200013440833FA681A6000BF1437BD465DF8D0
:10303000047B7047001000E080B584B000AF78607A
:103040007B68002B41D0234B00221A707B68224AF8
:103050001A6000F091FB21480CF053F920480DF064
:1030600058FA204801F040FB1F480CF0F0FA1F48C6
:1030700001F03AFB1E480CF0E9F8174B1D4A9A6222
:103080001C4804F013FA1C480BF0E0FA1A480BF045
:10309000DDFE1A4A07F10C0312681146198002334B
:1030A000120C1A70F96814480BF064FD144B1B885D
:1030B0003B81B96810480BF025FE0F480BF0B0FEBD
:1030C00005F0ADF9034B01221A7000BF1037BD4661
:1030D00080BD00BFBA1E0020A409002010000020FF
:1030E000D0090020340A0020440A0020080A0020E9
:1030F000180A0020640C0020600C00205C580108B5
:103100006058010880B586B000AF0346FB800B46CF
:10311000BB8013467B80104B3B610023FB750F4B3C
:103120001B68FB60386901F0E0FD0346002B0DD100
:10313000386901F0DCFC0346FB75FB7D002B05D0F4
:10314000074AFB88D382064ABB881383FB7D184657
:103150001837BD4680BD00BFA40900208C0C00209C
:10316000280C002098B500AF314B1B78DBB2002B48
:103170005CD0304B1B88002B06D02E4B1B88013BAC
:103180009AB22C4B1A8039E001212B4804F0FCF94B
:1031900000F0FEFB0121284804F014FA05F046F97E
:1031A000264B1B689B68254A12682549104698479C
:1031B0000346224A5360214B5B68002B1BD01F4BF8
:1031C0001B681B681D4A10680A221E49984703465F
:1031D00083F00103DBB2002B0DD1184803F08CFF04
:1031E000164B1B685C68154B1868144B9968134B99
:1031F000DA890A23A0470F4B01221A80124B1B8841
:103200009BB2002B06D0104B1B889BB2013B9AB29D
:103210000D4B1A800D4B1B889BB2002B06D00B4B1D
:103220001B889BB2013B9AB2084B1A8000BF98BD25
:10323000BA1E0020B41E0020640C0020E80A002002
:10324000F40A0020F00A0020B61E0020B81E00205C
:1032500080B483B000AF0346FB80044AFB88138030
:1032600000BF0C37BD465DF8047B7047B61E0020DA
:1032700080B483B000AF0023FB71074B1B889BB267
:10328000002B01D10123FB71FB7918460C37BD4699
:103290005DF8047B704700BFB61E002080B483B089
:1032A00000AF0346FB80044AFB88138000BF0C3745
:1032B000BD465DF8047B7047B81E002080B483B023
:1032C00000AF0023FB71074B1B889BB2002B01D181
:1032D0000123FB71FB7918460C37BD465DF8047B72
:1032E000704700BFB81E002080B582B000AF002339
:1032F000FB7100210848FFF787FEFB79184600F0B4
:103300005BFF064B1B680133044A1360FB791846C8
:103310000837BD4680BD00BF640C0020AC610020B2
:1033200080B500AF044B1B78DBB2012B02D1034800
:1033300011F032F900BF80BDBA1E00208C030020BE
:1033400080B500AF074811F0DBF8074810F08EFB9E
:10335000002000F001FE00228021044801F03BFC27
:1033600000BF80BD8C030020F0080020A4090020CD
:1033700080B582B000AF786006F0E8F8642009F00C
:1033800025FD1E22002141F28830FFF7BBFE0120FF
:1033900009F01CFDFFF7E6FEF9E780B582B000AF4B
:1033A0007860012009F012FDFFF7BAFFF9E780B558
:1033B00000AFFFF7E5FD0346002B02D1FFF7BCFD90
:1033C00001E0FFF7C5FD00BF80BD000080B500AF84
:1033D00010212448FFF7FCFD01214FF09040FFF73A
:1033E000F7FD80214FF09040FFF7F2FD02214FF0F2
:1033F0009040FFF7EDFD08214FF09040FFF7E8FD0A
:1034000004214FF09040FFF7E3FD40214FF0904042
:10341000FFF7DEFD20211348FFF7DAFD01211248F6
:10342000FFF7D6FD4FF400711048FFF7D1FD4FF4C0
:1034300000610E48FFF7CCFD4FF480610B48FFF7A9
:10344000C7FD4FF400510948FFF7C2FD4FF480510A
:103450000648FFF7BDFD4FF480710448FFF7B8FD43
:1034600000BF80BD0008004800040048001000486C
:1034700080B483B000AF786039607B68DB6C23F484
:10348000FE723B681A437B68DA6400BF0C37BD46A6
:103490005DF8047B704780B483B000AF786039601A
:1034A0007B68DB6C23F4C0723B681A437B68DA6488
:1034B00000BF0C37BD465DF8047B704780B483B015
:1034C00000AF78607B689B6823F0004323F03F03E4
:1034D00043F008027B689A6000BF0C37BD465DF878
:1034E000047B704780B483B000AF78607B685B6812
:1034F00043F040027B685A6000BF0C37BD465DF860
:10350000047B704780B483B000AF786039607B681B
:103510001A6A3B681A437B681A6200BF0C37BD46C3
:103520005DF8047B7047000080B487B000AFF8609E
:10353000B9607A60BB68012B2ED0BB68042B29D000
:10354000BB68102B24D0BB68402B1FD0BB68B3F5E1
:10355000807F19D0BB68B3F5806F13D0BB68B3F51B
:10356000805F0DD0BB68B3F5804F07D0BB68B3F563
:10357000803F01D1082310E009230EE007230CE06F
:1035800006230AE0052308E0042306E0032304E001
:10359000022302E0012300E00023FB75FB681833DF
:1035A0001946FB7D0E4AD35C0B443B613B691A68AC
:1035B000FB7D0C49CB5C19460B4B8B40DB431A401F
:1035C000FB7D0849CB5C19467B688B401A433B69FD
:1035D0001A6000BF1C37BD465DF8047B704700BF12
:1035E000E4580108F05801087300010080B485B068
:1035F00000AF786039603B68012B2ED03B68042B0C
:1036000029D03B68102B24D03B68402B1FD03B684F
:10361000B3F5807F19D03B68B3F5806F13D03B685A
:10362000B3F5805F0DD03B68B3F5804F07D03B68A2
:10363000B3F5803F01D1082310E009230EE00723F2
:103640000CE006230AE0052308E0042306E0032338
:1036500004E0022302E0012300E00023FB737B6807
:1036600018331946FB7B0A4AD35C0B44BB60BB682A
:103670001A68FB7B0749CB5C194608238B401A4329
:10368000BB681A6000BF1437BD465DF8047B704705
:10369000E4580108F058010880B483B000AF7860A6
:1036A00039607B685B6C23F0FF023B681A437B68E0
:1036B0005A6400BF0C37BD465DF8047B704780B488
:1036C00083B000AF786039607B683A685A6300BFA6
:1036D0000C37BD465DF8047B704780B483B000AF03
:1036E000786039607B683A689A6300BF0C37BD46E2
:1036F0005DF8047B704780B483B000AF78603960B8
:103700007B683A68DA6300BF0C37BD465DF8047B1E
:10371000704780B483B000AF786039607B685B68C5
:1037200023F0007323F070033A681A437B685A60F1
:1037300000BF0C37BD465DF8047B704780B483B092
:1037400000AF78607B685B6C43F400427B685A642E
:1037500000BF0C37BD465DF8047B704780B483B072
:1037600000AF78607B68B3F9043018460C37BD466B
:103770005DF8047B7047000090B585B002AF554BF3
:10378000554A1A6054480DF093FCFFF763FB534809
:103790000BF0B7FD52480CF0ABFC524B1B68504A83
:1037A0004E4918460CF00BFB4E4B1968494B1B68F1
:1037B00000934D4B4D4A4E480CF0BAF84D480BF073
:1037C000A0FD4D480BF09DFD4C4B1B684C4ADA6048
:1037D0004A4B1B684B4A9A604B4B18684B4B1A6814
:1037E0004B4B1B6846490BF02DFC4A4B4A4A1A606A
:1037F000484B1B6818460BF062FF364B1B68474A64
:103800001360464B3E4A5A60444B3E4A9A60434BD3
:10381000434ADA60414B354A1A61404B414A5A618A
:103820003B4B1B683D4A9361384B1B683B4AD36155
:103830003A4B2F4A1A62394B294A5A62374B3A4A55
:103840009A62364B394ADA62344B00221A633348A3
:1038500010F034FD354B224A1A60344B294A5A6025
:10386000324B1E4A9A60314B2F4ADA602F4810F0D3
:1038700099F8002000F070FB224B012283F82420ED
:10388000184B1B681F4C18460CF006FC03461A46E2
:103890002282C3F30F436382124B1B6818460CF05D
:1038A000FBFB03463B60B7F90220164B9A820D4B97
:1038B0001B6818460CF0F0FB03467B60B7F9043038
:1038C00000221946164801F0F3F800BF0C37BD4638
:1038D00090BD00BF8C0C002078010020100000205B
:1038E0001C0200209009002044030020D009002081
:1038F000000100203C000020680000209C090020FE
:10390000440A0020280C0020A0090020980900206B
:1039100094090020500C0020580300208C03002044
:10392000A409002070030020CC000020F008002033
:1039300080B582B000AF0346FB71FB79104A52F8A4
:10394000233018460EF068FC0E4810F0D9FD0E48E2
:1039500010F08CF8FB79184600F0FEFA4FF448702E
:10396000FFF79CFCFB79094A2C2101FB03F313446C
:103970001F3308221A7000BF0837BD4680BD00BF44
:103980008C0C00208C030020F0080020A4090020EB
:1039900090B587B000AF0023FB8200237B75B4484D
:1039A00001F0BBF90346002B40F0A382B04BDB7F54
:1039B000142B00F2A28201A252F823F0113A00085F
:1039C000FB3E0008FB3E0008FB3E0008613C00088F
:1039D000FB3E0008173E0008FB3E0008513E000871
:1039E000FB3E0008913E00087B3E0008FB3E0008BD
:1039F000FB3E0008FB3E0008FB3E0008EF3B0008D2
:103A0000A73B0008FB3E0008773D0008993E0008F0
:103A1000974B9B7F012B04D0954B9B7F032B40F052
:103A20006E82934801F0A6F90346194691480BF0BF
:103A3000D5FF914B00221A60904B00221A609048EB
:103A40000BF0EEF904218E480BF020FA642009F007
:103A5000BDF94FF0A040FFF731FD8A48FFF72EFD7A
:103A60004FF0A040FFF73EFD70218748FFF751FE61
:103A7000864B1B680122A3F86020844B1B68002141
:103A8000184600F0C3FC814B1B6818460EF02BFB58
:103A90001420FFF7DDFB70217B48FFF73AFE7448E6
:103AA00001F068F90346194672480BF097FF40F29F
:103AB00055517548FFF726FD602201217248FFF736
:103AC00033FD602210217048FFF72EFD60224FF475
:103AD00080716D48FFF728FD32216B48FFF7DCFD50
:103AE00001216948FFF782FD10216748FFF77EFD3D
:103AF0004FF480716448FFF779FD64216248FFF755
:103B0000DEFD64216048FFF7E8FD64215E48FFF7B1
:103B1000F2FD4FF47A7009F059F970215A48FFF715
:103B2000F8FD4FF0A040FFF7DDFC70215648FFF78D
:103B3000F0FD80214FF0A040FFF79AFC80214FF06C
:103B4000A040FFF7A8FC504B5B6C4F4A43F48063E6
:103B500053644D48FFF7F2FD49480BF061F97021BD
:103B60004948FFF7D6FD4FF47A7009F02FF9484B1A
:103B7000B3F900305B42404A1360454BB3F9023061
:103B80005B423E4A1360434B01221A6070213E485B
:103B9000FFF7BFFD1E2009F019F90A223E493F48F0
:103BA000FFF71CF8EFE7324B9B7F052B03D100207A
:103BB000FFF7BEFEA5E1354B1B680121184600F05A
:103BC00025FC0346002B00F09C81294B9B7F032B97
:103BD00009D1002000F0C0F9254B00229A77244B30
:103BE0000022DA778DE1224B1422DA7789E1204B2B
:103BF0009B7F052B03D10020FFF79AFE83E1FFF79F
:103C000037FB0346002B00F07E81204B1B681846D3
:103C10000EF002FB1E4B012283F82420204B1B6870
:103C2000204918460CF0F7F81F480CF0BBFA174B68
:103C30001B68184600F0B6FB002000F08DF91B4809
:103C400010F072FC114B1B68184600F0D3FB084BB8
:103C50000422DA770D4B1B68184600F0CBFB52E1CB
:103C6000034B9B7F052B23D10020FFF761FE4CE126
:103C7000A409002000010020C41E0020C81E00204E
:103C8000600C002000010050002C01408C0C002032
:103C9000280C0020BC1E0020CC1E0020F80A0020AA
:103CA00090090020D00900201C0200208C03002075
:103CB0009E480BF00FFF034683F00103DBB2002B9D
:103CC00010D19B4B1B6818460CF08AF90346BB8148
:103CD000984BB3F91430FB81964B103307F10C026B
:103CE0001068186007F11003194693480CF05CFC4B
:103CF00007F11003194691480CF0C2FA0346BB7451
:103D00008F4801F037F803465BB219468B480CF038
:103D1000F0FBBB7C194688480CF060FDBB7C002B97
:103D200000F0F3808548FFF719FD03461946814BE3
:103D30005A681346184600F0D1FD0346BB60814B1C
:103D40001B6818460BF0BBFC7E4B1B68794AB2F926
:103D500010201146002218460BF000FD794B1B681D
:103D6000B7F908201146192218460BF0F7FC744BDE
:103D70001322DA77C9E0724B9B7F052B03D1002019
:103D8000FFF7D6FDC3E0BB1D19466B480CF00CFCD9
:103D900003463B7568480CF045FD0346FB743B7DCC
:103DA000002B02D1FB7C002B01D0012300E000237B
:103DB0003B753B7D03F001033B753B7D002B00F021
:103DC000A6805C4BB3F910301C465F480BF014FB27
:103DD00003461BB204FB03F319465B480BF0E8FAF9
:103DE0005A4810F047FA524B1B68544918460CF0D9
:103DF00012F8002000F05CF9002000F075F94C4B3F
:103E00001B6818460CF063F94D4800F008FF4C4B56
:103E10000622DA777BE04A4B9B7F052B03D10020FB
:103E2000FFF786FD7AE0464800F0F9FE002000F03A
:103E30005BF97B7D83F00103DBB2002B04D0002211
:103E400020213F4800F0C7FE40480FF013FE65E018
:103E5000FFF734FA0346002B5BD0354B1B6836491D
:103E600018460BF0D8FF34480CF05EFB344B0022B0
:103E70009A77334B0022DA774BE0314B9B7F022B52
:103E800049D12F4B00229A772D4B0022DA7742E05E
:103E90002B4B0B22DA7741E0294B9B7F052B03D17B
:103EA0000020FFF745FD38E0294811F0EBF9034603
:103EB00083F00103DBB2002B2FD01E4B012283F8CD
:103EC00024201B4B1B681C4918460BF0A4FF1B4801
:103ED0000CF068F9002000F03FF81D4810F024FBBA
:103EE0001C4B1B68184600F085FA154B0422DA7744
:103EF00013E0134B0A22DA7710E000BF0EE000BF98
:103F00000CE000BF0AE000BF08E000BF06E000BF11
:103F100004E000BF02E000BF00E000BF0C4810F06A
:103F200047FD00BF1C37BD4690BD00BF000100200B
:103F300090090020280C0020D00900201C0200203D
:103F4000A4090020500C002010000020F0080020E0
:103F50008C0300208C0C002080B586B000AF034697
:103F6000FB710023BB820023FB8200233B820023E2
:103F70007B820023BB810023FB81FB79454A2621FC
:103F800001FB03F313441A4607F114031868106089
:103F9000FB79404A262101FB03F3134404331A46FC
:103FA00007F10C0318681060FB793A4A262101FBDF
:103FB00003F313440C331A4607F11003186810601A
:103FC000FB79344A262101FB03F3134410331A46CC
:103FD00007F1100318681060FB792E4A262101FBB7
:103FE00003F313441E3300221A80FB79294A262149
:103FF00001FB03F313441033063307F1100210687A
:104000001860FB79234A262101FB03F3134418337C
:10401000023307F10C0210681860FB791D4A262153
:1040200001FB03F31344203300221A80FB791A4A60
:1040300052F82330002118460BF0BAF9FB79174AE1
:1040400052F82330002118460BF0B2F9FB79144ADC
:1040500052F8233018460BF0ECFEFB79114A52F867
:104060002330184600F0BAF9FB790F4A52F8233092
:10407000002B06D0FB790C4A52F8233018460BF07F
:1040800003F8FB791946094803F054FA00BF1837C2
:10409000BD4680BD280C002094090020980900200E
:1040A000900900208C0C0020A0090020640C002046
:1040B00080B582B000AF0346FB71FB79FF2B0CD0BB
:1040C000FB79084A52F82330002B06D0FB79054AC9
:1040D00052F8233018460BF077F800BF0837BD467A
:1040E00080BD00BFA009002090B585B000AF034699
:1040F000FB7172B600BFFB792C4A262101FB03F34A
:10410000134403F1100207F10C031068186062B643
:1041100000BFFB79254A262101FB03F31344243316
:104120001B78002B2DD1FB79214A52F82330FC79E2
:1041300018460BF055FF034619461C4A262304FB7C
:1041400003F313441E330A461A80FB79174A2621CB
:1041500001FB03F313441E33B3F90030BB81FB7939
:10416000144A52F82330002B0BD0FB79114A52F835
:104170002300FB790E4A52F823301A46F9680AF0F8
:1041800093FF72B600BFFB79084A262101FB03F3B7
:10419000134410331A4607F10C031868106062B616
:1041A00000BF00BF1437BD4690BD00BF280C0020E3
:1041B00090090020A009002080B58CB000AF034614
:1041C000FB714FF00003FB614FF00003BB614FF048
:1041D00000037B61674BFB624FF00003BB624FF053
:1041E00000037B624FF000033B624FF00003FB6073
:1041F0004FF00003BB60604BDB7F132B13D15F4B91
:104200001B6818460BF034FB034683F00103DBB256
:10421000002B08D0594B1B6818460BF069FA03466F
:104220001AB2574B1A82574B1B689AB24FF0A043F1
:10423000D3F880301B099BB2D31A9BB21BB23B82CE
:10424000514B1B689AB2514BD3F880301B099BB27B
:10425000D31A9BB21BB27B82494B1A4607F110035B
:1042600018681060B7F9103007EE903AF8EEE77A68
:10427000C7ED097AB7F9123007EE903AF8EEE77A0F
:10428000C7ED087A424BD3ED007A07F1080207F137
:104290000C0397ED081AD7ED090AB0EE670A11462C
:1042A00018460EF04DFFD7ED037AFDEEE77A17EED4
:1042B000903A1AB2324B9A81D7ED027AFDEEE77A44
:1042C00017EE903A1AB22E4BDA81324B1B68012B53
:1042D00046D107F1140307F1180207F11C012C481D
:1042E000D7ED0A0A97ED0B0A0EF09AFED7ED077A82
:1042F0009FED297A67EE877AFCEEE77A17EE901A3F
:104300002648FFF7DCF9D7ED067A9FED237A67EEB2
:10431000877AFCEEE77A17EE901A2048FFF7DDF96E
:10432000D7ED057A9FED1C7A67EE877AFCEEE77A87
:1043300017EE901A1948FFF7DEF9184B5B6C174A15
:1043400043F4806353641548FFF7F8F9104BD3ED3D
:10435000007A9FED137A77EEC77A0D4BC3ED007AA2
:1043600070210E48FFF7D5F9002318463037BD46B7
:1043700080BD00BFCDCCCCBDA4090020500C0020D6
:10438000280C0020C41E0020C81E00200001005080
:10439000C01E0020BC1E002000D08445002C01401F
:1043A0006F12833A80B483B000AF78607B680022DC
:1043B000A3F868207B680022A3F86A207B680022AB
:1043C000A3F86C207B6800229A637B6800225A6302
:1043D00000BF0C37BD465DF8047B704780B582B0E6
:1043E00000AF78607B685B687868984700BF0837E3
:1043F000BD4680BD80B582B000AF78607B689B68A9
:104400007868984700BF0837BD4680BD80B584B046
:1044100000AF78600B46FB700023FB73FB78002B2A
:1044200009D17868FFF7DAFF7B68DB68786898471E
:104430000123FB731DE0FB78012B1AD17B68B3F8D5
:104440006030002B13D07B68B3F86030013B9AB228
:104450007B68A3F860207B68B3F86030002B08D13C
:104460007B68DB68786898470123FB7301E00123D0
:10447000FB73FB7B18461037BD4680BD80B485B00A
:1044800000AF78600023FB817B6893F88130002BBC
:1044900005D00223FB817B68002283F881207B68A2
:1044A00093F88030002B07D0FB8943F04003FB8159
:1044B0007B68002283F880207B6893F88230002B91
:1044C00007D0FB8943F48063FB817B68002283F87B
:1044D0008220FB8918461437BD465DF8047B70477F
:1044E00080B582B000AF78607B68DB6978689847F8
:1044F00000BF0837BD4680BD80B582B000AF786090
:104500007B681B6A7868984700BF0837BD4680BD46
:1045100080B582B000AF78607B689B6A7868984706
:1045200000BF0837BD4680BD80B483B000AF78605F
:1045300039607B681B6B23F00F023B681A437B6872
:104540001A6300BF0C37BD465DF8047B704780B42A
:1045500087B000AFF860B9607A60FB6814331A4620
:10456000BB685B0E9B0003F0040313447B617B6913
:104570001A68BB681B0D03F01F03072101FA03F340
:10458000DB431A40BB681B0D03F01F03796801FA77
:1045900003F31A437B691A6000BF1C37BD465DF800
:1045A000047B704780B483B000AF78607B689B6801
:1045B00023F0004323F03F0343F001027B689A603D
:1045C00000BF0C37BD465DF8047B704780B483B0F4
:1045D00000AF78607B689B6803F00103012B01D179
:1045E000012300E0002318460C37BD465DF8047B2C
:1045F000704780B483B000AF786039607B689B6897
:1046000023F0404323F03F033A6802F08042134313
:1046100043F000427B689A6000BF0C37BD465DF8EE
:10462000047B704780B483B000AF78607B689B6880
:1046300003F00043B3F1004F01D1012300E0002358
:1046400018460C37BD465DF8047B704780B483B0D4
:1046500000AF78607B681B6803F00103012B01D178
:10466000012300E0002318460C37BD465DF8047BAB
:10467000704780B483B000AF78607B6804221A6012
:1046800000BF0C37BD465DF8047B704780B483B033
:1046900000AF78607B6820221A6000BF0C37BD46EF
:1046A0005DF8047B704780B483B000AF78607B68AE
:1046B0005B6823F004027B685A6000BF0C37BD467C
:1046C0005DF8047B704780B483B000AF78607B688E
:1046D0005B6823F020027B685A6000BF0C37BD4640
:1046E0005DF8047B7047000080B584B000AF78604F
:1046F000FF23FB730023BB7329E0BB7B674A52F89F
:104700002330002B04D1FB7B042B01D9BB7BFB7333
:10471000BB7B624A52F82330002B15D0BB7B5F4A2B
:1047200052F823301A797B681B799A420CD1BB7BF3
:104730005A4A52F823301A687B681B689A4203D1A0
:10474000BB7BFB730423BB73BB7B0133BB73BB7BA2
:10475000032BD2D9FB7B032B00F29980FB7B4F49C3
:104760007A6841F82320FB7B4D4A002142F8331040
:104770007B681B681846FFF729FF0346002B30D1E2
:104780007B681B681846FFF78EFF7B681B6818461E
:10479000FFF76FFF7B681B681846FFF794FF7B6885
:1047A0001B681846FFF772FF7B681B687F2118465D
:1047B000FFF71FFF00BF7B681B681846FFF732FF3B
:1047C0000346012BF7D004E07B681B681846FFF70F
:1047D000E9FE7B681B681846FFF738FF0346002B8D
:1047E000F2D0FA7B2F4913465B0013445B000B4465
:1047F00000221A70FA7B2B4913465B0013445B00BE
:104800000B440533FA7B1A70FA7B264913465B008A
:1048100013445B000B440433FA7B1A707B681B68FB
:1048200000211846FFF780FE7B6818687B681B79BB
:10483000092B12D87B681B799B061A467B681B796B
:10484000194601238B401A437B681B7919460B4696
:104850005B000B441B05134314E07B681B799B062C
:104860001A467B681B79194601238B401A437B68E3
:104870001B7919460B465B000B441E3B1B0513437B
:1048800043F000737A6892681946FFF760FE7B6810
:10489000FA7B1A7300BF1037BD4680BDD81E0020BA
:1048A000E81E0020081F002080B483B000AF7860AD
:1048B00039607B683A685A6000BF0C37BD465DF8C6
:1048C000047B704780B483B000AF78607B689B68DE
:1048D00018460C37BD465DF8047B704780B58CB038
:1048E00000AF78600B467B80B7F90230184600F0C5
:1048F0006DF80346FB60B7F90430B7F90C2002FBF2
:1049000003F3BB62B7F90630B7F90E2002FB03F3DD
:104910007B62BA6A7B6AD31ADB133B623B6AB3F5EC
:10492000004F03DB47F6FF73FB8509E03B6A13F595
:10493000004F03DA4FF40043FB8501E03B6AFB853F
:10494000FB8D3B82B7F9103013F5004F02D148F2CE
:1049500001033B82B7F90430B7F90E2002FB03F3E1
:10496000FB61B7F90630B7F90C2002FB03F3BB611A
:10497000FA69BB691344DB133B623B6AB3F5004F32
:1049800003DB47F6FF73FB8509E03B6A13F5004F35
:1049900003DA4FF40043FB8501E03B6AFB85FB8DA6
:1049A0007B82B7F9123013F5004F02D148F20103B0
:1049B0007B823B697B610023BA8A62F30F03FA8A28
:1049C00062F31F4318463037BD4680BD80B584B0C2
:1049D00000AF0346FB80104B4FF060121A60B7F92E
:1049E000063003F1FF4303F5FE0319460A48FFF7BB
:1049F0005BFF0948FFF766FF0346BB60BB68FB60CF
:104A00000023BA8962F30F03FA8962F31F43184641
:104A10001037BD4680BD00BF000C024080B485B099
:104A200000AF87ED010A3B1DFB60FB681B68184661
:104A30001437BD465DF8047B704780B483B000AF87
:104A400078607B680022DA607B6800229A6100BF90
:104A50000C37BD465DF8047B704780B483B000AF6F
:104A600078607B685B6918460C37BD465DF8047B4F
:104A7000704780B483B000AF78600B467B801346EC
:104A80003B807B6801221A737B687A88DA817B68B5
:104A90003A889A837B68012283F824207B6803226A
:104AA00083F8252000BF0C37BD465DF8047B7047B6
:104AB00080B483B000AF78600B467B8013463B80A8
:104AC0007B6802221A737B687A881A827B683A882C
:104AD0009A837B68012283F824207B68042283F870
:104AE000252000BF0C37BD465DF8047B704780B5BC
:104AF00084B000AF78600023FB73786800F0F5F8AD
:104B00000346002B14D1786800F0FBF80346002B15
:104B10000ED1786800F001F90346002B08D17B68BC
:104B200001229A777B68012283F824200123FB73FA
:104B3000FB7B18461037BD4680BD80B584B000AF02
:104B400078600023FB73786800F0CFF803467B732E
:104B50007B7B002B02D07B7B0C2B02D10023BB7311
:104B600001E00123BB73786800F0CBF80346002B0B
:104B70000DD1786800F0D1F80346002B07D1BB7B3C
:104B8000002B04D07B6805229A770123FB73FB7B03
:104B900018461037BD4680BD80B584B000AF786040
:104BA0000023FB73786800F0A0F803460B2B0DD1AF
:104BB000786800F0B2F80346002B07D17B6800222A
:104BC0005A847B6802229A770123FB73FB7B184689
:104BD0001037BD4680BD80B483B000AF78600B460F
:104BE0007B8013463B807B681A8C7B8813439BB287
:104BF0001AB2B7F90030DB431BB213401BB29AB2B2
:104C00007B681A847B685A8C7B8813439AB27B68D2
:104C10005A8400BF0C37BD465DF8047B704780B5F1
:104C200084B000AF78607B6893F82430012B58D1B2
:104C30000023FB737B681B7B032B36D0032B43DCE9
:104C4000012B02D0022B18D03EE07B685B6800226B
:104C500083F824207B681B68032118460BF017F9A2
:104C60007B6818687B68B3F90E107B689B8B1A46CB
:104C70000BF020F90346FB7327E07B685B6800229A
:104C800083F824207B681B68042118460BF0FFF88A
:104C90007B6818687B68B3F910107B689B8B1A4699
:104CA0000BF008F90346FB730FE07B685B68012299
:104CB00083F824207B685B687A68103312321268AC
:104CC0001A600123FB7300E000BFFB7B002B04D0C4
:104CD0007B68022283F8242003E07B68032283F8A8
:104CE000242000BF1037BD4680BD80B483B000AF24
:104CF00078607B68DB7F18460C37BD465DF8047B27
:104D0000704780B483B000AF78607B685B8C1846D6
:104D10000C37BD465DF8047B704780B483B000AFAC
:104D200078607B681B8C18460C37BD465DF8047BA9
:104D3000704780B485B000AF78607B685B8CFB60A7
:104D40007B681B8C1B04FA681343FB60FB681846E6
:104D50001437BD465DF8047B704780B483B000AF64
:104D600078607B6893F8253018460C37BD465DF8AF
:104D7000047B704780B485B000AF78600123FB816D
:104D80007B681B7B032B18D0032B1FDC012B02D06D
:104D9000022B09D01AE07B68B3F90E30002B17DA2A
:104DA0004FF6FF73FB8113E07B68B3F91030002BE3
:104DB00010DA4FF6FF73FB810CE07B68B3F9123019
:104DC000002B09DA4FF6FF73FB8105E000BF04E01A
:104DD00000BF02E000BF00E000BFB7F90E30184688
:104DE0001437BD465DF8047B704780B483B000AFD4
:104DF00078607B68B3F90E3018460C37BD465DF815
:104E0000047B704780B483B000AF78607B689B8B75
:104E100018460C37BD465DF8047B704780B582B0FC
:104E200000AF78607B681B681846FFF706FE00BF7E
:104E30000837BD4680BD80B584B000AF78607B6820
:104E40001B681846FFF709FEF860F8680AF0F8FEDC
:104E500003467B81B7F90A3018461037BD4680BD3E
:104E600080B582B000AF78607B681B6818460AF096
:104E7000F2FF034618460837BD4680BD80B485B0B2
:104E800000AF78607B685A6807F10C03163210682F
:104E900018600023BA8962F30F03FA8962F31F4393
:104EA00018461437BD465DF8047B704780B485B062
:104EB00000AF78607B685A6807F10C031A321068FB
:104EC00018600023BA8962F30F03FA8962F31F4363
:104ED00018461437BD465DF8047B704780B483B034
:104EE00000AF78607B685B68B3F91E3018460C37FA
:104EF000BD465DF8047B704790B583B000AF786025
:104F00007B681A687B685C6810460BF0C5F803463E
:104F10001A462282C3F30F43638200BF0C37BD469B
:104F200090BD80B582B000AF78600B46FB707B68A7
:104F30009B6AFA781146184602F0FCFA00BF08375F
:104F4000BD4680BD80B483B000AF7860044B5A6921
:104F50007B68134018460C37BD465DF8047B7047EC
:104F60000004014080B483B000AF7860044A7B68DD
:104F7000536100BF0C37BD465DF8047B704700BF2E
:104F80000004014080B500AFFEF7DAF9FEE780B516
:104F900000AF4FF40050FFF7D5FF0346002B05D0BC
:104FA0004FF40050FFF7DEFFFEF701FA00BF80BDAF
:104FB00080B483B000AF786039607B68DB6C23F429
:104FC000FE723B681A437B68DA6400BF0C37BD464B
:104FD0005DF8047B704780B483B000AF78603960BF
:104FE0007B68DB6C23F4C0723B681A437B68DA642D
:104FF00000BF0C37BD465DF8047B704780B485B0B8
:1050000000AFF860B9607A60FB68DA6CBB6803F0E7
:105010001F031F2101FA03F3DB431A407B689B0E39
:1050200003F01F01BB6803F01F0301FA03F31A43E7
:10503000FB68DA6400BF1437BD465DF8047B704737
:1050400080B483B000AF78607B689B6823F0004336
:1050500023F03F0343F008027B689A6000BF0C37DF
:10506000BD465DF8047B704780B483B000AF7860C4
:105070007B6840221A6000BF0C37BD465DF8047B98
:10508000704780B483B000AF786039607B685B683C
:1050900023F0007323F070033A681A437B685A6068
:1050A00000BF0C37BD465DF8047B704780B483B009
:1050B00000AF78607B686FF001021A6100BF0C37A7
:1050C000BD465DF8047B704780B483B000AF786064
:1050D0007B686FF080021A6100BF0C37BD465DF837
:1050E000047B704780B483B000AF78607B681B6935
:1050F00003F08003802B01D1012300E00023184638
:105100000C37BD465DF8047B704780B483B000AFB8
:1051100078607B686FF480721A6100BF0C37BD46FF
:105120005DF8047B704780B483B000AF78607B6823
:105130001B6903F48073B3F5807F01D1012300E084
:10514000002318460C37BD465DF8047B704700000D
:1051500080B485B000AF786039607B68FB600C4A32
:105160003B6813441B781A46FB6813441B680849C4
:105170003A680A4412781146FA680A4423F0010397
:10518000136000BF1437BD465DF8047B704700BF55
:10519000FC58010880B483B000AF78607B681B685E
:1051A00003F00203022B01D1012300E00023184683
:1051B0000C37BD465DF8047B704780B483B000AF08
:1051C00078607B681B6803F02003202B01D101234A
:1051D00000E0002318460C37BD465DF8047B70479D
:1051E00080B483B000AF78607B681B6803F0040371
:1051F000042B01D1012300E0002318460C37BD46E3
:105200005DF8047B704780B483B000AF78607B6842
:105210001B6803F00803082B01D1012300E00023E1
:1052200018460C37BD465DF8047B704780B483B0E8
:1052300000AF78607B681B6803F08003802B01D18E
:10524000012300E0002318460C37BD465DF8047BBF
:10525000704780B483B000AF78607B6802225A60E8
:1052600000BF0C37BD465DF8047B704780B483B047
:1052700000AF78607B6820225A6000BF0C37BD46C3
:105280005DF8047B704780B483B000AF78607B68C2
:1052900004225A6000BF0C37BD465DF8047B70479E
:1052A00080B483B000AF78607B6808225A6000BF8A
:1052B0000C37BD465DF8047B704780B483B000AF07
:1052C00078607B6880225A6000BF0C37BD465DF86D
:1052D000047B704780B500AF4FF0A040FFF7C4FEDD
:1052E0001048FFF7C1FEFDF7FFFF0E4B4FF4D062F1
:1052F000DA640C48FFF7A4FE0B4A09214FF0A040E6
:10530000FFF77CFE80214FF0A040FFF751FE802187
:105310004FF0A040FFF75FFE70210448FFF7B1FE99
:1053200000BF80BD000100500800900C002C01401F
:1053300080B500AF0348FFF7B9FE03480CF0BBFF90
:1053400000BF80BD002C01407801002080B500AF77
:105350000948FFF7C7FE0346002B02D00648FFF7B7
:10536000B3FE0548FFF7DFFE0346002B02D00248DC
:10537000FFF7CBFE00BF80BD002C014080B500AF21
:1053800003F00CFC00BF80BD80B500AF0E48FFF7F6
:1053900027FF0346002B02D00B48FFF774FF0A4893
:1053A000FFF7F8FE0346002B02D00748FFF751FF36
:1053B0000548FFF728FF0346002B02D00248FFF7FD
:1053C0006FFF00BF80BD00BF0000024080B500AF8E
:1053D0000F48FFF7F2FE0346002B09D00C48FFF7F9
:1053E00045FF01210A48FFF7B3FE0A4B00221A705D
:1053F0000748FFF71BFF0346002B06D00448FFF7C2
:105400005CFF01210248FFF7A3FE00BF80BD00BF83
:1054100000000240BC1F002080B483B000AF786061
:105420007B68B3F9043018460C37BD465DF8047B41
:10543000704780B483B000AF78607B6893F84830E1
:1054400018460C37BD465DF8047B704780B483B0C6
:1054500000AF78607B68D3F8003118460C37BD4642
:105460005DF8047B704780B483B000AF78607B68E0
:10547000D3F8FC3018460C37BD465DF8047B704706
:1054800080B582B000AF78607B68D3ED147AB0EE5F
:10549000670AFFF7C3FA034618460837BD4680BDC2
:1054A00080B483B000AF78600B2318460C37BD463C
:1054B0005DF8047B704780B485B000AF78607B688E
:1054C00093F83430FB73FB7B18461437BD465DF808
:1054D000047B704780B483B000AF78600B46FB70EC
:1054E0007B68FA7883F8762000BF0C37BD465DF8FC
:1054F000047B704780B483B000AF786087ED000A0A
:105500007B683A681A6300BF0C37BD465DF8047BC0
:10551000704780B483B000AF78607B681B6B07EE88
:10552000903AB0EE670A0C37BD465DF8047B7047D1
:1055300080B485B000AF7860124BFB607B6893ED60
:105540000B7AD7ED037A27EE277A7B68D3ED267A9C
:1055500027EE277A7B68D3F89C30D3ED136A7B68FB
:10556000D3F89C30D3ED147A66EEA77AC7EE276A9B
:10557000F0EE667AB0EE670A1437BD465DF8047B3C
:10558000704700BFCB151E3580B485B000AF786082
:10559000124BFB607B6893ED087AD7ED037A27EE18
:1055A000277A7B68D3ED267A27EE277A7B68D3F8B3
:1055B0009C30D3ED136A7B68D3F89C30D3ED147A1A
:1055C00066EEA77AC7EE276AF0EE667AB0EE670A53
:1055D0001437BD465DF8047B704700BFCB151E3500
:1055E00080B483B000AF78607B6893F8623018466F
:1055F0000C37BD465DF8047B704780B483B000AFC4
:105600007860052318460C37BD465DF8047B70476B
:1056100080B582B000AF78607B68D3ED197AB0EEC8
:10562000670AFFF7FBF9034618460837BD4680BDF9
:1056300080B582B000AF78607B68D3ED1A7AB0EEA7
:10564000670AFFF7EBF9034618460837BD4680BDE9
:1056500080B582B000AF78607B68D3ED1B7AB0EE86
:10566000670AFFF7DBF9034618460837BD4680BDD9
:1056700080B582B000AF78607B68D3ED187AB0EE69
:10568000670AFFF7CBF9034618460837BD4680BDC9
:1056900080B483B000AF78600B46FB70FB7807EEF8
:1056A000903AF8EE677A7B68C3ED127A00BF0C3748
:1056B000BD465DF8047B704780B483B000AF78606E
:1056C0007B689B6D07EE903AB0EE670A0C37BD46DB
:1056D0005DF8047B704780B483B000AF786087EDDD
:1056E000000A7B683A68C3F8E02000BF0C37BD466B
:1056F0005DF8047B704780B483B000AF78607B684E
:10570000D3F8E03007EE903AB0EE670A0C37BD46AA
:105710005DF8047B704780B483B000AF78607B682D
:10572000D3F8E43018460C37BD465DF8047B70476B
:1057300080B483B000AF78607B68D3F8E830184657
:105740000C37BD465DF8047B704780B483B000AF72
:1057500078607B68D3F8EC3018460C37BD465DF8AE
:10576000047B704780B483B000AF78607B689B6D2A
:1057700007EE903AB0EE670A0C37BD465DF8047B41
:10578000704780B483B000AF786087ED000A7B6813
:105790003A68C3F8342100BF0C37BD465DF8047B7E
:1057A000704780B483B000AF78607B68D3F8343141
:1057B00007EE903AB0EE670A0C37BD465DF8047B01
:1057C000704780B483B000AF78607B68D3F8483509
:1057D000B3F8483018460C37BD465DF8047B704777
:1057E00080B483B000AF78607B68D3F8483593F815
:1057F0004A3018460C37BD465DF8047B7047000000
:1058000080B582B000AF78607B685B689B891A4680
:105810007B685B685B8802FB03F30B4A82FB031225
:105820001A44D213DB17D31A1846FAF799FE024628
:105830000B4610461946FAF7FDFE03469BB2184682
:105840000837BD4680BD00BF0180008080B582B0B2
:1058500000AF78607B685B685B8A1A467B685B6830
:105860005B8802FB03F30B4A82FB03121A44D21338
:10587000DB17D31A1846FAF773FE02460B4610469A
:105880001946FAF7D7FE03469BB218460837BD46BD
:1058900080BD00BF0180008080B483B000AF78601D
:1058A0000B467B807A8813461B049B1A7A685268E1
:1058B000528893FBF2F27B685B6892B29A8100BFD8
:1058C0000C37BD465DF8047B704780B483B000AFF1
:1058D00078600B467B807A8813461B049B1A7A6893
:1058E0005268528893FBF2F27B685B6892B25A82EC
:1058F00000BF0C37BD465DF8047B704780B487B0AD
:1059000000AFBA607B600346FB810B467B730023CC
:10591000FB757B7B282B4AD0282B73DC182B39D0C6
:10592000182B6FDC082B02D0102B0DD06AE0FB89FE
:10593000482B02D10423FB7502E00523FB7500BF51
:105940007B6801221A8063E0FB8941F6583293425A
:1059500015D041F65832934214DCB3F5696F14D078
:10596000B3F5696F0EDCB3F5656F0ED0B3F5656FF7
:1059700008DCB3F5B26F02D0B3F5BA6F02D10423DD
:10598000FB7503E00523FB7500E000BF7B68022286
:105990001A803DE0FB89182B02D10423FB7502E03D
:1059A0000523FB7500BF7B6804221A8030E0BB68CA
:1059B0001B88BB82BB8A02339AB27B681A80BB68A1
:1059C0003B613B6901333B613B6901333B617B6870
:1059D0001A883B8C9A4205D97B6800221A800A23D8
:1059E000FB7515E0FB89E82B05D0E82B06DC282B9E
:1059F00001D0A82B02D10423FB7502E00523FB751F
:105A000000BF05E00723FB757B6800221A8000BFFA
:105A1000FB7D18461C37BD465DF8047B70470000CF
:105A200080B594B000AFBA607B600346FB810B4643
:105A30007B73002387F84F30002387F84E3097F8A8
:105A40004E302C2202FB03F34D4A1344BB647B7B94
:105A5000282B00F02D83282B00F37483182B00F0E3
:105A6000E081182B00F36E83082B03D0102B00F07D
:105A7000918067E3FB89B3F5E96F6FD0B3F5E96F08
:105A800075DCB3F5A16F65D0B3F5A16F6FDCB3F52D
:105A9000996F5FD0B3F5996F69DCB3F5916F41D021
:105AA000B3F5916F63DCB3F5896F53D0B3F5896FAC
:105AB0005DDCB3F5816F4DD0B3F5816F57DCB3F585
:105AC000727F47D0B3F5727F51DCC82B26D0C82B2C
:105AD0004DDC482B02D0882B04D048E0042387F803
