:020000040800F2
:100000000080002095A30008E5A300087D310008CA
:10001000E5A30008E5A30008E5A300080000000030
:10002000000000000000000000000000717F0008D8
:10003000E5A300080000000011800008758000089A
:10004000E5A30008E5A30008E5A30008E5A3000870
:10005000E5A30008E5A30008E5A30008E5A3000860
:10006000E5A30008E5A30008E5A300085D32000849
:1000700095320008E5A30008E5A30008E5A3000801
:10008000E5A3000800000000A5310008E5A3000872
:10009000E5A30008E5A30008E5A30008E5A3000820
:1000A000293200080D320008E5A30008E5A3000886
:1000B000E5A30008E5A30008E5A30008E5A3000800
:1000C000E5A30008E5A30008E5A30008E5A30008F0
:1000D000E5A3000855320008E5A30008E5A30008E1
:1000E00085310008E5A30008E5A30008E5A30008A2
:1000F000E5A30008E5A30008E5A300080000000050
:1001000000000000E5A3000800000000E5A30008CF
:10011000E5A3000800000000B14B0008E5A30008BB
:10012000E5A30008E5A30008E5A30008E5A300088F
:10013000E5A300080000000000000000E5A300089F
:10014000E5A30008E5A3000800000000000000008F
:10015000000000000000000000000000000000009F
:10016000000000000000000000000000E5A30008FF
:10017000E5A30008000000000000000000000000EF
:1001800000000000E5A300080000000000000000DF
:10019000000000000000000000000000000000005F
:1001A0000000000000000000E5A30008E5A300082F
:1001B000E5A30008E5A30008E5A30008000000008F
:1001C00000000000E5A3000800000000000000009F
:0801D000E5A30008E5A3000807
:1001E00010B5054C237833B9044B13B10448AFF371
:1001F00000800123237010BD680C00200000000067
:1002000038EE000808B5034B1BB103490348AFF3B0
:10021000008008BD000000006C0C002038EE0008D3
:1002200070B4840746D04C1E002941D0D5B2034695
:1002300002E0611EE4B30C4603F8015B9907F8D1B4
:10024000032C2ED9D5B245EA05250F2C45EA0545E4
:1002500019D9264603F11001103E0F2E41F8105C0B
:1002600041F80C5C41F8085C41F8045C01F11001B4
:10027000F2D8A4F1100121F00F0104F00F041031A5
:10028000032C0B440DD91E4621460439032946F898
:10029000045BFAD8211F21F0030104310B4404F060
:1002A00003042CB1D2B21C4403F8012BA342FBD1AE
:1002B00070BC70470C460346C2E7000070B54FF0B3
:1002C000FF0C4CF4E06C1CEA11541DBF1CEA1355E2
:1002D00094EA0C0F95EA0C0F00F0DEF82C4481EA4A
:1002E000030621EA4C5123EA4C5350EA013518BF6A
:1002F00052EA033541F4801143F4801338D0A0FB57
:1003000002CE4FF00005E1FB02E506F00042E0FB03
:1003100003E54FF00006E1FB03569CF0000F18BF09
:100320004EF0010EA4F1FF04B6F5007F64F54074B1
:1003300004D25FEA4E0E6D4146EB060642EAC62144
:1003400041EA55514FEAC52040EA5E504FEACE2EB1
:10035000B4F1FD0C88BFBCF5E06F1ED8BEF1004FB4
:1003600008BF5FEA500E50F1000041EB045170BD30
:1003700006F0004646EA010140EA020081EA030174
:10038000B4EB5C04C2BFD4EB0C0541EA045170BD70
:1003900041F480114FF0000E013C00F3AB8014F1EA
:1003A000360FDEBF002001F0004170BDC4F1000433
:1003B000203C35DA0C341BDC04F11404C4F12005B4
:1003C00000FA05F320FA04F001FA05F240EA02000F
:1003D00001F0004221F0004110EBD37021FA04F645
:1003E00042EB06015EEA430E08BF20EAD37070BDFF
:1003F000C4F10C04C4F1200500FA04F320FA05F05E
:1004000001FA04F240EA020001F0004110EBD3705F
:1004100041F100015EEA430E08BF20EAD37070BDCF
:10042000C4F1200500FA05F24EEA020E20FA04F3A8
:1004300001FA05F243EA020321FA04F001F0004157
:1004400021FA04F220EA020000EBD3705EEA430EC8
:1004500008BF20EAD37070BD94F0000F0FD101F0F7
:100460000046400041EB010111F4801F08BF013C30
:10047000F7D041EA060195F0000F18BF704703F06E
:100480000046520043EB030313F4801F08BF013DF5
:10049000F7D043EA0603704794EA0C0F0CEA1355B1
:1004A00018BF95EA0C0F0CD050EA410618BF52EA6B
:1004B0004306D1D181EA030101F000414FF0000071
:1004C00070BD50EA410606BF1046194652EA43067F
:1004D00019D094EA0C0F02D150EA013613D195EAF3
:1004E0000C0F05D152EA03361CBF104619460AD13B
:1004F00081EA030101F0004141F0FE4141F4700145
:100500004FF0000070BD41F0FE4141F4780170BD34
:1005100081F0004102E000BF83F0004330B54FEAB4
:1005200041044FEA430594EA050F08BF90EA020F21
:100530001FBF54EA000C55EA020C7FEA645C7FEAB4
:10054000655C00F0E2804FEA5454D4EB5555B8BFD7
:100550006D420CDD2C4480EA020281EA030382EA48
:10056000000083EA010180EA020281EA0303362DDA
:1005700088BF30BD11F0004F4FEA01314FF4801CAD
:100580004CEA113102D0404261EB410113F0004FBF
:100590004FEA03334CEA133302D0524263EB430376
:1005A00094EA050F00F0A780A4F10104D5F1200E14
:1005B0000DDB02FA0EFC22FA05F2801841F100016F
:1005C00003FA0EF2801843FA05F359410EE0A5F143
:1005D00020050EF1200E012A03FA0EFC28BF4CF074
:1005E000020C43FA05F3C01851EBE37101F000452A
:1005F00007D54FF0000EDCF1000C7EEB00006EEB37
:100600000101B1F5801F1BD3B1F5001F0CD34908C0
:100610005FEA30004FEA3C0C04F101044FEA445217
:1006200012F5800F80F09A80BCF1004F08BF5FEA9E
:10063000500C50F1000041EB045141EA050130BD7E
:100640005FEA4C0C404141EB0101013C28BFB1F590
:10065000801FE9D291F0000F04BF01460020B1FADB
:1006600081F308BF2033A3F10B03B3F120020CDAAE
:100670000C3208DD02F1140CC2F10C0201FA0CF08C
:1006800021FA02F10CE002F11402D8BFC2F1200CF1
:1006900001FA02F120FA0CFCDCBF41EA0C019040A7
:1006A000E41AA2BF01EB0451294330BD6FEA0404F0
:1006B0001F3C1CDA0C340EDC04F11404C4F12002DB
:1006C00020FA04F001FA02F340EA030021FA04F3ED
:1006D00045EA030130BDC4F10C04C4F1200220FA44
:1006E00002F001FA04F340EA0300294630BD21FA82
:1006F00004F0294630BD94F0000F83F4801306BF48
:1007000081F480110134013D4EE77FEA645C18BF3B
:100710007FEA655C29D094EA050F08BF90EA020FD2
:1007200005D054EA000C04BF1946104630BD91EACA
:10073000030F1EBF0021002030BD5FEA545C05D1CD
:100740004000494128BF41F0004130BD14F580040C
:100750003CBF01F5801130BD01F0004545F0FE4180
:1007600041F470014FF0000030BD7FEA645C1ABFB5
:10077000194610467FEA655C1CBF0B46024650EAEC
:10078000013406BF52EA033591EA030F41F4002118
:1007900030BD00BF90F0000F04BF0021704730B59E
:1007A0004FF4806404F132044FF000054FF0000173
:1007B00050E700BF90F0000F04BF0021704730B534
:1007C0004FF4806404F1320410F0004548BF404209
:1007D0004FF000013EE700BF42004FEAE2014FEA5E
:1007E00031014FEA02701FBF12F07F4393F07F4F39
:1007F00081F06051704732F07F4208BF704793F03C
:100800007F4F04BF41F40021704730B54FF460744E
:1008100001F0004521F000411CE700BF50EA010251
:1008200008BF704730B54FF000050AE050EA0102FA
:1008300008BF704730B511F0004502D5404261EB6A
:1008400041014FF4806404F132045FEA915C3FF4AB
:10085000D8AE4FF003025FEADC0C18BF03325FEA48
:10086000DC0C18BF033202EBDC02C2F1200300FAF9
:1008700003FC20FA02F001FA03FE40EA0E0021FA1E
:1008800002F11444BDE600BF7BB972B90029BEBFB6
:1008900000204FF0004106E008BF00281CBF6FF0A9
:1008A00000414FF0FF3000F0DBB9ADF1080C6DE90D
:1008B00004CE002909DB002B1ADB00F069F8DDF813
:1008C00004E0DDE9022304B07047404261EB4101DE
:1008D000002B1BDB00F05CF8DDF804E0DDE902230F
:1008E00004B0404261EB4101524263EB4303704765
:1008F000524263EB430300F04BF8DDF804E0DDE91E
:10090000022304B0404261EB41017047524263EB65
:10091000430300F03DF8DDF804E0DDE9022304B014
:10092000524263EB4303704707EE900AF5EEC07A3C
:10093000F1EE10FA01D400F00BB8F1EE677A08B5C9
:1009400017EE900A00F004F8404261EB410108BD47
:10095000D0B5FFF741FF0C4B002206460F46FFF7CC
:10096000ADFC00F07FF90446FFF714FF074B0022AF
:10097000FFF7A4FC02460B4630463946FFF7CCFD94
:1009800000F070F92146D0BD0000F03D0000F041BC
:100990002DE9F047089D04468E46002B4DD18A4232
:1009A000944669D9B2FA82F252B101FA02F3C2F165
:1009B000200120FA01F10CFA02FC41EA030E9440F6
:1009C0004FEA1C48210CBEFBF8F61FFA8CF708FB17
:1009D00016E341EA034306FB07F199420AD91CEBEF
:1009E000030306F1FF3080F01F81994240F21C8121
:1009F000023E63445B1AA4B2B3FBF8F008FB103369
:100A000044EA034400FB07F7A7420AD91CEB04049D
:100A100000F1FF3380F00A81A74240F2078164446D
:100A2000023840EA0640E41B00261DB1D4400023F2
:100A3000C5E900433146BDE8F0878B4209D9002D56
:100A400000F0EF800026C5E9000130463146BDE8E0
:100A5000F087B3FA83F6002E4AD18B4202D382424A
:100A600000F2F980841A61EB030301209E46002DF9
:100A7000E0D0C5E9004EDDE702B9FFDEB2FA82F24E
:100A8000002A40F09280A1EB0C014FEA1C471FFAAC
:100A90008CFE0126200CB1FBF7F307FB131140EA93
:100AA00001410EFB03F0884208D91CEB010103F160
:100AB000FF3802D2884200F2CB804346091AA4B222
:100AC000B1FBF7F007FB101144EA01440EFB00FEF6
:100AD000A64508D91CEB040400F1FF3102D2A6455B
:100AE00000F2BB800846A4EB0E0440EA03409CE7FA
:100AF000C6F12007B34022FA07FC4CEA030C20FAA7
:100B000007F401FA06F31C43F9404FEA1C4900FAC6
:100B100006F3B1FBF9F8200C1FFA8CFE09FB181143
:100B200040EA014108FB0EF0884202FA06F20BD9B6
:100B30001CEB010108F1FF3A80F08880884240F206
:100B40008580A8F102086144091AA4B2B1FBF9F04A
:100B500009FB101144EA014100FB0EFE8E4508D945
:100B60001CEB010100F1FF346CD28E456AD90238CA
:100B7000614440EA0840A0FB0294A1EB0E01A142AF
:100B8000C846A64656D353D05DB1B3EB080261EB1D
:100B90000E0101FA07F722FA06F3F1401F43C5E9F7
:100BA000007100263146BDE8F087C2F12003D8402D
:100BB0000CFA02FC21FA03F3914001434FEA1C476F
:100BC0001FFA8CFEB3FBF7F007FB10360B0C43EA61
:100BD000064300FB0EF69E4204FA02F408D91CEB11
:100BE000030300F1FF382FD29E422DD9023863440F
:100BF0009B1B89B2B3FBF7F607FB163341EA0341AF
:100C000006FB0EF38B4208D91CEB010106F1FF38FD
:100C100016D28B4214D9023E6144C91A46EA0046F4
:100C200038E72E46284605E70646E3E61846F8E686
:100C30004B45A9D2B9EB020864EB0C0E0138A3E7CF
:100C40004646EAE7204694E74046D1E7D0467BE7B0
:100C5000023B614432E7304609E76444023842E728
:100C6000704700BF4A0011D212F5001211D20DD503
:100C70006FF47873B3EB62520ED44FEAC12343F0A2
:100C8000004343EA505323FA02F070474FF000004C
:100C9000704750EA013002D14FF0FF3070474FF0FB
:100CA0000000704700F00700C0F1070CBCF1040F12
:100CB00028BF4FF0040C031D062B8CBFC31E00235E
:100CC0004FF0FF3000FA0CFC21EA0C0199409840EB
:100CD00022EA00000843704710B56030445892FA89
:100CE000A2FCBCFA8CFC0CF01F0C4FF4007E0EFA38
:100CF0000CFC24EA0C0C92FAA2F2B2FA82F202F094
:100D00001F0203FA02F242EA0C02425010BD000038
:100D100000B583B03A4A136823F00F0343F004038D
:100D20001360136803F00F03042BFAD1354AD2F88D
:100D3000803023F48073C2F8803002F5D03213681B
:100D400043F480731360136813F4806FFBD02E4B51
:100D50005A6822F0FE4242F080425A60D9682B4A1B
:100D60000A4042F4AA4242F03202DA60DA682849C4
:100D70001140284A0A43DA60DA6842F08072DA6089
:100D8000DA6842F48032DA601A6842F080721A60DF
:100D90001A46136813F0007FFBD01B4A936843F098
:100DA00003039360936823F0F00343F080039360A0
:100DB000936803F00C030C2BFAD155230193019B8C
:100DC0002BB1019B013B0193019B002BF9D10E4BF1
:100DD0009A6822F0F0029A609A6822F4E0629A60BF
:100DE0009A6822F460529A600B4804F0E3FA0020FB
:100DF00003F008FF10B903B05DF804FB72B6FEE71C
:100E00000020024000700040001002400C80FFF9FA
:100E10000C80FF073255004080FE210A2DE98048F2
:100E2000CBB004F0F3FCFFF773FF00232D932E9358
:100E300034933593369337933893399303F1804342
:100E400003F50433DA6C42F00402DA64DA6C02F07F
:100E500004021992199ADA6C42F00102DA64DA6C2F
:100E600002F001021A921A9ADA6C42F00202DA6473
:100E7000DA6C02F002021B921B9ADA6C42F0080252
:100E8000DA64DA6C02F008021C921C9ADA6C42F006
:100E90001002DA64DB6C03F010031D931D9B884B7A
:100EA00080229A61874B596921F0F001F02393FA6F
:100EB000A3F3B3FA83F303F01F03022202FA03F34E
:100EC0000B43804A53614FF400542C9401238DF856
:100ED000B8308DF8BA302CA804F072FA7A4BDA6880
:100EE00094FAA4F3B3FA83F35B00032101FA03F34A
:100EF00022EA030294FAA4F17349CA600A6894FAD8
:100F0000A4F3B3FA83F35B00032505FA03F322EAA3
:100F1000030394FAA4F20B608026349601273597D8
:100F20000024369437943894DFF8949134A94846D5
:100F300004F016FB4FF4804334933594389734A96A
:100F4000484604F00DFB4FF40048CDF8D0803594AE
:100F5000389734A9484604F003FB5C4B9A6C42F086
:100F600004029A649A6C02F004021792179A9A6C1F
:100F70003A439A649A6C3A401892189A1E941F94B5
:100F800020942C942D942E942F9430943194219469
:100F90002294239424942694279428942994369474
:100FA000379438943994D3F8882022F0405242F094
:100FB0008052C3F88820DA6C42F40052DA64DA6CAA
:100FC00002F400521592159ADA6C3A43DA64DB6C3B
:100FD0003B401693169B3497359534A94FF09040BB
:100FE00004F0BEFA042334933595389434A94FF0B5
:100FF000904004F0B5FA1E94CDF87C8020941EA990
:101000004FF0A04004F098FB2C942D942E942F9434
:10101000309431942CA94FF0A04004F0A5FB4FF080
:10102000A045D5F8C03023F47F5323F03F03C5F823
:10103000C0302B6923F480332B612B6923F4806348
:1010400023F003032B612194229421A9204804F06A
:101050004BFB269627942894299426A9284604F029
:10106000B1FBEB6823F0004323F4001343F000438B
:10107000EB60EB6C23F4C0733343EB64AB6823F099
:10108000204323F03F03AB60AB6823F0104323F011
:101090003F0343F08053AB600E4B1A6892090E4B2E
:1010A000A3FB0232920902EB820292000B4BA3FBDC
:1010B0000213DB08092A13D9013BFDD110E000BF60
:1010C00000100048000001400008004800100240E5
:1010D00000030050700B0020632D3E05CDCCCCCC1E
:1010E0004FF0A043DA6C22F4785242F4C062DA6422
:1010F0005A6922F4606242F400725A61D3F8B02057
:1011000022F00802C3F8B0201A6B22F4F86242F011
:1011100040021A635A6922F0380242F020025A61F2
:10112000D3F8B02022F00202C3F8B02000242194AA
:10113000229423942C942D942E942F9430943194B3
:101140002694279428942994369437943894399483
:1011500003F1704303F50433D3F8882022F04052A2
:1011600042F08052C3F88820DA6C42F40052DA640C
:10117000DA6C02F400521392139ADA6C42F0010214
:10118000DA64DA6C02F001021492149ADA6C42F01A
:101190000402DA64DB6C03F004031E931E9B4023FD
:1011A00034930325359534A94FF0904004F0D8F9D5
:1011B000102334933595389434A9A94804F0D0F914
:1011C00021944FF4004322932394A64D21A928464D
:1011D00004F0B2FA2C942D942E942F9430943194E0
:1011E0002CA9284604F0C0FAD5F8C03023F47F5368
:1011F00023F03F03C5F8C0302B6923F480332B6103
:101200002B6923F4806323F003032B61802326934F
:1012100027942894299426A9284604F0D3FAEB6849
:1012200023F0004323F4001343F00043EB60EB6C26
:1012300023F4C07343F08003EB64AB6823F02043D6
:1012400023F03F03AB60AB6823F0104323F03F0370
:1012500043F08053AB60844B1A689209834BA3FB25
:101260000232920902EB82029200814BA3FB02132D
:10127000DB08092A01D9013BFDD17A4BDA6C22F453
:10128000785242F4C062DA644FF0A042D2F81411EE
:1012900021F4606141F40071C2F81411D3F8B01068
:1012A00021F00801C3F8B010D2F8301121F4F86130
:1012B00041F4A071C2F83011D2F8141121F4603158
:1012C00041F40031C2F81411D3F8B02022F020020A
:1012D000C3F8B02000242C942D942E942F94309495
:1012E0003694379438943994624BDA6C42F00102A8
:1012F000DA64DB6C03F001031293129B0223349334
:101300000323359334A94FF0904004F029F92C942D
:1013100040232D932E942F9430942CA9564804F0FA
:1013200035FC1194504B1B68544AA2FB0323DB0C81
:10133000C82202FB03F31193119B2BB1119B013BBC
:101340001193119B002BF9D14D4B5A6822F40012D6
:101350005A601A6822F400121A6000242C942D940A
:101360002E942F943094369437943894399403F50E
:101370008633DA6C42F00102DA64DB6C03F00103BD
:101380001093109B802334930323359334A94FF09B
:10139000904004F0E5F82C9440232D932E942F9444
:1013A00030942CA9374804F0F1FB0F942E4B1B68A6
:1013B000324AA2FB0323DB0CC82202FB03F30F9388
:1013C0000F9B2BB10F9B013B0F930F9B002BF9D170
:1013D0002B4B5A6822F480025A601A6822F4800269
:1013E0001A6000242C942D942E942F9430943694CB
:1013F00037943894399403F58633DA6C42F002025C
:10140000DA64DB6C03F002030E930E9B012334932A
:101410000323359334A91C4804F0A2F82C944023EC
:101420002D932E942F9430942CA9184804F0AEFBE1
:101430000D940D4B1B68114AA2FB0323DB0CC82241
:1014400002FB03F30D930D9B2BB10D9B013B0D9301
:101450000D9B002BF9D10A4B5A6822F0804217E00D
:101460000008004800010050700B0020632D3E056D
:10147000CDCCCCCC001002400002014083DE1B43E7
:101480000004014004020140000400480C02014035
:101490005A601A6822F080421A60AE4DAB6C43F07D
:1014A0000803AB64AB6C03F008030C930C9B0024A3
:1014B0003494359436943794389439943A94EB6C48
:1014C00043F48023EB64EB6C03F480230B930B9BBE
:1014D000A14BD86822462146C0F30220FFF7E2FB69
:1014E0000301DBB29D4A82F836334FF48003536028
:1014F0009B4FFB6B23F40073FB6334943594369459
:10150000022638964FF00109CDF8E4903A9434AAB7
:101510009449384604F090FC3B6823F002033B609A
:10152000FB6B23F48073FB63FB6B23F00073FB63A3
:1015300034AA8D49384604F07FFC3B6823F400331D
:101540003B60FB6B23F08073FB63349435943694DB
:101550003794389439943A942C942D942E942F9453
:1015600030943194D5F8883023F44033C5F888306E
:10157000EB6C43F00403EB64EB6C03F0040309939E
:10158000099B4FF480732C932D962E94CDF8BC902C
:10159000309408273197DFF8E4A12CA9504603F0D6
:1015A000DFFF4FF400732C932D962E94CDF8BC9052
:1015B000309431972CA9504603F0D2FFAB6D43F025
:1015C0008043AB65AB6D03F080430A930A9B349470
:1015D000664B359336943794389439943A94DFF8BF
:1015E000A08134A9404604F081FCD8F8043043F0CF
:1015F0000073C8F80430D8F80C3023F4FF6323F0EC
:101600000603C8F80C30D8F80C3023F40043C8F8AF
:101610000C30D8F8003023F40023C8F80030D8F894
:10162000003023F40033C8F80030514A536843F4C3
:10163000800353602C942D942E942F9436943794D9
:1016400038943994EB6C43EA0903EB64EB6C03EADE
:1016500009030893089B34964FF00308CDF8D48013
:1016600034A94FF0904003F07BFF04233493CDF86E
:10167000D480389434A94FF0904003F071FF349730
:10168000CDF8D480389434A94FF0904003F068FF2F
:101690002C942D942E942F94364F2CA9384604F078
:1016A0005DFCBB6923F03803BB613B6823F48073A6
:1016B0003B603B6823F010033B602C942D942E94E8
:1016C0002F943694379438943994EB6C43EA090399
:1016D000EB64EB6C03EA09030593059BEB6C43F0A9
:1016E0000403EB64EB6C03F004030693069BEB6CC2
:1016F0003343EB64EB6C33400793079B40233493F5
:10170000CDF8D48034A94FF0904003F029FF802316
:101710003493CDF8D480389434A94FF0904003F03E
:101720001FFF4FF0200BCDF8D0B0CDF8D480389407
:1017300034A9504603F014FFCDF8D090CDF8D480F2
:10174000389434A90C4803F00BFF2C942D942E945C
:1017500018E000BF0010024000ED00E000E100E0F2
:101760000010005001001102F20042357221800089
:101770000000014000030140000400480008004848
:1017800000780040CDF8BCB02CA9BF4804F0E6FBBF
:10179000FB6923F03803FB617B6823F480737B6073
:1017A0007B6823F010037B6021945A4621462CA8C5
:1017B0000DF09CFA3022214634A80DF097FA2694B9
:1017C0002794289429942A942B942B6E43F4006335
:1017D0002B662B6E03F400630393039BCDF888B054
:1017E00041F29A0323934FF480732493CDF894909D
:1017F00007F5245721A9384604F0F0FD3B6823F093
:1018000080033B60DFF88CA2DFF88C82D8F8183CAC
:1018100043F00803C8F8183C60232C932D942E94B1
:1018200040F64D032F9330943194329433942CAA84
:101830004946384604F052FED8F8183C23F0040319
:10184000C8F8183CD8F8183C43F40063C8F8183CB2
:101850002CAA1021384604F041FED8F8183C23F495
:101860008063C8F8183CDAF8043043F00803CAF87B
:1018700004302CAA4FF48071384604F02FFEDAF8B9
:10188000043023F00403CAF80430DAF8043043F4D7
:101890000063CAF8043070232C9341F299032F930C
:1018A0002CAA4FF48051384604F018FEDAF80430C0
:1018B00023F48063CAF804307B6823F0007323F0BC
:1018C000700343F070037B607B6823F470037B60DC
:1018D000BB6823F08003BB6023463246214638466E
:1018E000FFF7FAF9D8F8603C3343C8F8603C234668
:1018F000042221463846FFF7EFF9D8F8603C43F060
:101900000403C8F8603C2346102221463846FFF7FE
:10191000E3F9D8F8603C43F01003C8F8603C4FF49A
:10192000006334934FF48068CDF8D48036943F231D
:101930008DF8DC304FF4805AADF8DEA04FF400593A
:10194000CDF8E0904FF4403339933A943B944FF004
:1019500000733C934FF440133D933E943F9434A95D
:10196000384604F05DFFEB6C43F01003EB64EB6C66
:1019700003F010030493049B4FF48073269327967F
:10198000289629942A962B96404F26A9384603F08C
:10199000E7FD4FF4007326932796289629942A96FC
:1019A0002B9626A9384603F0DBFDCDF898802796C4
:1019B000289629942A962B9626A9384603F0D0FD1E
:1019C0004FF4006326932796289629942A962B96FF
:1019D00026A9384603F0C4FDCDF898A0279628968E
:1019E00029942A962B9626A9384603F0B9FDCDF8FE
:1019F00098902796289629942A962B9626A93846B9
:101A000003F0AEFD5A46214634A80DF06FF92E942E
:101A10002F943094D5F8883023F00303C5F888302C
:101A20002B6E43F480432B662B6E03F4804321938B
:101A3000219BEB6C43F00103EB64EB6C03F00103BF
:101A40002693269B4FF400732C932D9607253195F2
:101A50002CA94FF0904003F083FDCDF8B0802D9677
:101A60002E942F94309431952CA94FF0904003F090
:101A700077FD074BD3F8002822F0FF0242F018024E
:101A8000C3F800280AE000BF04030140001000482A
:101A900000000240182C0140002001409A6822F406
:101AA000804222F010029A609A6822F440529A60B2
:101AB0009A6822F020029A609A6822F040029A60A6
:101AC0009A6842F080029A609A6822F440729A60A2
:101AD0009A6822F440629A60D3F8042822F0FF0248
:101AE00042F01902C3F80428DA6922F4804222F095
:101AF000100242F01002DA61DA6922F44052DA612F
:101B0000DA6922F02002DA61DA6922F04002DA6151
:101B1000DA6942F08002DA61DA6922F44072DA614D
:101B2000DA6922F44062DA6134944FF4E133359398
:101B30003694379438940C2339933A943B9434A9CF
:101B4000954804F0A9FE954A52E8003F23F060430F
:101B500042E800310029F7D152E8003F23F06063EA
:101B600042E800310029F7D18B4B1A6822F000526D
:101B70001A605A6822F490425A609A6822F02A0247
:101B80009A601A6842F001021A601A46D36913F487
:101B9000001FFBD0D36913F4800FF7D02822002157
:101BA00034A80DF0A3F800242F9430947C4BDA6C09
:101BB00042F00202DA64DA6C02F002020192019A47
:101BC0001A6E42F480521A661B6E03F4805302931D
:101BD000029B38232C9302252D952E9505263196B0
:101BE0002CA9704803F0BCFC4FF00409CDF8B0906C
:101BF00001272D972E952F943094DFF8C8812CA9BA
:101C0000404603F0ADFCC8F8189034944FF482734A
:101C100035934FF4E0633693379538974FF400735C
:101C2000399310233A933B943C945F4D34A9284652
:101C300004F0B6FE5D4BD3F8082822F0FF0242F014
:101C40000B02C3F808281A6B22F4804222F010021B
:101C500042F010021A631A6B22F440521A631A6B94
:101C600022F020021A631A6B22F040021A631A6BE8
:101C700042F080021A631A6B22F440721A631A6BE4
:101C800022F440621A63D3F80C2822F0FF0242F0DB
:101C90000A02C3F80C285A6C22F4804222F0100287
:101CA0005A645A6C22F440525A645A6C22F0200250
:101CB0005A645A6C22F040025A645A6C42F0800214
:101CC0005A645A6C22F440725A645A6C22F440628C
:101CD0005A646B6843F002036B606B683B436B6054
:101CE0002B6843F040032B6000F07AF8304FF8681F
:101CF00022460821C0F30220FEF7D4FF00FA09F3C0
:101D0000DBB22C4D85F8253320236B60F868224622
:101D10000821C0F30220FEF7C5FF00FA09F3DBB289
:101D200085F80B334FF400632B60F8682246314688
:101D3000C0F30220FEF7B6FF00FA09F3DBB285F824
:101D40001933F86822460721C0F30220FEF7AAFFE4
:101D500000FA09F3DBB285F812334FF480232B60CD
:101D6000154D45AE2F460FCF0FC63B683360214659
:101D700045A805F012FF114B186040AE14350FCD89
:101D80000FC62B683360214640A805F006FF0C4BB8
:101D9000186005F0FDFEFEE70038014008380140FC
:101DA00000100240000400480030014000000240E2
:101DB00000ED00E000E100E050EE0008840C00209F
:101DC000880C0020000C004808B50268034B9A42BA
:101DD00000D008BD03F030FDFBE700BF001000405D
:101DE00008B5034800F0B2F800F0F4F908BD00BFF0
:101DF0008C0C002008B503F02BFD034BA3FB003037
:101E0000C00903F0AFFE08BDD34D6210224A9368AB
:101E100023F4401323F0700343F01003936093689E
:101E200023F4803323F0070343F0060393601B4B36
:101E30009B6D13F0010F16D182B0184B9A6D42F0D2
:101E400001029A659A6D02F001020192019A4FF027
:101E500080414A6942F001024A619A6D22F0010212
:101E60009A6502B070474FF0804359685A6822F073
:101E7000007222F0700242F020025A605A6942F069
:101E800001025A615868064A0A4020F0007121F0A8
:101E900070010A435A607047002C01400010024054
:101EA0007000000210B502F1010E4FEA5E0E4FEA1B
:101EB0004E1E6FF0020202614FF0000C14461A78B9
:101EC000D2B20F2A10D8026912F0020FF7D00461C3
:101ED0000CF1010C1FFA8CFCE645F0D81A78D2B24E
:101EE0000F2AECD801230B8010BD000008B5024B6F
:101EF000186801F08DF808BD8C0C002008B5024B65
:101F0000186801F09DF808BD8C0C002008B5024B44
:101F1000186801F0B2F808BD8C0C002008B5024B1F
:101F2000186801F06FF808BD8C0C002010B582B065
:101F3000049C0194009313460A46014602480BF0A4
:101F40005FFC02B010BD00BF04030020002841D098
:101F5000F0B583B0204E00273770204C046000F0AD
:101F600021FA1F4806F012FD1E4807F01DF91E4811
:101F700000F0F0FE1D4806F0C4FD1D4800F0EAFE2A
:101F80001C4806F0E3FC1C48A06202F059FA1B4C06
:101F9000204606F041F9204606F03CFC03238DF86C
:101FA000003001258DF801508DF80270009920460F
:101FB00006F034FB8DF804508DF805500199204649
:101FC00006F0C3FB204606F099FA02F0EFFD3570EB
:101FD00003B0F0BD704700BF1C1F00204000002070
:101FE000640100202C0A00201C0A0020D4090020D3
:101FF000F0090020000A0020C00C0020BC0C0020CA
:1020000038B505460C46074800F0FCFF08B1002033
:1020100038BD044800F0FCFF0028F9D0024BDD82F7
:102020001C83F5E740000020900C002038B5234BBE
:102030001B78BBB1224B1B88ABB1013B204A1380FC
:10204000204B1B889BB223B11E4A1388013B9BB2D5
:1020500013801D4B1B889BB223B11B4A1388013B85
:102060009BB2138038BD194C0121204602F01CFAA6
:1020700000F0C6FA0121204602F022FA02F097FD94
:10208000134C214651F80C0B83689847606030B1BF
:10209000214651F8080B03680A22984718B9084BE3
:1020A00001221A80CCE7204602F0F0F8206845684B
:1020B0000A23E289A168A847F1E700BF1C1F00209E
:1020C000201F00201E1F0020221F0020C00C002007
:1020D000640A0020014B1880704700BF1E1F0020BB
:1020E000034B188880B2B0FA80F04009704700BFF7
:1020F0001E1F0020014B1880704700BF221F0020C8
:10210000034B188880B2B0FA80F04009704700BFD6
:10211000221F002008B5064B5A68064B9A60002023
:1021200000F014FD044A136801331360002008BD59
:10213000001000E0C00C00200462002008B5054B30
:102140001B78DBB2012B00D008BD03480BF038FC34
:10215000FAE700BF1C1F00200403002008B5074851
:102160000BF0E2FB06480AF095FE002000F0D4F8E0
:1021700000228021034800F0FEFE08BD0403002079
:102180006C0000204000002008B503F0F3F8642044
:1021900005F0BAFA1E22002141F28830FFF730FF25
:1021A0000124204605F0B0FAFFF740FFF9E708B533
:1021B0000124204605F0A8FAFFF7C0FFF9E708B5AB
:1021C000FFF7ACFE10B9FFF791FE08BDFFF796FED2
:1021D000FBE7000030B490B0444A454BD361102176
:1021E000D161D361D3690F930F9B4FF090434FF0B0
:1021F0000111D9610120D861D961DC690E940E9C6E
:102200003C4CDC618025DD61DC61DC690D940D9C5A
:10221000394CDC610225DD61DC61DC690C940C9CCD
:10222000364CDC610825DD61DC61DC690B940B9CBC
:10223000334CDC610425DD61DC61DC690A940A9CB5
:10224000304CDC614025DD61DC61DB690993099B71
:102250002D4BD3612024D461D361D3690893089BAB
:102260002A4BD961D861D961DB690793079B284B59
:102270004FF48132DA614FF40071D961DA61DA69C1
:102280000692069A4FF48432DA614FF40061D96104
:10229000DA61DA690592059A4FF48232DA614FF415
:1022A0008061D961DA61DA690492049A4FF490325C
:1022B000DA614FF40051D961DA61DA690392039A65
:1022C0004FF48832DA614FF48051D961DA61DA690A
:1022D0000292029A0F4ADA614FF48071D961DA6191
:1022E000DB690193019B10B030BC704700080048C7
:1022F0001000010080000100020001000800010040
:10230000040001004000010020000100000400481A
:10231000001000480001010038B505461A49262280
:1023200000FB02F28B1800248C525C809C80DC80C5
:102330009C81DC811C825C82DC83DC821C835C836C
:102340009C831C842146114B53F8200006F032FB7D
:1023500021460F4B53F8250006F02CFB0D4B53F88C
:10236000250006F06CFD0C4B53F8250000F0A4FC92
:102370000A4B53F8250008B106F06EFA29460848C2
:1023800002F082F838BD00BF900C0020CC0900207C
:10239000C8090020D0090020F40C0020C00900204A
:1023A000C00C00202DE9F04F85B0DFF85C91464865
:1023B000C9F8000007F09AFAFFF728FD434F3846A6
:1023C00006F0E4FA424E304606F008FE414D324631
:1023D0003946286806F01FFDD9F8003000933E4BBF
:1023E0003E4A29683E4806F011FC3E4806F0CEFA07
:1023F0003D4806F0CBFA3D4B1B68DFF81081C3F86F
:102400000C803B4C9C60DFF808B1DFF808A1DBF8DA
:102410000030DAF8002041463648006806F00FFA2E
:102420003548364B186006F070FB3548D9F8003057
:102430000360C0F804808460DFF8DC80C0F80C80A2
:10244000264B03612F4B4361DBF800308361DAF8E0
:102450000030C361224B03624662DFF8C0B0C0F8AF
:1024600028B0DFF8BC90C0F82C904FF0000AC0F8FC
:1024700030A00BF037F9C9F80060C9F80440C9F87A
:102480000870C9F80CB048460AF0A0FC5046FFF7A7
:1024900043FF012384F82430286806F057FD20828A
:1024A000C0F30F406082286806F050FDC0F30F4073
:1024B000A082286806F04AFD524601B2404600F06C
:1024C0004FFD05B0BDE8F08FA001002064010020A1
:1024D00064080020D0090020500800202C0A0020A9
:1024E0008C020020380100200C010020C4090020CB
:1024F000900C0020C009002044020020B80C0020ED
:102500000403002004000020F40C0020D409002063
:10251000CC090020C8090020400000208C090020C0
:102520006C00002010B504460C4B53F8200007F057
:102530009CF80B480BF0F8F90A480AF0ABFC20466F
:10254000FFF7EAFE4FF44870FFF7D4FD06482C234E
:1025500003FB04040823E37710BD00BFF40C002044
:10256000040300206C00002040000020FF2807D05A
:1025700008B5044B53F8200008B106F0C3F908BDB4
:10258000704700BFC009002030B583B0044672B662
:10259000184B262202FB003318690190B3F9105042
:1025A00062B693F824305BB172B6ADF804501148AE
:1025B000262303FB04040198206162B603B030BDFA
:1025C0000D4B53F8240006F099FC0546094B2622D2
:1025D00002FB0433D883094B53F824000028E3D0CE
:1025E000ADF80450044B53F82420019906F038F953
:1025F000DAE700BF900C0020D0090020C0090020BD
:102600002DE9F04F83B0AB4800F000FD002840F00A
:102610007D82A84BDB7F142B00F27B82DFE813F076
:102620001500790279027902920179021902790280
:10263000310279024C02430279027902790279026D
:10264000620129017902DF0150029A4B9B7F03F05E
:10265000FD03012B40F05D82DFF858A2504600F0E8
:1026600028FD0146944806F0FFFADFF87082002743
:10267000C8F80070DFF86892C9F800708F4E3046D5
:1026800005F03CFF0421304605F042FF642005F0D0
:102690003BF84FF0A045AB6823F0004323F03F0325
:1026A00043F00803AB60864A936823F0004323F0AD
:1026B0003F0343F0080393606B6843F040036B6093
:1026C000804C636823F0007323F0700343F07003C1
:1026D0006360DFF804B2DBF800000123A0F860308B
:1026E000394600F0F1FADBF8000006F068FF14202C
:1026F000FFF7F0FC636823F0007323F0700343F0EE
:1027000070036360504600F0D4FC01466A4806F04E
:10271000ABFA236A43F4AA6343F0050323626A4BCE
:10272000D3F8182C22F4803222F0730242F06002B7
:10273000C3F8182CD3F8182C22F0807222F4E64249
:1027400042F4C042C3F8182C60494A6822F480322F
:1027500022F0730242F060024A60626C22F0FF02D3
:1027600042F032026264D3F8182C42F00802C3F837
:10277000182CD3F8182C42F40062C3F8182C4B68BC
:1027800043F008034B6064236363A363E3634FF484
:102790007A7004F0B9FF636823F0007323F07003CC
:1027A00043F0700363606B6843F040036B606368E1
:1027B00023F0007323F0700343F070036360EB6C4D
:1027C00023F4FE7343F08003EB64EB6C23F4C073DB
:1027D00043F08003EB64636C43F480636364636C75
:1027E00043F400436364304605F088FE636823F0D9
:1027F000007323F0700343F0700363604FF47A704A
:1028000004F082FF324AB2F900305B42C8F800306F
:10281000B2F902305B42C9F800302E4F42F2107616
:1028200008F052FE636C43F4004363644FF0010808
:10283000C7F80080636823F0007323F0700343F04F
:1028400070036360304604F05FFF00253D60636CF9
:1028500023F400436364304604F056FF6563A563C8
:10286000E563404604F050FF636C43F40043636447
:10287000D6E7104B9B7F052B0FD00121164B186814
:1028800000F022FA002800F044810A4B9B7F032BC2
:1028900007D0084B1422DA773BE10020FFF742FE15
:1028A00037E10020FFF738FD024B00229A77DA77F4
:1028B0002FE100BF400000208C020020BC0C002053
:1028C00000010050002C014000200140182C014064
:1028D000900C00202C1F0020F40C0020241F00204E
:1028E000281F00208E4B9B7F052B27D0FFF7F8FB7E
:1028F000002800F00E818B4C206806F0B6FE8A4B53
:10290000012283F824208949894B186806F095FA3A
:10291000884806F030FB206800F0C4F90020FFF77B
:10292000FBFC85480BF014F8206800F0C9F97C4BDB
:102930000422DA77206800F0C3F9EAE00020FFF70C
:10294000F1FDE6E0764B9B7F052B3AD07B4806F005
:10295000D5F9002839D1754D0DF10201284606F050
:1029600027FC744E0DF10201304606F06FFB044661
:102970006B4800F09EFB41B2304606F0FCFB21465E
:10298000284606F0A1FC002C00F0C380664DB6F985
:102990000410686800F092FA0190694C206806F013
:1029A000B4F80022B5F91010206806F0EBF81922EF
:1029B000BDF90410206806F0E5F8594B1322DA77C8
:1029C000A7E00020FFF7AEFDA3E0594B186806F022
:1029D00095FA554BB3F9142018825A82BBE7504B35
:1029E0009B7F052B31D0514D01A9284606F0E0FB15
:1029F0000446284606F07AFC14B9002800F08980C5
:102A0000494BB3F910504F4C204605F0DBFF01B2A3
:102A100005FB01F1204605F0CDFF4B480AF03EFED4
:102A2000434C4449206806F008FA0020FFF79EFD59
:102A30000020FFF7A9FD206806F095FA384C2046E3
:102A400000F0A2FA0623E37763E00020FFF76AFDB7
:102A50005FE0334B9B7F052B0FD0314C204600F0BD
:102A600093FA0020FFF790FD00222021204600F07D
:102A700082FA35480AF012FA4BE00020FFF752FDC7
:102A800047E0FFF73DFB002843D0284C2146284B68
:102A9000186806F0D2F9204606F070FB204B0022A1
:102AA0009A77DA7735E01E4B9B7F022B31D11C4B96
:102AB00000229A77DA772CE0194B0B22DA7728E09C
:102AC000174B9B7F052B1DD01B480BF0EFFD00BB68
:102AD000154B012283F824201449154B186806F081
:102AE000ACF9144806F047FA0020FFF715FC12482D
:102AF0000AF02EFF0B4B186800F0E2F8084B042296
:102B0000DA7706E00020FFF70DFD02E0044B0A2211
:102B1000DA7709480BF060F903B0BDE8F08F00BF29
:102B200040000020F40C0020900C00202C0A002013
:102B3000D009002064080020040300208C0200203B
:102B4000B80C0020640100206C00002010B586B095
:102B5000002305930493039302930193444BDB7F7B
:102B6000132B40D04FF0A043D3F88020414B1B687B
:102B7000A3EB12131BB2404AD2F880103F4A1268EE
:102B8000A2EB111212B23E4C2380628007EE902A13
:102B9000B8EEE71A07EE903AF8EEE70A394B93EDF4
:102BA000000A01A902A808F011FCDDED027AFDEE91
:102BB000E77A17EE903AA381DDED017AFDEEE77A30
:102BC00017EE903AE381304B1B68012B18D02F4A47
:102BD000536823F0007323F0700343F070035360D5
:102BE000002006B010BD2A4B186805F0ACFF002885
:102BF000B8D1274B186805F090FF214B1882B1E738
:102C0000204C03AB04AA05A92046DFED220A9FED64
:102C1000220A08F07BFBDFED216A9DED057A27EEA5
:102C2000267ABCEEC77A194B83ED0D7A9DED047AB6
:102C300027EE267ABCEEC77A83ED0E7ADDED037AB5
:102C400067EEA67AFCEEE77AC3ED0F7A5A6C42F48F
:102C500080625A645A6C42F400425A64D4ED007A9D
:102C60009FED0F7A77EE877AC4ED007AAFE700BF69
:102C700040000020241F002000010050281F0020D9
:102C8000900C0020301F00202C1F0020002C014041
:102C9000B80C002000000000CDCCCC3D00D0844515
:102CA0000AD7233C0023A0F86830A0F86A30A0F8C7
:102CB0006C3083634363704708B54368984708BD29
:102CC00008B58368984708BD10B5044619B10129B5
:102CD00008D0002010BDFFF7EFFFE36820469847BB
:102CE0000120F7E7B0F8603043B1013B9BB2A0F898
:102CF00060302BB9C36898470120EBE70120E9E772
:102D00000020E7E7034690F88120A2B1002280F876
:102D10008120022093F8802022B140F04000002260
:102D200083F8802093F8822022B140F48060002252
:102D300083F8822070470020ECE708B5C369984704
:102D400008BD08B5036A984708BD08B5836A984767
:102D500008BD000070B54B490023FF2406E0042C99
:102D600088BF1C460133DBB2042B7BD051F8042B07
:102D7000002AF4D092F804E090F804C0E645F1D1BE
:102D8000156802689542EDD1032B69D81A463D4972
:102D900041F823003C49002441F8334001688C6825
:102DA00014F0010F2CD14C6824F004044C6001682D
:102DB00004240C600468616821F0200161600168EE
:102DC00020240C600468A16821F0404121F03F01FB
:102DD00041F00041A1600468A1680029FCDB216882
:102DE00011F0010F0CD1A16821F0004121F03F0149
:102DF00041F00101A1600468216811F0010FF2D0D7
:102E0000224902EB4204650001EB44044FF0000C40
:102E100001F805C06371237101680A6B22F00F028B
:102E20000A630468017909291ED801EB41058A0665
:102E300042EA0552012505FA01F10A43D50D05F0D4
:102E4000040514342959C2F304524FF0070C0CFA4C
:102E500002FC21EA0C01866806FA02F20A432A51B2
:102E6000037370BD23468FE701EB4102A2F11E05FB
:102E700001228A4042EA055242EA816242F000722F
:102E8000DCE700BF6C1F0020341F0020541F00200F
:102E900082B0094B4FF060121A6000F1FF4000F55C
:102EA000FE0058609B6800209AB262F30F001B0C72
:102EB00063F31F4002B07047000C024030B585B08C
:102EC000019004B205140846FFF7E2FF03B20214B2
:102ED00003FB04F002FB1500B0F1804F05DAC113CB
:102EE00011F5004F14DB09B201E047F6FF711248FB
:102EF0008142B8BF014605FB03F002FB0400C31387
:102F0000B0F1804F06DA13F5004F12DB1BB203E07D
:102F10000A49ECE747F6FF73074A9342B8BF1346E6
:102F200000208AB262F30F009BB263F31F4005B02A
:102F300030BD024BF0E700BF0180FFFF0080FFFFC4
:102F400082B08DED010A019802B07047012303732E
:102F5000C181828380F82430032380F825307047B4
:102F60000223037301828283012380F82430042327
:102F700080F825307047038C0B4323EA0203038457
:102F8000438C19434184704790F82430012B00D0C2
:102F9000704710B50446037B022B18D0032B25D0B5
:102FA000012B03D0032384F824302AE04368002255
:102FB00083F824200321006805F04EFFA28BB4F9AA
:102FC0000E10206805F04CFF0028EBD016E0436897
:102FD000002283F824200421006805F03DFFA28B25
:102FE000B4F91010206805F03BFFEDE743680122BB
:102FF00083F824204368D0F812201A61022384F851
:10300000243010BDC07F7047408C7047008C7047E3
:1030100010B50446FFF7F6FF08B1002010BD2046AA
:10302000FFF7F2FF08B10020F8E72046FFF7EEFFB8
:1030300020B90120A07784F82400EFE70020EDE715
:1030400038B50546FFF7DEFF50B1B0F10C0418BFEC
:1030500001242846FFF7D8FF20B10024204638BDC0
:103060000024F6E72846FFF7D1FF20B9002CF5D061
:103070000523AB77F2E70024F0E710B50446FFF72D
:10308000C1FF0B2801D0002010BD2046FFF7BEFF76
:1030900028B9002363840223A3770120F4E70020EA
:1030A000F2E7438C008C43EA0040704790F825001B
:1030B0007047037B022B0DD0032B13D0012B01D0C3
:1030C00001207047B0F90E30002BACBF01204FF04B
:1030D000FF307047B0F91030002BACBF01204FF02B
:1030E000FF307047B0F91230002BACBF01204FF019
:1030F000FF307047B0F90E007047808B704703684F
:103100000022DA609A61704708B50368586905F0D3
:103110003FFE08BD08B5006805F09BFE08BD82B003
:103120004368D3F81600002382B262F30F03000C49
:1031300060F31F43184602B0704782B04368D3F86B
:103140001A00002382B262F30F03000C60F31F43E6
:10315000184602B070474368B3F91E00704710B5B7
:103160004468006805F0F2FE2082C0F30F406082E0
:1031700010BD08B5806A01F087F908BD08B5FEF7F3
:10318000EDFFFEE708B5064B5B6913F4005F00D165
:1031900008BD034B4FF400525A61FFF710F8F7E7F0
:1031A0000004014038B54FF0A04440232360154D82
:1031B0002B60FEF7AFFF4FF4D063EB64AB6823F0F6
:1031C000004323F03F0343F00803AB60E36C23F4B8
:1031D000785343F4C063E364E36C23F4FE7343F079
:1031E0008003E364E36C23F4C07343F08003E3647F
:1031F000054A536823F0007323F0700343F0700313
:10320000536038BD00010050002C014008B5044B4C
:103210006FF001021A61034806F00AFF08BD00BF03
:10322000002C0140A0010020094B1B6913F0800F06
:1032300003D0074B6FF080021A61054B1B6913F432
:10324000807F03D0024B6FF480721A61704700BF19
:10325000002C014008B501F0B1FD08BD0C4B1B6806
:1032600013F0040F02D00A4B04225A60084B1B686B
:1032700013F0020F02D0064B02225A60044B1B6867
:1032800013F0080F02D0024B08225A60704700BFAB
:10329000000002400D4B1B6813F0200F09D00B4BB0
:1032A00020225A60DA6922F00102DA61084B00221A
:1032B0001A70064B1B6813F0800F06D0034B802258
:1032C0005A60DA6922F00102DA61704700000240B8
:1032D000C91F002018293CD011D8082923D0102953
:1032E00042D1B0F5656F30D024D9B0F5696F2ED0DA
:1032F00041F65832904214BF0520042022E02829CC
:1033000032D11288023292B21A80BDF800108A427D
:1033100026D8E8282CD020F0800080B2282814BFBE
:1033200005200420704748280CBF042005200122F6
:103330001A80704720F0400080B2B0F5B26F14BF21
:103340000520042002221A8070470020FAE700209E
:10335000F8E718280CBF0420052004221A807047C3
:1033600000221A800A20704700221A800720704726
:103370000420704770B582B01C46182900F0908177
:1033800029D8082944D0102940F070821588B0F55A
:10339000F26F00F06F8140F2A880B0F5796F00F015
:1033A0006B8140F2EC8041F61043984200F0588166
:1033B00040F2128141F65043984218BF052040F078
:1033C000DB80A04B5A68C5EB0543518893FBF1F3B2
:1033D00053820020D0E0282940F04882138802332D
:1033E0009BB22380BDF818108B4200F22D82B0F5FD
:1033F000D47F00F02D8200F23D82E82800F03C826C
:1034000020F0800080B2282814BF052004209CE111
:10341000B0F5916F4ED01BD888282ED009D9B0F5C1
:10342000816F5CD00CD9B0F5896F14BF05200420E2
:1034300003E0482814BF052004200123238084E1F1
:10344000C8284ED0B0F5727F14BF05200420F4E7E1
:10345000B0F5E96F05D111787A480BF0DDFA00205C
:10346000EBE701D90520E8E7B0F5996F3BD0B0F55F
:10347000A16F14BF05200420DFE71378042B03D0CD
:10348000032B0CD00020D8E76F4D2846FFF763FED2
:10349000014600222846FFF763FD0020CDE76A4D74
:1034A0002846FFF737FE014600222846FFF74EFD6B
:1034B0000020C2E715782946644805F0AAFC294691
:1034C000634805F0A6FC07EE905AF8EE677A5D4B6C
:1034D000C3ED127A5F4B83F876500020ADE70420ED
:1034E000ABE70420A9E70420A7E7B0F5547F00F07C
:1034F00093800DD9B0F58A6F00F09D801DD9B0F58D
:10350000926F2ED129B2544805F04AFA002033E0D8
:10351000D0287BD0B0F5887F05D129B24F4805F07F
:103520006BFA002028E0902818BF052024D129B28A
:103530004A4805F035FA00201EE0B0F5647F18BF58
:10354000052019D1414E0DF1060201A9304605F0C2
:10355000F3FD2AB2BDF90410304605F0F4FD002059
:103560000AE001D2052007E020F0400080B2B0F56B
:10357000B26F14BF0520042002232380E5E0B0F5DC
:10358000396F7BD009D9B0F5656F7FD01BD9B0F505
:10359000696F14BF05200020EEE7B0F5256F6FD0EE
:1035A00008D9B0F5296F6FD0B0F5356F14BF05207D
:1035B0000420E1E7B0F51D6F64D0B0F5216F14BFB2
:1035C00005200420D8E7B0F5456F61D0B0F5496F0C
:1035D00014BF05200420CFE741F25003984259D090
:1035E0000AD941F25033984258D041F658339842A4
:1035F00014BF05200420BFE7B0F57D6F4CD041F229
:103600001003984214BF05200420B5E729B21348DF
:1036100005F0C8F90020AFE70C4E0DF1060201A934
:10362000304605F089FDBDF9062029B2304605F087
:103630008AFD0020A0E729B2074805F0B3F9002071
:103640009AE700BF04030020400000206408002027
:103650002C0A00206C000020980800206401002043
:10366000864B5A68C5EB0543518893FBF1F3938170
:10367000002081E704207FE704207DE704207BE72A
:10368000042079E7042077E7042075E7002073E73A
:10369000042071E704206FE704206DE704206BE746
:1036A000116841F61803984200F0A48017D941F63A
:1036B000D803984200F0B18066D941F6D8139842F9
:1036C00000F0BA806FD941F61853984240F08380D9
:1036D00000EE101A69480BF0A5F9002033E0B0F5B0
:1036E000067F00F0838006D9B0F5167F2FD1644B9A
:1036F0005961002027E0D82800F094800CD9B0F55B
:103700008C7F00F09380B0F5EC7F18BF05201AD1B4
:103710005B4B1961002016E098280CD10BB2594977
:1037200081FB0321A1EBE371002209B25648FFF7A8
:103730000DFC002007E077D820F0400080B2182868
:1037400014BF052004200423238002B070BD01D2E1
:103750000520F8E741F25873984269D009D920F062
:10376000400080B241F29873984214BF05200420B3
:10377000E9E741F2D86398425CD041F2187398426D
:1037800014BF05200420DEE741F65803984240D0DC
:1037900041F69803984218BF0520D4D1374BC3F89F
:1037A000E0100020CFE741F61813984204D1334BC4
:1037B000C3F834110020C6E741F6171398423DD9EB
:1037C00041F6581398423BD041F69813984214BFE3
:1037D00005200420B7E735D820F0400080B241F63C
:1037E0001823984214BF05200420ACE7244BD9606D
:1037F0000020A8E7214B93F834301BB10A2B01D0ED
:103800000420A0E700EE101A1C480AF045FA002038
:1038100099E71E4B1963002095E718480BF0DAF87A
:10382000002090E704208EE705208CE704208AE73B
:10383000042088E7042086E7042084E7052082E747
:10384000042080E705207EE7002323800A207CE710
:10385000D2F802300B4981FB0301A1EBE371D2885E
:1038600009B20948FFF772FB00206EE700232380AE
:1038700007206AE7052068E7042066E704030020C4
:1038800008000020ABAAAA2A400000206C000020FB
:1038900030B583B015461C46BDF91830A1F1080CAF
:1038A000BCF1200F74D8DFE80CF0117373737373DD
:1038B0007373177373737373737326737373737381
:1038C000737356737373737373735A00002B62DDD3
:1038D0000123238005205CE0012B5EDDB0F5656FE0
:1038E00007D0B0F5696F14BF0520002002232380A4
:1038F0004FE00020FAE7032B51DD41F25863984274
:1039000015D041F2986398421BD041F21863984257
:1039100003D00520042323803BE0224B986A00F06B
:10392000F5FD8DED010A019B2B600020F2E71D4B98
:10393000986A00F04DFE8DED010A019B2B6000207E
:10394000E8E7184B986A00F00FFE8DED010A019B25
:103950002B600020DEE700232380052019E02828C3
:1039600004D005202B880233238012E00A222A800B
:103970009BB20B2B0AD90C4B19685A68C5F8021078
:10398000C5F806201B896B810020EBE70820E9E7DA
:10399000072003B030BD0846FBE70820F9E7082000
:1039A000F7E700BF4000002060F0000870B58EB05F
:1039B00014461D46BDF94830A1F1080CBCF1200F9A
:1039C00000F29C83DFE81CF021009A039A039A031B
:1039D0009A039A039A039A0381009A039A039A031B
:1039E0009A039A039A039A03D2019A039A039A03B9
:1039F0009A039A039A039A0334039A039A039A0345
:103A00009A039A039A039A033803002B40F37983AD
:103A1000B0F5816F43D00CD9B0F5996F4DD022D954
:103A2000B0F5A16F2DD1AB4B93F86230237000201D
:103A300016E0C8282DD006D9B0F5727F0FD101232A
:103A4000237000200CE048281DD0882818BF0520CE
:103A500006D1A148FFF72AFB2070002000E00520D6
:103A600001232B804BE3B0F5896F22D0B0F5916F25
:103A700018BF0520F4D1994805F0C9F9207000203D
:103A8000EEE70520ECE79448FFF7BCFA2070002031
:103A9000E6E7934B93F8483023700020E0E7914825
:103AA0000AF060FF8B4B93F83430034423700020FE
:103AB000D6E70F2323700020D2E78A4BD3F848358E
:103AC00093F84A3023700020CAE7012B40F31B8390
:103AD000B0F5296F00F0D18050D8B0F5926F00F0AA
:103AE0000F8113D9B0F51D6F00F0B98038D9B0F54A
:103AF000216F00F0BA80B0F5256F18BF052076D190
:103B00007548FFF71AFB2080002070E0B0F5547F65
:103B100000F0C9800ED9B0F5647F00F0CF80B0F519
:103B20008A6F18BF052062D16F4804F040FF2080E3
:103B300000205CE0D02800F08680B0F5887F05D1B9
:103B40006A4804F05BFF2080002050E0902818BFF6
:103B500005204CD1654804F027FF2080002046E076
:103B6000B0F5B26F75D0B0F5BA6F18BF05203ED171
:103B70005F4804F0FBFE2080002038E0B0F57D6F48
:103B800000F0CA8020D941F25033984200F0D28030
:103B900047D941F61043984200F0D48041F6504393
:103BA000984218BF052022D14E4B5A68538A52883A
:103BB00002FB03F34F4A82FB03121A44DB17C3EBE9
:103BC000E2332380002012E0B0F5496F63D011D9B1
:103BD000B0F5796F00F09A8000F2C480B0F5656F9F
:103BE00000F0C280B0F5696F14BF052000200223E9
:103BF0002B8084E2B0F5396F47D0B0F5456F05D121
:103C0000364805F08BFA20800020F0E7B0F5356FDC
:103C100018BF0520EBD1314BB3F9043023800020CD
:103C2000E5E741F2100398427ED041F250039842FA
:103C300018BF0520DBD1304804F07DFEC0F30F43F0
:103C400023800020D3E7294804F0B1FE2080002023
:103C5000CDE72A4804F0EDFD20800020C7E71E488C
:103C6000FFF75DFA20800020C1E71B48FFF757FAF5
:103C7000C0F30F4323800020B9E71748FFF75DFA30
:103C8000C0F30F4323800020B1E7144805F0B5F8D6
:103C900020800020ABE7114805F040FAC0F30F4345
:103CA00023800020A3E70DF10E0203A90B4805F0C5
:103CB00043FABDF80C302380002098E70DF10E0286
:103CC00003A9064805F038FABDF80E30238000201D
:103CD0008DE700BF6C000020400000206408002039
:103CE0008C020020040300209808002064010020BA
:103CF000000A00200180008008000020D409002074
:103D0000AD4804F051FE2080002070E7AB4804F07D
:103D100007FE208000206AE7A84804F001FEC0F3F7
:103D20000F432380002062E7A44804F004FE2080B3
:103D300000205CE7A24BD3F84835B3F84830238025
:103D4000002054E79E4B5A689389528802FB03F384
:103D50009C4A82FB03121A44DB17C3EBE233238035
:103D6000002044E7052042E7002040E7032B40F312
:103D7000CC8141F2D873984200F00B815BD8B0F54A
:103D8000067F00F0E28018D941F21873984200F0E3
:103D9000F0803ED941F25873984200F0F28041F22F
:103DA0009873984218BF052030D1854B93ED180ABF
:103DB000FFF7C6F82060002028E0D82800F0B9807E
:103DC0000DD9B0F58C7F00F0BA80B0F5EC7F18BF4C
:103DD00005201BD1794B1B692360002016E0582871
:103DE00000F09E80982808D17748FFF793F900EB00
:103DF000400040002060002008E0182818BF05207F
:103E000004D17148FFF74DF92060002004232B8076
:103E100075E1B0F5167F00F09D8041F2D8639842BD
:103E200018BF0520F2D1664B93ED190AFFF788F809
:103E300020600020EAE741F69813984200F0D48011
:103E400019D941F65823984200F0EC8056D941F632
:103E50005833984200F0838041F61853984218BFB7
:103E60000520D3D156480AF0D1FD8DED010A019B02
:103E700023600020CAE741F6D803984200F09680FC
:103E800023D941F61813984200F0A88041F6581340
:103E9000984218BF0520B9D14C4BD3F89C20D3EDE4
:103EA0000B7A9FED4B7A67EE877A93ED267A67EE71
:103EB000877A92ED137AD2ED146A27EE267AC7EE4E
:103EC000877AC4ED007A0020A0E741F658039842B3
:103ED00067D041F69803984205D1394BD3F8E030CA
:103EE0002360002092E741F61803984218BF05208E
:103EF0008CD1334B9B6D2360002087E741F6D813AC
:103F0000984200F08A8041F61823984218BF052095
:103F10007FF47CAF2A4BD3F8E8302360002075E7AC
:103F20002948FFF7F1F800EB400040002060002036
:103F30006CE7284BD3F800312360002066E7254B5F
:103F4000D3F8FC302360002060E71C4BDB68236063
:103F500000205BE7194B5B692360002056E71E4B8E
:103F6000186804F09BFD8DED010A019B2360002081
:103F70004CE7134B93ED1A0AFEF7E2FF2060002096
:103F800044E70F4B93ED1B0AFEF7DAFF2060002099
:103F90003CE70E4B93ED140AFEF7D2FF20600020A1
:103FA00034E70A4B1B6B236000202FE7044BD3F848
:103FB000E4302360002029E7980800200800002052
:103FC0000403002001800080400000206C000020DD
:103FD000CB151E3564080020C40900204C4BD3F8D3
:103FE00034312360002011E74A4BD3F89C20D3EDF5
:103FF000087A9FED497A67EE877A93ED267A67EE25
:10400000877A92ED137AD2ED146A27EE267AC7EEFC
:10401000877AC4ED007A0020F8E63D4B9B6D236063
:104020000020F3E63A4BD3F8EC3023600020EDE6B5
:1040300000232B80052062E0A21CB0F5947F47D0BE
:104040000CD8A82823D0E82818BF05201BD10E21A2
:1040500021809BB20F2B2ED8082014E0B0F5D47F1E
:1040600010D12E4E3046FFF745F800EB40004000DF
:10407000C4F802003046FFF740F8E08006232380B2
:10408000002000E00520238802332B8037E0102138
:1040900021809BB2112B01D80820F4E7204B1B682C
:1040A0001E6858689968DB68C4F8026050609160C7
:1040B000D3600020E7E71B4B1B681E6858689968AF
:1040C000C4F80260506091609B8993810020DAE718
:1040D0000C2222809BB20D2B0ED9134B1868596805
:1040E0009A68DB68C4F80200C4F80610C4F80A2015
:1040F000C4F80E300020C6E70820C4E707200EB041
:1041000070BD0846FBE70820F9E70820F7E700BF85
:10411000040300206C000020CB151E354000002059
:10412000600B0020640B0020500B00202DE9F04FA5
:1041300087B0074645688368B0F90C400022ADF8A7
:1041400016202B4803902B480490FA81944209DDF5
:1041500003EB01091E469346C3F101080DE08CBB39
:1041600000283FD10020F8813CE00A2801D101203D
:1041700038E04FF0010B002C31DD2888C1B210F07F
:10418000060F2ED1023C1FFA84FA023520F00700F8
:1041900001F0070306AA02EB830324B2009453F84C
:1041A0000C4C0DF116032A4601F03801A047BDF86A
:1041B0001630AAEB030424B21D4406EB0803DBB25D
:1041C000012BCCD0B14510D006F8010BFB8901338F
:1041D000FB810028CFD00728C7D1012002E0584634
:1041E000BEE7012007B0BDE8F08F0820FAE700BF66
:1041F000D5320008753300082DE9F04786B0D0F8B5
:10420000049087680023ADF81630B0F80C801D4A82
:1042100003921D4A0492C381B8F1000F2AD00646CA
:104220000DB24C460DE0BDF816100F44F3890B4457
:10423000F3816D1A2DB2A8EB040319FA83F39BB234
:10424000DBB134F8020BC1B210F0060F14D120F02C
:10425000070001F0070306AA02EB8303009553F859
:104260000CAC0DF116033A4601F03801D047024676
:1042700018B9D8E7012200E00122104606B0BDE8D7
:10428000F08700BF91380008AD39000830B583B021
:1042900004464168088820F007039BB200F47F427F
:1042A000B2F5807F42D0013800F007002C22624D29
:1042B00002FB0055A089023880B2A0810231616002
:1042C00022689289013A1FFA82FE12B24FF0000C66
:1042D000A4F80EC0482B3BD8482B00F2A180DFE8A1
:1042E00003F0479F9F9F9F9F9F9F4E9F9F9F9F9FD2
:1042F0009F9F539F9F9F9F9F9F9F589F9F9F9F9F61
:104300009F9F5F9F9F9F9F9F9F9F689F9F9F9F9F34
:104310009F9F749F9F9F9F9F9F9F849F9F9F9F9FF3
:104320009F9F899F9F9F9F9F9F9F8F00C3F3C40361
:10433000A089023880B2A08102316160226892892E
:10434000013A12B20025E581012B5FD90D2068E00A
:10435000782B2AD0B3F5807F57D0682B18BF022066
:104360005FD1A368009304F10E03FDF7DFFD58E071
:104370000423E381A36801221A70002051E07146F2
:104380002046FFF7D3FE4CE071462046FFF734FF8E
:1043900047E02846FEF73CFE80F00100C0B240E056
:1043A0002846FEF74DFE00203BE001F0C9FB00204F
:1043B00037E02846FEF726FE062801D0002030E030
:1043C0002846FEF79CFE00202BE02846FEF71AFE4A
:1043D00030B92846FEF71CFE80F00100C0B220E094
:1043E0002846FEF72DFE00201BE02846FEF745FE7E
:1043F000002016E000212846FEF7BBFE002010E05A
:104400002846FEF7ACFE00200BE000230B4D55F8CC
:10441000235075B1A368009304F10E03A84700E090
:104420000220E389A268D054E3890133E38103B019
:1044300030BD0D20F5E700BF40000020141F002014
:104440000F4AD2F8FC3043F08073C2F8FC300D4BB9
:104450001B6833B10B4B00225A601A6842F001020C
:104460001A6000238360C3604FF0FF320261436132
:104470008361C3610262436203704360704700BF9F
:1044800000ED00E0001000E010B400EB411200234A
:10449000D3604FF0FF3414615361D36114625362EF
:1044A0005DF8044B70470000012303700023436054
:1044B000024B5B6800EB011083607047001000E066
:1044C000114B5A680023037000EB01139B68934261
:1044D00088BF02F1FF32D31A00EB0112D3604268A9
:1044E0009A4204D200EB011C9B1ACCF80C3000EB72
:1044F0000113DA685969914238BF5A6119698A42D1
:1045000038BF1A61704700BF001000E0D0ED077A95
:10451000B8EE677ADFED106AC7EE267A9FED0F0AD4
:1045200067EE807A90ED037AB8EE477A87EE260A36
:104530009FED0B7A20EE070A77EE807AB7EE007ACD
:10454000F4EE477AF1EE10FAC8BFF0EE477A9FED2D
:10455000050A27EE800A7047E81F224D00007A44C2
:1045600000409C460000C842D0ED097AF8EE677A18
:10457000DFED126A87EEA60ADFED117A20EE270A38
:10458000DFED107A30EE270A90ED057AB8EE477A23
:10459000C7EE267A9FED0C7A67EE877A77EE807AFF
:1045A000B7EE007AF4EE477AF1EE10FAC8BFF0EEFB
:1045B000477A9FED060A27EE800A7047E81F224DD2
:1045C00000007A440000000000409C460000C84201
:1045D000036AB3F1FF3F2FD007EE903AF8EE677A07
:1045E0009FED1A7A87EE870ADFED197A20EE270A07
:1045F000DFED187A30EE270A0369B3F1FF3F0DD0E3
:1046000007EE903AF8EE677ADFED106A87EEA67A49
:10461000DFED117A67EE277A30EE270AF7EE007A9F
:10462000B4EE670AF1EE10FAC8BFB0EE670ADFED2C
:104630000B7A20EE270A70470369B3F1FF3F02D0DF
:104640009FED040ADCE79FED030AF0E7E81F224D27
:1046500000007A440000000000409C460000C84270
:10466000036840221A62026852E8003F43F04003A8
:1046700042E800310029F7D1026802F1080353E84B
:10468000003F43F0800302F1080C4CE800310029A0
:10469000F3D1036803F1280203690449C95C836804
:1046A0000B449A60036840221A62704738F0000891
:1046B000026802F1080353E8003F43F0010302F1EE
:1046C000080C4CE800310029F3D1036803F12402FF
:1046D000C3680B49C95C43680B449A600368402275
:1046E0001A62026802F1080353E8003F43F04003F6
:1046F00002F1080040E800310029F3D1704700BF03
:1047000038F0000810B50446FFF7D2FF2046FFF747
:10471000A7FF10BD30B404690E4D15F804C08468BD
:1047200004EB0C0354F80C4014F0010F10D1D960C5
:104730000369EB5C84681C4463681B0C1B04134313
:1047400063600369EA5C81688B5843F001038B5016
:1047500030BC704738F0000870B4124CC36814F8CD
:1047600003C0466856F80C5025F0010546F80C5079
:10477000C36814F803C043689C44CCF80C10C368A9
:10478000E35C416819444B681B0C1B0413434B60EA
:10479000C368E25C41688B5843F001038B5070BCE6
:1047A000704700BF38F00008036810221A620268E0
:1047B00052E8003F43F0100342E800310029F7D1EE
:1047C00070472DE9F041C469037FDB09417F01F0A7
:1047D0003F01C4F38635C4F3465790F86CC01A46BF
:1047E000634528BF624680F86C2090F86D208A42AD
:1047F00028BF0A4680F86D2090F86EE02E46754579
:1048000028BF764680F86E6090F86F60B846B74271
:1048100028BFB04680F86F80634502D90020BDE80C
:10482000F081914210D8754501D90020F7E7B742D1
:1048300001D90020F3E790F87000C4F30214A042FD
:1048400014BF00200120EAE70020E8E770B58446A5
:104850000D4611461A460C68354EE3B2F35CC4F3BC
:1048600007205840335CC4F307405840305CC4F321
:10487000036358402F4B1B5C44EA03740C6072B610
:10488000DCF8483073B162B6092D2CD00A2D3DD02A
:10489000002D48D19CF82400002846D102238CF832
:1048A000243016E0092D15D00A2D4FF0030307BF61
:1048B0008CF82E300CF128038CF824300CF12003F6
:1048C000CCF8483062B6DCF85830DCF81400984771
:1048D000002070BDDCF8403003209871DCF84030D7
:1048E000CCF84830EEE7DCF840301868884214BF56
:1048F00003200020DCF8441029B102219971DCF872
:1049000040309A80E5E7CCF84430F6E79CF82E304A
:10491000012B01D00320DCE702238CF82E30ACF809
:104920002C200020D5E70020D3E70320D1E700BFEB
:104930007CF000086CF0000808B5024691F804C04D
:10494000CB785B0543EA0C1391F800C043EACC1323
:1049500091F801C043EA0C23897843EA813343F09C
:10496000050342F8203F04230021FFF76FFF08BD35
:1049700010B590F860E00EF0010E90F8633003F08F
:104980000F04130343EA042343EA011343EA4113E8
:1049900043EA8E1343EACE1343F00603024642F87D
:1049A000203F04230021FFF751FF10BD0A2A09D040
:1049B00090F83630012B13D990F83E30012B1AD9DC
:1049C0000020704790F82E30012B01D9002070474D
:1049D000836A04330B60012380F82E301846704739
:1049E000012380F8363000F130020264026B043299
:1049F0000A6018467047012380F83E3000F1380203
:104A00000264826B04320A601846704708B58C460F
:104A1000194690F86430022B01D0022008BD41EA0B
:104A200002134CF8043C90F86C30012B0CD00A298E
:104A300003D1037CA3B100230374043293B2ACF11D
:104A40000402FFF703FFE9E7CA230CF802300CEB7E
:104A500002034FF0FE0E83F801E0023292B2E6E765
:104A60000120DBE738B50446C26900230B8090F8CB
:104A70006130002B00F08280002380F8613090F8D4
:104A80006430012B35D0022B51D043B10025636D2A
:104A9000042204F11C0160699847284638BD836EE2
:104AA000052B03D0062B1DD00025F0E7FFF789FE6C
:104AB00088B194F86E3001335B01A38194F86F30B4
:104AC0009B01E38194F86D3001335B01A4F85E3003
:104AD000012384F8643004F16C012046FFF72CFFB9
:104AE0000025D4E7C2F30F320021FFF741FF002574
:104AF000CDE7836E052B03D0062B0ED00025C6E72D
:104B0000FFF75FFE10B9002384F8643004F16C01F4
:104B10002046FFF711FF0025B9E7C2F30F3201214C
:104B2000FFF726FF022384F864300025AFE7836E89
:104B3000052B05D0062B0ED0092B13D00025A6E798
:104B4000FFF73FFE84F8640004F16C012046FFF794
:104B5000F3FE00259BE7C2F30F320121FFF708FFA8
:104B6000002594E790F86030013380F8603001232D
:104B70000374B0F85C300B80856988E790F8623088
:104B80000BB9002589E71A0442EA032343F00F0317
:104B9000024642F8203F04230021FFF757FE00257C
:104BA00084F86250236D6069984776E770477047D4
:104BB00008B5024801F03EFA08BD00BF7C1F002086
:104BC00000B583B00E4B1A6E42F001021A661A6EDF
:104BD00002F001020092009A9A6D42F080529A65AA
:104BE0009B6D03F080530193019B00220F216FF016
:104BF000010000F061FF00F045FF03B05DF804FB29
:104C00000010024030B589B004461E4B9A6D42F048
:104C100010029A659B6D03F010030193019B02A99A
:104C200003A800F02DFE00F019FE03461648174AAF
:104C3000026040F2E732C260154AA2FB03239B0CDC
:104C4000013B436000230361836001F08FFB054655
:104C500010B1284609B030BD0B4801F0A5F9054652
:104C60000028F6D1362000F05DFF0F2C01D9012578
:104C7000EFE700222146362000F01EFF054B1C60A6
:104C8000E7E700BF001002407C1F0020001000403A
:104C900083DE1B436C0B002082B0424B00221A645F
:104CA00083F844209A64DA643F4B9A6C42F0010224
:104CB0009A649B6C03F001030193019B3B4B9A6840
:104CC00022F001029A603A4A1A619A6842F0200280
:104CD0009A609A6822F040029A609A6842F08002D4
:104CE0009A609A6822F440729A609A6822F440624C
:104CF0009A609A6822F4405242F400529A609A688C
:104D000042F002029A60DA6922F00102DA61294A6D
:104D10005A62DA6922F02002DA61DA6922F040028E
:104D2000DA61DA6942F08002DA61DA6922F440720B
:104D3000DA61DA6922F44062DA61DA6922F4405217
:104D400042F40052DA61DA6942F00202DA611A4A88
:104D500052E8003F43F0400342E800310029F7D118
:104D600052E8003F43F0800342E800310029F7D1C8
:104D70000E4A0C4B5361D3681B0C1B0443F04003D9
:104D8000D360936843F001039360A2F5484252E870
:104D9000003F43F0100342E800310029F7D102B090
:104DA000704700BFCC1F00200010024000000240EE
:104DB00024380140283801400838014038B5174BE5
:104DC000DB6913F0100F05D0144B10221A62144B3C
:104DD0001B783BB1114B02221A6204221A6208228C
:104DE0001A6238BD0E4D01232B700E4CE16889B25A
:104DF000C1F140010C4800F0D7F8A36823F001038B
:104E0000A360E3681B0C1B0443F04003E360A3684A
:104E100043F00103A36000232B70DBE7003801405F
:104E2000C81F002000000240CC1F002000B583B046
:104E30000368144A934205D0134A934212D003B038
:104E40005DF804FB114B1A6E42F400621A661B6E89
:104E500003F400630093009B00220621192000F058
:104E60002BFEECE7094B1A6E42F480321A661B6E79
:104E700003F480330193019B00220621182000F0E7
:104E80001BFEDCE7002C0140004001400010024006
:104E9000DFED207A20EE270AF5EE007A30EE270AC1
:104EA000FDEEC07AB5EEC00AF1EE10FA2CD4F8EEA1
:104EB000E77A30EE670ADFED187A20EE270AFCEE7B
:104EC000C07A17EE903A9BB2B3F5007F04D3DFEDC2
:104ED000127A30EE670A002307EE903AF8EE677A0E
:104EE00030EE670AF7EE007A77EEC07A0B4A02EBF3
:104EF000830191ED007A67EE877A91ED017A20EED9
:104F0000070A37EE800A704717EE903A013B07EE2A
:104F1000903ACCE783F9223E00000044F8F3000801
:104F2000DFED1E7A60EE277ABDEEE77AB5EEC00AB5
:104F3000F1EE10FA2CD4B8EEC70A37EEC00ADFED56
:104F4000187A20EE270AFCEEC07A17EE903A9BB250
:104F5000B3F5007F04D3DFED127A30EE670A002349
:104F600007EE903AF8EE677A30EE670AF7EE007ACD
:104F700077EEC07A0B4A02EB830191ED007A67EE7F
:104F8000877A91ED017A20EE070A37EE800A7047A2
:104F900017EE103A013B07EE103ACCE783F9223EB8
:104FA00000000044F8F3000808B58E46402928BFE9
:104FB0004FF0400E51B1421E0949134612F801CF7D
:104FC00001F801CF02331B1A9E45F6D85FFA8EFE18
:104FD000034B83F800E0034B186802F03FFE08BD66
:104FE0005C200020A820002010B586B00DF1040C34
:104FF000074C0FCCACE80F002368CCF80030002140
:1050000001A802F0CAFD034B186006B010BD00BF36
:1050100078EE0008A020002030B5039D37284CD83A
:10502000294C4FF0AA0C84F800C04FF0550C84F8BE
:1050300001C000F1050C84F802C04FF0010C84F8A7
:1050400003C021716271120AA271E371002835D088
:105050006B1EE21D00F1FF3C55FA8CFC13F8011F9A
:1050600002F8011F6345F9D100F1080E5FFA8EFEC8
:105070000630C1B2744615480022134610F801CF1D
:105080006244D2B20133DBB28B42F7D30E490A55E8
:105090000F4AD36923F00103D3619162116A0EF1C3
:1050A0000103DBB24FEA114E4FEA0E4E43EA0E0304
:1050B0001362D36943F00103D36130BD4FF0080E92
:1050C00074460621D7E700BF1C2000201D200020C9
:1050D0000000024070B58AB083780179C27842EA54
:1050E000012546790024ADF82640ADF82440062B72
:1050F0000CD9B1B283F08004042C09D8803B042B76
:1051000006D8DFE803F08E050E1F4300022B01D8FE
:105110000AB070BD033B032BFAD8DFE803F0626AE4
:10512000727A0DF12602284607F0D4FDADF824006E
:1051300009AB009333462A4682219DF82600FFF7EB
:105140006BFFE5E70378053B9BB2ADF82630022BF9
:105150000ED0042B13D0BDF92420284607F0E6FD1D
:105160000020009033462A468321FFF755FFCFE702
:10517000C279837943EA0223ADF82430EBE7C279A0
:10518000837943EA0223ADF82430E4E700252C4676
:1051900002E00135062D1BD00DF12601E8B207F023
:1051A000E7FD00B2ADF82400BDF82660002EF0D077
:1051B000A446621E03AB1A44F400002340FA03F134
:1051C00002F8011F0833A342F8D10CEB0604E0E714
:1051D00003AB009300231A468421E0B2FFF71CFFC3
:1051E00096E700200090034602460321FFF714FFD4
:1051F0008EE700200090034602460421FFF70CFFD3
:1052000086E700200090034602460521FFF704FFD1
:105210007EE700200090034602460621FFF7FCFED1
:1052200076E71D4AB2F90C00B2F90030B2F90E402F
:10523000B2F9021000228DF80C208DF80D208DF8A7
:105240000E208DF80F208DF81040C4F307248DF840
:1052500011408DF81200C0F307208DF813008DF86F
:105260001410C1F307218DF815108DF81630C3F313
:1052700007238DF817308DF818208DF81920012399
:105280008DF81A308DF81B2003AB00931346802154
:105290001020FFF7C1FE3BE7900C00202DE9F04104
:1052A00005780378DBB2032B03D84FF0FF30BDE85D
:1052B000F081EDB26C1E002C3DDD00231A461E4627
:1052C00007E0314688452DD001339BB21A46A342F0
:1052D0002FDA811849785529F6D1511C00EB010CC1
:1052E0009CF801C0BCF1AA0FEED1012B25D8A14238
:1052F00025DA8118C978AF1A033F8F4221DD87185C
:105300000F4497F8048003328718FF29D9D007F19A
:10531000FF3C7A1831461CF801EF7144C9B294453C
:10532000F9D1CFE73846FFF7D5FE0020064B1870BD
:10533000BDE70020BBE70020B9E70020B7E7002069
:10534000B5E70020B3E700BF5C20002070B5074D33
:105350004FF0FF34064E2146286802F056FC002824
:10536000F9D13046FFF79AFFF5E700BFA8200020EB
:105370005C20002010B582B000240194012101A816
:1053800002F02FFC094B186000940121684602F0DE
:1053900028FC074B1860214602F037FCFFF724FE7B
:1053A00006F07EF8FFF778FC02B010BDA8200020C0
:1053B000A4200020014B1860704700BF700B002034
:1053C0000346027A002A00F0B18010B40068002879
:1053D0003FD05A7A012A1DD0022A26D062B101207C
:1053E0009A7A002A35D0022A3FD0032A48D0012ACF
:1053F00025D040F002002CE002F1804202F582321A
:10540000516821EA0000506011681868014311607A
:105410000020E5E7514A116821EA00001060516858
:105420001868014351600020DAE74C4A11680843CC
:10543000106051681868014351600020D0E7474A66
:10544000D1681C6821EA0401D16091681C6821437D
:1054500091605A68002A51D0597A012931D0022925
:1054600039D0B9B140F0040020E03C4A91681C6892
:1054700021EA04019160D1681C682143D160E8E70A
:10548000364A91681C6821439160D1681C682143A9
:10549000D160DEE701F1804101F582314C6A24EAF6
:1054A00002024A620A6A5C6822430A629A7A2AB352
:1054B000022A26D0032A2FD0012A15D040F0050059
:1054C0001CE026490C6A24EA02020A624A6A5C6805
:1054D00022434A62EAE721490C6A22430A624A6A85
:1054E0005C6822434A62E1E71C4AD16A5C6821EAAF
:1054F0000401D162916A5B680B4393625DF8044BCF
:105500007047164A916A5C6821EA04019162D16A87
:105510005B680B43D362F1E7104A916A5C682143F0
:105520009162D16A5B680B43D362E7E70B4A11686B
:10553000006821EA000111605168186821EA000141
:105540005160116A586821EA00011162516A5B6872
:1055500021EA030353620020704700BF00040140AA
:105560002DE9F0470B6893FAA3F4B4FA84F42246C9
:1055700033FA04F400F0B4804FF0010E4FF0030C46
:1055800020244FF00F0A4EE0D1F80880876893FA84
:10559000A3F6D6B1B6FA86F676000CFA06F627EA36
:1055A000060693FAA3F797B1B7FA87F77F0008FAD0
:1055B00007F7374387600F68466826EA0706CD6815
:1055C00005FB07F73E43466035E02646E4E72746FD
:1055D000ECE7264638E0274641E0264652E02746DB
:1055E000BF0008FA07F7374307624F68D0F800801A
:1055F00093FAA3F6002E6FD0B6FA86F676000CFA70
:1056000006F628EA060693FAA3F3002B66D0B3FA4F
:1056100083F35B0007FA03F33343036001320B6843
:1056200033FA02F55CD00EFA02F63340F6D04E683B
:10563000013E012EA8D9D1F81080C76893FAA3F6CD
:10564000002EC6D0B6FA86F676000CFA06F627EAE1
:10565000060693FAA3F7002FBDD0B7FA87F77F00AD
:1056600008FA07F73743C7604E68022EBDD1FF2BFB
:1056700014D8D1F81480076A93FAA3F6002EACD0A0
:10568000B6FA86F6B6000AFA06F627EA060693FA8E
:10569000A3F7002FA3D0B7FA87F7A1E7D1F81480BA
:1056A000D0F824901E0A96FAA6F78FB1B7FA87F7BA
:1056B000BF000AFA07F729EA070796FAA6F64EB1DD
:1056C000B6FA86F6B60008FA06F6374347628CE764
:1056D0002746EDE72646F5E726468FE7234698E777
:1056E0000020BDE8F08700004FF0A0439A6803F562
:1056F00080739B68134313F0010F19D14A687AB184
:1057000010B484680B4B234013430A6813438A6820
:105710001343CA681343836000205DF8044B70474D
:105720008268044B13400A6813438360002070476B
:1057300001207047E030C0FF836813F0010F10D1E3
:1057400010B4C2680B684C68234389680B4322F489
:10575000404222F018021343C36000205DF8044B5E
:105760007047012070470000836813F0010F24D1B7
:105770004B68ABB1C268124B13400A6813438A6886
:105780001343CA6813430A6913434A691343C36046
:10579000036B23F00F034A68134303630020704731
:1057A000C268074B13400A681343CA6813430A6967
:1057B00013434A691343C360EAE70120704700BFFF
:1057C0001CC0F0FF836813F0010F1CD14B689BB124
:1057D000C36823F004738A681343CA681343C36021
:1057E000C36C23F4FF7323F001030A6813434A6870
:1057F0001343C36400207047C36823F00473CA686E
:105800001343C360ECE701207047000010B5094A5C
:10581000136843F480731360032000F03BF9002009
:10582000FFF7F0F910B10124204610BD0446FFF740
:10583000C7F9F9E700200240034A136803490968E1
:105840000B441360704700BFAC200020680B0020A1
:10585000014B1868704700BF700B0020054B9B6818
:10586000C3F30223044AD35C03F01F03034A106806
:10587000D840704700100240D4F10008700B00209F
:105880000F2303600B4B9A6802F0030242609A6890
:1058900002F0F00282609A6802F4E062C2609B68E3
:1058A000DB0803F4E0630361034B1B6803F00F03A1
:1058B0000B60704700100240002002400B68002B74
:1058C00000F0D7802DE9F04F83B04FF0000C624616
:1058D00001254FF0030E674CDFF8A48148E0836890
:1058E0000EFA0CFA23EA0A0ACB6803FA0CF343EA2D
:1058F0000A038360436823EA070A4B68C3F300176F
:10590000974047EA0A0747603DE0002707FA0BF790
:1059100047EA0A079F60A3686FEA09074E6816F412
:10592000801F0CBF3B4049EA0303A360E3684E6855
:1059300016F4001F0CBF3B4049EA0303E3606368B1
:105940004E6816F4003F0CBF3B4049EA0303636016
:1059500023684E6816F4803F0CBF1F4049EA0307D6
:10596000276001320B680CF1020C33FA02F67DD08D
:1059700005FA02F717EA0309F3D04B6803F00303B3
:10598000013B012BABD94B6803F00303032B22D05F
:10599000C3680EFA0CF723EA07078B6803FA0CF3C7
:1059A0003B43C3604B6803F00303022B13D1D708BA
:1059B00000EB8707D7F820A002F007034FEA830B1C
:1059C0000F2303FA0BF32AEA030A0B6903FA0BF31A
:1059D00043EA0A033B6203680EFA0CF723EA07075F
:1059E0004B6803F0030303FA0CF33B4303604B687B
:1059F00013F4403FB5D0204E336E43F001033366BD
:105A0000336E03F001030193019B22F0030303F1C2
:105A1000804303F58033D3F808A002F003074FEA70
:105A2000870B0F2707FA0BF72AEA070AB0F1904F06
:105A30003FF46BAF404511D0104EB04210D006F588
:105A40008066B0420ED006F58066B0420CD006F5F6
:105A50008066B0420CBF0527062757E72F4655E75B
:105A6000022753E7774651E704274FE703B0BDE825
:105A7000F08F704700040140001002400008004809
:105A800000040048024A936843F4804393607047DF
:105A9000007000400749CA68030203F4E06322F47F
:105AA000E0621204120C134343F0BF6343F400336B
:105AB000CB60704700ED00E000B5184BDB68C3F326
:105AC0000223C3F1070CBCF1040F28BF4FF0040CF4
:105AD00003F1040EBEF1060F8CBF033B00234FF011
