:020000040800F2
:10000000008000204124010891240108E54A0008ED
:1000100091240108912401089124010800000000A6
:10002000000000000000000000000000B1DA00083D
:10003000912401080000000001DD000869DD0008CE
:1000400091240108912401089124010891240108B8
:1000500091240108912401089124010891240108A8
:10006000912401089124010891240108CD4E000833
:10007000114F0008912401089124010891240108DE
:1000800091240108000000000D4E00089124010891
:100090009124010891240108912401089124010868
:1000A000914E0008754E0008912401089124010822
:1000B0009124010891240108912401089124010848
:1000C0009124010891240108912401089124010838
:1000D00091240108C14E00089124010891240108CF
:1000E000EF4A000891240108912401089124010895
:1000F00091240108912401089124010800000000C6
:100100000000000091240108000000009124010873
:100110009124010800000000817F0008912401085B
:1001200091240108912401089124010891240108D7
:100130009124010800000000000000009124010843
:100140009124010891240108000000000000000033
:10015000000000000000000000000000000000009F
:1001600000000000000000000000000091240108D1
:1001700091240108000000000000000000000000C1
:1001800000000000912401080000000000000000B1
:10019000000000000000000000000000000000005F
:1001A00000000000000000009124010891240108D3
:1001B0009124010891240108912401080000000005
:1001C0000000000091240108000000000000000071
:0801D0009124010891240108AB
:1001E00010B5054C237833B9044B13B10448AFF371
:1001F00000800123237010BDF40B002000000000DC
:100200001852010808B5034B1BB103490348AFF36B
:10021000008008BD00000000F80B00201852010803
:1002200070B4840746D04C1E002941D0D5B2034695
:1002300002E0611EE4B30C4603F8015B9907F8D1B4
:10024000032C2ED9D5B245EA05250F2C45EA0545E4
:1002500019D9264603F11001103E0F2E41F8105C0B
:1002600041F80C5C41F8085C41F8045C01F11001B4
:10027000F2D8A4F1100121F00F0104F00F041031A5
:10028000032C0B440DD91E4621460439032946F898
:10029000045BFAD8211F21F0030104310B4404F060
:1002A00003042CB1D2B21C4403F8012BA342FBD1AE
:1002B00070BC70470C460346C2E7000081F0004165
:1002C00002E000BF83F0004330B54FEA41044FEA3B
:1002D000430594EA050F08BF90EA020F1FBF54EAD6
:1002E000000C55EA020C7FEA645C7FEA655C00F072
:1002F000E2804FEA5454D4EB5555B8BF6D420CDD43
:100300002C4480EA020281EA030382EA000083EAC5
:10031000010180EA020281EA0303362D88BF30BD65
:1003200011F0004F4FEA01314FF4801C4CEA1131BB
:1003300002D0404261EB410113F0004F4FEA03331A
:100340004CEA133302D0524263EB430394EA050FA5
:1003500000F0A780A4F10104D5F1200E0DDB02FA14
:100360000EFC22FA05F2801841F1000103FA0EF2A8
:10037000801843FA05F359410EE0A5F120050EF16E
:10038000200E012A03FA0EFC28BF4CF0020C43FA9F
:1003900005F3C01851EBE37101F0004507D54FF0AC
:1003A000000EDCF1000C7EEB00006EEB0101B1F5FC
:1003B000801F1BD3B1F5001F0CD349085FEA300042
:1003C0004FEA3C0C04F101044FEA445212F5800F4D
:1003D00080F09A80BCF1004F08BF5FEA500C50F1EA
:1003E000000041EB045141EA050130BD5FEA4C0CCD
:1003F000404141EB0101013C28BFB1F5801FE9D22A
:1004000091F0000F04BF01460020B1FA81F308BF4C
:100410002033A3F10B03B3F120020CDA0C3208DD18
:1004200002F1140CC2F10C0201FA0CF021FA02F1F3
:100430000CE002F11402D8BFC2F1200C01FA02F163
:1004400020FA0CFCDCBF41EA0C019040E41AA2BF88
:1004500001EB0451294330BD6FEA04041F3C1CDA50
:100460000C340EDC04F11404C4F1200220FA04F070
:1004700001FA02F340EA030021FA04F345EA03011A
:1004800030BDC4F10C04C4F1200220FA02F001FADC
:1004900004F340EA0300294630BD21FA04F029465E
:1004A00030BD94F0000F83F4801306BF81F48011F7
:1004B0000134013D4EE77FEA645C18BF7FEA655C6A
:1004C00029D094EA050F08BF90EA020F05D054EA3C
:1004D000000C04BF1946104630BD91EA030F1EBF41
:1004E0000021002030BD5FEA545C05D14000494145
:1004F00028BF41F0004130BD14F580043CBF01F538
:10050000801130BD01F0004545F0FE4141F470011D
:100510004FF0000030BD7FEA645C1ABF19461046F8
:100520007FEA655C1CBF0B46024650EA013406BFF9
:1005300052EA033591EA030F41F4002130BD00BFB8
:1005400090F0000F04BF0021704730B54FF4806475
:1005500004F132044FF000054FF0000150E700BFF6
:1005600090F0000F04BF0021704730B54FF4806455
:1005700004F1320410F0004548BF40424FF0000142
:100580003EE700BF42004FEAE2014FEA31014FEA85
:1005900002701FBF12F07F4393F07F4F81F06051D4
:1005A000704732F07F4208BF704793F07F4F04BF1F
:1005B00041F40021704730B54FF4607401F00045FC
:1005C00021F000411CE700BF50EA010208BF70475C
:1005D00030B54FF000050AE050EA010208BF70474D
:1005E00030B511F0004502D5404261EB41014FF4B6
:1005F000806404F132045FEA915C3FF4D8AE4FF0BE
:1006000003025FEADC0C18BF03325FEADC0C18BFA0
:10061000033202EBDC02C2F1200300FA03FC20FAF1
:1006200002F001FA03FE40EA0E0021FA02F114443E
:10063000BDE600BF4A0011D212F5001211D20DD54D
:100640006FF47873B3EB62520ED44FEAC12343F0D8
:10065000004343EA505323FA02F070474FF0000082
:10066000704750EA013002D14FF0FF3070474FF031
:100670000000704780B400AF044BDB681B0A03F036
:1006800007031846BD465DF8047B704700ED00E0A7
:1006900080B483B000AF0346FB7197F90730002B9D
:1006A0000BDBFB7903F01F02074997F907305B0961
:1006B000012000FA02F241F8232000BF0C37BD46AA
:1006C0005DF8047B704700BF00E100E080B483B0B8
:1006D00000AF03463960FB7197F90730002B0ADB46
:1006E0003B68DAB20C4997F907301201D2B20B44D9
:1006F00083F800230AE03B68DAB20849FB7903F08B
:100700000F03043B1201D2B20B441A7600BF0C3720
:10071000BD465DF8047B704700E100E000ED00E0BD
:1007200080B489B000AFF860B9607A60FB6803F00C
:100730000703FB61FB69C3F10703042B28BF0423F4
:10074000BB61FB690433062B02D9FB69033B00E064
:1007500000237B614FF0FF32BB6902FA03F3DA43F7
:10076000BB681A407B699A404FF0FF317B6901FA00
:1007700003F3D9437B680B40134318462437BD4627
:100780005DF8047B7047000080B485B000AF7860EE
:10079000084B9A6C07497B6813438B64054B9A6C32
:1007A0007B681340FB60FB6800BF1437BD465DF8F3
:1007B000047B70470010024080B485B000AF7860C1
:1007C000084BDA6C07497B681343CB64054BDA6C42
:1007D0007B681340FB60FB6800BF1437BD465DF8C3
:1007E000047B70470010024080B485B000AF786091
:1007F000084B9A6D07497B6813438B65054B9A6DCF
:100800007B681340FB60FB6800BF1437BD465DF892
:10081000047B70470010024080B485B000AF786060
:10082000084B1A6E07497B6813430B66054B1A6E1B
:100830007B681340FB60FB6800BF1437BD465DF862
:10084000047B70470010024080B400AF054B1B686A
:10085000044A43F48073136000BFBD465DF8047B17
:10086000704700BF0010024080B400AF074B1B6808
:1008700003F48063B3F5806F01D1012300E000230E
:100880001846BD465DF8047B704700BF001002406B
:1008900080B483B000AF7860074B5B6823F0FE4202
:1008A0007B681B06044913434B6000BF0C37BD46F1
:1008B0005DF8047B704700BF0010024080B483B035
:1008C00000AF7860064B9B6823F0030204497B6805
:1008D00013438B6000BF0C37BD465DF8047B704747
:1008E0000010024080B400AF044B9B6803F00C037F
:1008F0001846BD465DF8047B704700BF00100240FB
:1009000080B483B000AF7860064B9B6823F0F002A0
:1009100004497B6813438B6000BF0C37BD465DF80C
:10092000047B70470010024080B483B000AF786051
:10093000064B9B6823F4E06204497B6813438B6099
:1009400000BF0C37BD465DF8047B704700100240C5
:1009500080B483B000AF7860064B9B6823F460528C
:1009600004497B6813438B6000BF0C37BD465DF8BC
:10097000047B70470010024080B483B000AF786001
:10098000094BD3F888207B681B0CDB431A407B683B
:100990009BB205491343C1F8883000BF0C37BD46F0
:1009A0005DF8047B704700BF0010024080B485B042
:1009B00000AF78607B681A0E0F4B1344FB60FB6836
:1009C0001A687B681B0C03F01F03032101FA03F371
:1009D000DB431A407B68D9B27B681B0C03F01F0312
:1009E00001FA03F31A43FB681A6000BF1437BD46CF
:1009F0005DF8047B704700BF8810024080B483B06C
:100A000000AF78600E4BD3F888207B681B0C03F096
:100A10001F03032101FA03F3DB431A407B68D9B2B9
:100A20007B681B0C03F01F0301FA03F30449134313
:100A3000C1F8883000BF0C37BD465DF8047B7047B5
:100A40000010024080B400AF054B1B68044A43F01D
:100A50008073136000BFBD465DF8047B704700BF24
:100A60000010024080B400AF074B1B6803F0007316
:100A7000B3F1007F01D1012300E000231846BD46F9
:100A80005DF8047B704700BF0010024080B485B061
:100A900000AFF860B9607A603B600A4BDA680A4BD5
:100AA0001340F968BA6811437A68120211433A6830
:100AB0000A4304491343CB6000BF1437BD465DF8B9
:100AC000047B7047001002400C80FFF980B485B0B1
:100AD00000AFF860B9607A603B600A4BDA680A4B95
:100AE0001340F968BA6811437A68120211433A68F0
:100AF0000A4304491343CB6000BF1437BD465DF879
:100B0000047B7047001002400C80FF0780B400AFE8
:100B1000054BDB68044A43F48033D36000BFBD4615
:100B20005DF8047B704700BF0010024080B400AF46
:100B3000054BDB68044A43F08073D36000BFBD46B9
:100B40005DF8047B704700BF0010024080B483B0A2
:100B500000AF7860054B5A6804497B6813434B60CB
:100B600000BF0C37BD465DF8047B704700000140B4
:100B700080B487B000AF78603960184A3B6803F0F2
:100B80000303023352F823203B681B0CDB4302EAC9
:100B900003013B681B0C3B613B6993FAA3F3FB60C9
:100BA000FB687B617B69002B01D1202303E07B691B
:100BB000B3FA83F3DBB203F01F037A689A40074865
:100BC0003B6803F003030A43023340F8232000BFCD
:100BD0001C37BD465DF8047B704700BF0000014034
:100BE00080B483B000AF7860064B1B6823F00F021F
:100BF00004497B6813430B6000BF0C37BD465DF8AA
:100C0000047B70470020024080B400AF044B1B6897
:100C100003F00F031846BD465DF8047B704700BF24
:100C20000020024080B483B000AF786039607B68F8
:100C3000D3F8C03023F47F5323F03F033A681A43BC
:100C40007B68C3F8C0207B681B6923F480333A6853
:100C5000002A02D04FF4803200E000221A437B6861
:100C60001A6100BF0C37BD465DF8047B704780B445
:100C700087B000AFF860B9607A60FB6830331A461D
:100C8000BB681B0A9B0003F00C0313447B617B6968
:100C90001A68BB6803F01F031F2101FA03F3DB434B
:100CA0001A407B689B0E03F01F01BB6803F01F0313
:100CB00001FA03F31A437B691A6000BF1C37BD4673
:100CC0005DF8047B704780B483B000AF7860396012
:100CD0007B68DB6C23F4C0723B681A437B68DA6480
:100CE00000BF0C37BD465DF8047B704780B485B00B
:100CF00000AFF860B9607A60FB68DA6CBB6803F03B
:100D00001F031F2101FA03F3DB431A407B689B0E8C
:100D100003F01F01BB6803F01F0301FA03F31A433A
:100D2000FB68DA6400BF1437BD465DF8047B70478A
:100D300080B483B000AF786039607B68DB6823F0F3
:100D4000004323F400133A681A437B68DA6000BF5B
:100D50000C37BD465DF8047B704780B487B000AFA8
:100D6000F860B9607A60FB6814331A46BB685B0EA2
:100D70009B0003F0040313447B617B691A68BB6822
:100D80001B0D03F01F03072101FA03F3DB431A4095
:100D9000BB681B0D03F01F03796801FA03F31A43C4
:100DA0007B691A6000BF1C37BD465DF8047B704745
:100DB00080B485B000AFF860B9607A60FB68D3F8A2
:100DC000B020BB68C3F31203DB431A407B6803F017
:100DD00018030849D940BB680B40C3F312031A43F8
:100DE000FB68C3F8B02000BF1437BD465DF8047B34
:100DF000704700BFFFFF070080B483B000AF78608A
:100E000039607B681B6923F4806323F003033A682D
:100E10001A437B681A6100BF0C37BD465DF8047B3E
:100E2000704780B483B000AF78607B689B6823F024
:100E3000204323F03F037A68936000BF0C37BD4620
:100E40005DF8047B704780B483B000AF78607B6846
:100E50009B6823F0104323F03F0343F080527B68EC
:100E60009A6000BF0C37BD465DF8047B704780B4C4
:100E700083B000AF78607B681B6823F080027B68DA
:100E80001A6000BF0C37BD465DF8047B7047000058
:100E900080B485B000AF786039603B68012B2ED0FC
:100EA0003B68042B29D03B68102B24D03B68402B97
:100EB0001FD03B68B3F5807F19D03B68B3F5806FD6
:100EC00013D03B68B3F5805F0DD03B68B3F5804F1E
:100ED00007D03B68B3F5803F01D1082310E0092318
:100EE0000EE007230CE006230AE0052308E00423B4
:100EF00006E0032304E0022302E0012300E00023D4
:100F0000FB737B6818331946FB7B0B4AD35C0B449D
:100F1000BB60BB681A68FB7B0849CB5C194604239D
:100F20008B40DB431A40BB681A6000BF1437BD46D4
:100F30005DF8047B704700BFD8520108E4520108F5
:100F400080B485B000AF786039603B68012B2ED04B
:100F50003B68042B29D03B68102B24D03B68402BE6
:100F60001FD03B68B3F5807F19D03B68B3F5806F25
:100F700013D03B68B3F5805F0DD03B68B3F5804F6D
:100F800007D03B68B3F5803F01D1082310E0092367
:100F90000EE007230CE006230AE0052308E0042303
:100FA00006E0032304E0022302E0012300E0002323
:100FB000FB737B6818331946FB7B0A4AD35C0B44EE
:100FC000BB60BB681A68FB7B0749CB5C19460823EA
:100FD0008B401A43BB681A6000BF1437BD465DF8EA
:100FE000047B7047D8520108E452010880B483B0F2
:100FF00000AF786039607B685B6823F0007323F092
:1010000070033A681A437B685A6000BF0C37BD46CC
:101010005DF8047B704780B483B000AF78603960BE
:101020007B685B6823F470023B681A437B685A60F4
:1010300000BF0C37BD465DF8047B704780B483B0B9
:1010400000AF78607B689B6823F080027B689A60C1
:1010500000BF0C37BD465DF8047B704780B487B095
:1010600000AFF860B9607A60FB6860331A46BB680D
:1010700013447B617B691A687B681A437B691A6039
:1010800000BF1C37BD465DF8047B704780B48DB04F
:1010900000AFF860B9607A603B60FB6860331A4665
:1010A000BB681344FB62FB6A1A687B68BB61BB695F
:1010B00093FAA3F37B617B69FB61FB69002B01D190
:1010C000202303E0FB69B3FA83F3DBB203F01F03D1
:1010D0004FF4007101FA03F3DB431A407B687B6233
:1010E0007B6A93FAA3F33B623B6ABB62BB6A002B49
:1010F00001D1202303E0BB6AB3FA83F3DBB203F030
:101100001F03396801FA03F31A43FB6A1A6000BF30
:101110003437BD465DF8047B704780B48BB000AFB8
:10112000F860B9607A60FB681A68BB687B617B69AC
:1011300093FAA3F33B613B69BB61BB69002B01D10F
:10114000202303E0BB69B3FA83F3DBB25B00032126
:1011500001FA03F3DB431A40BB683B623B6A93FA34
:10116000A3F3FB61FB697B627B6A002B01D1202327
:1011700003E07B6AB3FA83F3DBB25B00796801FAC0
:1011800003F31A43FB681A6000BF2C37BD465DF8B5
:10119000047B704780B48BB000AFF860B9607A60B0
:1011A000FB68DA68BB687B617B6993FAA3F33B61F8
:1011B0003B69BB61BB69002B01D1202303E0BB6904
:1011C000B3FA83F3DBB25B00032101FA03F3DB43E1
:1011D0001A40BB683B623B6A93FAA3F3FB61FB696D
:1011E0007B627B6A002B01D1202303E07B6AB3FA88
:1011F00083F3DBB25B00796801FA03F31A43FB68FF
:10120000DA6000BF2C37BD465DF8047B704780B4C0
:1012100083B000AF786039607B683A689A6100BF3C
:101220000C37BD465DF8047B704780B483B000AFD7
:1012300078607B681B6843F001027B681A6000BF1E
:101240000C37BD465DF8047B704780B483B000AFB7
:1012500078607B681B6823F000527B681A6000BFCF
:101260000C37BD465DF8047B704780B489B000AF91
:10127000786039607B680833FB60FB6853E8003FA7
:10128000BB60BB6823F060423B685B071343FB61B4
:101290007B680833FA69BA617B617969BA6941E8A8
:1012A00000233B613B69002BE4D100BF00BF243722
:1012B000BD465DF8047B704780B489B000AF7860AC
:1012C00039607B680833FB60FB6853E8003FBB6014
:1012D000BB6823F060623B685B061343FB617B687D
:1012E0000833FA69BA617B617969BA6941E8002318
:1012F0003B613B69002BE4D100BF00BF2437BD46F2
:101300005DF8047B704780B483B000AF78607B6881
:101310005B6823F490427B685A607B689B6823F08B
:101320002A027B689A6000BF0C37BD465DF8047BDB
:10133000704780B483B000AF78607B68DB6903F4EA
:101340000013B3F5001F01D1012300E0002318466C
:101350000C37BD465DF8047B704780B483B000AFA6
:1013600078607B68DB6903F48003B3F5800F01D1FB
:10137000012300E0002318460C37BD465DF8047BCE
:10138000704780B485B000AFF860B9607A60FB68E0
:10139000DA6BBB6803F010034FF4007101FA03F33A
:1013A000DB431A40BB6803F01003796801FA03F3CA
:1013B0001A43FB68DA6300BF1437BD465DF8047B4F
:1013C000704780B483B000AF786039607B68DA6BB7
:1013D0003B6803F010034FF4807101FA03F3DB4321
:1013E0001A407B68DA6300BF0C37BD465DF8047BAA
:1013F000704780B483B000AF786039607B681A684A
:101400003B6803F01003022101FA03F3DB431A40A7
:101410007B681A6000BF0C37BD465DF8047B7047DF
:1014200080B487B000AFF860B9607A60FB687B6118
:101430000E4ABB6813441B781A467B6913441B6829
:1014400023F4804323F010030849BA680A44127851
:1014500011467A690A4411467A6813430B6000BF4B
:101460001C37BD465DF8047B704700BFF052010891
:1014700080B487B000AFF860B9607A60FB687B61C8
:101480000D4ABB6813441B781A467B6913441B68DA
:1014900023F020020849BB680B441B7819467B697E
:1014A0000B4419467B6813430B6000BF1C37BD46D5
:1014B0005DF8047B704700BFF052010880B487B02C
:1014C00000AFF860B9607A60FB687B610D4ABB6869
:1014D00013441B781A467B6913441B6823F04002AF
:1014E0000849BB680B441B7819467B690B441946B5
:1014F0007B6813430B6000BF1C37BD465DF8047B5F
:10150000704700BFF052010880B487B000AFF860A8
:10151000B9607A60FB687B610D4ABB6813441B7835
:101520001A467B6913441B6823F080020849BB6894
:101530000B441B7819467B690B4419467B6813439F
:101540000B6000BF1C37BD465DF8047B704700BFD1
:10155000F052010880B487B000AFF860B9607A60DB
:10156000FB687B610D4ABB6813441B781A467B6994
:1015700013441B6823F440720849BB680B441B7872
:1015800019467B690B4419467B6813430B6000BF07
:101590001C37BD465DF8047B704700BFF052010860
:1015A00080B487B000AFF860B9607A60FB687B6197
:1015B0000D4ABB6813441B781A467B6913441B68A9
:1015C00023F440620849BB680B441B7819467B69C9
:1015D0000B4419467B6813430B6000BF1C37BD46A4
:1015E0005DF8047B704700BFF052010880B487B0FB
:1015F00000AFF860B9607A60FB687B610D4ABB6838
:1016000013441B781A467B6913441B6823F4405229
:101610000849BB680B441B7819467B690B44194683
:101620007B6813430B6000BF1C37BD465DF8047B2D
:10163000704700BFF052010880B487B000AFF86077
:10164000B9607A60FB689B0A83F4801383F080039F
:10165000DB007B61BA687B6913449B0003F1804324
:1016600003F502331B6823F0FF01BA687B6913445A
:101670009B0003F1804303F502337A680A431A6042
:1016800000BF1C37BD465DF8047B704780B483B053
:1016900000AF786039607B689B6923F038023B6853
:1016A0001A437B689A6100BF0C37BD465DF8047B26
:1016B000704780B483B000AF786039607B681B6886
:1016C00023F480723B681A437B681A6000BF0C37B2
:1016D000BD465DF8047B704780B483B000AF78608E
:1016E00039607B681B6823F010023B681A437B68F3
:1016F0001A6000BF0C37BD465DF8047B704780B4AC
:1017000083B000AF78607B681B6823F400327B688D
:101710001A6000BF0C37BD465DF8047B704780B48B
:1017200083B000AF78607B681B6823F400227B687D
:101730001A6000BF0C37BD465DF8047B704780B46B
:1017400085B000AFF860B9607A60FB68DB6823F4AD
:10175000FF6323F00603B9687A680A431A43FB68FB
:10176000DA6000BF1437BD465DF8047B704780B473
:1017700083B000AF78607B68DB6823F400427B684D
:10178000DA6000BF0C37BD465DF8047B704780B45B
:1017900083B000AF78607B685B6843F000727B6861
:1017A0005A6000BF0C37BD465DF8047B70470000EF
:1017B00080B483B000AF7860064B1A687B68DB4367
:1017C000044913400B6000BF0C37BD465DF8047B35
:1017D000704700BF0004014080B483B000AF786060
:1017E000064B5A687B68DB43044913404B6000BFDB
:1017F0000C37BD465DF8047B704700BF0004014014
:1018000080B400AF064BD3F88030054A23F48073D0
:10181000C2F8803000BFBD465DF8047B704700BF52
:1018200000700040B0B58AB000AF08F061F900F078
:101830004BF800F097FF00F08BFF00F0E9F800F0A4
:10184000D7F900F0A9FA00F0FFFA00F055FB00F01C
:10185000ABFB00F0B1FB00F00BFC00F081FC00F0F2
:10186000D9FC00F045FD00F0A1FE01F007F800F002
:101870008DF8114B07F114041D460FCD0FC42B68D2
:10188000236007F11403002118460BF0FAFD03460C
:101890000A4A13600A4B3C461D460FCD0FC42B6805
:1018A00023603B46002118460BF0EBFD0346054A3A
:1018B00013600BF0DFFDFEE748520108100C00201A
:1018C0005C520108140C002080B582B000AF0420E7
:1018D000FFF786F900BFFFF797F90346042BFAD10B
:1018E000FFF78EFFFEF7B0FF00BFFEF7BDFF034618
:1018F000012BFAD14020FEF7CBFF002355223021E7
:101900000220FFF7C3F84FF0804355223021022018
:10191000FFF7DCF8FFF70AF9FFF7F8F8FFF792F89E
:1019200000BFFFF79FF80346012BFAD10320FEF713
:10193000C5FF8020FEF7E4FF00BFFEF7D3FF03469C
:101940000C2BFAD155237B6002E07B68013B7B6066
:101950007B68002BF9D10020FEF7D2FF0020FEF7B4
:10196000E3FF0020FEF7F4FF074807F0BBFB002071
:1019700006F03AFB0346002B01D000F079FF00BFD0
:101980000837BD4680BD00BF80FE210A80B500AF8C
:10199000FEF770FE0346002208211846FEF7C0FE3F
:1019A000034619462520FEF791FE2520FEF770FE1E
:1019B000FEF760FE0346002208211846FEF7B0FE3F
:1019C000034619460B20FEF781FE0B20FEF760FE52
:1019D000FEF750FE0346002205211846FEF7A0FE42
:1019E000034619461920FEF771FEFEF743FE034633
:1019F000002207211846FEF793FE034619461220DF
:101A0000FEF764FE1220FEF743FE00BF80BD00001B
:101A100080B598B000AF07F1500300221A605A60F9
:101A20009A6007F1380300221A605A609A60DA60FF
:101A30001A615A6107F1280300221A605A609A60FD
:101A4000DA6007F1180300221A605A609A60DA60BF
:101A50003B4600221A605A609A60DA601A615A6145
:101A60005C48FEF7CBFF4FF40050FEF7A5FE0120C7
:101A7000FEF7A2FE01233B6003237B6000233B6152
:101A80003B4619464FF0904007F0B0FE04233B6000
:101A900003237B6000233B613B4619464FF0904097
:101AA00007F0A4FE00233B654FF400437B65002351
:101AB000BB6507F1500319464FF0A04007F06AFFDD
:101AC0000023BB630023FB6300233B6400237B6490
:101AD0000023BB640023FB6407F1380319464FF071
:101AE000A04007F07DFF00214FF0A040FFF79AF8DB
:101AF00000214FF0A040FFF77FF90023BB620023D5
:101B0000FB6207F128031946334807F003FF8023DF
:101B1000BB610023FB6100233B6200237B6207F172
:101B2000180319464FF0A04007F0A4FF4FF0004102
:101B30004FF0A040FFF7FCF880214FF0A040FFF7E6
:101B4000C2F84FF0A040FFF76CF94FF0A040FFF74C
:101B50007AF9224B1B689B09214AA2FB03239A09AD
:101B600013469B0013449B001A461E4BA3FB022303
:101B7000DB08FB6502E0FB6D013BFB65FB6D002BA9
:101B8000F9D1194A09214FF0A040FFF7AFF801221F
:101B900015494FF0A040FFF7E0F87F2212494FF0BF
:101BA000A040FFF705F9114A06214FF0A040FFF7CA
:101BB0005EF804220D494FF0A040FFF7CEF87F22D7
:101BC0000A494FF0A040FFF7F3F800BF6037BD4669
:101BD00080BD00BF01001C00000300506C0B002002
:101BE000632D3E05CDCCCCCC0800900C0200300417
:101BF00080B594B000AF07F1400300221A605A602C
:101C00009A6007F1280300221A605A609A60DA602D
:101C10001A615A6107F1180300221A605A609A602B
:101C2000DA603B4600221A605A609A60DA601A61F4
:101C30005A615148FEF7E2FE4FF40050FEF7BCFD3A
:101C40000120FEF7B9FD0420FEF7B6FD40233B60FE
:101C500003237B6000233B613B4619464FF09040D5
:101C600007F0C4FD10233B6003237B6000233B612E
:101C70003B461946414807F0B9FD00233B644FF449
:101C800000437B640023BB6407F1400319463C48D2
:101C900007F080FE0023BB620023FB6200233B634E
:101CA00000237B630023BB630023FB6307F128034E
:101CB0001946334807F094FE00213148FEF7B2FF81
:101CC00000212F48FFF798F88023BB610023FB61B8
:101CD00000233B6200237B6207F118031946284862
:101CE00007F0C8FE4FF000412548FFF721F880219A
:101CF0002348FEF7E8FF2248FFF793F82048FFF754
:101D0000A2F8204B1B689B091F4AA2FB03239A09D8
:101D100013469B0013449B001A461C4BA3FB022353
:101D2000DB08FB6402E0FB6C013BFB64FB6C002BFB
:101D3000F9D1174A09211248FEF7D8FF01221449A8
:101D40000F48FFF70AF87F2211490D48FFF730F8D6
:101D5000104A06210A48FEF78AFF04220D49084866
:101D6000FEF7FBFF7F220B490548FFF721F800BF74
:101D70005037BD4680BD00BF01001C000008004870
:101D8000000100506C0B0020632D3E05CDCCCCCC67
:101D90000800900C2000F01480B58CB000AF07F163
:101DA0001C0300221A605A609A60DA601A613B1DB7
:101DB00000221A605A609A60DA601A615A61012042
:101DC000FEF7FAFC02237B600323BB6000237B61E8
:101DD0003B1D19464FF0904007F008FD0023FB61C2
:101DE00040233B6200237B620023BB620023FB6233
:101DF00007F11C031946114808F04EF800233B6018
:101E00000F4B1B680F4AA2FB0323DB0CC82202FB0B
:101E100003F33B6002E03B68013B3B603B68002B07
:101E2000F9D14FF40010FFF7D7FC4FF40010FFF783
:101E3000BFFC00BF3037BD4680BD00BF000201407F
:101E40006C0B002083DE1B4380B58CB000AF07F124
:101E50001C0300221A605A609A60DA601A613B1D06
:101E600000221A605A609A60DA601A615A61012091
:101E7000FEF7A2FC80237B600323BB6000237B6111
:101E80003B1D19464FF0904007F0B0FC0023FB616A
:101E900040233B6200237B620023BB620023FB6282
:101EA00007F11C031946114807F0F6FF00233B60B9
:101EB0000F4B1B680F4AA2FB0323DB0CC82202FB5B
:101EC00003F33B6002E03B68013B3B603B68002B57
:101ED000F9D14FF48000FFF77FFC4FF48000FFF74B
:101EE00067FC00BF3037BD4680BD00BF0402014023
:101EF0006C0B002083DE1B4380B58CB000AF07F174
:101F00001C0300221A605A609A60DA601A613B1D55
:101F100000221A605A609A60DA601A615A610220DF
:101F2000FEF74AFC01237B600323BB6000237B6137
:101F30003B1D1946184807F059FC0023FB6140235C
:101F40003B6200237B620023BB620023FB6207F13C
:101F50001C031946114807F09FFF00233B60104BFC
:101F60001B68104AA2FB0323DB0CC82202FB03F30D
:101F70003B6002E03B68013B3B603B68002BF9D1D2
:101F80004FF08040FFF728FC4FF08040FFF710FC37
:101F900000BF3037BD4680BD000400480C02014040
:101FA0006C0B002083DE1B4380B500AF0820FEF7DA
:101FB000EBFB00BF80BD000080B588B000AF3B1DCB
:101FC00000221A605A609A60DA601A615A619A6156
:101FD0004FF48020FEF7F0FBFEF74CFB0346002297
:101FE00000211846FEF79CFB034619463620FEF7F3
:101FF0006DFB3620FEF74CFB00221A491A48FFF70A
:10200000C0F900237B600023BB600023FB60022338
:102010007B610123BB610023FB613B1D1A46114913
:10202000114808F01AFA0F490F48FFF7E2F90D4975
:102030000D48FFF7C6F900220C490B48FFF7A1F93C
:102040003B1D1A460949084808F007FA074906489F
:10205000FFF7CFF905490448FFF7B3F900BF203770
:10206000BD4680BD0100110200100050F200423553
:1020700080B58EB000AF07F11C0300221A605A60D1
:102080009A60DA601A615A619A613B1D00221A60F7
:102090005A609A60DA601A615A614FF48010FEF754
:1020A00085FC0420FEF788FB4FF480737B600223DD
:1020B000BB600023FB6001233B6100237B6108239D
:1020C000BB613B1D1946234807F090FB4FF400739A
:1020D0007B600223BB600023FB6001233B61002384
:1020E0007B610823BB613B1D19461A4807F07EFB44
:1020F0004FF08040FEF778FB0023FB61164B3B62FC
:1021000000237B620023BB620023FB6200233B634E
:1021100000237B6307F11C031946104808F0E7FA17
:102120000E48FFF734FB002200210C48FFF707FBA5
:102130000A48FFF71CFB0948FFF7F1FA0748FFF7C9
:10214000DEFA4FF48000FEF701FD00BF3837BD46D0
:1021500080BD00BF00080048722180000078004068
:1021600080B58AB000AF07F1180300221A605A60E8
:102170009A60DA603B4600221A605A609A60DA6020
:102180001A615A610120FEF717FB02233B6003230B
:102190007B6000233B613B4619464FF0904007F0BF
:1021A00025FB04233B6003237B6000233B613B460C
:1021B00019464FF0904007F019FB08233B600323BA
:1021C0007B6000233B613B4619464FF0904007F08F
:1021D0000DFB0023BB610023FB6100233B62002356
:1021E0007B6207F118031946094808F0D0FA00216C
:1021F0000748FFF74BFA00210548FFF75AFA00217C
:102200000348FFF769FA00BF2837BD4680BD00BF0D
:102210000003014080B58AB000AF07F11803002227
:102220001A605A609A60DA603B4600221A605A606F
:102230009A60DA601A615A610120FEF7BDFA042043
:10224000FEF7BAFA0220FEF7B7FA40233B600323F9
:102250007B6000233B613B4619464FF0904007F0FE
:10226000C5FA80233B6003237B6000233B613B4630
:1022700019464FF0904007F0B9FA20233B60032342
:102280007B6000233B613B461946164807F0AEFAD7
:1022900001233B6003237B6000233B613B461946DF
:1022A000114807F0A3FA0023BB610023FB61002360
:1022B0003B6220237B6207F1180319460B4808F0A4
:1022C00066FA00210948FFF7E1F900210748FFF706
:1022D000F0F900210548FFF7FFF900BF2837BD4698
:1022E00080BD00BF0008004800040048040301400E
:1022F00080B5A0B000AF07F16C0300221A605A60ED
:102300009A60DA601A6107F14C0320220021184616
:1023100012F07AFF07F11C0330220021184612F058
:1023200073FF3B1D00221A605A609A60DA601A61DE
:102330005A614FF40060FEF76FFA0023A7F86C3083
:1023400020233B6741F29A037B674FF48073BB679E
:102350000123FB6707F16C031946924808F000FE61
:102360009048FEF784FD01218E48FEF7E9FD6023C9
:10237000FB6400233B6500237B6540F64D03BB6592
:102380000023FB6500233B6600237B660023BB66BE
:1023900007F14C031A460121824808F06BFE012127
:1023A0008048FEF775FD10217E48FEF7C9FD07F154
:1023B0004C031A4610217B4808F05CFE1021794836
:1023C000FEF766FD4FF480717648FEF7B9FD07F120
:1023D0004C031A464FF48071724808F04BFE4FF4DC
:1023E00080717048FEF754FD4FF480516D48FEF740
:1023F000A7FD7023FB6441F29903BB6507F14C0311
:102400001A464FF48051674808F034FE4FF480516B
:102410006448FEF73DFD70216248FEF7E7FD0021AC
:102420006048FEF7F8FD5F48FEF708FE0023022231
:1024300000215C48FEF72AFE022200215948FEF7DF
:102440000DFE0023042200215648FEF71FFE042241
:1024500000215448FEF702FE0023102200215148BB
:10246000FEF714FE102200214E48FEF7F7FD4FF450
:102470000063FB614FF480633B6200237B623F2378
:1024800087F828304FF480537B854FF40053FB626C
:102490004FF440333B6300237B630023BB634FF067
:1024A0000073FB634FF440133B6400237B64002301
:1024B000BB6407F11C0319463A4808F03BFE1020A4
:1024C000FEF77AF94FF480737B600223BB6002232E
:1024D000FB6000233B6102237B610223BB613B1D48
:1024E0001946314807F082F94FF400737B600223EC
:1024F000BB600223FB6000233B6102237B6102235C
:10250000BB613B1D1946284807F070F94FF4806302
:102510007B600223BB600223FB6000233B6102233C
:102520007B610223BB613B1D19461F4807F05EF922
:102530004FF400637B600223BB600223FB60002337
:102540003B6102237B610223BB613B1D1946164898
:1025500007F04CF94FF480537B600223BB600223E9
:10256000FB6000233B6102237B610223BB613B1DB7
:1025700019460D4807F03AF94FF400537B600223E7
:10258000BB600223FB6000233B6102237B610223CB
:10259000BB613B1D1946044807F028F900BF80378E
:1025A000BD4680BD002C01400010004880B58EB0B3
:1025B00000AF07F1180320220021184612F024FE74
:1025C0003B4600221A605A609A60DA601A615A61CA
:1025D0004FF44030FEF7D0F94FF48040FEF71CF97D
:1025E0000120FEF7E9F84FF400733B6002237B60A3
:1025F0000023BB600023FB6000233B6107237B615A
:102600003B4619464FF0904007F0F0F84FF48063D6
:102610003B6002237B600023BB600023FB60002340
:102620003B6107237B613B4619464FF0904007F022
:10263000DDF8182200214448FEF7FEFF00220021A9
:102640004148FEF7EDFE002200213F48FEF7CEFF95
:10265000002200213C48FEF70BFF002200213A48EF
:10266000FEF72CFF802200213748FEF74DFF0022A5
:1026700000213548FEF76EFF002200213248FEF7A8
:102680008FFF192201213048FEF7D6FF10220121C9
:102690002D48FEF7C5FE002201212B48FEF7A6FFBC
:1026A000002201212848FEF7E3FE002201212648EE
:1026B000FEF704FF802201212348FEF725FF0022B8
:1026C00001212148FEF746FF002201211E48FEF7A6
:1026D00067FF0023BB614FF4E133FB6100233B62E2
:1026E00000237B620023BB620C23FB6200233B635D
:1026F00000237B6307F118031946144809F004F915
:1027000000211248FEF7B1FD00211048FEF7D4FD6C
:102710000E48FEF79AFD0D48FEF7F5FD0B48FEF753
:1027200084FD00BF0948FEF704FE0346002BF9D0E4
:102730000648FEF712FE0346002BF3D000BF00BF91
:102740003837BD4680BD00BF000002400038014060
:1027500080B500AF0420FEF717F80120FEF714F84B
:1027600000BF80BD80B58AB000AF07F11C03002216
:102770001A605A609A603B1D00221A605A609A6083
:10278000DA601A615A610420FEF716F80120FEF79C
:1027900013F80220FEF710F81020FEF70DF8802144
:1027A0002748FEF734FD27490220FEF7E1F94FF4F0
:1027B0000053FB61012387F82430002387F825307C
:1027C000012387F8263007F11C03184606F0CAFDDE
:1027D00000224FF400511C48FEF7DCFC00224FF4AD
:1027E00000511948FEF799FC80237B600123BB60F0
:1027F0000023FB6000233B6100237B613B1D1946E6
:102800000F4806F0F3FF4FF480437B600023BB606A
:1028100001237B613B1D1946094806F0E7FF4FF491
:1028200000437B600023BB6001237B613B1D194695
:10283000034806F0DBFF00BF2837BD4680BD00BF60
:10284000001000480300F0000008004880B582B086
:1028500000AF78607B681B68044A934201D107F09F
:1028600067F900BF0837BD4680BD00BF00100040BB
:1028700080B400AF72B600BFFEE7000080B500AFC5
:10288000034800F0BBF900F083FB00BF80BD00BF30
:10289000180C002080B500AF07F05CF90346044A2D
:1028A000A2FB0323DB09184607F0D5FA00BF80BD61
:1028B000D34D621080B485B000AF7860084B9A6D3C
:1028C00007497B6813438B65054B9A6D7B68134002
:1028D000FB60FB6800BF1437BD465DF8047B7047A2
:1028E0000010024080B483B000AF7860074B9A6D4F
:1028F0007B6813407A689A4201D1012300E00023EB
:1029000018460C37BD465DF8047B70470010024046
:1029100080B483B000AF7860064B9A6D7B68DB4370
:10292000044913408B6500BF0C37BD465DF8047B3E
:10293000704700BF0010024080B483B000AF7860E1
:1029400039607B685B6823F0007323F070033A689A
:102950001A437B685A6000BF0C37BD465DF8047BA4
:10296000704780B483B000AF786039607B689B6843
:1029700023F4803323F007033A681A437B689A6094
:1029800000BF0C37BD465DF8047B704780B483B050
:1029900000AF786039607B689B6823F4401323F0B4
:1029A00070033A681A437B689A6000BF0C37BD46D3
:1029B0005DF8047B704780B483B000AF78607B68BB
:1029C0006FF002021A6100BF0C37BD465DF8047B50
:1029D000704780B483B000AF78607B681B6903F0F8
:1029E0000203022B01D1012300E0002318460C371B
:1029F000BD465DF8047B704780B483B000AF78605B
:102A00007B685B6943F001027B685A6100BF0C3749
:102A1000BD465DF8047B704780B582B000AF1021E1
:102A20001848FFF7B3FF06211648FFF79AFF012069
:102A3000FFF758FF78607B68002B0AD10120FFF771
:102A400039FF4FF08040FFF7D7FF0120FFF760FF0D
:102A500013E04FF080435A680B4B13403B6020213A
:102A60004FF08040FFF768FF4FF08040FFF7C4FF52
:102A700039684FF08040FFF75FFF00BF0837BD4661
:102A800080BD00BF002C01407000000280B586B000
:102A900000AFF860B9603B601346FB71FB7901330E
:102AA0005B089BB25B01BB82F868FFF784FF0023E1
:102AB000FB8218E0F868FFF78CFF0346012B12D168
:102AC000F868FFF778FFFB8A0133FB82FA8ABB8A3A
:102AD0009A4208D33B681B78DBB20F2B03D8BB6844
:102AE00001221A8005E03B681B78DBB20F2BE1D98D
:102AF00000BF00BF1837BD4680BD000080B500AFE5
:102B0000034B1B68184601F0A2FD0346184680BD22
:102B1000180C002080B500AF034B1B68184601F06D
:102B2000BCFD0346184680BD180C002080B500AFE0
:102B3000034B1B68184601F0DFFD0346184680BDB5
:102B4000180C002080B500AF034B1B68184601F03D
:102B50007CFE0346184680BD180C002080B586B068
:102B600002AFB9607B600346FB811346BB81B7F9B6
:102B70000C20F989BB6901937B6800931346BA68FE
:102B8000034811F033F9034618461037BD4680BD9F
:102B90008C03002080B485B000AF786039603B685A
:102BA00043F480327B68DA617B683A68DA613B68BB
:102BB00043F480327B68DA617B68DB69FB60FB6829
:102BC00000BF1437BD465DF8047B704780B485B004
:102BD00000AF78600B46FB70074B5B68FB60FB78CF
:102BE0007A681B0113440833FA681A6000BF14376F
:102BF000BD465DF8047B7047001000E080B584B0EE
:102C000000AF78607B68002B41D0234B00221A7004
:102C10007B68224A1A6000F091FB21480CF081F891
:102C200020480DF086F9204801F00EFB1F480CF0FB
:102C30001EFA1F4801F008FB1E480CF017F8174B4E
:102C40001D4A9A621C4804F0D3F91C480BF00EFA96
:102C50001A480BF00BFE1A4A07F10C0312681146D2
:102C600019800233120C1A70F96814480BF092FCA8
:102C7000144B1B883B81B96810480BF053FD0F487B
:102C80000BF0DEFD05F06DF9034B01221A7000BF59
:102C90001037BD4680BD00BFAE1E0020A409002035
:102CA00010000020D0090020340A0020440A00202F
:102CB000080A0020180A0020580C0020540C00209C
:102CC000705201087452010880B586B000AF034607
:102CD000FB800B46BB8013467B80104B3B6100237F
:102CE000FB750F4B1B68FB60386901F0AEFD0346B6
:102CF000002B0DD1386901F0AAFC0346FB75FB7D62
:102D0000002B05D0074AFB88D382064ABB88138371
:102D1000FB7D18461837BD4680BD00BFA4090020C2
:102D2000800C00201C0C002098B500AF314B1B78A4
:102D3000DBB2002B5CD0304B1B88002B06D02E4B17
:102D40001B88013B9AB22C4B1A8039E001212B4899
:102D500004F0BCF900F0FEFB0121284804F0D4F98E
:102D600005F006F9264B1B689B68254A1268254921
:102D7000104698470346224A5360214B5B68002B5C
:102D80001BD01F4B1B681B681D4A10680A221E4976
:102D90009847034683F00103DBB2002B0DD118489E
:102DA00003F04CFF164B1B685C68154B1868144BFE
:102DB0009968134BDA890A23A0470F4B01221A8026
:102DC000124B1B889BB2002B06D0104B1B889BB26A
:102DD000013B9AB20D4B1A800D4B1B889BB2002B06
:102DE00006D00B4B1B889BB2013B9AB2084B1A8052
:102DF00000BF98BDAE1E0020A81E0020580C002069
:102E0000E80A0020F40A0020F00A0020AA1E002090
:102E1000AC1E002080B483B000AF0346FB80044AA0
:102E2000FB88138000BF0C37BD465DF8047B7047FC
:102E3000AA1E002080B483B000AF0023FB71074BB3
:102E40001B889BB2002B01D10123FB71FB79184633
:102E50000C37BD465DF8047B704700BFAA1E0020FA
:102E600080B483B000AF0346FB80044AFB88138024
:102E700000BF0C37BD465DF8047B7047AC1E0020D8
:102E800080B483B000AF0023FB71074B1B889BB25B
:102E9000002B01D10123FB71FB7918460C37BD468D
:102EA0005DF8047B704700BFAC1E002080B582B087
:102EB00000AF0023FB7100210848FFF787FEFB7974
:102EC000184600F039FF064B1B680133044A1360B3
:102ED000FB7918460837BD4680BD00BF580C00205E
:102EE0008C61002080B500AF044B1B78DBB2012B56
:102EF00002D1034811F05AF800BF80BDAE1E002079
:102F00008C03002080B500AF074811F003F8074894
:102F100010F0B6FA002000F0DFFD00228021044806
:102F200001F009FC00BF80BD8C030020F0080020E8
:102F3000A409002080B582B000AF786006F0A8F840
:102F4000642009F051FC1E22002141F28830FFF775
:102F5000BBFE012009F048FCFFF7E6FEF9E780B56B
:102F600082B000AF7860012009F03EFCFFF7BAFFA5
:102F7000F9E780B500AFFFF7E5FD0346002B02D16E
:102F8000FFF7BCFD01E0FFF7C5FD00BF80BD0000FD
:102F900080B500AF10212448FFF7FCFD01214FF060
:102FA0009040FFF7F7FD80214FF09040FFF7F2FDD2
:102FB00002214FF09040FFF7EDFD08214FF09040C7
:102FC000FFF7E8FD04214FF09040FFF7E3FD4021BB
:102FD0004FF09040FFF7DEFD20211348FFF7DAFDA8
:102FE00001211248FFF7D6FD4FF400711048FFF79A
:102FF000D1FD4FF400610E48FFF7CCFD4FF4806126
:103000000B48FFF7C7FD4FF400510948FFF7C2FD19
:103010004FF480510648FFF7BDFD4FF4807104481E
:10302000FFF7B8FD00BF80BD00080048000400485D
:103030000010004880B483B000AF786039607B68CE
:10304000DB6C23F4FE723B681A437B68DA6400BFD2
:103050000C37BD465DF8047B704780B483B000AF89
:10306000786039607B68DB6C23F4C0723B681A437C
:103070007B68DA6400BF0C37BD465DF8047B70479F
:1030800080B483B000AF78607B689B6823F0004316
:1030900023F03F0343F008027B689A6000BF0C37BF
:1030A000BD465DF8047B704780B483B000AF7860A4
:1030B0007B685B6843F040027B685A6000BF0C3756
:1030C000BD465DF8047B704780B483B000AF786084
:1030D00039607B681A6A3B681A437B681A6200BFD2
:1030E0000C37BD465DF8047B7047000080B487B0A4
:1030F00000AFF860B9607A60BB68012B2ED0BB6866
:10310000042B29D0BB68102B24D0BB68402B1FD0C8
:10311000BB68B3F5807F19D0BB68B3F5806F13D05F
:10312000BB68B3F5805F0DD0BB68B3F5804F07D0A7
:10313000BB68B3F5803F01D1082310E009230EE0FE
:1031400007230CE006230AE0052308E0042306E039
:10315000032304E0022302E0012300E00023FB75C7
:10316000FB6818331946FB7D0E4AD35C0B443B6168
:103170003B691A68FB7D0C49CB5C19460B4B8B40B5
:10318000DB431A40FB7D0849CB5C19467B688B40CA
:103190001A433B691A6000BF1C37BD465DF8047BCB
:1031A000704700BFF8520108045301087300010082
:1031B00080B485B000AF786039603B68012B2ED0B9
:1031C0003B68042B29D03B68102B24D03B68402B54
:1031D0001FD03B68B3F5807F19D03B68B3F5806F93
:1031E00013D03B68B3F5805F0DD03B68B3F5804FDB
:1031F00007D03B68B3F5803F01D1082310E00923D5
:103200000EE007230CE006230AE0052308E0042370
:1032100006E0032304E0022302E0012300E0002390
:10322000FB737B6818331946FB7B0A4AD35C0B445B
:10323000BB60BB681A68FB7B0749CB5C1946082357
:103240008B401A43BB681A6000BF1437BD465DF857
:10325000047B7047F85201080453010880B483B01E
:1032600000AF786039607B685B6C23F0FF023B68DD
:103270001A437B685A6400BF0C37BD465DF8047B77
:10328000704780B483B000AF786039607B683A687B
:103290005A6300BF0C37BD465DF8047B704780B4AD
:1032A00083B000AF786039607B683A689A6300BF8A
:1032B0000C37BD465DF8047B704780B483B000AF27
:1032C000786039607B683A68DA6300BF0C37BD46C6
:1032D0005DF8047B704780B483B000AF78603960DC
:1032E0007B685B6823F0007323F070033A681A432D
:1032F0007B685A6000BF0C37BD465DF8047B7047A1
:1033000080B483B000AF78607B685B6C43F40042AC
:103310007B685A6400BF0C37BD465DF8047B70477C
:1033200080B483B000AF78607B68B3F9043018468E
:103330000C37BD465DF8047B7047000090B585B042
:1033400002AF554B554A1A6054480DF0C1FBFFF7C8
:1033500063FB53480BF0E5FC52480CF0D9FB524B91
:103360001B68504A4E4918460CF039FA4E4B196802
:10337000494B1B6800934D4B4D4A4E480BF0E8FFFC
:103380004D480BF0CEFC4D480BF0CBFC4C4B1B6872
:103390004C4ADA604A4B1B684B4A9A604B4B1868A0
:1033A0004B4B1A684B4B1B6846490BF05BFB4A4B77
:1033B0004A4A1A60484B1B6818460BF090FE364B81
:1033C0001B68474A1360464B3E4A5A60444B3E4A8C
:1033D0009A60434B434ADA60414B354A1A61404B8D
:1033E000414A5A613B4B1B683D4A9361384B1B680D
:1033F0003B4AD3613A4B2F4A1A62394B294A5A62E7
:10340000374B3A4A9A62364B394ADA62344B0022D9
:103410001A63334810F05CFC354B224A1A60344B77
:10342000294A5A60324B1E4A9A60314B2F4ADA6061
:103430002F480FF0C1FF002000F04EFB224B01226D
:1034400083F82420184B1B681F4C18460CF034FBE3
:1034500003461A462282C3F30F436382124B1B6852
:1034600018460CF029FB03463B60B7F90220164BC7
:103470009A820D4B1B6818460CF01EFB03467B60BE
:10348000B7F9043000221946164801F0C1F800BF10
:103490000C37BD4690BD00BF800C00207801002095
:1034A000100000201C02002090090020440300208E
:1034B000D0090020000100203C000020680000200E
:1034C0009C090020440A00201C0C0020A0090020B8
:1034D0009809002094090020440C00205803002083
:1034E0008C030020A409002070030020CC000020E1
:1034F000F008002080B582B000AF0346FB71FB7975
:10350000104A52F8233018460EF090FB0E4810F087
:1035100001FD0E480FF0B4FFFB79184600F0DCFA0D
:103520004FF44870FFF79CFCFB79094A2C2101FB02
:1035300003F313441F3308221A7000BF0837BD4637
:1035400080BD00BF800C00208C030020F00800200C
:10355000A409002090B587B000AF0023FB820023B0
:103560007B75A74801F089F90346002B40F0818262
:10357000A34BDB7F142B00F2808201A252F823F0D0
:10358000D53500087B3A00087B3A00087B3A0008F2
:10359000EF3700087B3A0008973900087B3A0008AB
:1035A000D13900087B3A0008113A0008FB390008BD
:1035B0007B3A00087B3A00087B3A00087B3A000817
:1035C0007D370008353700087B3A0008F7380008D7
:1035D000193A00088A4B9B7F012B04D0884B9B7FB4
:1035E000032B40F04C82864801F074F903461946DB
:1035F00084480BF003FF84480BF022F90421824831
:103600000BF054F9642009F0EFF84FF0A040FFF7F9
:1036100037FD7E48FFF734FD4FF0A040FFF744FD33
:1036200070217B48FFF757FE7A4B1B680122A3F8F5
:103630006020784B1B680021184600F097FC754B02
:103640001B6818460EF059FA1420FFF7E3FB7021AF
:103650006F48FFF740FE6A4801F03CF903461946FF
:1036600068480BF0CBFE40F255516948FFF72CFD3E
:10367000602201216648FFF739FD6022102164486D
:10368000FFF734FD60224FF480716148FFF72EFD93
:1036900032215F48FFF7E2FD01215D48FFF788FD19
:1036A00010215B48FFF784FD4FF480715848FFF705
:1036B0007FFD64215648FFF7E4FD64215448FFF77D
:1036C000EEFD64215248FFF7F8FD4FF47A7009F0DF
:1036D0008BF870214E48FFF7FEFD4FF0A040FFF73A
:1036E000E3FC70214A48FFF7F6FD80214FF0A0402F
:1036F000FFF7A0FC80214FF0A040FFF7AEFC444B49
:103700005B6C434A43F4806353644148FFF7F8FD20
:103710003D480BF095F870213D48FFF7DCFD3E4B2E
:1037200001221A6070213A48FFF7D5FD1E2009F0EA
:103730005BF8F4E7324B9B7F052B03D10020FFF7AA
:10374000D9FE9EE1334B1B680121184600F00EFCA8
:103750000346002B00F09581294B9B7F032B09D159
:10376000002000F0B9F9264B00229A77244B002262
:10377000DA7786E1224B1422DA7782E1204B9B7FB5
:10378000052B03D10020FFF7B5FE7CE1FFF752FBCC
:103790000346002B00F077811E4B1B6818460EF085
:1037A00045FA1E4B012283F824201D4B1B681D493E
:1037B00018460CF040F81C480CF004FA154B1B6836
:1037C000184600F09FFB002000F086F9174810F023
:1037D000B5FB104B1B68184600F0BCFB084B0422DD
:1037E000DA770C4B1B68184600F0B4FB4BE1044B36
:1037F0009B7F052B1CD10020FFF77CFE45E100BF1D
:10380000A409002000010020540C002000010050F9
:10381000002C0140800C0020B01E00201C0C002059
:1038200090090020D00900201C0200208C030020F9
:103830009E480BF05FFE034683F00103DBB2002BD2
:1038400010D19B4B1B6818460CF0DAF80346BB817D
:10385000984BB3F91430FB81964B103307F10C02EF
:103860001068186007F11003194693480CF0ACFB80
:1038700007F11003194691480CF012FA0346BB7485
:103880008F4801F027F803465BB219468B480CF0CD
:1038900040FBBB7C194688480CF0B0FCBB7C002B7D
:1038A00000F0F3808548FFF73BFD03461946814B46
:1038B0005A681346184600F0C1FD0346BB60814BB1
:1038C0001B6818460BF00BFC7E4B1B68794AB2F95B
:1038D00010201146002218460BF050FC794B1B6853
:1038E000B7F908201146192218460BF047FC744B13
:1038F0001322DA77C9E0724B9B7F052B03D100209E
:10390000FFF7F8FDC3E0BB1D19466B480CF05CFBEC
:1039100003463B7568480CF095FC0346FB743B7D01
:10392000002B02D1FB7C002B01D0012300E00023FF
:103930003B753B7D03F001033B753B7D002B00F0A5
:10394000A6805C4BB3F910301C465F480BF064FA5C
:1039500003461BB204FB03F319465B480BF038FA2D
:103960005A4810F091F9524B1B68544918460BF015
:1039700062FF002000F05CF9002000F075F94C4B6C
:103980001B6818460CF0B3F84D4800F0F8FE4C4B9D
:103990000622DA777BE04A4B9B7F052B03D1002080
:1039A000FFF7A8FD7AE0464800F0E9FE002000F0AD
:1039B0005BF97B7D83F00103DBB2002B04D0002296
:1039C00020213F4800F0B7FE40480FF05DFD65E064
:1039D000FFF756FA0346002B5BD0354B1B68364980
:1039E00018460BF028FF34480CF0AEFA344B002296
:1039F0009A77334B0022DA774BE0314B9B7F022BD7
:103A000049D12F4B00229A772D4B0022DA7742E0E2
:103A10002B4B0B22DA7741E0294B9B7F052B03D1FF
:103A20000020FFF767FD38E0294811F035F903461B
:103A300083F00103DBB2002B2FD01E4B012283F851
:103A400024201B4B1B681C4918460BF0F4FE1B4836
:103A50000CF0B8F8002000F03FF81D4810F06EFAA6
:103A60001C4B1B68184600F075FA154B0422DA77D8
:103A700013E0134B0A22DA7710E000BF0EE000BF1C
:103A80000CE000BF0AE000BF08E000BF06E000BF96
:103A900004E000BF02E000BF00E000BF0C4810F0EF
:103AA00091FC00BF1C37BD4690BD00BF0001002047
:103AB000900900201C0C0020D00900201C020020CE
:103AC000A4090020440C002010000020F008002071
:103AD0008C030020800C002080B586B000AF034628
:103AE000FB710023BB820023FB8200233B82002367
:103AF0007B820023BB810023FB81FB79454A262181
:103B000001FB03F313441A4607F11403186810600D
:103B1000FB79404A262101FB03F3134404331A4680
:103B200007F10C0318681060FB793A4A262101FB63
:103B300003F313440C331A4607F11003186810609E
:103B4000FB79344A262101FB03F3134410331A4650
:103B500007F1100318681060FB792E4A262101FB3B
:103B600003F313441E3300221A80FB79294A2621CD
:103B700001FB03F313441033063307F110021068FE
:103B80001860FB79234A262101FB03F31344183301
:103B9000023307F10C0210681860FB791D4A2621D8
:103BA00001FB03F31344203300221A80FB791A4AE5
:103BB00052F82330002118460BF00AF9FB79174A16
:103BC00052F82330002118460BF002F9FB79144A11
:103BD00052F8233018460BF03CFEFB79114A52F89C
:103BE0002330184600F0AAF9FB790F4A52F8233027
:103BF000002B06D0FB790C4A52F8233018460AF005
:103C000053FFFB791946094803F036FA00BF18370D
:103C1000BD4680BD1C0C002094090020980900209E
:103C200090090020800C0020A0090020580C0020E2
:103C300080B582B000AF0346FB71FB79FF2B0CD03F
:103C4000FB79084A52F82330002B06D0FB79054A4D
:103C500052F8233018460AF0C7FF00BF0837BD46A8
:103C600080BD00BFA009002090B585B000AF03461D
:103C7000FB7172B600BFFB792C4A262101FB03F3CE
:103C8000134403F1100207F10C031068186062B6C8
:103C900000BFFB79254A262101FB03F3134424339B
:103CA0001B78002B2DD1FB79214A52F82330FC7967
:103CB00018460BF0A5FE034619461C4A262304FBB2
:103CC00003F313441E330A461A80FB79174A262150
:103CD00001FB03F313441E33B3F90030BB81FB79BE
:103CE000144A52F82330002B0BD0FB79114A52F8BA
:103CF0002300FB790E4A52F823301A46F9680AF07D
:103D0000E3FE72B600BFFB79084A262101FB03F3EC
:103D1000134410331A4607F10C031868106062B69A
:103D200000BF00BF1437BD4690BD00BF1C0C002073
:103D300090090020A009002080B58CB000AF034698
:103D4000FB714FF00003FB614FF00003BB614FF0CC
:103D500000037B61614BFB624FF00003BB624FF0DD
:103D600000037B624FF000033B624FF00003FB60F7
:103D70004FF00003BB605A4BDB7F132B13D1594B21
:103D80001B6818460BF084FA034683F00103DBB28C
:103D9000002B08D0534B1B6818460BF0B9F90346AB
:103DA0001AB2514B1A824FF0A043D3F880301B094E
:103DB0001BB23B824D4BD3F880301B091BB27B8278
:103DC000494B1A4607F1100318681060B7F9103014
:103DD00007EE903AF8EEE77AC7ED097AB7F91230B4
:103DE00007EE903AF8EEE77AC7ED087A404BD3ED4C
:103DF000007A07F1080207F10C0397ED081AD7EDD6
:103E0000090AB0EE670A114618460EF0A3FED7ED78
:103E1000037AFDEEE77A17EE903A1AB2324B9A81A6
:103E2000D7ED027AFDEEE77A17EE903A1AB22E4BF2
:103E3000DA81304B1B68012B46D107F1140307F1DF
:103E4000180207F11C012A48D7ED0A0A97ED0B0A60
:103E50000EF0F0FDD7ED077A9FED277A67EE877AAF
:103E6000FCEEE77A17EE901A2448FFF70AFAD7ED2E
:103E7000067A9FED217A67EE877AFCEEE77A17EEF5
:103E8000901A1E48FFF70BFAD7ED057A9FED1A7AC4
:103E900067EE877AFCEEE77A17EE901A1748FFF77D
:103EA0000CFA164B5B6C154A43F480635364134859
:103EB000FFF726FA0E4BD3ED007A9FED117A77EEDD
:103EC000877A0B4BC3ED007A70210C48FFF703FA99
:103ED000002318463037BD4680BD00BFCDCCCC3D59
:103EE000A4090020440C00201C0C002000010050FC
:103EF000B41E0020B01E002000D08445002C0140DC
:103F00006F12833A80B483B000AF78607B68002280
:103F1000A3F868207B680022A3F86A207B6800224F
:103F2000A3F86C207B6800229A637B6800225A63A6
:103F300000BF0C37BD465DF8047B704780B582B08A
:103F400000AF78607B685B687868984700BF083787
:103F5000BD4680BD80B582B000AF78607B689B684D
:103F60007868984700BF0837BD4680BD80B584B0EB
:103F700000AF78600B46FB700023FB73FB78002BCF
:103F800009D17868FFF7DAFF7B68DB6878689847C3
:103F90000123FB731DE0FB78012B1AD17B68B3F87A
:103FA0006030002B13D07B68B3F86030013B9AB2CD
:103FB0007B68A3F860207B68B3F86030002B08D1E1
:103FC0007B68DB68786898470123FB7301E0012375
:103FD000FB73FB7B18461037BD4680BD80B485B0AF
:103FE00000AF78600023FB817B6893F88130002B61
:103FF00005D00223FB817B68002283F881207B6847
:1040000093F88030002B07D0FB8943F04003FB81FD
:104010007B68002283F880207B6893F88230002B35
:1040200007D0FB8943F48063FB817B68002283F81F
:104030008220FB8918461437BD465DF8047B704723
:1040400080B582B000AF78607B68DB69786898479C
:1040500000BF0837BD4680BD80B582B000AF786034
:104060007B681B6A7868984700BF0837BD4680BDEB
:1040700080B582B000AF78607B689B6A78689847AB
:1040800000BF0837BD4680BD80B483B000AF786004
:1040900039607B681B6B23F00F023B681A437B6817
:1040A0001A6300BF0C37BD465DF8047B704780B4CF
:1040B00087B000AFF860B9607A60FB6814331A46C5
:1040C000BB685B0E9B0003F0040313447B617B69B8
:1040D0001A68BB681B0D03F01F03072101FA03F3E5
:1040E000DB431A40BB681B0D03F01F03796801FA1C
:1040F00003F31A437B691A6000BF1C37BD465DF8A5
:10410000047B704780B483B000AF78607B689B68A5
:1041100023F0004323F03F0343F001027B689A60E1
:1041200000BF0C37BD465DF8047B704780B483B098
:1041300000AF78607B689B6803F00103012B01D11D
:10414000012300E0002318460C37BD465DF8047BD0
:10415000704780B483B000AF786039607B689B683B
:1041600023F0404323F03F033A6802F080421343B8
:1041700043F000427B689A6000BF0C37BD465DF893
:10418000047B704780B483B000AF78607B689B6825
:1041900003F00043B3F1004F01D1012300E00023FD
:1041A00018460C37BD465DF8047B704780B483B079
:1041B00000AF78607B681B6803F00103012B01D11D
:1041C000012300E0002318460C37BD465DF8047B50
:1041D000704780B483B000AF78607B6804221A60B7
:1041E00000BF0C37BD465DF8047B704780B483B0D8
:1041F00000AF78607B6820221A6000BF0C37BD4694
:104200005DF8047B704780B483B000AF78607B6852
:104210005B6823F004027B685A6000BF0C37BD4620
:104220005DF8047B704780B483B000AF78607B6832
:104230005B6823F020027B685A6000BF0C37BD46E4
:104240005DF8047B7047000080B584B000AF7860F3
:10425000FF23FB730023BB7329E0BB7B674A52F843
:104260002330002B04D1FB7B042B01D9BB7BFB73D8
:10427000BB7B624A52F82330002B15D0BB7B5F4AD0
:1042800052F823301A797B681B799A420CD1BB7B98
:104290005A4A52F823301A687B681B689A4203D145
:1042A000BB7BFB730423BB73BB7B0133BB73BB7B47
:1042B000032BD2D9FB7B032B00F29980FB7B4F4968
:1042C0007A6841F82320FB7B4D4A002142F83310E5
:1042D0007B681B681846FFF729FF0346002B30D187
:1042E0007B681B681846FFF78EFF7B681B681846C3
:1042F000FFF76FFF7B681B681846FFF794FF7B682A
:104300001B681846FFF772FF7B681B687F21184601
:10431000FFF71FFF00BF7B681B681846FFF732FFDF
:104320000346012BF7D004E07B681B681846FFF7B3
:10433000E9FE7B681B681846FFF738FF0346002B31
:10434000F2D0FA7B2F4913465B0013445B000B4409
:1043500000221A70FA7B2B4913465B0013445B0062
:104360000B440533FA7B1A70FA7B264913465B002F
:1043700013445B000B440433FA7B1A707B681B68A0
:1043800000211846FFF780FE7B6818687B681B7960
:10439000092B12D87B681B799B061A467B681B7910
:1043A000194601238B401A437B681B7919460B463B
:1043B0005B000B441B05134314E07B681B799B06D1
:1043C0001A467B681B79194601238B401A437B6888
:1043D0001B7919460B465B000B441E3B1B05134320
:1043E00043F000737A6892681946FFF760FE7B68B5
:1043F000FA7B1A7300BF1037BD4680BDB81E00207F
:10440000C81E0020E81E002080B483B000AF786092
:1044100039607B683A685A6000BF0C37BD465DF86A
:10442000047B704780B483B000AF78607B689B6882
:1044300018460C37BD465DF8047B704780B58CB0DC
:1044400000AF78600B467B80B7F90230184600F069
:104450006DF80346FB60B7F90430B7F90C2002FB96
:1044600003F3BB62B7F90630B7F90E2002FB03F382
:104470007B62BA6A7B6AD31ADB133B623B6AB3F591
:10448000004F03DB47F6FF73FB8509E03B6A13F53A
:10449000004F03DA4FF40043FB8501E03B6AFB85E4
:1044A000FB8D3B82B7F9103013F5004F02D148F273
:1044B00001033B82B7F90430B7F90E2002FB03F386
:1044C000FB61B7F90630B7F90C2002FB03F3BB61BF
:1044D000FA69BB691344DB133B623B6AB3F5004FD7
:1044E00003DB47F6FF73FB8509E03B6A13F5004FDA
:1044F00003DA4FF40043FB8501E03B6AFB85FB8D4B
:104500007B82B7F9123013F5004F02D148F2010354
:104510007B823B697B610023BA8A62F30F03FA8ACC
:1045200062F31F4318463037BD4680BD80B584B066
:1045300000AF0346FB80104B4FF060121A60B7F9D2
:10454000063003F1FF4303F5FE0319460A48FFF75F
:104550005BFF0948FFF766FF0346BB60BB68FB6073
:104560000023BA8962F30F03FA8962F31F431846E6
:104570001037BD4680BD00BF000C024080B485B03E
:1045800000AF87ED010A3B1DFB60FB681B68184606
:104590001437BD465DF8047B704780B483B000AF2C
:1045A00078607B680022DA607B6800229A6100BF35
:1045B0000C37BD465DF8047B704780B483B000AF14
:1045C00078607B685B6918460C37BD465DF8047BF4
:1045D000704780B483B000AF78600B467B80134691
:1045E0003B807B6801221A737B687A88DA817B685A
:1045F0003A889A837B68012283F824207B6803220F
:1046000083F8252000BF0C37BD465DF8047B70475A
:1046100080B483B000AF78600B467B8013463B804C
:104620007B6802221A737B687A881A827B683A88D0
:104630009A837B68012283F824207B68042283F814
:10464000252000BF0C37BD465DF8047B704780B560
:1046500084B000AF78600023FB73786800F0F5F851
:104660000346002B14D1786800F0FBF80346002BBA
:104670000ED1786800F001F90346002B08D17B6861
:1046800001229A777B68012283F824200123FB739F
:10469000FB7B18461037BD4680BD80B584B000AFA7
:1046A00078600023FB73786800F0CFF803467B73D3
:1046B0007B7B002B02D07B7B0C2B02D10023BB73B6
:1046C00001E00123BB73786800F0CBF80346002BB0
:1046D0000DD1786800F0D1F80346002B07D1BB7BE1
:1046E000002B04D07B6805229A770123FB73FB7BA8
:1046F00018461037BD4680BD80B584B000AF7860E5
:104700000023FB73786800F0A0F803460B2B0DD153
:10471000786800F0B2F80346002B07D17B680022CE
:104720005A847B6802229A770123FB73FB7B18462D
:104730001037BD4680BD80B483B000AF78600B46B3
:104740007B8013463B807B681A8C7B8813439BB22B
:104750001AB2B7F90030DB431BB213401BB29AB256
:104760007B681A847B685A8C7B8813439AB27B6877
:104770005A8400BF0C37BD465DF8047B704780B596
:1047800084B000AF78607B6893F82430012B58D157
:104790000023FB737B681B7B032B36D0032B43DC8E
:1047A000012B02D0022B18D03EE07B685B68002210
:1047B00083F824207B681B68032118460BF077F8E8
:1047C0007B6818687B68B3F90E107B689B8B1A4670
:1047D0000BF080F80346FB7327E07B685B680022E0
:1047E00083F824207B681B68042118460BF05FF8CF
:1047F0007B6818687B68B3F910107B689B8B1A463E
:104800000BF068F80346FB730FE07B685B680122DE
:1048100083F824207B685B687A6810331232126850
:104820001A600123FB7300E000BFFB7B002B04D068
:104830007B68022283F8242003E07B68032283F84C
:10484000242000BF1037BD4680BD80B483B000AFC8
:1048500078607B68DB7F18460C37BD465DF8047BCB
:10486000704780B483B000AF78607B685B8C18467B
:104870000C37BD465DF8047B704780B483B000AF51
:1048800078607B681B8C18460C37BD465DF8047B4E
:10489000704780B485B000AF78607B685B8CFB604C
:1048A0007B681B8C1B04FA681343FB60FB6818468B
:1048B0001437BD465DF8047B704780B483B000AF09
:1048C00078607B6893F8253018460C37BD465DF854
:1048D000047B704780B485B000AF78600123FB8112
:1048E0007B681B7B032B18D0032B1FDC012B02D012
:1048F000022B09D01AE07B68B3F90E30002B17DACF
:104900004FF6FF73FB8113E07B68B3F91030002B87
:1049100010DA4FF6FF73FB810CE07B68B3F91230BD
:10492000002B09DA4FF6FF73FB8105E000BF04E0BE
:1049300000BF02E000BF00E000BFB7F90E3018462C
:104940001437BD465DF8047B704780B483B000AF78
:1049500078607B68B3F90E3018460C37BD465DF8B9
:10496000047B704780B483B000AF78607B689B8B1A
:1049700018460C37BD465DF8047B704780B582B0A1
:1049800000AF78607B681B681846FFF706FE00BF23
:104990000837BD4680BD80B584B000AF78607B68C5
:1049A0001B681846FFF709FEF860F8680AF058FE21
:1049B00003467B81B7F90A3018461037BD4680BDE3
:1049C00080B582B000AF78607B681B6818460AF03B
:1049D00052FF034618460837BD4680BD80B485B0F7
:1049E00000AF78607B685A6807F10C0316321068D4
:1049F00018600023BA8962F30F03FA8962F31F4338
:104A000018461437BD465DF8047B704780B485B006
:104A100000AF78607B685A6807F10C031A3210689F
:104A200018600023BA8962F30F03FA8962F31F4307
:104A300018461437BD465DF8047B704780B483B0D8
:104A400000AF78607B685B68B3F91E3018460C379E
:104A5000BD465DF8047B704790B583B000AF7860C9
:104A60007B681A687B685C6810460BF025F8034683
:104A70001A462282C3F30F43638200BF0C37BD4640
:104A800090BD80B582B000AF78600B46FB707B684C
:104A90009B6AFA781146184602F0EEFA00BF083712
:104AA000BD4680BD80B483B000AF7860044B5A69C6
:104AB0007B68134018460C37BD465DF8047B704791
:104AC0000004014080B483B000AF7860044A7B6882
:104AD000536100BF0C37BD465DF8047B704700BFD3
:104AE0000004014080B500AFFEF70CFAFEE780B588
:104AF00000AF4FF40050FFF7D5FF0346002B05D061
:104B00004FF40050FFF7DEFFFEF733FA00BF80BD21
:104B100080B483B000AF786039607B68DB6C23F4CD
:104B2000FE723B681A437B68DA6400BF0C37BD46EF
:104B30005DF8047B704780B483B000AF7860396063
:104B40007B68DB6C23F4C0723B681A437B68DA64D1
:104B500000BF0C37BD465DF8047B704780B485B05C
:104B600000AFF860B9607A60FB68DA6CBB6803F08C
:104B70001F031F2101FA03F3DB431A407B689B0EDE
:104B800003F01F01BB6803F01F0301FA03F31A438C
:104B9000FB68DA6400BF1437BD465DF8047B7047DC
:104BA00080B483B000AF78607B6840221A6000BF99
:104BB0000C37BD465DF8047B704780B483B000AF0E
:104BC000786039607B685B6823F0007323F07003C2
:104BD0003A681A437B685A6000BF0C37BD465DF8DF
:104BE000047B704780B483B000AF78607B686FF05F
:104BF00001021A6100BF0C37BD465DF8047B7047A7
:104C000080B483B000AF78607B686FF080021A6177
:104C100000BF0C37BD465DF8047B704780B483B09D
:104C200000AF78607B681B6903F08003802B01D1A3
:104C3000012300E0002318460C37BD465DF8047BD5
:104C4000704780B483B000AF78607B686FF4807287
:104C50001A6100BF0C37BD465DF8047B704780B415
:104C600083B000AF78607B681B6903F48073B3F591
:104C7000807F01D1012300E0002318460C37BD4698
:104C80005DF8047B7047000080B485B000AF7860A9
:104C900039607B68FB600C4A3B6813441B781A46FA
:104CA000FB6813441B6808493A680A4412781146A5
:104CB000FA680A4423F00103136000BF1437BD46AD
:104CC0005DF8047B704700BF1053010880B483B0C7
:104CD00000AF78607B681B6803F00203022B01D1F0
:104CE000012300E0002318460C37BD465DF8047B25
:104CF000704780B483B000AF78607B681B6803F0B6
:104D00002003202B01D1012300E0002318460C379B
:104D1000BD465DF8047B704780B483B000AF786017
:104D20007B681B6803F00403042B01D1012300E01E
:104D3000002318460C37BD465DF8047B704780B4ED
:104D400083B000AF78607B681B6803F00803082B12
:104D500001D1012300E0002318460C37BD465DF861
:104D6000047B704780B483B000AF78607B681B68B9
:104D700003F08003802B01D1012300E000231846BB
:104D80000C37BD465DF8047B704780B483B000AF3C
:104D900078607B6802225A6000BF0C37BD465DF820
:104DA000047B704780B483B000AF78607B682022BA
:104DB0005A6000BF0C37BD465DF8047B704780B475
:104DC00083B000AF78607B6804225A6000BF0C3764
:104DD000BD465DF8047B704780B483B000AF786057
:104DE0007B6808225A6000BF0C37BD465DF8047B23
:104DF000704780B483B000AF78607B6880225A60CF
:104E000000BF0C37BD465DF8047B704780B500AF2E
:104E10004FF0A040FFF7C4FE1348FFF7C1FEFEF7B6
:104E200045F8124A09211048FFF798FE80210E48E4
:104E3000FFF76EFE80210C48FFF77DFE0B4A09212B
:104E40004FF0A040FFF78AFE80214FF0A040FFF70F
:104E50005FFE80214FF0A040FFF76DFE70210448F7
:104E6000FFF7ABFE00BF80BD000100500800900CB2
:104E7000002C014080B500AF0348FFF7B3FE0348A4
:104E80000CF023FF00BF80BD002C01407801002002
:104E900080B500AF0948FFF7C1FE0346002B02D0E2
:104EA0000648FFF7ADFE0548FFF7D9FE0346002B85
:104EB00002D00248FFF7C5FE00BF80BD002C0140B4
:104EC00080B500AF03F00CFC00BF80BD80B500AF23
:104ED0000E48FFF721FF0346002B02D00B48FFF7D7
:104EE0006EFF0A48FFF7F2FE0346002B02D0074888
:104EF000FFF74BFF0548FFF722FF0346002B02D0C8
:104F00000248FFF769FF00BF80BD00BF00000240FC
:104F100080B500AF0F48FFF7ECFE0346002B09D029
:104F20000C48FFF73FFF01210A48FFF7ADFE0A4B8F
:104F300000221A700748FFF715FF0346002B06D022
:104F40000448FFF756FF01210248FFF79DFE00BF0E
:104F500080BD00BF000002409C1F002080B483B0D1
:104F600000AF78607B68B3F9043018460C37BD4653
:104F70005DF8047B704780B483B000AF78607B68D5
:104F800093F8483018460C37BD465DF8047B7047EF
:104F900080B483B000AF78607B68D3F800311846E6
:104FA0000C37BD465DF8047B704780B483B000AF1A
:104FB00078607B68D3F8FC3018460C37BD465DF846
:104FC000047B704780B582B000AF78607B68D3ED1A
:104FD000147AB0EE670AFFF7D1FA0346184608378D
:104FE000BD4680BD80B483B000AF78600B23184607
:104FF0000C37BD465DF8047B704780B485B000AFC8
:1050000078607B6893F83430FB73FB7B1846143769
:10501000BD465DF8047B704780B483B000AF786014
:105020000B46FB707B68FA7883F8762000BF0C375C
:10503000BD465DF8047B704780B483B000AF7860F4
:1050400087ED000A7B683A681A6300BF0C37BD46DB
:105050005DF8047B704780B483B000AF78607B68F4
:105060001B6B07EE903AB0EE670A0C37BD465DF851
:10507000047B704780B485B000AF7860124BFB6052
:105080007B6893ED0B7AD7ED037A27EE277A7B685E
:10509000D3ED267A27EE277A7B68D3F89C30D3EDC0
:1050A000136A7B68D3F89C30D3ED147A66EEA77A46
:1050B000C7EE276AF0EE667AB0EE670A1437BD468F
:1050C0005DF8047B704700BFCB151E3580B485B0FA
:1050D00000AF7860124BFB607B6893ED087AD7EDE8
:1050E000037A27EE277A7B68D3ED267A27EE277A94
:1050F0007B68D3F89C30D3ED136A7B68D3F89C307F
:10510000D3ED147A66EEA77AC7EE276AF0EE667AD8
:10511000B0EE670A1437BD465DF8047B704700BFE8
:10512000CB151E3580B483B000AF78607B6893F8F0
:10513000623018460C37BD465DF8047B704780B47A
:1051400083B000AF7860052318460C37BD465DF884
:10515000047B704780B582B000AF78607B68D3ED88
:10516000197AB0EE670AFFF709FA034618460837BE
:10517000BD4680BD80B582B000AF78607B68D3ED5E
:105180001A7AB0EE670AFFF7F9F9034618460837AE
:10519000BD4680BD80B582B000AF78607B68D3ED3E
:1051A0001B7AB0EE670AFFF7E9F90346184608379D
:1051B000BD4680BD80B582B000AF78607B68D3ED1E
:1051C000187AB0EE670AFFF7D9F903461846083790
:1051D000BD4680BD80B483B000AF78600B46FB70E5
:1051E000FB7807EE903AF8EE677A7B68C3ED127AA7
:1051F00000BF0C37BD465DF8047B704780B483B0B8
:1052000000AF78607B689B6D07EE903AB0EE670A5E
:105210000C37BD465DF8047B704780B483B000AFA7
:10522000786087ED000A7B683A68C3F8E02000BF29
:105230000C37BD465DF8047B704780B483B000AF87
:1052400078607B68D3F8E03007EE903AB0EE670AFA
:105250000C37BD465DF8047B704780B483B000AF67
:1052600078607B68D3F8E43018460C37BD465DF8AB
:10527000047B704780B483B000AF78607B68D3F85C
:10528000E83018460C37BD465DF8047B704780B4A3
:1052900083B000AF78607B68D3F8EC3018460C37E9
:1052A000BD465DF8047B704780B483B000AF786082
:1052B0007B689B6D07EE903AB0EE670A0C37BD46EF
:1052C0005DF8047B704780B483B000AF786087EDF1
:1052D000000A7B683A68C3F8342100BF0C37BD462A
:1052E0005DF8047B704780B483B000AF78607B6862
:1052F000D3F8343107EE903AB0EE670A0C37BD466A
:105300005DF8047B704780B483B000AF78607B6841
:10531000D3F84835B3F8483018460C37BD465DF829
:10532000047B704780B483B000AF78607B68D3F8AB
:10533000483593F84A3018460C37BD465DF8047B73
:105340007047000080B582B000AF78607B685B6812
:105350009B891A467B685B685B8802FB03F30B4AF8
:1053600082FB03121A44D213DB17D31A1846FBF739
:10537000F7F802460B4610461946FBF75BF9034661
:105380009BB218460837BD4680BD00BF0180008033
:1053900080B582B000AF78607B685B685B8A1A4634
:1053A0007B685B685B8802FB03F30B4A82FB03129A
:1053B0001A44D213DB17D31A1846FBF7D1F802466A
:1053C0000B4610461946FBF735F903469BB21846C3
:1053D0000837BD4680BD00BF0180008080B483B027
:1053E00000AF78600B467B807A8813461B049B1ABB
:1053F0007A685268528893FBF2F27B685B6892B2DB
:105400009A8100BF0C37BD465DF8047B704780B4BD
:1054100083B000AF78600B467B807A8813461B040C
:105420009B1A7A685268528893FBF2F27B685B6839
:1054300092B25A8200BF0C37BD465DF8047B7047BC
:1054400080B487B000AFBA607B600346FB810B4637
:105450007B730023FB757B7B282B4AD0282B73DCC6
:10546000182B39D0182B6FDC082B02D0102B0DD045
:105470006AE0FB89482B02D10423FB7502E0052377
:10548000FB7500BF7B6801221A8063E0FB8941F64F
:105490005832934215D041F65832934214DCB3F59A
:1054A000696F14D0B3F5696F0EDCB3F5656F0ED07C
:1054B000B3F5656F08DCB3F5B26F02D0B3F5BA6F20
:1054C00002D10423FB7503E00523FB7500E000BF58
:1054D0007B6802221A803DE0FB89182B02D104234D
:1054E000FB7502E00523FB7500BF7B6804221A8070
:1054F00030E0BB681B88BB82BB8A02339AB27B68F0
:105500001A80BB683B613B6901333B613B690133F6
:105510003B617B681A883B8C9A4205D97B680022E4
:105520001A800A23FB7515E0FB89E82B05D0E82BD0
:1055300006DC282B01D0A82B02D10423FB7502E046
:105540000523FB7500BF05E00723FB757B68002280
:105550001A8000BFFB7D18461C37BD465DF8047BF2
:105560007047000080B594B000AFBA607B6003461E
:10557000FB810B467B73002387F84F30002387F8AD
:105580004E3097F84E302C2202FB03F34D4A134461
:10559000BB647B7B282B00F02D83282B00F37483C6
:1055A000182B00F0E081182B00F36E83082B03D03A
:1055B000102B00F0918067E3FB89B3F5E96F6FD0A2
:1055C000B3F5E96F75DCB3F5A16F65D0B3F5A16FE5
:1055D0006FDCB3F5996F5FD0B3F5996F69DCB3F504
:1055E000916F41D0B3F5916F63DCB3F5896F53D000
:1055F000B3F5896F5DDCB3F5816F4DD0B3F5816F85
:1056000057DCB3F5727F47D0B3F5727F51DCC82BFE
:1056100026D0C82B4DDC482B02D0882B04D048E084
:10562000042387F84F3049E0BB681B78FB76FB7E8C
:10563000042B08D1B86CFFF701FA03460022194683
:10564000B86CFEF7E5FFFB7E032B36D1B86CFFF795
:10565000B7F9034600221946B86CFEF7BAFF2CE0F2
:10566000042387F84F3029E0BB681B783B773B7FEA
:10567000194615480AF0A4F83B7F194613480AF06A
:105680009FF83B7F19461248FFF7A4FD3B7F194660
:105690001048FFF7C1FC11E0042387F84F300DE0FC
:1056A000BB681B787B777B7F194609480FF0AAFC03
:1056B00004E0052387F84F3000E000BF7B6801223B
:1056C0001A80E8E2A40900201C020020D009002072
:1056D0008C030020F0080020BB681B88FB83FB893B
:1056E00041F65042934200F02B8141F650429342E2
:1056F00000F3308141F61042934200F01B8141F6E5
:105700001042934200F3268141F65832934200F052
:10571000CD8041F65832934200F31C8141F2503261
:10572000934200F0138141F25032934200F3128110
:1057300041F25002934200F0F98041F2500293424C
:1057400000F3088141F21002934200F0EF8041F231
:105750001002934200F3FE80B3F57D6F00F0E68007
:10576000B3F57D6F00F3F680B3F5796F00F0DE805E
:10577000B3F5796F00F3EE80B3F5696F00F0EE805A
:10578000B3F5696F00F3E680B3F5656F00F0E6806E
:10579000B3F5656F00F3DE80B3F5496F00F0C280AA
:1057A000B3F5496F00F3D680B3F5456F00F0BA80CA
:1057B000B3F5456F00F3CE80B3F5396F00F0B280DA
:1057C000B3F5396F00F3C680B3F5356F00F0AA80EA
:1057D000B3F5356F00F3BE80B3F5296F6ED0B3F526
:1057E000296F00F3B780B3F5256F67D0B3F5256F48
:1057F00000F3B080B3F5216F60D0B3F5216F00F3F3
:10580000A980B3F51D6F59D0B3F51D6F00F3A280C9
:10581000B3F5F26F4ED0B3F5F26F00F39B80B3F5A2
:10582000BA6F43D0B3F5BA6F00F39480B3F5B26F9B
:105830003CD0B3F5B26F00F38D80B3F5926F6AD0B0
:10584000B3F5926F00F38680B3F58A6F5CD0B3F541
:105850008A6F7FDCB3F5647F45D0B3F5647F79DC74
:10586000B3F5547F2ED0B3F5547F73DCB3F5887F46
:1058700015D0B3F5887F6DDC902B02D0D02B07D0EC
:1058800068E0B7F91E301946B94809F069FA66E0D0
:10589000B7F91E301946B64809F071FA5FE0B7F95A
:1058A0001E301946B24809F005FB58E0042387F87A
:1058B0004F3054E0042387F84F3050E0042387F83A
:1058C0004F304CE007F1160207F118031946A948BA
:1058D0000AF0B0FAB7F91E30B7F916201946A548F4
:1058E0000AF0BEFA3BE007F1120207F11403194671
:1058F000A0480AF09FFAB7F91430B7F91E201946EC
:105900009C480AF0ADFA2AE0B7F91E3019469A48C9
:1059100009F035FA23E0B7F91E301946964809F028
:105920001FFA1CE0042387F84F3018E0042387F89F
:105930004F3014E0FB8B19469048FFF74FFD0EE007
:10594000FB8B19468D48FFF762FD08E0042387F8BA
:105950004F3004E0052387F84F3000E000BF7B683C
:1059600002221A8097E1BB681B687B63FB8941F6C2
:105970001852934200F0298141F61852934200F3E5
:10598000318141F65822934200F0288141F6582295
:10599000934200F3278141F61822934200F01E81C2
:1059A00041F61822934200F31D8141F6D81293422A
:1059B00000F0148141F6D812934200F3138141F6AE
:1059C0009812934200F00A8141F69812934200F334
:1059D000098141F65812934200F0008141F65812B5
:1059E000934200F3FF8041F61812934200F0E480E6
:1059F00041F61812934200F3F58041F6D802934223
:105A000000F0D48041F6D802934200F3EB8041F6D7
:105A10009802934200F0C18041F69802934200F34D
:105A2000E18041F65802934200F0AE8041F6580200
:105A3000934200F3D78041F61802934200F0808031
:105A400041F61802934200F3CD8041F2D87293429E
:105A500072D041F2D872934200F3C48041F298723E
:105A6000934269D041F29872934200F3BB8041F2B5
:105A70005872934260D041F25872934200F3B28060
:105A800041F21872934257D041F21872934200F3D8
:105A9000A98041F2D86293424ED041F2D86293423B
:105AA00000F3A080B3F5167F42D0B3F5167F00F364
:105AB0009980B3F5067F37D0B3F5067F00F3928067
:105AC000B3F5EC7F2CD0B3F5EC7F00F38B80B3F50E
:105AD0008C7F21D0B3F58C7F00F38480D82B1BD032
