:020000040800F2
:1000000000800020E9A3000839A40008B1270008F7
:1000100039A4000839A4000839A400080000000031
:10002000000000000000000000000000E17C00086B
:1000300039A4000800000000717D0008D57D00088B
:1000400039A4000839A4000839A4000839A400081C
:1000500039A4000839A4000839A4000839A400080C
:1000600039A4000839A4000839A400083128000880
:100070005D28000839A4000839A4000839A4000844
:1000800039A4000800000000D127000839A40008A6
:1000900039A4000839A4000839A4000839A40008CC
:1000A000F5270008DD27000839A4000839A4000856
:1000B00039A4000839A4000839A4000839A40008AC
:1000C00039A4000839A4000839A4000839A400089C
:1000D00039A400082D28000839A4000839A4000814
:1000E000B927000839A4000839A4000839A4000879
:1000F00039A4000839A4000839A400080000000051
:100100000000000039A400080000000039A4000825
:1001100039A40008000000002D42000839A400089E
:1001200039A4000839A4000839A4000839A400083B
:1001300039A40008000000000000000039A40008F5
:1001400039A4000839A400080000000000000000E5
:10015000000000000000000000000000000000009F
:1001600000000000000000000000000039A40008AA
:1001700039A400080000000000000000000000009A
:100180000000000039A4000800000000000000008A
:10019000000000000000000000000000000000005F
:1001A000000000000000000039A4000839A4000885
:1001B00039A4000839A4000839A400080000000090
:1001C0000000000039A4000800000000000000004A
:0801D00039A4000839A400085D
:1001E00010B5054C237833B9044B13B10448AFF371
:1001F00000800123237010BD200C002000000000AF
:1002000094C9000808B5034B1BB103490348AFF379
:10021000008008BD00000000240C002094C90008E4
:1002200070B4840746D04C1E002941D0D5B2034695
:1002300002E0611EE4B30C4603F8015B9907F8D1B4
:10024000032C2ED9D5B245EA05250F2C45EA0545E4
:1002500019D9264603F11001103E0F2E41F8105C0B
:1002600041F80C5C41F8085C41F8045C01F11001B4
:10027000F2D8A4F1100121F00F0104F00F041031A5
:10028000032C0B440DD91E4621460439032946F898
:10029000045BFAD8211F21F0030104310B4404F060
:1002A00003042CB1D2B21C4403F8012BA342FBD1AE
:1002B00070BC70470C460346C2E70000394A00B5DF
:1002C000136823F00F0343F0040383B01360136833
:1002D00003F00F03042BFAD13349344BD1F88020BB
:1002E00022F48072C1F880201A6842F480721A6089
:1002F0001A685205FCD559682D4A21F0FE4141F09B
:1003000080415960D8682B49024042F4AA4242F029
:100310003202DA60D868284A01400A43DA60DA68B3
:10032000224942F08072DA60DA6842F48032DA60A0
:100330001A6842F080721A600B689B01FCD58B68CA
:100340001A4A43F003038B608B6823F0F00343F0F9
:1003500080038B60936803F00C030C2BFAD15523B8
:100360000193019B2BB1019B013B0193019B002B4E
:10037000F9D10E4B11489A6822F0F0029A609A68FF
:1003800022F4E0629A609A6822F460529A6004F063
:1003900021FD002003F072FF08B172B6FEE703B042
:1003A0005DF804FB00200240007000400010024095
:1003B0000C80FFF90C80FF073255004080FE210AB7
:1003C0002DE98048BFB004F03DFFFFF777FF002222
:1003D000CDE92B22CDE93222CDE93422CDE93622F6
:1003E000C94BCA49DA6C42F00402DA64DA6C02F0F2
:1003F00004021692169ADA6C42F00102DA64DA6CA0
:1004000002F001021792179ADA6C42F00202DA64E3
:10041000DA6C02F002021892189ADA6C42F01002BA
:10042000DA64DB6C03F0100319938020B84B199A3F
:1004300088615969F02321F0F00193FAA3F30BB11D
:10044000B3FA83F3022202FA03F3B14A0B43536176
:100450004FF4005401232AA88DF8B0308DF8B23043
:100460002A9404F0BDFCAB4BDA6894FAA4F3B3FA17
:1004700083F303215B0001FA03F322EA030294FAF7
:10048000A4F1A449CA600A6894FAA4F3B3FA83F306
:1004900003215B0001FA03F322EA0302234693FAE5
:1004A000A3F39C4B984E1A609FED898B802001210D
:1004B0000024CDE9320132A9944836948DED348B75
:1004C00004F048FD9FED847B012232A98F483692CB
:1004D0008DED327B04F03EFD9FED817B012232A940
:1004E0008A4836928DED327B04F034FDB26CDFF831
:1004F00030B2DFF830A2DFF83092874FDFF82C827D
:1005000042F00402B264B26C02F004020192019A59
:10051000B26C42F00102B264B26C1A94CDE91B4491
:10052000CDE92A44CDE92C44CDE92E44CDE91E4441
:10053000CDE92044CDE92444CDE92644CDE9344435
:10054000CDE9364402F001020292029AD6F88820E0
:1005500022F0405242F08052C6F88820F26C42F4F9
:100560000052F264F26C02F400521492149AF26C8B
:1005700042F00102F264F26C9FED5B7B02F001023B
:10058000159232A94FF09040159A8DED327B04F010
:10059000E1FC9FED577B9FED58AB4FF0A04532A992
:1005A0004FF090408DED327B369404F0D3FC1AA9C5
:1005B00028468DED1AAB1C9404F0D6FD2AA92846D6
:1005C0008DED2A8B8DED2C8B8DED2E8B04F0E6FDC1
:1005D000D5F8C020514802EA0B02C5F8C0202A69AC
:1005E00022F480322A612A699FED459B02EA0A02C1
:1005F0002A611EA98DED1E8B04F08CFD24A92846CE
:100600008DED268B8DED249B04F0F8FDEA6802EA5F
:10061000090242F00042EA60EA6C22F4C07242F041
:100620008002EA64AA6822F0204222F03F02AA6017
:10063000AA6822F0104222F03F0242F08052AA60E3
:10064000EA6C22F4785242F4C062EA646A6922F4E5
:10065000606242F400726A61D5F8B02022F00802AC
:10066000C5F8B0202A6B22F4F86242F040022A63F7
:100670006A6922F0380242F020026A61D5F8B0209F
:1006800022F00202C5F8B020CDE91E44CDE92A448B
:10069000CDE92C44CDE92E44CDE924442094CDE984
:1006A0002644CDE93444CDE93644D6F8882022F0FA
:1006B000405242F08052C6F88820F26C42F4005258
:1006C000F264F26C02F40052129231E0AFF3008057
:1006D00000000000000000000040000000000000DA
:1006E0000080000000000000010000000300000086
:1006F0000400000003000000000000000080000073
:1007000080000000000000000010024000100048BF
:1007100000000140000800480001005000030050A4
:1007200000C0FFFFFCFBFFFFFFFFDF7F980B0020F7
:10073000129AF26C42F00102F264F26C02F00102D1
:100740001392139AF26C42F00402F264F26C9FED81
:10075000BE7B02F004021A9232A94FF090408DED58
:10076000327B1A9A04F0F6FBB94B369410221846E5
:1007700032A90323CDE9322304F0ECFB1EA938464D
:100780008DED1EAB209404F0EFFC2AA938468DEDC8
:100790002A8B8DED2C8B8DED2E8B04F0FFFCD7F882
:1007A000C03003EA0B03C7F8C0303B6923F4803341
:1007B0003B613B6903EA0A033B6124A938468DED9E
:1007C000249B8DED268B04F019FDFB6803EA0903D9
:1007D00043F00043FB60FB6C23F4C07343F08003E1
:1007E000FB64BB6823F0204323F03F03BB60BB687E
:1007F00023F0104323F03F0343F08053BB60FB6CB6
:1008000023F4785343F4C063FB64D5F8143123F424
:10081000606343F40073C5F81431D7F8B03023F0A7
:100820000803C7F8B030D5F8303123F4F86343F447
:10083000A073C5F83031D5F8143123F4603343F494
:100840000033C5F81431D7F8B03023F02003C7F8CF
:10085000B030CDE92A44CDE92C44CDE93444CDE98A
:1008600036442E94F36C43F00103F364F36C03F00D
:10087000010311930222119B32A903234FF09040F0
:10088000CDE9322304F066FB0022402371482E9408
:100890002AA9CDE92A238DED2C8B04F0C3FD6E4AE5
:1008A000D8F800301094A2FB0323DB0CC82202FB13
:1008B00003F31093109B2BB1109B013B1093109BE3
:1008C000002BF9D1654B5A6822F400125A601A685D
:1008D000002422F400121A60CDE92A44CDE92C4408
:1008E000CDE93444CDE9364403F586332E94DA6CF1
:1008F00042F00102DA64DB6C03F001030F93802203
:100900000F9B32A903234FF09040CDE9322304F02E
:1009100021FB00224023CDE92A2351482E940022B6
:1009200000232AA9CDE92C2304F07CFD4A4AD8F8FB
:1009300000300E94A2FB0323DB0CC82202FB03F35E
:100940000E930E9B2BB10E9B013B0E930E9B002B27
:10095000F9D1424B43485A6822F480025A601A681F
:10096000002422F480021A60CDE92A44CDE92C4407
:10097000CDE93444CDE9364403F586332E94DA6C60
:1009800042F00202DA64DB6C03F002030D930122F1
:100990000D9B32A90323CDE9322304F0DBFA0022B8
:1009A0004023CDE92A2330482E94002200232AA98F
:1009B000CDE92C2304F036FD274AD8F800300C94FA
:1009C000A2FB0323DB0CC82202FB03F30C930C9B5A
:1009D0002BB10C9B013B0C930C9B002BF9D11F4BB3
:1009E000224D5A6822F080425A601A6822F08042F2
:1009F0001A60AB6C43F00803AB64AB6C0024CDE928
:100A00003244CDE93444CDE9364403F00803009381
:100A10003894009BEB6C43F48023EB64EB6C03F4A1
:100A200080230B930B9B124BDB68124B83F83643EE
:100A30004FF480025A60104E1049F36BDFF840907B
:100A4000DFF8408020E000BF40000000030000000D
:100A5000000800480002014083DE1B4300040140FF
:100A600004020140000400480C0201400010024052
:100A700000ED00E000E100E0001000500100110274
:100A80000078004000030140D34FDFF864A3DFF893
:100A900064B39FEDB38B9FEDB47B23F40073F363DA
:100AA00032AA30468DED367B349438948DED328BFE
:100AB00004F0C8FE3268C94922F002023260F26BCB
:100AC00022F48072F263F26B22F00072F26330461D
:100AD00032AA04F0B7FE3268C14822F40032326014
:100AE000F26B22F08072F263CDE92A44CDE92C4406
:100AF000CDE92E44CDE93244CDE93444CDE9364444
:100B00003894D5F8882022F44032C5F88820EA6C61
:100B100042F00402EA64EA6C9FED95AB9FED969B70
:100B20009FED977B02F0040209922AA9099A8DEDA4
:100B30002A7B8DED2CAB8DED2E9B04F00BFA9FEDF7
:100B4000927B2AA9A6488DED2A7B8DED2CAB8DEDED
:100B50002E9B04F0FFF9AA6D42F08042AA65AA6DAF
:100B600038949FED8B7B02F080420A9232A948466E
:100B70008DED327B0A9A8DED348B8DED368B04F042
:100B8000BBFED9F80420974842F00072C9F804204F
:100B9000D9F80C2022F4FF6222F00602C9F80C20DA
:100BA000D9F80C2022F40042C9F80C20D9F8002012
:100BB00022F40022C9F80020D9F8002022F40032E3
:100BC000C9F80020426842F480024260CDE92A441C
:100BD000CDE92C44CDE93444CDE93644EA6C42F009
:100BE0000102EA64EA6C9FED6C7B02F0010232A91B
:100BF00008924FF09040089A8DED327B04F0AAF9EC
:100C00009FED677B32A94FF090408DED327B36949B
:100C100004F0A0F99FED647B32A94FF090408DED78
:100C2000327B369404F096F92AA940468DED2A8B42
:100C30008DED2C8B04F098FED8F8182022F03802A5
:100C4000C8F81820D8F8002022F48072C8F80020D4
:100C5000D8F8002022F01002C8F80020CDE92A447C
:100C6000CDE92C44CDE93444CDE93644EA6C42F078
:100C70000102EA64EA6C02F001020592059AEA6C4C
:100C800042F00402EA64EA6C02F004020692069A58
:100C9000EA6C42F00202EA64EA6C9FED457B02F0E6
:100CA0000202079232A94FF09040079A8DED327BF5
:100CB00004F050F99FED407B32A94FF090408DED4C
:100CC000327B369404F046F99FED3D7B32A94448CF
:100CD00036948DED327B04F03DF99FED3B7B32A9DC
:100CE000414836948DED327B04F034F99FED387B2A
:100CF0002AA93E488DED2C7B8DED2A8B04F034FE25
:100D0000D8F81C2022F03802C8F81C20D8F804209B
:100D100022F48072C8F80420D8F8042022F01002CF
:100D2000C8F80420214620222AA81E940BF02AFE8F
:100D30002146302232A80BF025FECDE92444CDE92E
:100D40002644CDE928442A6E42F400622A662A6EBF
:100D500002F4006203922023039A1F934CE000BF29
:100D60000000000000000000020000000100000080
:100D7000000000000100000000000000080000006A
:100D8000000100000200000000020000020000005C
:100D9000000000007221800002000000030000003B
:100DA0000400000003000000080000000300000031
:100DB000400000000300000080000000030000006D
:100DC00020000000030000000100000003000000FC
:100DD0000000000020000000002C0140F20042351D
:100DE00000080048000001400004004804030140DE
:100DF00000200140182C01401EA9012341F29A0253
:100E00004FF480743846CDE92143209204F098FFD6
:100E10003A6822F080023A60DAF8182C602442F036
:100E200008020025CAF8182C0121CDE92A452AAA72
:100E30003846002440F64D058DED2E8B8DED308B20
:100E4000CDE92C4504F0D0FFDAF8182C22F004028A
:100E5000CAF8182CDAF8182C42F40062CAF8182CD8
:100E600010212AAA384604F0BFFFDAF8182C22F421
:100E70008062CAF8182CDBF8042042F00802CBF894
:100E800004204FF480712AAA384604F0ADFFDBF845
:100E9000042022F00402CBF80420DBF8042042F402
:100EA0000062CBF8042070222A9241F299022D921E
:100EB0004FF480512AAA384604F096FFDBF804204C
:100EC00022F48062CBF804207B6823F0007323F0C7
:100ED000700343F070037B607B6823F470037B60D6
:100EE000BB6823F08003BB60DAF8602C022393FA1E
:100EF000A3F30BB1B3FA83F34FF4007101FA03F3D8
:100F000022EA0302022393FAA3F3C94BC3F8602C2D
:100F1000D3F8602C42F00202C3F8602CD3F8602CA6
:100F2000042393FAA3F30BB1B3FA83F34FF40071E4
:100F300001FA03F322EA0302042393FAA3F3BC4B5E
:100F4000C3F8602CD3F8602C42F00402C3F8602C84
:100F5000D3F8602C102393FAA3F30BB1B3FA83F305
:100F60004FF4007101FA03F322EA0302102393FA0B
:100F7000A3F3AF4BAF4CC3F8602CD3F8602C42F016
:100F80001002C3F8602C4FF400624FF48063CDE987
:100F900032233F238DF8D4304FF48053ADF8D63050
:100FA0004FF400504FF44033CDE936034FF0007357
:100FB00000253A9332A94FF440139F483495CDE968
:100FC0003855CDE93C553B9305F0BAF8E36C9B48A6
:100FD00043F01003E364E36C03F010039FED928B86
:100FE00004934FF002084FF00009022602274FF445
:100FF0008072049B24A90223CDE92423CDE926890C
:10100000CDE9286703F0A6FF24A98C484FF4806A35
:101010004FF0020BCDE92689CDE928678DED248BB1
:1010200003F098FF24A98548CDE92689CDE92867F2
:10103000CDE924AB03F08EFF4FF40062022324A914
:101040007E48CDE92423CDE92689CDE9286703F040
:1010500081FF4FF48052022324A97848CDE924234C
:10106000CDE92689CDE9286703F074FF02234FF408
:10107000005224A97148CDE92423CDE92689CDE980
:10108000286703F067FF2946202232A80BF07AFC7C
:10109000CDE92C552E95D4F8883023F00303C4F8FD
:1010A0008830236E43F480432366236E03F4804329
:1010B0001E931E9BE36C43F00103E364E36C03F0B7
:1010C000010324932AA907234FF090400024002510
:1010D000249A2F938DED2A8B03F03CFF00220723E7
:1010E0002AA94FF09040CDE92E23CDE92AABCDE9D6
:1010F0002C4503F02FFF524B5249D3F80028524899
:1011000022F0FF0242F01802C3F800289A680A4051
:101110009A609A6822F440529A609A6822F02002FB
:101120009A609A6822F040029A609A6842F08002BF
:101130009A609A6822F440729A609A6822F4406237
:101140009A60D3F8042822F0FF0242F01902C3F893
:101150000428DA690A4042F01002DA61DA6922F4FE
:101160004052DA61DA6922F02002DA61DA6922F0AB
:101170004002DA61DA6942F08002DA61DA6922F467
:101180004072DA61DA6922F44062DA6100224FF4D7
:10119000E133CDE9322332A900220C23CDE93623F5
:1011A000CDE93445CDE9384505F00EF8274A52E837
:1011B000003F23F0604342E800310029F7D152E8B4
:1011C000003F23F0606342E80034002CF7D11E4B4F
:1011D0001A6822F000521A605A6822F490425A604B
:1011E0009A6822F02A029A601A6842F001021A6094
:1011F000DA699102FCD5DA695202F9D500F004F9F6
:10120000134BDB68C3F30223C3F107011A1D042942
:1012100028BF0421062A88BFDA1E4FF0FF3303FAE5
:1012200001F317E0AFF300800002000002000000AD
:101230000020014000100240002C01400010004836
:1012400000000240EFBFFFFF0038014008380140B6
:1012500000ED00E06FEA030398BF002203F00803EB
:1012600093401B015E4ADBB282F825332023536092
:101270005C4BDB68C3F30223C3F107011A1D042989
:1012800028BF0421062A88BFDA1E4FF0FF3303FA75
:1012900001F36FEA030398BF002203F008039340B1
:1012A0001B014F4ADBB282F80B334FF4006313602B
:1012B0004C4BDB68C3F30223C3F107011A1D042959
:1012C00028BF0421062A88BFDA1E4FF0FF3303FA35
:1012D00001F36FEA030398BF002203F00903934070
:1012E0001B013F4ADBB282F818334FF08073136062
:1012F0003C4BDB68C3F30223C3F107011A1D042929
:1013000028BF0421062A88BFDA1E4FF0FF3303FAF4
:1013100001F36FEA030398BF002203F00503934033
:101320001B012F4ADBB282F819334FF000731360B0
:101330002C4BDB68C3F30223C3F107011A1D0429F8
:1013400028BF0421062A88BFDA1E4FF0FF3303FAB4
:1013500001F36FEA030398BF002203F007039340F1
:101360001B011F4ADBB282F812334FF48023136053
:101370001C4BDB68C3F30223C3F10702042A03F109
:10138000040128BF0422062988BFDC1E4FF0FF336A
:101390009340DB4303F00803A340114A1B01DBB277
:1013A00082F828334FF4807353600F4C0FCC2AAD72
:1013B0000FC554F8043B2B6000212AA806F09AFAC6
:1013C0000A4B18600FCC32AD0FC523682B6000218B
:1013D00032A806F08FFA064B186006F085FAFEE791
:1013E00000E100E000ED00E0ACC900083C0C00208A
:1013F000400C0020034B02689A4200D0704703F073
:1014000039BF00BF0010004008B5034800F0A8F83D
:10141000BDE8084000F0EEB9440C002008B503F028
:1014200035FF044BA3FB0030C009BDE8084003F0C2
:10143000DFBF00BFD34D62102149224A8B6823F4DD
:10144000401323F0700343F0100330B48B608B68BB
:1014500023F4803323F0070343F006038B60936D7E
:10146000DB0782B015D4936D43F001039365936D50
:101470004FF0804103F001030193019B4B6943F05E
:1014800001034B61936D23F00103936502B030BCFF
:1014900070474FF080430C4C5A6859680B4D2140FF
:1014A00041F020015960586940F0010058615968C5
:1014B0002A4021400A435A6002B030BC704700BF46
:1014C000002C0140001002408FFFFFFD7000000261
:1014D000013270B552086FF0020655010661002214
:1014E00093F800C0BCF10F0F02F1010E0CD8046993
:1014F000A407F5D51FFA8EF295420661F0D81C7844
:101500000F2CEDD801230B8070BD00BF014B186874
:1015100001F098B8440C0020014B186801F0A8B8FD
:10152000440C0020014B186801F0C2B8440C0020A4
:10153000014B186801F080B8440C002000B583B05E
:101540008446049801900093044813460A46614675
:101550000AF00AF803B05DF804FB00BF00030020A6
:1015600000283FD070B5204C204E066082B0002588
:10157000257000F029FA1E4807F0D4F81D4807F03E
:10158000DFFC1D4800F032FE1C4807F085F91C48BE
:1015900000F02CFE1B4807F0A1F81B48B06202F0D7
:1015A000F9F91A4806F00CFE184806F0A1FF40F2BF
:1015B0000313ADF804308DF806500199134806F076
:1015C00009FE40F20113ADF8003000990F4806F013
:1015D000E1FE0E4806F082FF02F024FE0123237094
:1015E00002B070BD704700BF3A1F00203C000020D1
:1015F00060010020280A0020180A0020D0090020DD
:10160000EC090020FC090020780C0020740C00205C
:1016100038B5054607480C4601F00EF808B1002021
:1016200038BD044801F00EF80028F8D0024BDD82E6
:101630001C8338BD3C000020480C0020214B1B7847
:10164000B3B170B5204C23889BB1013B23801F4A66
:1016500013889BB21BB11388013B9BB213801C4AB9
:1016600013889BB21BB11388013B9BB2138070BDE2
:1016700070471848184D012102F0BAF900F0A6FA97
:101680001448012102F0E2F902F0CEFD294651F89A
:101690000C0B83689847686030B129460A2251F8DC
:1016A000080B0368984710B901232380CFE7284629
:1016B00002F094F82868EA894668A9680A23B047C6
:1016C000F2E700BF3A1F00203E1F00203C1F002011
:1016D000401F0020780C00208C0A0020014B18804D
:1016E000704700BF3C1F0020034B188880B2B0FA3F
:1016F00080F04009704700BF3C1F0020014B18805C
:10170000704700BF401F0020034B188880B2B0FA1A
:1017100080F04009704700BF401F00200C4A08B508
:101720000C4B52689A60002000F046FC0A4A0B48B5
:10173000136890F829100133136029B90548002176
:1017400002F062F9002008BD08F08AFDF6E700BF4C
:10175000001000E0780C002020620020600A0020C9
:10176000034B1B78012B00D07047024809F0DCBF07
:101770003A1F00200003002008B5084809F088FF40
:10178000074809F03BFA002000F0D6F8BDE8084011
:1017900004480022802100F007BF00BF00030020A2
:1017A000680000203C00002008B503F0F3FA642034
:1017B00005F00AFD1E22002141F28830FFF728FFC4
:1017C000012005F001FDFFF739FFF9E708B5012019
:1017D00005F0FAFCFFF7C4FFF9E700BF08B5FFF713
:1017E000A7FE18B9BDE80840FFF790BEBDE8084065
:1017F000FFF792BE30B4464A464BD3611021D16107
:1018000090B0D361D1690F914FF090434FF0011127
:1018100001200F9CD961D861D961DC690E940E9DBD
:101820003D4CDC618025DD61DC61DC690D940D9D42
:101830003A4CDC610225DD61DC61DC690C940C9DB5
:10184000374CDC610825DD61DC61DC690B940B9DA4
:10185000344CDC610425DD61DC61DC690A940A9D9D
:10186000314CDC614025DD61DC61DB6909932024BA
:101870002E4B099DD361D461D361D3690893A2F53E
:101880008062089BD161D061D161294BD2690792F6
:101890004FF400714FF481320798DA61D961DA614F
:1018A000DA6906924FF400614FF484320698DA61E7
:1018B000D961DA61D96905914FF482324FF48061C0
:1018C0000598DA61D961DA61DA6904924FF400515E
:1018D0004FF490320498DA61D961DA61DA690392DF
:1018E0004FF480514FF488320398DA61D961DA619C
:1018F000DA6902924FF480710E4A0298DA61D96176
:10190000DA61DB690193019B10B030BC704700BF06
:1019100000080048100001008000010002000100E2
:101920000800010004000100400001002000010047
:10193000001000480001010038B526231B4900FBB8
:1019400003F300255D50044603F1080258181033D4
:101950000A440B44164945605560956051F82400CF
:10196000C3F80650C3F80A50C3F80E50294606F0D3
:10197000EDFE104B294653F8240006F0E7FE0E4B0F
:1019800053F8240007F042F90C4B53F8240000F000
:10199000B5FB0B4B53F8240008B106F01DFE2146A1
:1019A0000848BDE8384002F017B800BF480C0020D6
:1019B000C8090020C4090020CC090020AC0C00207C
:1019C000BC090020780C00202DE9F04FDFF8588189
:1019D0004548464F464EC8F8000085B007F0A8FEBF
:1019E000444DDFF848A1DFF84891DFF848B1424C98
:1019F000FFF722FD384606F095FE304607F0C4F9A1
:101A000028683246394607F0E9F8D8F800302968E6
:101A100000935246394B484606F0CCFF384806F052
:101A200081FE384806F07EFE374A384B10681B6846
:101A3000374A3849D96012689C60DBF8003006F0FC
:101A4000BDFD354B3548186006F02AFF304B344851
:101A5000DBF800201B68C0F82090DFF8DC90D8F895
:101A600000C02C49DFF8D480DFF8D4B0C0F810A053
:101A7000C0E906234FF0000A2A4BC0F800C04160BD
:101A8000436184604662C0F82C90C0F830A0C0F872
:101A90000C80C0F828B009F0D9FC4846C9E9027B9F
:101AA000C9F80060C9F8044009F044F85046FFF74F
:101AB00043FF0123286884F8243007F029F92082A5
:101AC000C0F30F406082286807F022F9C0F30F438B
:101AD0002868A38207F01CF9524601B2404605B0BF
:101AE000BDE8F04F00F056BD9C01002060010020D1
:101AF00060080020CC090020480C00204C08002081
:101B00003401002008010020BC090020C009002089
:101B1000C4090020D0090020700C002040020020E1
:101B20000003002000000020AC0C0020280A002048
:101B300088020020C8090020680000203C00002026
:101B400088090020FF2805D0034B53F8200008B176
:101B500006F09EBD704700BFBC0900202DE9F04192
:101B6000054682B072B6164E262404FB0064206936
:101B7000B4F91070019062B694F824305BB172B67B
:101B8000262000FB0565ADF804700198286162B657
:101B900002B0BDE8F081DFF8308058F8250007F08A
:101BA0008DF8084BE083074653F825000028E6D05F
:101BB000ADF8047058F82520019906F011FDDEE714
:101BC000480C0020BC090020CC090020F0B5884C4E
:101BD00083B0204600F034FDC8B9E37F142B18D839
:101BE000DFE813F01C01170017001700C7001700EB
:101BF0009601170084001700990093001700170042
:101C0000170017009C007200170040001D000A23F7
:101C1000E377784803B0BDE8F04009F091BFA37FB7
:101C2000052B00F0878173480AF0F4FB0546002875
:101C3000EFD1714A714B10687149012283F8242059
:101C400006F0E2FF6F4807F079F82846FFF774FEC8
:101C5000684809F031FD6C4B186800F051FA042314
:101C6000E377D6E7A37F052B00F06481644801A9E0
:101C700007F06AF90546624807F00EFA002D00F0F9
:101C80006D815E4B6148B3F9105006F067FD00B2FC
:101C900000FB05F15D48584D06F058FD5C4809F021
:101CA000B1FB5849286806F0AFFF0020FFF74AFF54
:101CB0000020FFF753FF286807F038F84C4800F081
:101CC0007FFC0623E377A4E7A37F052B00F0328196
:101CD0004D4B0121186800F015FA002899D0A37F18
:101CE000032B00F049811423E37792E7FFF70CFD03
:101CF00000288ED0404B4249186806F085FF4048C6
:101D000007F010F90023E38383E7A37F022B80D140
:101D10000023E3837DE70B23E3777AE7A37F052B9B
:101D200000F00881FFF7E0FC00283FF472AF364D69
:101D3000286807F099FB304A304B1068304901227F
:101D400083F8242006F060FF2E4806F0F7FF28688D
:101D500000F0CCF90020FFF7EFFD264809F0ACFCBD
:101D6000286800F0CDF904232868E37700F0C8F96B
:101D70004FE7A37F052B00F0DD80264806F09AFE92
:101D8000002840F0EF801F4E1D480DF1020107F0C2
:101D9000DBF80DF10201304607F030F80546144833
:101DA00000F0A2FC41B2304607F0B8F814482946CA
:101DB00007F064F9002D3FF42CAF104FB6F9041072
:101DC0007868154D00F092FB03462868019306F0F1
:101DD00067FDB7F910102868002206F0A7FDBDF9CD
:101DE00004102868192206F0A1FD1323E37710E7F9
:101DF0003C00002000030020CC090020480C0020FB
:101E0000280A002060080020AC0C0020600100209F
:101E10006800002088020020700C0020A47F04F0DD
:101E2000FD04012C7FF4F5AE5648574D574E00F097
:101E30005BFC0146564806F0F5FD564806F04EFBA1
:101E40000421544806F07AFB642005F0BDF92868A7
:101E50000021A0F8604000F055F9286807F0B8FAB2
:101E60001420FFF73BFC474800F03EFC0146484881
:101E700006F0D8FD326A484B4848494942F4AA6204
:101E800042F005023262D3F8182C024042F06002A0
:101E9000C3F8182CD3F8182C22F0807222F4E642F2
:101EA00042F4C042C3F8182C4A68024042F0600273
:101EB0004A60726C22F0FF0242F032027264D3F880
:101EC000182C42F00802C3F8182CD3F8182C42F44E
:101ED0000062C3F8182C4B68642543F008034B607C
:101EE0004FF47A707563B563F56305F06DF9736C43
:101EF00028482C4D43F480637364736C43F40043AF
:101F0000736406F0EBFA1E202C6005F05DF9FAE729
:101F1000A37F052B0ED01B4800F052FB0020FFF7DB
:101F20001DFE18480022202100F03EFB1E4808F04C
:101F300069FE6EE6144B186807F096FA1B4809F024
:101F4000A7FB194808F05AFE0020FFF7F5FC4FF4F4
:101F50004870FFF7D3FB0823E3775AE600287FF4A5
:101F600090AE56E6124B186806F0A8FE114BB3F976
:101F7000142018825A8206E70020FFF7DDFC0023B8
:101F8000E38346E63C000020AC0C0020002C01401E
:101F900088020020740C0020002001408CFFFEFF0E
:101FA000182C0140441F002068000020000300207E
:101FB000CC090020480C002030B5414AD27F87B0C0
:101FC0000023132A0093019302930493059333D0C3
:101FD0003C4C3D4D00F048FA00F0F6F93B4B1868D8
:101FE00003A903689847BDF90E300398206001EEFD
:101FF000103ABDF90C3095ED000A00EE903AB8EEBB
:10200000C11AF8EEE00A05A904A808F057FB9DEDF7
:10201000047ADDED057A2E4BBDEEC77AFDEEE77A48
:1020200017EE102A1B68A28117EE902A012BE2817D
:102030000ED0002007B030BD264C206806F05AFCB8
:102040000028C5D120681F4C06F032FC2082C0E772
:1020500002AB01AA2846DFED200A9FED200A69465F
:1020600008F0ECF9DDED006A9DED017ADDED027A14
:102070009FED1B6A1B4B66EE866A27EE067A67EEBB
:10208000867AFCEEE66ABCEEC77AFCEEE77AC3ED30
:102090000D6A83ED0E7AC3ED0F7A5A6CD5ED007A96
:1020A0009FED117A42F480625A645A6C77EE877A17
:1020B00042F4004200205A64C5ED007A07B030BDFA
:1020C0003C000020480C0020481F0020AC0C0020E1
:1020D000441F0020700C002000000000CDCCCC3D3F
:1020E00000D08445002C01406F12833A0023C0E9E0
:1020F0000D338366A0F86C30704700BF4368184703
:102100008368184710B5044682B099B1012902D0FE
:10211000002002B010BDB0F860309BB1013B9BB213
:102120000191A0F86030002BF2D1C3689847019963
:102130000846EEE7FFF7E2FF2046E36898470120F4
:1021400002B010BD084602B010BD00BF90F8833049
:102150001BB990F87B30022B04D0012380F880302B
:1021600078307047D0E90F2110B4436CB0F8484084
:102170009462B0F84A40B0F84C208C629A62012315
:1021800080F880305DF8044B783070474A6C034625
:102190004FF0010C42F480624A64783083F881C0C9
:1021A00083F883C0704700BF90F88130B3B100233B
:1021B00080F881304221022390F880201AB1002358
:1021C00080F880300B4690F882202AB143F4806377
:1021D00000229BB280F88220184670474021EBE72E
:1021E000C3691847036A1847836A1847724A116817
:1021F00070B5002900F08F8090F804C00B799C45E1
:1022000020D05368002B00F09D801C7964454FF06E
:10221000FF0100F089809468002C00F0B4802379DD
:10222000634500F08880D368002B00F0B5801C79EE
:10223000644500F09280032988BFFF2140F2B880F6
:10224000017370BD036809688B42DAD100215B4CD1
:1022500042F821009A68002544F83150D50722D46D
:102260005A68042422F004025A601C605A68202430
:1022700022F020025A601C609A6822F0404222F04C
:102280003F0242F000429A609A68002AFCDB1A681A
:10229000D40708D44A4C9A68224042F001029A605E
:1022A0001A68D207F7D501EB410C4FEA4C0C454CAC
:1022B000002204F80C20644461F3070261F30F224A
:1022C000A2801A6B22F00F021A6390F804C0BCF1CE
:1022D000090F49D80CEB4C044FEA8C6242EA0452D5
:1022E000012404FA0CFC42EA0C02D40D04F00404AC
:1022F00003F1140586686359C2F304524FF0070EC8
:1023000006FA02FC0EFA02F223EA020242EA0C0288
:102310006251017370BD5368002B41D090F804C026
:102320001C7964457FF477AF1C6803689C427FF496
:1023300072AF01218BE7246803689C427FF473AF7E
:10234000022184E794680121002C7FF468AFD368F0
:1023500073B31D790479A5422AD11C6803689C4295
:102360007FF469AF032172E703226FF01D0412FBB3
:102370000C44012202FA0CF242EA045242EA8C6254
:1023800042F00072B1E7042910D9D36813B119796A
:102390008C450FD00368D3E704290368E2D856E7D9
:1023A00094681CB190F804C0194638E72146CEE77E
:1023B00003684CE70221D0E7881F00204C1F002053
:1023C000C0FFFF7F6C1F0020244B25481A7802EBCA
:1023D000420310F81330A3B3224B10B553F8223048
:1023E000196804240C6093F804C0BCF1090F4FEA8B
:1023F000420E27D903236FF01D0413FB0C44012365
:1024000003FA0CF343EA045343EA8C6343F000738A
:10241000724400EB42000A6B1B0D03F4F86322F4D4
:10242000F86213430B630B6C8B6823F0004323F0BB
:102430003F034FF0010C43F004038B6080F801C0B0
:1024400010BD70470CEB4C044FEA8C6343EA045315
:10245000012404FA0CFC43EA0C03D9E7841F002092
:102460006C1F0020881F002030B41248124A0378E5
:1024700003EB430112F8114002EB4101BCB10F4CD8
:1024800054F82340246825686D074FEA430C09D5AA
:102490004D7815F0FD0F05D0246C24F00F044C800E
:1024A00002244C70634402EB43025379037030BC46
:1024B000704700BF841F00206C1F0020881F002071
:1024C000094B00F1FF404FF0601200F5FE001A606A
:1024D00058609B6800209AB262F30F001B0C82B018
:1024E00063F31F4002B07047000C024030B585B066
:1024F0000346054608461C140193FFF7E1FF2DB281
:102500000FFA80FC031405FB0CF104FB1311B1F16D
:10251000804F05DACA1312F5004F22DA144901E0A0
:1025200047F6FF710CFB04F405FB0344B4F1804F44
:102530004FEAE43204DA12F5004F0CDA0C4B01E0FA
:1025400047F6FF738AB2002062F30F009BB263F379
:102550001F4005B030BD064813B28342B8BF0346E2
:10256000F0E7034912B29142B8BF1146DAE700BF63
:102570000180FFFF82B08DED010A019802B0704723
:102580004FF0010C40F2013380F80CC0C18182830E
:10259000838470474FF0020C40F2014380F80CC076
:1025A0000182828383847047038CB0F822C00B437E
:1025B00023EA020341EA0C0103844184704700BF0F
:1025C00090F82430012B00D0704710B5027B022A0E
:1025D000044607D0032A28D0012A17D0032384F801
:1025E000243010BD4368002283F8242000680421B1
:1025F00006F018FBA28BB4F91010206806F016FB49
:102600000028EBD0022384F8243010BD4368002258
:1026100083F824200068032106F004FBA28BB4F9A0
:102620000E10206806F002FBEAE7426882F82430C8
:10263000D0F812301361E5E7C07F7047408C7047D7
:10264000008C704710B50446FFF7F6FF08B1002074
:1026500010BD2046FFF7F2FF0028F8D12046FFF713
:10266000EFFF0028F3D10120A07784F8240010BDEB
:1026700038B50546FFF7E0FF50B1B0F10C0428462D
:1026800018BF0124FFF7DAFF40B10024204638BD0F
:1026900004462846FFF7D2FF0028F6D12846FFF768
:1026A000CFFF0028F1D1002CEFD00523AB77EDE769
:1026B00010B50446FFF7C0FF0B2801D0002010BD65
:1026C0002046FFF7BDFF0028F8D10223A3776084DE
:1026D000012010BD438C008C43EA0040704700BFCE
:1026E00090F82500704700BF037B022B05D0032B19
:1026F00013D0012B09D001207047B0F91030002B06
:10270000ACBF01204FF0FF307047B0F90E30002B06
:10271000ACBF01204FF0FF307047B0F91230002BF2
:10272000ACBF01204FF0FF30704700BFB0F90E0082
:10273000704700BF808B704703680022DA609A619F
:10274000704700BF0368586906F0FCB9006806F0DE
:1027500065BA00BF4268D2F81600002382B262F365
:102760000F03000C60F31F4382B0184602B070479D
:102770004268D2F81A00002382B262F30F03000C01
:1027800060F31F4382B0184602B070474368B3F944
:102790001E00704710B5D0E9000406F0B9FAC0F386
:1027A0000F432082638210BD806A01F015B900BF1B
:1027B00008B5FEF7E1FFFEE7044B5A69920400D426
:1027C00070474FF400525A61FFF708B80004014007
:1027D0004FF0A04340221A60FEF7A0BF034B04480D
:1027E0006FF001021A6107F069BB00BF002C0140C5
:1027F0009C01002008B50B4B1A69120605D56FF035
:10280000800209481A61FFF7A1FC06490B69DB0544
:1028100007D56FF480730B610348BDE80840FFF7EC
:10282000B5BC08BD002C01409C01002001F00ABE8F
:10283000094B1A68500744BF04225A60064B1A68B5
:10284000910744BF02225A60034B1A68120744BF23
:1028500008225A60704700BF000002400B4B1A6804
:10286000910608D520225A60DA69094922F001024E
:102870000020DA610870054B1A68120605D580221F
:102880005A60DA6922F00102DA6170470000024002
:10289000E51F00201829BDF900C032D013D808293F
:1028A0003BD0102935D1B0F5656F3ED01ED9B0F5BB
:1028B000696F3AD041F65832904214BF0520042087
:1028C00002221A807047282923D11288023292B23C
:1028D0001FFA8CFC62451A8029D8E8282BD020F0FA
:1028E0008000282814BF05200420704720F04000F5
:1028F000B0F5B26F4FF0020214BF052004201A8019
:10290000704718284FF004020CBF104605201A80AB
:10291000704700221A800720704748284FF00102B4
:102920000CBF042005201A8070470020C8E7002251
:102930001A800A2070470420704700BF30B583B06A
:102940001829BDF918C01C4600F00B8130D80829A1
:1029500000F0C680102940F0F680B0F5F26F1588BF
:1029600021D042D9B0F5796F1DD051D941F610432D
:10297000984200F0CB810DD941F65043984257D18F
:10298000A24B5A68C5EB05455388B5FBF3F300200D
:10299000538209E041F25003984204D07BD941F2BE
:1029A0005033984270D104200223238003B030BDFD
:1029B000282940F0C880138802339BB21FFA8CFC90
:1029C0006345238000F28381B0F5D47F00F0E1817C
:1029D00000F2ED81E82800F0808120F080002828B6
:1029E00014BF0520042003B030BDB0F5547F00F0C3
:1029F000B58127D9B0F58A6F00F0828155D9B0F53D
:102A0000926F14D1824829B205F094FE0020CBE7E2
:102A1000B0F5396FC7D021D9B0F5656F00F05B8193
:102A200054D9B0F5696F14BF05200020BCE701D26E
:102A30000520B9E720F04000B0F5B26F14BF0520C3
:102A40000420B1E7D02800F05581B0F5887F7FD110
:102A5000704829B205F09CFE0020A5E7B0F5256F6F
:102A6000A1D008D9B0F5296F9DD0B0F5356F14BF4E
:102A70000520042098E7B0F51D6F94D0B0F5216FC4
:102A800014BF052004208FE741F65833984214BF45
:102A90000520042088E7B0F57D6F84D041F2100353
:102AA000984214BF052004207EE7B0F5647FBFD1B3
:102AB00059480DF1060201A906F00EFA5648BDF973
:102AC00004102AB206F010FA00206DE7B0F5456F49
:102AD0003FF469AFB0F5496F14BF0520042063E7E8
:102AE000B0F5916F00F01C8112D8882800F0F780B3
:102AF00024D9B0F5816F00F0E88040F2D180B0F5C4
:102B0000896F14BF052004200123238003B030BD4A
:102B1000B0F5E96F05D13D48117809F031FE00208C
:102B2000F2E701D90520EFE7B0F5996F00F0CD800D
:102B3000B0F5A16F14BF05200420E5E7482814BFB5
:102B400005200420E0E700230720238003B030BDE8
:102B500090287FF46DAF2F4829B205F0EBFD0020DF
:102B600022E741F618039842116800F0058116D952
:102B700041F6D803984200F0EC8063D941F6D813AF
:102B8000984200F0A08016D941F61853984275D1AA
:102B90001E4800EE101A09F0F9FD002032E0B0F5F1
:102BA000067F00F0D2800FD9B0F5167F28D11B4BDD
:102BB0000020596126E041F6181398424FD1134B7B
:102BC0000020C3F834111DE0D8287CD009D9B0F515
:102BD0008C7F78D0B0F5EC7F13D1104B00201961B9
:102BE00010E0982854D10E4B0E4809B283FB012304
:102BF000A3EBE171002209B2FFF7C2FC002001E063
:102C000012D205200423238003B030BD000300202E
:102C100094080020600100206008002004000020CB
:102C2000ABAAAA2A3C00002041F2587398424AD02D
:102C30003ED920F0400041F29873984214BF05201D
:102C40000420DFE741F6580398424FD041F698033D
:102C50009842D6D1614B0020C3F8E010D2E741F68C
:102C600017139842CDD941F6581398422BD041F60C
:102C70009813984214BF05200420C3E7C1D820F060
:102C8000400041F61823984214BF05200420B9E7FC
:102C9000B7D820F04000182814BF05200420B1E761
:102CA000C82812D0B0F5727F14BF052004202BE78E
:102CB00041F2D863984206D041F21873984214BF8B
:102CC000052004209EE704209CE704201CE7002345
:102CD00023800A206AE6002066E6042066E6137870
:102CE000042B70D0032B64D000200DE73C4B002058
:102CF000196387E73B4829B205F01EFD002053E623
:102D0000394829B205F018FD00204DE6334B5A68CA
:102D1000C5EB05455388B5FBF3F30020938143E6EB
:102D200015783248294605F057FF3148294605F005
:102D300053FF07EE905A294A294BF8EE677A83F839
:102D40007650C2ED127A0020DEE62A4B0020D960D0
:102D500058E7224809F0F2FC002053E723480DF120
:102D6000060201A906F0B8F82048BDF9062029B2EC
:102D700006F0BAF8002017E6184B93F834300BB180
:102D80000A2BA0D1154800EE101A08F039FE0020D9
:102D900038E7D2F802301849D28881FB0301A1EB51
:102DA000E371164809B2FFF7EBFB0020FEE50520B2
:102DB000FCE51248FFF7CAFC002201460F48FFF766
:102DC000DFFB0020A0E60D48FFF7E0FC00220146F3
:102DD0000A48FFF7DFFB002096E600BF0003002053
:102DE0006800002060010020940800206008002096
:102DF000280A002004000020ABAAAA2A3C000020D8
:102E000010B584B0A1F1080CBDF918E0BCF1200F99
:102E100012D8DFE80CF01D11111111111111381128
:102E20001111111111112411111111111111471149
:102E30001111111111111400072004B010BD282820
:102E40003AD012880232052092B21A8004B010BD26
:102E5000BEF1000F2EDD01221A800520EDE7BEF144
:102E6000030F24DD41F25861884253D041F298614A
:102E7000884248D041F21861884236D005200422A9
:102E80001A8004B010BDBEF1010F10DDB0F5656F02
:102E900029D0B0F5696F14BF0520002002221A80E6
:102EA00004B010BD002205201A8004B010BD082017
:102EB00004B010BD0846C0E71FFA8EFE0A21BEF11D
:102EC0000B0F118002D80C220820BEE71549486874
:102ED000D1F800C00989C2F80600C2F802C05181C9
:102EE00000200C22B1E70020D8E70F49886ACDE91D
:102EF000022300F0D1FD8DED010ADDE90112039BF3
:102F000011600020BBE70849886ACDE9022300F080
:102F1000EFFDF0E70449886ACDE9022300F018FECE
:102F2000E9E700BFA8CB00083C00002030B58DB019
:102F3000A1F1080CBDF940E014461D46BCF1200F7C
:102F400012D8DFE80CF02E111111111111114611D8
:102F50001111111111116B11111111111111911187
:102F6000111111111111140007200DB030BDB0F571
:102F7000947F02F1020300F03C827AD8A82800F086
:102F80002E82E82840F026821FFA8EFE0E22BEF125
:102F90000F0F228000F20B82102308202B800DB02F
:102FA00030BDBEF1000F40F31382B0F5816F00F029
:102FB0003E827FD8C82800F034826FD9B0F5727F86
:102FC00040F0048201231370002001232B800DB0F8
:102FD00030BDBEF1010F40F3E581B0F5296F00F07F
:102FE000648200F28380B0F5926F00F08A8200F272
:102FF000DE80B0F5547F00F07A826BD9B0F5647F43
:1030000000F04182B0F58A6F7FD1B34805F09AFB9A
:103010002080002002232B800DB030BDBEF1030FB5
:1030200040F3C08141F2D873984200F00B8300F264
:103030001B81B0F5067F00F0008300F2FC80D828E9
:1030400000F0F58240F2E980B0F58C7F00F0AD82AF
:10305000B0F5EC7F40F0FE82A04B1B6913600020AE
:1030600004232B800DB030BD002305202B800DB034
:1030700030BDB0F5D47F40F0AD819948FFF756FBE5
:1030800000EB40004300C4F802309548FFF752FBC4
:103090000623E0802380002008237FE7482800F0F3
:1030A000DD81882840F092818D48FFF719FB207060
:1030B00000208AE7B0F5996F00F0C48140F291805A
:1030C000B0F5A16F40F08281864B93F862301370A7
:1030D00000207AE7D02800F0F681B0F5887F78D11B
:1030E000814805F057FB2080002093E7B0F57D6F05
:1030F00000F0158225D8B0F5496F00F0088213D989
:10310000B0F5796F00F0138201D9052082E7B0F5A0
:10311000656F00F04A81B0F5696F4FF0020314BF8C
:10312000052000202B8077E7B0F5396F00F0D981BA
:10313000B0F5456F21D16D4805F0C2FE208000201A
:1031400068E741F25033984200F0C3811ED941F63E
:103150001043984200F0FD8141F650439842D4D18B
:10316000634B5A68538A528802FB03F3614AA2FBFD
:103170000323DB0B002023804CE7B0F5356FC4D16F
:103180005A4BB3F904301380002043E741F2100397
:10319000984200F0D28141F250039842B5D14F4895
:1031A00005F090FAC0F30F402080002032E7B0F520
:1031B0001D6F00F0828122D9B0F5216F00F06D8182
:1031C000B0F5256FA1D14648FFF7D2FA2080002044
:1031D00020E7902899D1444805F0B0FA20800020DB
:1031E00018E7B0F5896F00F03581B0F5916F40F0C8
:1031F000ED803E4805F0EEFC20700020E5E6B0F5DD
:10320000B26F00F0A081B0F5BA6F7FF47EAF3A489C
:1032100005F076FA20800020FCE6582800F0FE81B8
:10322000982850D12E48FFF791FA00EB400040005B
:103230002060002014E741F21873984200F0C98121
:1032400040F2868041F25873984200F0A68141F224
:103250009873984240F0FE81254B93ED180AFFF7D2
:1032600089F920600020FBE641F69813984200F0AF
:10327000A88154D841F6D803984200F09C813FD9E8
:1032800041F61813984200F0788141F6581398429D
:1032900040F0E081134BDFED195AD3F89C20D3EDB9
:1032A0000B7AD3ED266A92ED137A92ED146A67EEEB
:1032B000A57A27EE067A67EEA67A0020C7EE877A0F
:1032C000C4ED007ACCE6182840F0C4810448FFF72A
:1032D00001FA20600020C3E69408002004000020CA
:1032E0003C000020680000206001002060080020F1
:1032F0000003002001800080FC090020CB151E3552
:1033000041F65803984200F0338141F69803984201
:103310002FD1B44BD3F8E03013600020A0E641F683
:103320005823984200F01E812DD941F65833984217
:1033300000F0298141F61853984240F08B81A9484A
:1033400009F018FA8DED010A019B2360002087E641
:10335000B0F5167F00F0018141F2D863984240F049
:103360007981A04B93ED190AFFF704F92060002042
:1033700076E641F61803984240F06C81994B9B6DBC
:10338000236000206CE641F6D8139842F6D041F64F
:103390001823984240F05E81924BD3F8E8301360D6
:1033A00000205DE608200DB030BD002032E68E4AD8
:1033B00012685068D2F800C09168C4F802C0586022
:1033C000996092899A8100201023E7E50520FCE5A9
:1033D0000846CAE52388023305209BB2DEE51FFAC2
:1033E0008EFE1022BEF1110F22803DD8122308203C
:1033F000D4E51FFA8EFE0C22BEF10D0F22800DD9EE
:103400007A4A5068D2F800C09168D268C4F802C005
:1034100058609960DA6000200E23BFE50E23082073
:10342000BCE5734B93F8483013700020CDE56D4830
:1034300009F04CF96F4A92F83420034613440020F7
:103440002370C2E5674BD3F8483593F84A301370C0
:103450000020BAE50F2313700020B6E56648FFF799
:10346000EBF820700020B0E5644A12685068D2F88A
:1034700000C09168D268C4F802C058609960DA60F0
:10348000002012238AE55E480BAA0AA905F024FD54
:10349000BDF82C3023800020BCE55748FFF75AF9CF
:1034A000C0F30F4020800020B4E55348FFF760F9D7
:1034B000C0F30F4020800020ACE54F48FFF74AF9E9
:1034C00020800020A6E54F4805F03CF92080002030
:1034D000A0E5444BD3F84835B3F8483013800020BA
:1034E00098E5474805F06CFB2080002092E54448B1
:1034F0000BAA0AA905F0F0FCBDF8283023800020B3
:1035000088E5414805F01AF92080002082E53C4812
:1035100005F0D6FCC0F30F40208000207AE53B4840
:1035200005F0C4F8C0F30F402080002072E5374852
:1035300005F0BCF8208000206CE5344805F0C2F8A6
:103540002080002066E5324805F032F82080002017
:1035500060E5244B5A68938905E62C4B5B69136040
:1035600000207DE51F4BD3F8EC301360002077E599
:10357000204B1B6B1360002072E51A4BD3F83431DB
:10358000136000206CE5234B186805F04DF98DEDB4
:10359000010A019B2360002062E5124B93ED1B0A98
:1035A000FEF7E8FF206000205AE5154BD3F8FC3009
:1035B0001360002054E50B4BD3F8E4301360002077
:1035C0004EE50C4BDFED145AD3F89C20D3ED087A6E
:1035D00067E6044B93ED1A0AFEF7CCFF206000204B
:1035E0003EE500BF000300208C0B0020780B00207C
:1035F00088020020680000203C000020880B00208A
:1036000060080020600100209408002004000020D1
:10361000D0090020C0090020CB151E350E48FFF749
:1036200091F800EB400040002060002018E50B4BB3
:10363000D3F800311360002012E5094BDB681360FA
:1036400000200DE5074B93ED140AFEF793FF206071
:10365000002005E5052003E53C000020600800206F
:1036600004000020680000202DE9F04FB0F90C4064
:10367000324B89B04FF0000A06935445304BADF8F9
:1036800016A0D0E901C607460793A0F80EA03BDDBF
:1036900006EB0108CDF80CA0C6F101090CF10205FA
:1036A000BCF800C05FFA8CF1023C01F0070B0DF191
:1036B000200A1CF0060F0FFA84FE0DF116032A46AD
:1036C000A4B22CF007000AEB8B0B01F0380122D1D9
:1036D000CDF800E05BF808BCD847BDF8162006EB33
:1036E0000903DBB2A41A012B24B205EB020C1AD099
:1036F000464514D006F8010BFB890133FB8140B924
:10370000002CCBDC039838B90020F88109B0BDE863
:10371000F08F07280CD1012009B0BDE8F08F0820F8
:1037200009B0BDE8F08F002CE2D10028ECD0F3E71F
:103730000A28F0D001230393E2E700BF9528000890
:103740003D2900082DE9F04786B00023ADF80E3082
:10375000C381B0F80C801F4B04931F4BD0F804902A
:1037600086680593B8F1000F23D007460DB24C468A
:1037700034F802CB5FFA8CF101F0070E0DF1180A54
:103780001CF0060F32462CF007000DF10E030AEB79
:103790008E0E01F038010CD100955EF808ACD047D0
:1037A000A8EB040319FA83F39BB230B106B0BDE86D
:1037B000F087012006B0BDE8F087BDF80EC0FA8999
:1037C000A5EB0C0562446644FA812DB2002BCFD1E3
:1037D000ECE700BF012E00082D2F0008F0B545686A
:1037E0002B8803F47F4223F0070CB2F5807F83B06F
:1037F00004461FFA8CFC5ED0013B03F0070303EB89
:103800008302624F03EB4203023507EB8307236811
:10381000456080899A890238013A80B20026BCF15D
:10382000480F91B2A081E68112B232D8BCF1480FA4
:1038300026D8DFE80CF069252525252525257125C5
:1038400025252525252564252525252525255C25B2
:103850002525252525255625252525252525762596
:1038600025252525252552252525252525257E2582
:1038700025252525252584252525252525258B0058
:1038800000230220A268D054E3890133E38103B00E
:10389000F0BDBCF1780F6ED0BCF5807F74D0BCF168
:1038A000680FEDD1A3680093294604F10E03FDF7DC
:1038B00045FEE389E6E7808923680238CCF3C40C2F
:1038C0009A8980B202350023BCF1010FA0816560A6
:1038D000E38141D900230D20D4E73846FEF7ACFE42
:1038E00028B13846FEF7C4FEE3890020CAE738460F
:1038F000FEF7A8FE80F00100E389C0B2C2E72046CF
:10390000FFF720FFE389BDE7A36804210122E181DD
:103910001A70E3890020B5E72046FFF7A5FEE3898A
:10392000B0E73846FEF788FE062829D0E389002054
:10393000A8E73846FEF7BCFEE3890020A2E7384638
:103940000021FEF731FFE38900209BE73846FEF7B0
:1039500021FFE389002095E7013A12B20C4B53F89E
:103960002C60002EB6D0A3680093294604F10E0304
:10397000B047E38986E701F029FDE389304681E716
:103980003846FEF7D9FED1E7B446E7E73C00002011
:10399000CC1E00200E490F4AD1F8FC3043F0807352
:1039A000C1F8FC3013682BB100235360136843F057
:1039B0000103136000234FF0FF32C0E90233C0E976
:1039C0000423C0E90633C0E908230370436070474D
:1039D00000ED00E0001000E000EB411300224FF08A
:1039E000FF31C3E90321C3E908125A61DA61704764
:1039F0000022044B426000EB01115B68012202705F
:103A00008B607047001000E00F4A00EB011310B408
:103A10009B685468A34288BF04F1FF340A01E31A8B
:103A200002440478D36014B142681A44426000EB47
:103A300001105DF8044B42699A42026938BF436144
:103A40009A4288BF03617047001000E0114A00EB02
:103A5000011310B49B68546800220270A3424FEA1D
:103A60000112024488BF04F1FF34E31AD3604468B2
:103A70009C4238BF1B1B00EB011038BFD36042696A
:103A80005DF8044B9342026988BF4361934238BF9B
:103A900003617047001000E090ED037ADFED106ADB
:103AA000D0ED077AB8EE477AF8EE677A87EE260A05
:103AB00087EEA66ADFED0B6A9FED0B7A20EE260AF1
:103AC000F7EE007AA6EE070AB4EEE70AF1EE10FA76
:103AD000DABFDFED067A20EE270A9FED040A704771
:103AE000E81F224D00409C4600007A440000C84276
:103AF00090ED097ADFED116AD0ED057A9FED100A9D
:103B0000B8EE477AF8EE677AC7EE265A87EEA66ACD
:103B1000DFED0C6A9FED0C7AA5EEA60AF7EE007AAF
:103B2000A6EE070AB4EEE70AF1EE10FADABFDFED0F
:103B3000077A20EE270A9FED050A7047E81F224DFD
:103B40000000000000007A4400409C460000C8428B
:103B5000036A5A1C2AD007EE903A9FED176A036950
:103B60009FED167A9FED160AF8EE677A591CC7EE9C
:103B7000866AA6EE870A0BD007EE903A9FED0E6A92
:103B80009FED107AF8EE677AC7EE866AA6EE870A8E
:103B9000F7EE007AB4EEE70AF1EE10FADABFDFEDE5
:103BA0000A7A20EE270A9FED080A704703699FED05
:103BB000040A5A1CE0D17047E81F224D00007A44E5
:103BC0000000000000409C460000C84230B402687B
:103BD00002F1080151E8003F43F0010341E80034DD
:103BE000002CF7D1C168194D43686C5C234402F185
:103BF000240199604023136202F1080151E8003F5B
:103C000043F0400341E80034002CF7D14023136215
:103C100052E8003F43F0400342E800310029F7D169
:103C200002F1080151E8003F43F0800341E800340D
:103C3000002CF7D101698368695C0B4402F128000C
:103C40004021986030BC1162704700BF80CB0008F3
:103C50000369806810B40B4CE35CC458E40700EBC4
:103C6000030C0CD4CCF80C10DCF80410090C09047B
:103C70001143CCF80410C25842F00102C2505DF862
:103C8000044B704780CB000830B4C3680B4D4468C8
:103C9000E85C255804EB000C25F001052550CCF814
:103CA0000C10DCF804301B0C1B041A43CCF8042065
:103CB000235843F00103235030BC704780CB0008E9
:103CC00002681023136252E8003F43F0100342E8F9
:103CD00000310029F7D1704710B40B780A7991F8B8
:103CE00002C01E4CDB0143EA02134A7843EA022376
:103CF000CA7843EA8C3343EA4253DAB242F005020F
:103D000023F07041A25C82EA1122D2B2A25C82EA64
:103D10001142D2B2A25C124C82EA1162A25C43EA66
:103D2000027343F00503036272B6836C4BB162B653
:103D300090F8243013B9022380F824305DF8044B46
:103D4000704700F12001032380F82430816462B6BB
:103D50000422836D5DF8044B40691847C4CB00080A
:103D6000B4CB000830B54FEA411C90F860E090F801
:103D700063401E4D4CEA011C0EF0010E4CEA023C61
:103D80004CEA8E1343EACE1304F00F0443EA0423F3
:103D9000DAB2174C42F0060243F00601A25C82EA56
:103DA0001322D2B2A25C82EA1342D2B2A25C82EAAD
:103DB0001363EB5C41EA0373036272B6836C3BB13D
:103DC00062B690F8243013B9022380F8243030BD55
:103DD00000F12001032380F82430816462B60422BC
:103DE000836D4069BDE83040184700BFB4CB000880
:103DF000C4CB00080A2A10B403460BD090F8362032
:103E0000012A21D990F83E20012A11D900205DF81D
:103E1000044B704790F82E20012AF7D8826A0124BB
:103E200004320A6083F82E4020465DF8044B704748
:103E3000826B012003F1380483F83E0004321C64D5
:103E40005DF8044B0A607047026B012003F13004F7
:103E500083F8360004321C645DF8044B0A60704736
:103E600070B590F86440022C02D00221084670BD63
:103E700043EA021441F8044C90F86C40012C04D140
:103E80004FF6CA648C52023292B20A2B03D1047CE0
:103E900094B30024047451F8044C354DE6B2C4F3D5
:103EA000072EAE5D8EEA060E043215F80E60C4F3DE
:103EB000074E8EEA060EA1F1040C15F80EE0C4F3CD
:103EC00003658EEA050E2B4D15F80E5044EA057475
:103ED00092B241F8044C72B6816CE1B162B6092B22
:103EE0000DD00A2B2ED0002B32D190F8241069BBB4
:103EF000022380F82430B9E70121084670BD036C25
:103F0000446C19688C4514BF032100216CB3022056
:103F100098719A80AAE7092B22D00A2B4FF003014F
:103F20000BBF00F1280300F1200380F82E1080F869
:103F30002410836462B6836D40696146984700210E
:103F4000084670BD90F82E30012B03D003218DE779
:103F500000218BE7022380F82E308285002185E73F
:103F6000036C032199718364E4E74364CFE700BFE6
:103F7000C4CB0008B4CB00082DE9F84390F86130B9
:103F8000C269002504460D8093B190F8646080F802
:103F90006150012E54D0022E3ED0002E33D0636DDE
:103FA0006069042204F11C0198472846BDE8F883A3
:103FB00090F86250002DF8D02B0443EA0525C5F394
:103FC00007239649964883F00903CA5C45F00F031E
:103FD00082EA15454A5D825C43EA0273236272B647
:103FE000A36C002B3AD062B694F8243013B90223A4
:103FF00084F8243000256069236D84F86250984766
:104000002846BDE8F883836E052B00F09580062BCB
:1040100000F0D7803546C2E7836E052B5FD0062BB4
:1040200000F0D680092BBAD190F86030B0F85C204F
:10403000A5690133012084F8603020740A80AEE75E
:10404000836E052B16D0062BA9D1C2F30F32314651
:10405000FFF788FE022384F86430A0E704F1200112
:10406000032384F82430A16462B60422A36D60693E
:104070009847BFE7037F407F94F86D1094F86C5029
:1040800094F86E6094F86F7000F03F00DB09814295
:10409000C2F3863C28BF0146AB429846C2F3465E57
:1040A00028BFA846B44584F86C80E04628BFB046D7
:1040B000BE4584F86E80F04628BFB846AB4284F80F
:1040C0006D1084F86F8040F28980002384F864309A
:1040D00004F16C012046FFF7FFFD00255FE7037F39
:1040E000407F94F86D1094F86C6094F86EC094F86A
:1040F0006F7000F03F00DB09814228BF0146C2F328
:10410000863EB3429946C2F3465828BFB146E645BB
:1041100084F86C90F14628BFE146B84584F86E906B
:10412000C14628BFB946B34284F86D1084F86F9039
:1041300065D984F86450CBE7657F007F94F86D30D3
:1041400094F86CC094F86EE094F86F8005F03F0529
:10415000C009AB42C2F3863728BF2B4660450146F3
:10416000C2F3465928BF6146774584F86C1039463A
:1041700028BF7146C1454E4628BF4646604584F873
:104180006D3084F86E1084F86F60A1D89D429FD87E
:1041900077459DD8C1459BD894F87000C2F30212B0
:1041A000904295D14A1C0133D2B2DBB25201B60122
:1041B0005B010121A281E681A4F85E3084F86410DD
:1041C00086E7C2F30F323146FFF7CCFD3546E6E60F
:1041D000C2F30F320121FFF7C5FDE0E688423FF64A
:1041E00074AFB4453FF671AFBE453FF66EAF94F87D
:1041F0007030C2F3021293427FF467AF68E78842DF
:1042000097D8E64595D8B84593D894F87050C2F33E
:104210000212AB1A5D425D418BE700BFC4CB0008C0
:10422000B4CB0008704700BF704700BF014801F0E1
:1042300097BC00BF981F00200F4B10B5186E40F0C0
:10424000010018661C6E82B004F001040094009C0A
:104250009C6D44F080549C659B6D03F080530193EA
:1042600000220F216FF00100019B01F063F802B002
:10427000BDE8104001F044B8001002401F4B70B57B
:104280009A6D1F4C42F010029A659B6D88B003F046
:10429000100301A90293064603A8029B01F00EF841
:1042A00000F0FAFF174A1849A2FB00239B0C013BC0
:1042B0000022C4E90013204640F2E7332261A260E5
:1042C000E36001F07BFB054610B1284608B070BDE5
:1042D000204601F003FC05460028F6D1362001F007
:1042E00067F80F2E01D90125EFE72A46314636201F
:1042F00001F020F8054B1E60E7E700BF0010024008
:10430000981F002083DE1B4300100040940B002008
:10431000454A464B916C464830B441F001019164E6
:10432000926C444D444C82B002F001020192019A19
:104330009A6822F001029A601D6199683F4A41F033
:1043400020019960996821F040019960996841F0D5
:1043500080019960996821F440719960996821F40D
:1043600040619960996821F4405141F4005199608D
:10437000996841F002019960D96921F00101D96180
:104380005C62D96921F02001D961D9699FED247B54
:1043900021F04001D9610021016480F8441080EDD2
:1043A000127BD96941F08001D961D96921F440714A
:1043B000D961D96921F44061D961D96921F44051A9
:1043C00041F40051D961D96941F00201D96152E843
:1043D000003F43F0400342E800310029F7D152E8A2
:1043E000003F43F0800342E800310029F7D10F4934
:1043F000134A4861CB681B0C1B0443F04003CB609D
:104400008B6843F001038B6052E8003F43F01003D8
:1044100042E800310029F7D102B030BC704700BF3C
:1044200000000000000000000010024000000240F8
:10443000E81F002024380140283801400838014096
:1044400000380140164BDA69D20670B506D5154C16
:1044500010221A62237803F0FF063BB1104B0220B2
:1044600004210822186219621A6270BD0E4D0F48AD
:1044700001232370E96889B2C1F1400100F02EFAEE
:10448000AB6823F00103AB60EB681B0C1B0443F02B
:104490004003EB60AB6843F00103AB602670DDE7DF
:1044A00000380140E41F002000000240E81F002007
:1044B000144A0368934282B004D0134A934211D045
:1044C00002B07047114B186E40F4006018661B6E06
:1044D00003F400630093009B00220621192002B020
:1044E00000F028BF094B186E40F4803018661B6E30
:1044F00003F480330193019B00220621182002B0AF
:1045000000F018BF002C01400040014000100240A4
:1045100030B5B24C039DE37145F2AA53217162712B
:10452000411D002223800123A271A170E3700028A5
:1045300000F09E81621B0732431E022ADBB240F26A
:104540008D81072B40F28A812A68A26083086A68FD
:10455000E260022B2DD0AA682261032B29D0EA68E1
:104560006261042B25D02A69A261052B21D06A69DA
:10457000E261062B1DD0AA692262072B19D0EA69D5
:104580006262082B15D02A6AA262092B11D06A6ACE
:10459000E2620A2B0DD0AA6A22630B2B09D0EA6AC9
:1045A00062630C2B05D02A6BA2630D2B1CBF6B6BB7
:1045B000E36300F0FC0202F108039042DBB218D082
:1045C00002F1010C15F802E004F803E05FFA8CFC3C
:1045D00002F109036045DBB20BD915F80CC004F8F1
:1045E00003C0931CDBB20A329842D2B201D9EB5C11
:1045F000A354CBB2821D00F1080C072B00F1090077
:10460000D2B25FFA8CFCC0B240F23681D4F8061008
:10461000D4F8023001F07F3E9508594003F07F3313
:10462000734401F08031022D83EA010300F0B6806B
:10463000D4F80A1003F07F3E4B4001F07F31714403
:1046400003F08033032D83EA010300F0A780D4F840
:104650000E1003F07F3E4B4001F07F31714403F0B8
:104660008033042D83EA010300F09880D4F81210FF
:1046700003F07F3E4B4001F07F31714403F0803303
:10468000052D83EA010300F08980D4F8161003F0A9
:104690007F3E4B4001F07F31714403F08033062DA3
:1046A00083EA01037AD0D4F81A1003F07F3E4B401E
:1046B00001F07F31714403F08033072D83EA010359
:1046C0006CD0D4F81E1003F07F3E4B4001F07F31D8
:1046D000714403F08033082D83EA01035ED0D4F8DF
:1046E000221003F07F3E4B4001F07F31714403F014
:1046F0008033092D83EA010350D0D4F8261003F04B
:104700007F3E4B4001F07F31714403F080330A2D2E
:1047100083EA010342D0D4F82A1003F07F3E4B40D5
:1047200001F07F31714403F080330B2D83EA0103E4
:1047300034D0D4F82E1003F07F3E4B4001F07F318F
:10474000714403F080330C2D83EA010326D0D4F8A2
:10475000321003F07F3E4B4001F07F31714403F093
:1047600080330D2D83EA010318D0D4F8361003F0FE
:104770007F3E4B4001F07F31714403F080330E2DBA
:1047800083EA01030AD0D4F83A1003F07F354B4096
:1047900001F07F31294403F080334B40C3F30721FC
:1047A000C3F307451944294401EB136332F0FC05B8
:1047B000DBB202F0FC013FD06518AD782B444D1CF4
:1047C000EDB29542DBB237D225440231AD78C9B2A1
:1047D0002B449142DBB22FD202E000BF38200020F0
:1047E0006518AD782B444D1CEDB29542DBB223D257
:1047F0002544AD782B448D1CEDB29542DBB21BD223
:104800002544AD782B44CD1CEDB29542DBB213D2DA
:104810002544AD782B440D1DEDB29542DBB20BD291
:1048200025440531AD78C9B22B449142DBB203D2A5
:1048300021448A781344DBB204F80C30114BDA6956
:1048400022F00102DA619C621A6A120C120402431D
:104850001A62DA6942F00102DA6130BDEA186B1EB1
:10486000094D13F801CF05F801CF9342F9D1C0E605
:1048700009204FF0080C0622A178E3780B44DBB244
:104880000221ADE7000002403F20002010B4104C90
:10489000104B236000232071A37106300E4B617111
:1048A000E27151FA80F052FA80F0DA69207222F057
:1048B0000102DA619C621A6A5DF8044B120C120460
:1048C00042F009021A62DA6942F00102DA617047C5
:1048D00038200020AA55050100000240402930B4CC
:1048E0000A46404C28BF4022002953D0231A022BED
:1048F0006BD9082969D993080168C4F80110012B04
:104900004FD04168C4F80510022B4AD08168C4F822
:104910000910032B45D0C168C4F80D10042B40D0FA
:104920000169C4F81110052B3BD04169C4F815107A
:10493000062B36D08169C4F81910072B31D0C16914
:10494000C4F81D10082B2CD0016AC4F82110092BC3
:1049500027D0416AC4F825100A2B22D0816AC4F8F6
:1049600029100B2B1DD0C16AC4F82D100C2B18D0A8
:10497000016BC4F831100D2B13D0416BC4F8351006
:104980000E2B0ED0816BC4F839100F2B09D0C36BDE
:10499000C4F83D30144BD2B22270186830BC03F01A
:1049A00007B8910722F00303F4D0E118C55C4D70FD
:1049B000591C8A42EED965180233415C69709A42EB
:1049C000E8D9E118C35C4B70E4E7064D411E0B4685
:1049D00002331B1A11F801CF05F801CF9A42F6D81D
:1049E000D8E700BF78200020C420002010B5094C73
:1049F0000FCC86B00DF1040CACE80F002368CCF8A6
:104A00000030002101A802F075FF034B186006B0CA
:104A100010BD00BFD4C90008BC200020F0B58278CA
:104A20004479B0F803508BB00020062AADF80C0092
:104A3000ADF80E000DD9A2F1800082F08002042AA8
:104A400009D8A1B2042806D8DFE800F05105B6CB9A
:104A50000F00022A01D80BB0F0BD043A022A00F27E
:104A6000CE80DFE802F03D2F36000024254602E02C
:104A70000134062C1BD003A9E0B206F00BF8BDF8F8
:104A80000C6000B2ADF80E00002EF1D004AB6A1E2F
:104A90001A444FEAC60C002340FA03F10833634579
:104AA00002F8011FF8D10134062C3544E3D1E8B2F5
:104AB0003728D0D804AA0023009284211A46FFF791
:104AC00027FDC8E7002211460520FFF7DFFE0BB0E7
:104AD000F0BD002211460620FFF7D8FE0BB0F0BD56
:104AE000002211460420FFF7D1FE0BB0F0BD474B6A
:104AF000474C1A88ADF81A2080226260598898893C
:104B0000444ADB89ADF8143022604FF48033002230
:104B10000793ADF81600ADF81810049204AB0FCB54
:104B20003D4E3E4DF76904F1080C8CE80F0027F06C
:104B30000107F761B462336AD4F806201B0C1B042A
:104B400043F019033362F36943F00103F361554005
:104B500002F07F32D4F80A30D4F80E1002F21512A7
:104B600005F08035554003F07F3002F07F326B4016
:104B7000024403F08033534002F07F304B4001F099
:104B80007F320244D4F8121003F0803353404B407C
:104B900002F07F3201F07F310A4403F0803353404A
:104BA000C3F307215A1C0A44C3F307410A4402EB2A
:104BB000136323760BB0F0BD03AA284605F00CFF63
:104BC0009DF80C60ADF80E00372E3FF644AF0DF1A6
:104BD0000E030093EAB2234682213046FFF798FC89
:104BE00039E77E2328460022ADF80C3005F028FF77
:104BF0002246E9B28320FFF749FE0BB0F0BD002248
:104C000011460320FFF742FE25E700BF480C0020B5
:104C100038200020AA55150100000240150180002F
:104C20002DE9F84F594D5A4C28684FF0FF3102F0EA
:104C300093FE0028F8D127782378032BFFB2F3D90D
:104C40007E1E002EF0DD03464FF0040C04E001331D
:104C50009BB2B3421846E7DA221851785529F6D1AB
:104C6000411C04EB010E9EF801E0BEF1AA0FEED14B
:104C7000012BD9D8B142D7DA92F803E0391A0339B7
:104C80007145D1DD72440EF10109033019F0FF09BD
:104C900092F804B0204474D0BEF1070F73D94FEAE4
:104CA000990A80461CFB0A0A002258F8041B02F0ED
:104CB0007F3E4A4001F07F31714402F08032D0459E
:104CC00082EA0102F1D1C2F30721C2F3074E114477
:104CD000714401EB126239F0FC0ED2B209F0FC0112
:104CE00046D010F801E0724401F1010E5FFA8EFE29
:104CF000F145D2B23CD910F80EE0724401F1020E37
:104D00005FFA8EFEF145D2B232D910F80EE072444D
:104D100001F1030E5FFA8EFEF145D2B228D910F8E8
:104D20000EE0724401F1040E5FFA8EFEF145D2B23C
:104D30001ED910F80EE0724401F1050E5FFA8EFEE6
:104D4000F145D2B214D910F80EE0724401F1060E0A
:104D50005FFA8EFEF145D2B20AD910F80EE00731A3
:104D6000C9B272448945D2B202D9415C0A44D2B276
:104D700093457FF46CAFFFF751FE4FF000032370B3
:104D800052E74A46F4E700221146AAE7C420002071
:104D90007820002010B582B00024012168460094DC
:104DA00002F0C4FD094B01940246012101A81A60DA
:104DB00002F0BCFD064B2146186002F0CDFDFFF766
:104DC00015FEFFF7A5FA02B010BD00BFC4200020F9
:104DD000C0200020014B1860704700BF980B0020D6
:104DE00030B4027A6AB30268A2B1437A012B6FD061
:104DF000022B50D0002B58D003240123817A0029A4
:104E000079D002296FD0032900F09E80012900F09B
:104E10009180224643688BB1417A01294FD0022903
:104E200031D021B342F00402817A39B1022978D01D
:104E300003296ED0012963D042F00502104630BC30
:104E40007047434B05681C6824EA05041C605968D8
:104E500021EA0501596040681C6A24EA00041C62CA
:104E6000596A21EA000130BC10465962704701F1CD
:104E7000804101F582314C6A24EA03044C620C6AD9
:104E80001C430C62D0E732490C6A1C430C624C6A2A
:104E90001C434C62C8E72E491C460B6813430B6049
:104EA0004B6813434B600023A8E729494C6824EA68
:104EB00002044C600C6814430C6002249EE72449F1
:104EC0000C6A24EA03040C624C6A1C434C62ABE794
:104ED0001F4B196821EA0201196059681143596092
:104EE000022400238AE71A498C6824EA02048C60B1
:104EF000CC682243CA601A464368002B9ED08BE7D9
:104F00001349C86A20EA0300C862886A03438B62B7
:104F100094E70F49886A18438862C86A0343CB62E2
:104F20008CE70B49886A20EA03008862C86A034359
:104F3000CB6283E70649CC6824EA0204CC608C6823
:104F400022438A601A4665E701498C681443CEE71C
:104F5000000401402DE9F04F0D6895FAA5F2B2FA70
:104F600082F235FA02F300F0A2804FF0010C4FF00C
:104F7000030EEE4341E0D1F81090D0F80CA093FA64
:104F8000A3F8B8F1000F07D0B8FA88F84FEA48083C
:104F90000EFA08F82AEA080A93FAA3F8B8F1000F03
:104FA00000F08A80B8FA88F84FEA480809FA08F849
:104FB00048EA0A0A022CC0F80CA054D0D0F80080AD
:104FC00093FAA3F9B9F1000F07D0B9FA89F94FEABA
:104FD00049090EFA09F928EA090893FAA3F3002B04
:104FE00068D0B3FA83F35B0004FA03F343EA0803DF
:104FF0000360013235FA02F359D00CFA02F32B4068
:10500000F7D04C6804F1FF38B8F1010FB3D8D1F8EC
:105010000890D0F808A093FAA3F8B8F1000F07D0D1
:10502000B8FA88F84FEA48080EFA08F82AEA080A97
:1050300093FAA3F8B8F1000F63D0B8FA88F84FEAF2
:10504000480809FA08F848EA0A0AC0F808A0D0F89F
:105050000480CF6806EA080807FB05F948EA090852
:10506000C0F8048087E7FF2BD1F8149027D8D0F838
:1050700020A093FAA3F8B8F1000F08D0B8FA88F886
:105080004FEA88080F2707FA08F82AEA080A93FA6D
:10509000A3F8B8F1000F3AD0B8FA88F84FEA8808B8
:1050A00009FA08F848EA0A0AC0F820A086E70020B2
:1050B000BDE8F08F402397E74FF0400876E7D0F83F
:1050C00024A04FEA132898FAA8FBBBF1000F08D0E0
:1050D000BBFA8BFB4FEA8B0B0F2707FA0BFB2AEA75
:1050E0000B0A98FAA8F8B8F1000F0DD0B8FA88F8B2
:1050F0004FEA880809FA08F848EA0A0AC0F824A022
:105100005CE74FF040089CE74FF08008F2E74FF073
:105110008008C5E7124B4FF0A04292689B6813438A
:1051200013F001030CD130B44C68024654B98068C6
:105130000C4B096803400B432046936030BC70471A
:105140000120704785681846064B2B4023430C68A6
:105150002343D1E9024123430B4330BC93607047A2
:1051600000010050E030C0FF836813F0010312D14A
:105170000246C06810B420F4404C1846D1E9004300
:10518000896823432CF0180C0B4343EA0C035DF8A9
:10519000044BD36070470120704700BF8268D3077B
:1051A00018D430B44C680346B4B9C26812481040F1
:1051B0000A681043CA681043D1E9045240EA050165
:1051C0001143D9601A6B22F00F022243002030BC39
:1051D0001A63704701207047C068074A0240086898
:1051E000024388680243C8680243D1E904010243CC
:1051F0000A43DA60E6E700BF1CC0F0FF8368DB0704
:1052000015D410B44C68A4B9C368CA6823F00473F9
:105210001343C360C36C096823F4FF7323F00103D5
:1052200023430B43C3645DF8044B00207047012007
:105230007047C2688B6822F004721A43CB681A4325
:10524000C260E7E70A4A136843F4807310B503208D
:10525000136000F05DF80020FFF710F810B1012492
:10526000204610BD0446FEF7E7FF204610BD00BFF4
:1052700000200240034A0449136809680B44136084
:10528000704700BFC8200020900B0020014B186819
:10529000704700BF980B0020054B064A9B680649E3
:1052A000C3F302230868D35C03F01F03D8407047A0
:1052B000001002401CCD0008980B00200E4B0F225E
:1052C00002609A6802F0030242609A6802F0F002FB
:1052D00082609A6802F4E062C2609B68DB0810B4E6
:1052E00003F4E063054C036123685DF8044B03F0AD
:1052F0000F030B60704700BF001002400020024007
:10530000024A936843F48043936070470070004002
:105310000749CA6803024FF6FF0003F4E063024046
:10532000134343F0BF6343F40033CB60704700BFC7
:1053300000ED00E01C4BDB68C3F3022300B5C3F1B2
:10534000070EBEF1040F03F1040C28BF4FF0040E4A
:10535000BCF1060F1BD9033B4FF0FF3C0CFA03FCDA
:1053600022EA0C024FF0FF3C0CFA0EFC21EA0C0181
:105370009940002841EA02010CDB00F1604009017C
:1053800000F56140C9B280F800135DF804FB00220B
:105390001346E7E7054B00F00F0009010344C9B2CB
:1053A00019765DF804FB00BF00ED00E0FCEC00E0C6
:1053B000002808DB044A4109012300F01F0003FA1A
:1053C00000F042F82100704700E100E0BFF34F8F8A
:1053D0000549064BCA6802F4E0621343CB60BFF391
:1053E0004F8F00BFFDE700BF00ED00E00400FA05AD
:1053F0000138B0F1807F10D210B44FF0E023084C98
:1054000058614FF0F00C84F823C0002207211046A9
:105410009A615DF8044B196170470120704700BF25
:1054200000ED00E00368002B12DB10B4D1E900347A
:105430008A6823431343D1E9032104681343054ACF
:105440000B432240134303605DF8044B0020704778
:10545000012070470F7E00FF234A936803F00C037E
:10546000082B10B43DD00C2B39D1D1681F4B204CE8
:1054700001F00301032918BF1C46D368D168D26824
:10548000C2F34162C3F30623C1F30311013204FBEB
:1054900003F301315200B3FBF1F3B3FBF2F3124912
:1054A00003608A68134CC2F30312A25C124C02F030
:1054B0001F02D34043608A68C2F30222A25C02F05A
:1054C0001F0223FA02F282608A68C2F3C222A25C3F
:1054D0005DF8044B02F01F02D340C3607047034BDA
:1054E000DDE7034BDBE700BF001002400024F400BF
:1054F00000127A000CCD00081CCD0008032830B43F
:1055000034D00C2805D0302800F08C80002030BC2E
:1055100070477D4A7D49D2F8883003F00C0343F48C
:1055200040238B4276D0B3F10C1F4BD004398B4211
:10553000936803F00C034ED0082B00F0E3800C2B93
:1055400000F0C580724B704972488A688968C2F35E
:105550000312C1F30221825C6F48405C02F01F021B
:10556000D34000F01F0023FA00F0D0E7664A6B49F1
:10557000D2F8883003F0030343F440338B4249D020
:10558000B3F1031F1ED001398B42936803F00C0363
:1055900021D0082B00F099800C2B7AD05C4B5A4A12
:1055A0005C4891689268C1F30311C2F3C222405C67
:1055B00059498A5C00F01F0023FA00F002F01F0333
:1055C000D840A4E7D2F8900010F0020018BF4FF4C2
:1055D000004030BC7047082B59D00C2B55D1D568F2
:1055E000D068D168D3684A4CC1F303124C4905F026
:1055F0000305C3F34163C0F306200133032D18BF35
:10560000214601325B0001FB00F0B0FBF2F0B0FB81
:10561000F3F07CE710683E4B10F4806018BF18462A
:1056200030BC7047384A3F49D2F8883003F0300325
:1056300043F440138B42EDD0B3F1301FC2D0103988
:105640008B42936803F00C03C5D0082B5AD00C2B67
:105650007FF478AFD468D368D168D2682C48304DD5
:1056600004F00304C2F34162C3F30623C1F3031140
:105670000132032C08BF28460131520000FB03F31E
:10568000B3FBF1F3B3FBF2F35DE721483FE72448B6
:105690003DE7D568D368D168D0681D4CC1F30312CB
:1056A0001F4905F0030CC0F34160C3F3062301302A
:1056B000BCF1030F18BF21460132400001FB03F388
:1056C000B3FBF2F3B3FBF0F369E7154B67E7D5687B
:1056D000D368D168D0680E4CC1F30312104905F0AD
:1056E0000305C0F34160C3F306230130032D18BF47
:1056F00021460132400001FB03F3B3FBF2F3B3FB9D
:10570000F0F320E7064B1EE70010024008000C00F3
:105710000024F4000CCD00081CCD0008020003009A
:1057200000127A0020003000C02801D0002070470D
:105730003E4A3F49D2F8883003F0C00343F44003A7
:105740008B4221D0B3F1C01F2CD040398B429368DB
:1057500030B403F00C031ED0082B62D00C2B44D0C5
:10576000344B324A344891689268C1F30311C2F352
:105770000222405C31498A5C00F01F0023FA00F0ED
:1057800002F01F03D8400BE010682A4B10F4806031
:1057900018BF18467047082B45D00C2B0AD0254857
:1057A00030BC7047D2F8900010F0020018BF4FF4E0
:1057B00000407047D568D068D168D3681D4CC1F3EC
:1057C00003121F4905F00305C3F34163C0F306202C
:1057D0000133032D18BF214601325B0001FB00F0AD
:1057E000B0FBF2F0B0FBF3F0DAE7D568D368D1682C
:1057F000D068104CC1F30312114905F0030CC0F33B
:105800004160C3F306230130BCF1030F18BF2146EA
:105810000132400001FB03F3B3FBF2F3B3FBF0F3FF
:105820009FE7074B9DE70648BAE700BF001002401C
:105830008000C0000024F4000CCD00081CCD00083E
:1058400000127A0010B501F0100C0468012303FA6D
:105850000CFE3EEA04042FD093688BB1C02B2DD0F0
:10586000146801682343D468234340F6FC7404FAA7
:105870000CF403FA0CF321EA04010B4303600AE081
:105880000368FC2101FA0CF123EA0103116801FA13
:105890000CF10B430360D2E904349169C26B2343DA
:1058A0000B43072101FA0CF103FA0CF322EA01027F
:1058B0001343C363002010BD184610BD046803FAEB
:1058C0000CF3234303605368046E4FEA930E13688E
:1058D0009B0843EA0E2340F60F7E49090EFA0CFEA0
:1058E00001F0040103FA0CF324EA0E0423430144FB
:1058F0000366D3688B65CEE7036823F0010310B419
:105900000360D1E90234026843EA042322F4F85226
:105910004C6813430360046103680C6943F001039E
:105920000360836823F40043836082688B6922F4F8
:10593000FF62234322F00702134383601CB1836894
:1059400043F40043836003680A685DF8044B23F462
:1059500040131343036043684A6923F4004313432D
:1059600043600020704700BF0368002B23DB10B4A6
:105970004C680368602C0FD023F4C1230A6823F01D
:10598000EC0323431343D1E902422343134303604F
:105990005DF8044B002070478C680A6823F4C1232B
:1059A00023F0EC032343134343F0600303605DF8EB
:1059B000044B002070470120704700BF002800F012
:1059C000898010B590F83D30044603F0FF02002BAB
:1059D00075D023684049022284F83D208B421A6822
:1059E00059D0B3F1804F21D0A1F594318B421DD015
:1059F00001F580618B4219D001F596318B424AD076
:105A000001F540618B425FD001F580618B425BD034
:105A100001F580618B4257D0A069E16822F08002D5
:105A200002431A606268D9629A6210E0A168206934
:105A300022F070020A4322F44072A169024322F06C
:105A40008002E0680A4361681A60D86299620122A4
:105A50005A611A69D20703D51A6922F001021A6144
:105A6000012384F8483084F83E3084F83F3084F8CD
:105A7000403084F8413084F8423084F8433084F870
:105A8000443084F8453084F8463084F8473084F850
:105A90003D30002010BDA068216922F07002024351
:105AA00022F440720A43A16922F080020A431A607C
:105AB000E268DA6262689A6262691A63C7E780F82C
:105AC0003C20FEF7F5FC84E72069A16922F44072CE
:105AD0000243E9E701207047002C014090F83D3077
